{
  "contractName": "AEnvStorage",
  "abi": [
    {
      "constant": true,
      "inputs": [],
      "name": "STAKING_NAME",
      "outputs": [
        {
          "name": "",
          "type": "bytes32"
        }
      ],
      "payable": false,
      "stateMutability": "view",
      "type": "function"
    },
    {
      "constant": true,
      "inputs": [
        {
          "name": "h",
          "type": "bytes32"
        }
      ],
      "name": "getAddress",
      "outputs": [
        {
          "name": "",
          "type": "address"
        }
      ],
      "payable": false,
      "stateMutability": "view",
      "type": "function"
    },
    {
      "constant": true,
      "inputs": [],
      "name": "REWARD_POOL_NAME",
      "outputs": [
        {
          "name": "",
          "type": "bytes32"
        }
      ],
      "payable": false,
      "stateMutability": "view",
      "type": "function"
    },
    {
      "constant": true,
      "inputs": [
        {
          "name": "h",
          "type": "bytes32"
        }
      ],
      "name": "getBoolean",
      "outputs": [
        {
          "name": "",
          "type": "bool"
        }
      ],
      "payable": false,
      "stateMutability": "view",
      "type": "function"
    },
    {
      "constant": true,
      "inputs": [],
      "name": "GOV_NAME",
      "outputs": [
        {
          "name": "",
          "type": "bytes32"
        }
      ],
      "payable": false,
      "stateMutability": "view",
      "type": "function"
    },
    {
      "constant": false,
      "inputs": [],
      "name": "renounceOwnership",
      "outputs": [],
      "payable": false,
      "stateMutability": "nonpayable",
      "type": "function"
    },
    {
      "constant": true,
      "inputs": [],
      "name": "reg",
      "outputs": [
        {
          "name": "",
          "type": "address"
        }
      ],
      "payable": false,
      "stateMutability": "view",
      "type": "function"
    },
    {
      "constant": true,
      "inputs": [],
      "name": "ENV_STORAGE_NAME",
      "outputs": [
        {
          "name": "",
          "type": "bytes32"
        }
      ],
      "payable": false,
      "stateMutability": "view",
      "type": "function"
    },
    {
      "constant": true,
      "inputs": [],
      "name": "owner",
      "outputs": [
        {
          "name": "",
          "type": "address"
        }
      ],
      "payable": false,
      "stateMutability": "view",
      "type": "function"
    },
    {
      "constant": true,
      "inputs": [],
      "name": "isOwner",
      "outputs": [
        {
          "name": "",
          "type": "bool"
        }
      ],
      "payable": false,
      "stateMutability": "view",
      "type": "function"
    },
    {
      "constant": true,
      "inputs": [
        {
          "name": "h",
          "type": "bytes32"
        }
      ],
      "name": "getString",
      "outputs": [
        {
          "name": "",
          "type": "string"
        }
      ],
      "payable": false,
      "stateMutability": "view",
      "type": "function"
    },
    {
      "constant": true,
      "inputs": [],
      "name": "BALLOT_STORAGE_NAME",
      "outputs": [
        {
          "name": "",
          "type": "bytes32"
        }
      ],
      "payable": false,
      "stateMutability": "view",
      "type": "function"
    },
    {
      "constant": true,
      "inputs": [
        {
          "name": "h",
          "type": "bytes32"
        }
      ],
      "name": "getBytes32",
      "outputs": [
        {
          "name": "",
          "type": "bytes32"
        }
      ],
      "payable": false,
      "stateMutability": "view",
      "type": "function"
    },
    {
      "constant": false,
      "inputs": [
        {
          "name": "_addr",
          "type": "address"
        }
      ],
      "name": "setRegistry",
      "outputs": [],
      "payable": false,
      "stateMutability": "nonpayable",
      "type": "function"
    },
    {
      "constant": true,
      "inputs": [
        {
          "name": "h",
          "type": "bytes32"
        }
      ],
      "name": "getUint",
      "outputs": [
        {
          "name": "",
          "type": "uint256"
        }
      ],
      "payable": false,
      "stateMutability": "view",
      "type": "function"
    },
    {
      "constant": true,
      "inputs": [
        {
          "name": "h",
          "type": "bytes32"
        }
      ],
      "name": "getBytes",
      "outputs": [
        {
          "name": "",
          "type": "bytes"
        }
      ],
      "payable": false,
      "stateMutability": "view",
      "type": "function"
    },
    {
      "constant": true,
      "inputs": [
        {
          "name": "h",
          "type": "bytes32"
        }
      ],
      "name": "getInt",
      "outputs": [
        {
          "name": "",
          "type": "int256"
        }
      ],
      "payable": false,
      "stateMutability": "view",
      "type": "function"
    },
    {
      "constant": false,
      "inputs": [
        {
          "name": "newOwner",
          "type": "address"
        }
      ],
      "name": "transferOwnership",
      "outputs": [],
      "payable": false,
      "stateMutability": "nonpayable",
      "type": "function"
    },
    {
      "anonymous": false,
      "inputs": [
        {
          "indexed": true,
          "name": "_name",
          "type": "bytes32"
        },
        {
          "indexed": false,
          "name": "_value",
          "type": "string"
        }
      ],
      "name": "StringVarableChanged",
      "type": "event"
    },
    {
      "anonymous": false,
      "inputs": [
        {
          "indexed": true,
          "name": "_name",
          "type": "bytes32"
        },
        {
          "indexed": false,
          "name": "_value",
          "type": "uint256"
        }
      ],
      "name": "UintVarableChanged",
      "type": "event"
    },
    {
      "anonymous": false,
      "inputs": [
        {
          "indexed": true,
          "name": "_name",
          "type": "bytes32"
        },
        {
          "indexed": false,
          "name": "_value",
          "type": "int256"
        }
      ],
      "name": "IntVarableChanged",
      "type": "event"
    },
    {
      "anonymous": false,
      "inputs": [
        {
          "indexed": true,
          "name": "_name",
          "type": "bytes32"
        },
        {
          "indexed": false,
          "name": "_value",
          "type": "address"
        }
      ],
      "name": "AddressVarableChanged",
      "type": "event"
    },
    {
      "anonymous": false,
      "inputs": [
        {
          "indexed": true,
          "name": "_name",
          "type": "bytes32"
        },
        {
          "indexed": false,
          "name": "_value",
          "type": "bytes32"
        }
      ],
      "name": "Bytes32VarableChanged",
      "type": "event"
    },
    {
      "anonymous": false,
      "inputs": [
        {
          "indexed": true,
          "name": "_name",
          "type": "bytes32"
        },
        {
          "indexed": false,
          "name": "_value",
          "type": "bytes"
        }
      ],
      "name": "BytesVarableChanged",
      "type": "event"
    },
    {
      "anonymous": false,
      "inputs": [
        {
          "indexed": true,
          "name": "_name",
          "type": "bytes32"
        },
        {
          "indexed": true,
          "name": "_type",
          "type": "uint256"
        },
        {
          "indexed": false,
          "name": "_value",
          "type": "string"
        }
      ],
      "name": "VarableChanged",
      "type": "event"
    },
    {
      "anonymous": false,
      "inputs": [
        {
          "indexed": true,
          "name": "previousOwner",
          "type": "address"
        },
        {
          "indexed": true,
          "name": "newOwner",
          "type": "address"
        }
      ],
      "name": "OwnershipTransferred",
      "type": "event"
    }
  ],
  "bytecode": "0x608060405233600760006101000a81548173ffffffffffffffffffffffffffffffffffffffff021916908373ffffffffffffffffffffffffffffffffffffffff160217905550600760009054906101000a900473ffffffffffffffffffffffffffffffffffffffff1673ffffffffffffffffffffffffffffffffffffffff16600073ffffffffffffffffffffffffffffffffffffffff167f8be0079c531659141344cd1fd0a4f28419497f9722a3daafe3b4186f6b6457e060405160405180910390a3610c9d806100d16000396000f3006080604052600436106100fc576000357c0100000000000000000000000000000000000000000000000000000000900463ffffffff1680631e0cba0d1461010157806321f8a721146101345780632f40992e146101a55780633848207a146101d85780636c78d2cf14610221578063715018a614610254578063738fdd1a1461026b5780637bf46530146102c25780638da5cb5b146102f55780638f32d59b1461034c578063986e791a1461037b5780639986e4b914610425578063a6ed563e14610458578063a91ee0dc146104a5578063bd02d0f5146104e8578063c031a1801461052d578063dc97d962146105d7578063f2fde38b1461061c575b600080fd5b34801561010d57600080fd5b5061011661065f565b60405180826000191660001916815260200191505060405180910390f35b34801561014057600080fd5b506101636004803603810190808035600019169060200190929190505050610683565b604051808273ffffffffffffffffffffffffffffffffffffffff1673ffffffffffffffffffffffffffffffffffffffff16815260200191505060405180910390f35b3480156101b157600080fd5b506101ba6106ca565b60405180826000191660001916815260200191505060405180910390f35b3480156101e457600080fd5b5061020760048036038101908080356000191690602001909291905050506106ee565b604051808215151515815260200191505060405180910390f35b34801561022d57600080fd5b50610236610722565b60405180826000191660001916815260200191505060405180910390f35b34801561026057600080fd5b50610269610746565b005b34801561027757600080fd5b5061028061081a565b604051808273ffffffffffffffffffffffffffffffffffffffff1673ffffffffffffffffffffffffffffffffffffffff16815260200191505060405180910390f35b3480156102ce57600080fd5b506102d7610840565b60405180826000191660001916815260200191505060405180910390f35b34801561030157600080fd5b5061030a610864565b604051808273ffffffffffffffffffffffffffffffffffffffff1673ffffffffffffffffffffffffffffffffffffffff16815260200191505060405180910390f35b34801561035857600080fd5b5061036161088e565b604051808215151515815260200191505060405180910390f35b34801561038757600080fd5b506103aa60048036038101908080356000191690602001909291905050506108e6565b6040518080602001828103825283818151815260200191508051906020019080838360005b838110156103ea5780820151818401526020810190506103cf565b50505050905090810190601f1680156104175780820380516001836020036101000a031916815260200191505b509250505060405180910390f35b34801561043157600080fd5b5061043a6109a6565b60405180826000191660001916815260200191505060405180910390f35b34801561046457600080fd5b5061048760048036038101908080356000191690602001909291905050506109ca565b60405180826000191660001916815260200191505060405180910390f35b3480156104b157600080fd5b506104e6600480360381019080803573ffffffffffffffffffffffffffffffffffffffff1690602001909291905050506109f1565b005b3480156104f457600080fd5b506105176004803603810190808035600019169060200190929190505050610a48565b6040518082815260200191505060405180910390f35b34801561053957600080fd5b5061055c6004803603810190808035600019169060200190929190505050610a6f565b6040518080602001828103825283818151815260200191508051906020019080838360005b8381101561059c578082015181840152602081019050610581565b50505050905090810190601f1680156105c95780820380516001836020036101000a031916815260200191505b509250505060405180910390f35b3480156105e357600080fd5b506106066004803603810190808035600019169060200190929190505050610b2f565b6040518082815260200191505060405180910390f35b34801561062857600080fd5b5061065d600480360381019080803573ffffffffffffffffffffffffffffffffffffffff169060200190929190505050610b56565b005b7f5374616b696e670000000000000000000000000000000000000000000000000081565b6000806004016000836000191660001916815260200190815260200160002060009054906101000a900473ffffffffffffffffffffffffffffffffffffffff169050919050565b7f526577617264506f6f6c0000000000000000000000000000000000000000000081565b6000806000016000836000191660001916815260200190815260200160002060009054906101000a900460ff169050919050565b7f476f7665726e616e6365436f6e7472616374000000000000000000000000000081565b61074e61088e565b151561075957600080fd5b600073ffffffffffffffffffffffffffffffffffffffff16600760009054906101000a900473ffffffffffffffffffffffffffffffffffffffff1673ffffffffffffffffffffffffffffffffffffffff167f8be0079c531659141344cd1fd0a4f28419497f9722a3daafe3b4186f6b6457e060405160405180910390a36000600760006101000a81548173ffffffffffffffffffffffffffffffffffffffff021916908373ffffffffffffffffffffffffffffffffffffffff160217905550565b600860009054906101000a900473ffffffffffffffffffffffffffffffffffffffff1681565b7f456e7653746f726167650000000000000000000000000000000000000000000081565b6000600760009054906101000a900473ffffffffffffffffffffffffffffffffffffffff16905090565b6000600760009054906101000a900473ffffffffffffffffffffffffffffffffffffffff1673ffffffffffffffffffffffffffffffffffffffff163373ffffffffffffffffffffffffffffffffffffffff1614905090565b60606000600301600083600019166000191681526020019081526020016000208054600181600116156101000203166002900480601f01602080910402602001604051908101604052809291908181526020018280546001816001161561010002031660029004801561099a5780601f1061096f5761010080835404028352916020019161099a565b820191906000526020600020905b81548152906001019060200180831161097d57829003601f168201915b50505050509050919050565b7f42616c6c6f7453746f726167650000000000000000000000000000000000000081565b60008060060160008360001916600019168152602001908152602001600020549050919050565b6109f961088e565b1515610a0457600080fd5b80600860006101000a81548173ffffffffffffffffffffffffffffffffffffffff021916908373ffffffffffffffffffffffffffffffffffffffff16021790555050565b60008060020160008360001916600019168152602001908152602001600020549050919050565b60606000600501600083600019166000191681526020019081526020016000208054600181600116156101000203166002900480601f016020809104026020016040519081016040528092919081815260200182805460018160011615610100020316600290048015610b235780601f10610af857610100808354040283529160200191610b23565b820191906000526020600020905b815481529060010190602001808311610b0657829003601f168201915b50505050509050919050565b60008060010160008360001916600019168152602001908152602001600020549050919050565b610b5e61088e565b1515610b6957600080fd5b610b7281610b75565b50565b600073ffffffffffffffffffffffffffffffffffffffff168173ffffffffffffffffffffffffffffffffffffffff1614151515610bb157600080fd5b8073ffffffffffffffffffffffffffffffffffffffff16600760009054906101000a900473ffffffffffffffffffffffffffffffffffffffff1673ffffffffffffffffffffffffffffffffffffffff167f8be0079c531659141344cd1fd0a4f28419497f9722a3daafe3b4186f6b6457e060405160405180910390a380600760006101000a81548173ffffffffffffffffffffffffffffffffffffffff021916908373ffffffffffffffffffffffffffffffffffffffff160217905550505600a165627a7a723058204b8f442191e71be13197f8793f2118aa4a5f7be480fdcb8291cdffffbfad576a0029",
  "source": "pragma solidity ^0.4.24;\n\nimport \"../GovChecker.sol\";\nimport \"./EternalStorage.sol\";\n\ncontract AEnvStorage is EternalStorage, GovChecker {\n    // struct Variable {\n    //     bytes32 _name;\n    //     uint256 _type;\n    //     string _value;\n    // }\n   \n    event StringVarableChanged ( \n        bytes32 indexed _name,\n        string _value\n    );\n\n    event UintVarableChanged ( \n        bytes32 indexed _name,\n        uint _value\n    );\n\n    event IntVarableChanged ( \n        bytes32 indexed _name,\n        int _value\n    );\n\n    event AddressVarableChanged ( \n        bytes32 indexed _name,\n        address _value\n    );\n\n    event Bytes32VarableChanged ( \n        bytes32 indexed _name,\n        bytes32 _value\n    );\n\n    event BytesVarableChanged ( \n        bytes32 indexed _name,\n        bytes _value\n    );\n\n    event VarableChanged ( \n        bytes32 indexed _name,\n        uint256 indexed _type,\n        string _value\n    );\n   \n    /**\n    * @dev Allows the owner to set a value for a int variable.\n    * @param h The keccak256 hash of the variable name\n    * @param v The value to be stored\n    */\n    function setInt(bytes32 h, int256 v) internal {\n        _setInt(h, v);\n        emit IntVarableChanged(h, v);\n    }\n\n    /**\n    * @dev Allows the owner to set a value for a boolean variable.\n    * @param h The keccak256 hash of the variable name\n    * @param v The value to be stored\n    */\n    function setUint(bytes32 h, uint256 v) internal {\n        _setUint(h, v);\n        emit UintVarableChanged(h, v);\n    }\n\n    /**\n    * @dev Allows the owner to set a value for a address variable.\n    * @param h The keccak256 hash of the variable name\n    * @param v The value to be stored\n    */\n    function setAddress(bytes32 h, address v) internal {\n        _setAddress(h, v);\n        emit AddressVarableChanged(h, v);\n    }\n\n    /**\n    * @dev Allows the owner to set a value for a string variable.\n    * @param h The keccak256 hash of the variable name\n    * @param v The value to be stored\n    */\n    function setString(bytes32 h, string v) internal  {\n        _setString(h, v);\n        emit StringVarableChanged(h, v);\n    }\n\n    /**\n    * @dev Allows the owner to set a value for a bytes variable.\n    * @param h The keccak256 hash of the variable name\n    * @param v The value to be stored\n    */\n    function setBytes(bytes32 h, bytes v) internal {\n        _setBytes(h, v);\n        emit BytesVarableChanged(h, v);\n    }\n\n    /**\n    * @dev Allows the owner to set a value for a bytes32 variable.\n    * @param h The keccak256 hash of the variable name\n    * @param v The value to be stored\n    */\n    function setBytes32(bytes32 h, bytes32 v) internal {\n        _setBytes32(h, v);\n        emit Bytes32VarableChanged(h, v);\n    }\n\n    // mapping(bytes32 => Variable) internal s;\n\n    // /**\n    // * @dev Add a new variable .\n    // * @param _h The keccak256 hash of the variable name\n    // * @param _t The type of value\n    // * @param _v The value to be stored\n    // */\n    // function _add(bytes32 _h, uint256 _t, string _v) internal  {\n    //     require(s[_h]._name == \"\",\"not found\");\n    //     s[_h] = Variable(_h,_t,_v);\n    //     emit VarableAdded(_h,_t,_v);\n    // }\n    // /**\n    // * @dev Update a new variable .\n    // * @param _h The keccak256 hash of the variable name\n    // * @param _t The type of value\n    // * @param _v The value to be stored\n    // */\n    // function _change(bytes32 _h, uint256 _t, string _v) internal {\n    //     require(s[_h]._name == _h,\"not found\");\n    //     Variable storage v = s[_h];\n    //     v._name = _h;\n    //     v._type = _t;\n    //     v._value = _v;\n    //     emit VarableChanged(_h,_t,_v);\n\n    // }\n    // /**\n    // * @dev Get the type & value stored of a string variable by the hash name\n    // * @param _h The keccak256 hash of the variable name\n    // */\n    // function get(bytes32 _h) public view returns (uint256 varType, string varVal){\n    //     //require(s[_h]._name == _h,\"not found\");\n    //     return (s[_h]._type, s[_h]._value);\n    // }\n    // /**\n    // * @dev Get the type stored of a string variable by the hash name\n    // * @param _h The keccak256 hash of the variable name\n    // */\n    // function getType(bytes32 _h) public view returns (uint256){\n    //     require(s[_h]._name == _h,\"not found\");\n    //     return s[_h]._type;\n    // }\n    // /**\n    // * @dev Get the value stored of a string variable by the hash name\n    // * @param _h The keccak256 hash of the variable name\n    // */\n    // function getValue(bytes32 _h) public view returns (string){\n    //     require(s[_h]._name == _h,\"not found\");\n    //     return s[_h]._value;\n    // }\n}",
  "sourcePath": "/Users/ywshin/Documents/WS/truffle/governance-contract-blueisle/contracts/storage/AEnvStorage.sol",
  "compiler": {
    "name": "solc",
    "version": "0.4.24+commit.e67f0147.Emscripten.clang"
  },
  "schemaVersion": "2.0.1",
  "updatedAt": "2019-02-15T07:13:17.629Z"
}