{
  "contractName": "BallotStorage",
  "abi": [
    {
      "constant": true,
      "inputs": [],
      "name": "STAKING_NAME",
      "outputs": [
        {
          "name": "",
          "type": "bytes32"
        }
      ],
      "payable": false,
      "stateMutability": "view",
      "type": "function"
    },
    {
      "constant": true,
      "inputs": [],
      "name": "REWARD_POOL_NAME",
      "outputs": [
        {
          "name": "",
          "type": "bytes32"
        }
      ],
      "payable": false,
      "stateMutability": "view",
      "type": "function"
    },
    {
      "constant": true,
      "inputs": [],
      "name": "GOV_NAME",
      "outputs": [
        {
          "name": "",
          "type": "bytes32"
        }
      ],
      "payable": false,
      "stateMutability": "view",
      "type": "function"
    },
    {
      "constant": false,
      "inputs": [],
      "name": "renounceOwnership",
      "outputs": [],
      "payable": false,
      "stateMutability": "nonpayable",
      "type": "function"
    },
    {
      "constant": true,
      "inputs": [],
      "name": "reg",
      "outputs": [
        {
          "name": "",
          "type": "address"
        }
      ],
      "payable": false,
      "stateMutability": "view",
      "type": "function"
    },
    {
      "constant": true,
      "inputs": [],
      "name": "ENV_STORAGE_NAME",
      "outputs": [
        {
          "name": "",
          "type": "bytes32"
        }
      ],
      "payable": false,
      "stateMutability": "view",
      "type": "function"
    },
    {
      "constant": true,
      "inputs": [],
      "name": "owner",
      "outputs": [
        {
          "name": "",
          "type": "address"
        }
      ],
      "payable": false,
      "stateMutability": "view",
      "type": "function"
    },
    {
      "constant": true,
      "inputs": [],
      "name": "isOwner",
      "outputs": [
        {
          "name": "",
          "type": "bool"
        }
      ],
      "payable": false,
      "stateMutability": "view",
      "type": "function"
    },
    {
      "constant": true,
      "inputs": [],
      "name": "BALLOT_STORAGE_NAME",
      "outputs": [
        {
          "name": "",
          "type": "bytes32"
        }
      ],
      "payable": false,
      "stateMutability": "view",
      "type": "function"
    },
    {
      "constant": false,
      "inputs": [
        {
          "name": "_addr",
          "type": "address"
        }
      ],
      "name": "setRegistry",
      "outputs": [],
      "payable": false,
      "stateMutability": "nonpayable",
      "type": "function"
    },
    {
      "constant": false,
      "inputs": [
        {
          "name": "newOwner",
          "type": "address"
        }
      ],
      "name": "transferOwnership",
      "outputs": [],
      "payable": false,
      "stateMutability": "nonpayable",
      "type": "function"
    },
    {
      "inputs": [
        {
          "name": "_registry",
          "type": "address"
        }
      ],
      "payable": false,
      "stateMutability": "nonpayable",
      "type": "constructor"
    },
    {
      "anonymous": false,
      "inputs": [
        {
          "indexed": true,
          "name": "ballotId",
          "type": "uint256"
        },
        {
          "indexed": true,
          "name": "ballotType",
          "type": "uint256"
        },
        {
          "indexed": true,
          "name": "creator",
          "type": "address"
        }
      ],
      "name": "BallotCreated",
      "type": "event"
    },
    {
      "anonymous": false,
      "inputs": [
        {
          "indexed": true,
          "name": "ballotId",
          "type": "uint256"
        },
        {
          "indexed": true,
          "name": "startTime",
          "type": "uint256"
        },
        {
          "indexed": true,
          "name": "endTime",
          "type": "uint256"
        }
      ],
      "name": "BallotStarted",
      "type": "event"
    },
    {
      "anonymous": false,
      "inputs": [
        {
          "indexed": true,
          "name": "voteid",
          "type": "uint256"
        },
        {
          "indexed": true,
          "name": "ballotId",
          "type": "uint256"
        },
        {
          "indexed": true,
          "name": "voter",
          "type": "address"
        },
        {
          "indexed": false,
          "name": "decision",
          "type": "uint256"
        }
      ],
      "name": "Voted",
      "type": "event"
    },
    {
      "anonymous": false,
      "inputs": [
        {
          "indexed": true,
          "name": "ballotId",
          "type": "uint256"
        },
        {
          "indexed": false,
          "name": "state",
          "type": "uint256"
        }
      ],
      "name": "BallotFinalized",
      "type": "event"
    },
    {
      "anonymous": false,
      "inputs": [
        {
          "indexed": true,
          "name": "ballotId",
          "type": "uint256"
        }
      ],
      "name": "BallotCanceled",
      "type": "event"
    },
    {
      "anonymous": false,
      "inputs": [
        {
          "indexed": true,
          "name": "previousOwner",
          "type": "address"
        },
        {
          "indexed": true,
          "name": "newOwner",
          "type": "address"
        }
      ],
      "name": "OwnershipTransferred",
      "type": "event"
    },
    {
      "constant": true,
      "inputs": [],
      "name": "getMinVotingDuration",
      "outputs": [
        {
          "name": "",
          "type": "uint256"
        }
      ],
      "payable": false,
      "stateMutability": "view",
      "type": "function"
    },
    {
      "constant": true,
      "inputs": [],
      "name": "getMaxVotingDuration",
      "outputs": [
        {
          "name": "",
          "type": "uint256"
        }
      ],
      "payable": false,
      "stateMutability": "view",
      "type": "function"
    },
    {
      "constant": true,
      "inputs": [],
      "name": "getTime",
      "outputs": [
        {
          "name": "",
          "type": "uint256"
        }
      ],
      "payable": false,
      "stateMutability": "view",
      "type": "function"
    },
    {
      "constant": true,
      "inputs": [],
      "name": "getPreviousBallotStorage",
      "outputs": [
        {
          "name": "",
          "type": "address"
        }
      ],
      "payable": false,
      "stateMutability": "view",
      "type": "function"
    },
    {
      "constant": true,
      "inputs": [],
      "name": "isDisabled",
      "outputs": [
        {
          "name": "",
          "type": "bool"
        }
      ],
      "payable": false,
      "stateMutability": "view",
      "type": "function"
    },
    {
      "constant": true,
      "inputs": [
        {
          "name": "_id",
          "type": "uint256"
        }
      ],
      "name": "getBallotBasic",
      "outputs": [
        {
          "name": "startTime",
          "type": "uint256"
        },
        {
          "name": "endTime",
          "type": "uint256"
        },
        {
          "name": "ballotType",
          "type": "uint256"
        },
        {
          "name": "creator",
          "type": "address"
        },
        {
          "name": "memo",
          "type": "bytes"
        },
        {
          "name": "totalVoters",
          "type": "uint256"
        },
        {
          "name": "powerOfAccepts",
          "type": "uint256"
        },
        {
          "name": "powerOfRejects",
          "type": "uint256"
        },
        {
          "name": "state",
          "type": "uint256"
        },
        {
          "name": "isFinalized",
          "type": "bool"
        },
        {
          "name": "duration",
          "type": "uint256"
        }
      ],
      "payable": false,
      "stateMutability": "view",
      "type": "function"
    },
    {
      "constant": true,
      "inputs": [
        {
          "name": "_id",
          "type": "uint256"
        }
      ],
      "name": "getBallotMember",
      "outputs": [
        {
          "name": "oldMemeberAddress",
          "type": "address"
        },
        {
          "name": "newMemeberAddress",
          "type": "address"
        },
        {
          "name": "newNodeId",
          "type": "bytes"
        },
        {
          "name": "newNodeIp",
          "type": "bytes"
        },
        {
          "name": "newNodePort",
          "type": "uint256"
        },
        {
          "name": "lockAmount",
          "type": "uint256"
        }
      ],
      "payable": false,
      "stateMutability": "view",
      "type": "function"
    },
    {
      "constant": true,
      "inputs": [
        {
          "name": "_id",
          "type": "uint256"
        }
      ],
      "name": "getBallotAddress",
      "outputs": [
        {
          "name": "newGovernanceAddress",
          "type": "address"
        }
      ],
      "payable": false,
      "stateMutability": "view",
      "type": "function"
    },
    {
      "constant": true,
      "inputs": [
        {
          "name": "_id",
          "type": "uint256"
        }
      ],
      "name": "getBallotVariable",
      "outputs": [
        {
          "name": "envVariableName",
          "type": "bytes32"
        },
        {
          "name": "envVariableType",
          "type": "uint256"
        },
        {
          "name": "envVariableValue",
          "type": "bytes"
        }
      ],
      "payable": false,
      "stateMutability": "view",
      "type": "function"
    },
    {
      "constant": false,
      "inputs": [
        {
          "name": "_address",
          "type": "address"
        }
      ],
      "name": "setPreviousBallotStorage",
      "outputs": [],
      "payable": false,
      "stateMutability": "nonpayable",
      "type": "function"
    },
    {
      "constant": false,
      "inputs": [
        {
          "name": "_id",
          "type": "uint256"
        },
        {
          "name": "_ballotType",
          "type": "uint256"
        },
        {
          "name": "_creator",
          "type": "address"
        },
        {
          "name": "_oldMemeberAddress",
          "type": "address"
        },
        {
          "name": "_newMemeberAddress",
          "type": "address"
        },
        {
          "name": "_newNodeId",
          "type": "bytes"
        },
        {
          "name": "_newNodeIp",
          "type": "bytes"
        },
        {
          "name": "_newNodePort",
          "type": "uint256"
        }
      ],
      "name": "createBallotForMemeber",
      "outputs": [],
      "payable": false,
      "stateMutability": "nonpayable",
      "type": "function"
    },
    {
      "constant": false,
      "inputs": [
        {
          "name": "_id",
          "type": "uint256"
        },
        {
          "name": "_ballotType",
          "type": "uint256"
        },
        {
          "name": "_creator",
          "type": "address"
        },
        {
          "name": "_newGovernanceAddress",
          "type": "address"
        }
      ],
      "name": "createBallotForAddress",
      "outputs": [
        {
          "name": "",
          "type": "uint256"
        }
      ],
      "payable": false,
      "stateMutability": "nonpayable",
      "type": "function"
    },
    {
      "constant": false,
      "inputs": [
        {
          "name": "_id",
          "type": "uint256"
        },
        {
          "name": "_ballotType",
          "type": "uint256"
        },
        {
          "name": "_creator",
          "type": "address"
        },
        {
          "name": "_envVariableName",
          "type": "bytes32"
        },
        {
          "name": "_envVariableType",
          "type": "uint256"
        },
        {
          "name": "_envVariableValue",
          "type": "bytes"
        }
      ],
      "name": "createBallotForVariable",
      "outputs": [
        {
          "name": "",
          "type": "uint256"
        }
      ],
      "payable": false,
      "stateMutability": "nonpayable",
      "type": "function"
    },
    {
      "constant": false,
      "inputs": [
        {
          "name": "_voteId",
          "type": "uint256"
        },
        {
          "name": "_ballotId",
          "type": "uint256"
        },
        {
          "name": "_voter",
          "type": "address"
        },
        {
          "name": "_decision",
          "type": "uint256"
        },
        {
          "name": "_power",
          "type": "uint256"
        }
      ],
      "name": "createVote",
      "outputs": [
        {
          "name": "",
          "type": "uint256"
        }
      ],
      "payable": false,
      "stateMutability": "nonpayable",
      "type": "function"
    },
    {
      "constant": false,
      "inputs": [
        {
          "name": "_ballotId",
          "type": "uint256"
        },
        {
          "name": "_startTime",
          "type": "uint256"
        },
        {
          "name": "_endTime",
          "type": "uint256"
        }
      ],
      "name": "startBallot",
      "outputs": [],
      "payable": false,
      "stateMutability": "nonpayable",
      "type": "function"
    },
    {
      "constant": false,
      "inputs": [
        {
          "name": "_ballotId",
          "type": "uint256"
        },
        {
          "name": "_memo",
          "type": "bytes"
        }
      ],
      "name": "updateBallotMemo",
      "outputs": [],
      "payable": false,
      "stateMutability": "nonpayable",
      "type": "function"
    },
    {
      "constant": false,
      "inputs": [
        {
          "name": "_ballotId",
          "type": "uint256"
        },
        {
          "name": "_duration",
          "type": "uint256"
        }
      ],
      "name": "updateBallotDuration",
      "outputs": [],
      "payable": false,
      "stateMutability": "nonpayable",
      "type": "function"
    },
    {
      "constant": false,
      "inputs": [
        {
          "name": "_ballotId",
          "type": "uint256"
        },
        {
          "name": "_lockAmount",
          "type": "uint256"
        }
      ],
      "name": "updateBallotMemberLockAmount",
      "outputs": [],
      "payable": false,
      "stateMutability": "nonpayable",
      "type": "function"
    },
    {
      "constant": false,
      "inputs": [
        {
          "name": "_ballotId",
          "type": "uint256"
        }
      ],
      "name": "cancelBallot",
      "outputs": [],
      "payable": false,
      "stateMutability": "nonpayable",
      "type": "function"
    },
    {
      "constant": false,
      "inputs": [
        {
          "name": "_ballotId",
          "type": "uint256"
        },
        {
          "name": "_ballotState",
          "type": "uint256"
        }
      ],
      "name": "finalizeBallot",
      "outputs": [],
      "payable": false,
      "stateMutability": "nonpayable",
      "type": "function"
    },
    {
      "constant": true,
      "inputs": [
        {
          "name": "_ballotId",
          "type": "uint56"
        },
        {
          "name": "_voter",
          "type": "address"
        }
      ],
      "name": "hasAlreadyVoted",
      "outputs": [
        {
          "name": "",
          "type": "bool"
        }
      ],
      "payable": false,
      "stateMutability": "view",
      "type": "function"
    },
    {
      "constant": true,
      "inputs": [
        {
          "name": "_voteId",
          "type": "uint256"
        }
      ],
      "name": "getVote",
      "outputs": [
        {
          "name": "voteId",
          "type": "uint256"
        },
        {
          "name": "ballotId",
          "type": "uint256"
        },
        {
          "name": "voter",
          "type": "address"
        },
        {
          "name": "decision",
          "type": "uint256"
        },
        {
          "name": "power",
          "type": "uint256"
        },
        {
          "name": "time",
          "type": "uint256"
        }
      ],
      "payable": false,
      "stateMutability": "view",
      "type": "function"
    },
    {
      "constant": true,
      "inputs": [
        {
          "name": "_id",
          "type": "uint256"
        }
      ],
      "name": "getBallotPeriod",
      "outputs": [
        {
          "name": "startTime",
          "type": "uint256"
        },
        {
          "name": "endTime",
          "type": "uint256"
        },
        {
          "name": "duration",
          "type": "uint256"
        }
      ],
      "payable": false,
      "stateMutability": "view",
      "type": "function"
    },
    {
      "constant": true,
      "inputs": [
        {
          "name": "_id",
          "type": "uint256"
        }
      ],
      "name": "getBallotVotingInfo",
      "outputs": [
        {
          "name": "totalVoters",
          "type": "uint256"
        },
        {
          "name": "powerOfAccepts",
          "type": "uint256"
        },
        {
          "name": "powerOfRejects",
          "type": "uint256"
        }
      ],
      "payable": false,
      "stateMutability": "view",
      "type": "function"
    },
    {
      "constant": true,
      "inputs": [
        {
          "name": "_id",
          "type": "uint256"
        }
      ],
      "name": "getBallotState",
      "outputs": [
        {
          "name": "ballotType",
          "type": "uint256"
        },
        {
          "name": "state",
          "type": "uint256"
        },
        {
          "name": "isFinalized",
          "type": "bool"
        }
      ],
      "payable": false,
      "stateMutability": "view",
      "type": "function"
    }
  ],
  "bytecode": "0x60806040523480156200001157600080fd5b5060405160208062005f2b83398101806040528101908080519060200190929190505050336000806101000a81548173ffffffffffffffffffffffffffffffffffffffff021916908373ffffffffffffffffffffffffffffffffffffffff1602179055506000809054906101000a900473ffffffffffffffffffffffffffffffffffffffff1673ffffffffffffffffffffffffffffffffffffffff16600073ffffffffffffffffffffffffffffffffffffffff167f8be0079c531659141344cd1fd0a4f28419497f9722a3daafe3b4186f6b6457e060405160405180910390a36200010b8162000112640100000000026401000000009004565b50620001d2565b6200012b6200017b640100000000026401000000009004565b15156200013757600080fd5b80600160006101000a81548173ffffffffffffffffffffffffffffffffffffffff021916908373ffffffffffffffffffffffffffffffffffffffff16021790555050565b60008060009054906101000a900473ffffffffffffffffffffffffffffffffffffffff1673ffffffffffffffffffffffffffffffffffffffff163373ffffffffffffffffffffffffffffffffffffffff1614905090565b615d4980620001e26000396000f3006080604052600436106101c2576000357c0100000000000000000000000000000000000000000000000000000000900463ffffffff16806302b385fb146101c757806309970688146102e3578063155ca224146103325780631c1501711461035f5780631d940da21461038a5780631e0cba0d146104465780632a74f38c146104795780632f40992e146104bc5780634a4af013146104ef578063557ed1ba1461057a57806356ba988e146105a55780635a55c1f0146105f4578063656bc63314610684578063688ca5b2146106bb5780636c57f5a91461070e5780636c78d2cf1461073d578063715018a61461077057806372d0ec9214610787578063738fdd1a146107be57806373df4e01146108155780637bf465301461099b5780637efa9ae3146109ce5780637f5b7ab314610a3b5780638da5cb5b14610b045780638f32d59b14610b5b57806396462b9c14610b8a5780639986e4b914610c0957806399e929a314610c3c578063a91e59ba14610d69578063a91ee0dc14610da0578063b23c676c14610de3578063bce0dbc114610e3a578063c0b6f18614610ead578063ce04b9d414610eee578063f2fde38b14610f19578063f680e55514610f5c575b600080fd5b3480156101d357600080fd5b506101f260048036038101908080359060200190929190505050610fca565b604051808c81526020018b81526020018a81526020018973ffffffffffffffffffffffffffffffffffffffff1673ffffffffffffffffffffffffffffffffffffffff1681526020018060200188815260200187815260200186815260200185815260200184151515158152602001838152602001828103825289818151815260200191508051906020019080838360005b8381101561029e578082015181840152602081019050610283565b50505050905090810190601f1680156102cb5780820380516001836020036101000a031916815260200191505b509c5050505050505050505050505060405180910390f35b3480156102ef57600080fd5b5061030e600480360381019080803590602001909291905050506111d3565b60405180848152602001838152602001828152602001935050505060405180910390f35b34801561033e57600080fd5b5061035d6004803603810190808035906020019092919050505061138d565b005b34801561036b57600080fd5b50610374611770565b6040518082815260200191505060405180910390f35b34801561039657600080fd5b506103b56004803603810190808035906020019092919050505061181d565b60405180846000191660001916815260200183815260200180602001828103825283818151815260200191508051906020019080838360005b838110156104095780820151818401526020810190506103ee565b50505050905090810190601f1680156104365780820380516001836020036101000a031916815260200191505b5094505050505060405180910390f35b34801561045257600080fd5b5061045b6118ee565b60405180826000191660001916815260200191505060405180910390f35b34801561048557600080fd5b506104ba600480360381019080803573ffffffffffffffffffffffffffffffffffffffff169060200190929190505050611912565b005b3480156104c857600080fd5b506104d1611a0e565b60405180826000191660001916815260200191505060405180910390f35b3480156104fb57600080fd5b506105646004803603810190808035906020019092919080359060200190929190803573ffffffffffffffffffffffffffffffffffffffff169060200190929190803573ffffffffffffffffffffffffffffffffffffffff169060200190929190505050611a32565b6040518082815260200191505060405180910390f35b34801561058657600080fd5b5061058f611d79565b6040518082815260200191505060405180910390f35b3480156105b157600080fd5b506105d060048036038101908080359060200190929190505050611d81565b60405180848152602001838152602001828152602001935050505060405180910390f35b34801561060057600080fd5b5061061f60048036038101908080359060200190929190505050611f3b565b604051808781526020018681526020018573ffffffffffffffffffffffffffffffffffffffff1673ffffffffffffffffffffffffffffffffffffffff168152602001848152602001838152602001828152602001965050505050505060405180910390f35b34801561069057600080fd5b506106b960048036038101908080359060200190929190803590602001909291905050506120b6565b005b3480156106c757600080fd5b506106e660048036038101908080359060200190929190505050612562565b6040518084815260200183815260200182151515158152602001935050505060405180910390f35b34801561071a57600080fd5b5061072361271d565b604051808215151515815260200191505060405180910390f35b34801561074957600080fd5b5061075261275b565b60405180826000191660001916815260200191505060405180910390f35b34801561077c57600080fd5b5061078561277f565b005b34801561079357600080fd5b506107bc6004803603810190808035906020019092919080359060200190929190505050612851565b005b3480156107ca57600080fd5b506107d3612c1c565b604051808273ffffffffffffffffffffffffffffffffffffffff1673ffffffffffffffffffffffffffffffffffffffff16815260200191505060405180910390f35b34801561082157600080fd5b5061084060048036038101908080359060200190929190505050612c42565b604051808773ffffffffffffffffffffffffffffffffffffffff1673ffffffffffffffffffffffffffffffffffffffff1681526020018673ffffffffffffffffffffffffffffffffffffffff1673ffffffffffffffffffffffffffffffffffffffff1681526020018060200180602001858152602001848152602001838103835287818151815260200191508051906020019080838360005b838110156108f45780820151818401526020810190506108d9565b50505050905090810190601f1680156109215780820380516001836020036101000a031916815260200191505b50838103825286818151815260200191508051906020019080838360005b8381101561095a57808201518184015260208101905061093f565b50505050905090810190601f1680156109875780820380516001836020036101000a031916815260200191505b509850505050505050505060405180910390f35b3480156109a757600080fd5b506109b0612e06565b60405180826000191660001916815260200191505060405180910390f35b3480156109da57600080fd5b506109f960048036038101908080359060200190929190505050612e2a565b604051808273ffffffffffffffffffffffffffffffffffffffff1673ffffffffffffffffffffffffffffffffffffffff16815260200191505060405180910390f35b348015610a4757600080fd5b50610aee6004803603810190808035906020019092919080359060200190929190803573ffffffffffffffffffffffffffffffffffffffff169060200190929190803560001916906020019092919080359060200190929190803590602001908201803590602001908080601f0160208091040260200160405190810160405280939291908181526020018383808284378201915050505050509192919290505050612e6f565b6040518082815260200191505060405180910390f35b348015610b1057600080fd5b50610b196130ef565b604051808273ffffffffffffffffffffffffffffffffffffffff1673ffffffffffffffffffffffffffffffffffffffff16815260200191505060405180910390f35b348015610b6757600080fd5b50610b70613118565b604051808215151515815260200191505060405180910390f35b348015610b9657600080fd5b50610bf36004803603810190808035906020019092919080359060200190929190803573ffffffffffffffffffffffffffffffffffffffff169060200190929190803590602001909291908035906020019092919050505061316f565b6040518082815260200191505060405180910390f35b348015610c1557600080fd5b50610c1e613724565b60405180826000191660001916815260200191505060405180910390f35b348015610c4857600080fd5b50610d676004803603810190808035906020019092919080359060200190929190803573ffffffffffffffffffffffffffffffffffffffff169060200190929190803573ffffffffffffffffffffffffffffffffffffffff169060200190929190803573ffffffffffffffffffffffffffffffffffffffff169060200190929190803590602001908201803590602001908080601f0160208091040260200160405190810160405280939291908181526020018383808284378201915050505050509192919290803590602001908201803590602001908080601f016020809104026020016040519081016040528093929190818152602001838380828437820191505050505050919291929080359060200190929190505050613748565b005b348015610d7557600080fd5b50610d9e6004803603810190808035906020019092919080359060200190929190505050613acf565b005b348015610dac57600080fd5b50610de1600480360381019080803573ffffffffffffffffffffffffffffffffffffffff169060200190929190505050613e62565b005b348015610def57600080fd5b50610df8613eb9565b604051808273ffffffffffffffffffffffffffffffffffffffff1673ffffffffffffffffffffffffffffffffffffffff16815260200191505060405180910390f35b348015610e4657600080fd5b50610eab60048036038101908080359060200190929190803590602001908201803590602001908080601f0160208091040260200160405190810160405280939291908181526020018383808284378201915050505050509192919290505050613ee3565b005b348015610eb957600080fd5b50610eec600480360381019080803590602001909291908035906020019092919080359060200190929190505050614206565b005b348015610efa57600080fd5b50610f03614691565b6040518082815260200191505060405180910390f35b348015610f2557600080fd5b50610f5a600480360381019080803573ffffffffffffffffffffffffffffffffffffffff16906020019092919050505061473e565b005b348015610f6857600080fd5b50610fb0600480360381019080803566ffffffffffffff169060200190929190803573ffffffffffffffffffffffffffffffffffffffff16906020019092919050505061475d565b604051808215151515815260200191505060405180910390f35b6000806000806060600080600080600080610fe3615a6b565b600260008e81526020019081526020016000206101806040519081016040529081600082015481526020016001820154815260200160028201548152602001600382015481526020016004820160009054906101000a900473ffffffffffffffffffffffffffffffffffffffff1673ffffffffffffffffffffffffffffffffffffffff1673ffffffffffffffffffffffffffffffffffffffff168152602001600582018054600181600116156101000203166002900480601f01602080910402602001604051908101604052809291908181526020018280546001816001161561010002031660029004801561111a5780601f106110ef5761010080835404028352916020019161111a565b820191906000526020600020905b8154815290600101906020018083116110fd57829003601f168201915b5050505050815260200160068201548152602001600782015481526020016008820154815260200160098201548152602001600a820160009054906101000a900460ff16151515158152602001600b82015481525050905080602001519b5080604001519a5080606001519950806080015198508060a0015197508060c0015196508060e00151955080610100015194508061012001519350806101400151925080610160015191505091939597999b90929496989a50565b60008060006111e0615a6b565b600260008681526020019081526020016000206101806040519081016040529081600082015481526020016001820154815260200160028201548152602001600382015481526020016004820160009054906101000a900473ffffffffffffffffffffffffffffffffffffffff1673ffffffffffffffffffffffffffffffffffffffff1673ffffffffffffffffffffffffffffffffffffffff168152602001600582018054600181600116156101000203166002900480601f0160208091040260200160405190810160405280929190818152602001828054600181600116156101000203166002900480156113175780601f106112ec57610100808354040283529160200191611317565b820191906000526020600020905b8154815290600101906020018083116112fa57829003601f168201915b5050505050815260200160068201548152602001600782015481526020016008820154815260200160098201548152602001600a820160009054906101000a900460ff16151515158152602001600b82015481525050905080602001519350806040015192508061016001519150509193909250565b6000813373ffffffffffffffffffffffffffffffffffffffff166113af6147ce565b73ffffffffffffffffffffffffffffffffffffffff16148061143257503373ffffffffffffffffffffffffffffffffffffffff166002600083815260200190815260200160002060040160009054906101000a900473ffffffffffffffffffffffffffffffffffffffff1673ffffffffffffffffffffffffffffffffffffffff16145b15156114a6576040517f08c379a000000000000000000000000000000000000000000000000000000000815260040180806020018281038252600d8152602001807f4e6f205065726d697373696f6e0000000000000000000000000000000000000081525060200191505060405180910390fd5b6114ae6147fe565b73ffffffffffffffffffffffffffffffffffffffff163073ffffffffffffffffffffffffffffffffffffffff16141515611550576040517f08c379a000000000000000000000000000000000000000000000000000000000815260040180806020018281038252600b8152602001807f49732044697361626c656400000000000000000000000000000000000000000081525060200191505060405180910390fd5b8260026000858152602001908152602001600020600001541415156115dd576040517f08c379a00000000000000000000000000000000000000000000000000000000081526004018080602001828103825260128152602001807f6e6f7420657869737465642042616c6c6f74000000000000000000000000000081525060200191505060405180910390fd5b6000151560026000858152602001908152602001600020600a0160009054906101000a900460ff16151514151561167c576040517f08c379a00000000000000000000000000000000000000000000000000000000081526004018080602001828103825260118152602001807f616c72656164792066696e616c697a656400000000000000000000000000000081525060200191505060405180910390fd5b6001600581111561168957fe5b6002600085815260200190815260200160002060090154141515611715576040517f08c379a000000000000000000000000000000000000000000000000000000000815260040180806020018281038252600f8152602001807f4e6f74205265616479205374617465000000000000000000000000000000000081525060200191505060405180910390fd5b60026000848152602001908152602001600020915060058081111561173657fe5b8260090181905550827fd5e541d004c50564e5e05fcbc6be2916c68d817507693dc3774c69dde4ce13dc60405160405180910390a2505050565b600061177a61482e565b73ffffffffffffffffffffffffffffffffffffffff166333be496e6040518163ffffffff167c0100000000000000000000000000000000000000000000000000000000028152600401602060405180830381600087803b1580156117dd57600080fd5b505af11580156117f1573d6000803e3d6000fd5b505050506040513d602081101561180757600080fd5b8101908080519060200190929190505050905090565b600080606060006005600086815260200190815260200160002090508060010154935080600201549250806003018054600181600116156101000203166002900480601f0160208091040260200160405190810160405280929190818152602001828054600181600116156101000203166002900480156118df5780601f106118b4576101008083540402835291602001916118df565b820191906000526020600020905b8154815290600101906020018083116118c257829003601f168201915b50505050509150509193909250565b7f5374616b696e670000000000000000000000000000000000000000000000000081565b61191a613118565b151561192557600080fd5b600073ffffffffffffffffffffffffffffffffffffffff168173ffffffffffffffffffffffffffffffffffffffff16141515156119ca576040517f08c379a000000000000000000000000000000000000000000000000000000000815260040180806020018281038252600f8152602001807f496e76616c69642061646472657373000000000000000000000000000000000081525060200191505060405180910390fd5b80600860006101000a81548173ffffffffffffffffffffffffffffffffffffffff021916908373ffffffffffffffffffffffffffffffffffffffff16021790555050565b7f526577617264506f6f6c0000000000000000000000000000000000000000000081565b6000611a3c615ae5565b3373ffffffffffffffffffffffffffffffffffffffff16611a5b6147ce565b73ffffffffffffffffffffffffffffffffffffffff16141515611ae6576040517f08c379a000000000000000000000000000000000000000000000000000000000815260040180806020018281038252600d8152602001807f4e6f205065726d697373696f6e0000000000000000000000000000000000000081525060200191505060405180910390fd5b611aee6147fe565b73ffffffffffffffffffffffffffffffffffffffff163073ffffffffffffffffffffffffffffffffffffffff16141515611b90576040517f08c379a000000000000000000000000000000000000000000000000000000000815260040180806020018281038252600b8152602001807f49732044697361626c656400000000000000000000000000000000000000000081525060200191505060405180910390fd5b60046005811115611b9d57fe5b85141515611c13576040517f08c379a00000000000000000000000000000000000000000000000000000000081526004018080602001828103825260138152602001807f496e76616c69642042616c6c6f7420547970650000000000000000000000000081525060200191505060405180910390fd5b600073ffffffffffffffffffffffffffffffffffffffff168373ffffffffffffffffffffffffffffffffffffffff1614151515611cb8576040517f08c379a00000000000000000000000000000000000000000000000000000000081526004018080602001828103825260118152602001807f496e76616c696420506172616d6574657200000000000000000000000000000081525060200191505060405180910390fd5b611cc386868661485e565b8581600001818152505082816020019073ffffffffffffffffffffffffffffffffffffffff16908173ffffffffffffffffffffffffffffffffffffffff168152505080600460008881526020019081526020016000206000820151816000015560208201518160010160006101000a81548173ffffffffffffffffffffffffffffffffffffffff021916908373ffffffffffffffffffffffffffffffffffffffff16021790555090505085915050949350505050565b600042905090565b6000806000611d8e615a6b565b600260008681526020019081526020016000206101806040519081016040529081600082015481526020016001820154815260200160028201548152602001600382015481526020016004820160009054906101000a900473ffffffffffffffffffffffffffffffffffffffff1673ffffffffffffffffffffffffffffffffffffffff1673ffffffffffffffffffffffffffffffffffffffff168152602001600582018054600181600116156101000203166002900480601f016020809104026020016040519081016040528092919081815260200182805460018160011615610100020316600290048015611ec55780601f10611e9a57610100808354040283529160200191611ec5565b820191906000526020600020905b815481529060010190602001808311611ea857829003601f168201915b5050505050815260200160068201548152602001600782015481526020016008820154815260200160098201548152602001600a820160009054906101000a900460ff16151515158152602001600b8201548152505090508060c0015193508060e0015192508061010001519150509193909250565b600080600080600080611f4c615b15565b87600660008a815260200190815260200160002060000154141515611fd9576040517f08c379a00000000000000000000000000000000000000000000000000000000081526004018080602001828103825260128152602001807f6e6f74206578697374656420766f74654964000000000000000000000000000081525060200191505060405180910390fd5b6006600089815260200190815260200160002060c0604051908101604052908160008201548152602001600182015481526020016002820160009054906101000a900473ffffffffffffffffffffffffffffffffffffffff1673ffffffffffffffffffffffffffffffffffffffff1673ffffffffffffffffffffffffffffffffffffffff1681526020016003820154815260200160048201548152602001600582015481525050905080600001519650806020015195508060400151945080606001519350806080015192508060a0015191505091939550919395565b6000823373ffffffffffffffffffffffffffffffffffffffff166120d86147ce565b73ffffffffffffffffffffffffffffffffffffffff16148061215b57503373ffffffffffffffffffffffffffffffffffffffff166002600083815260200190815260200160002060040160009054906101000a900473ffffffffffffffffffffffffffffffffffffffff1673ffffffffffffffffffffffffffffffffffffffff16145b15156121cf576040517f08c379a000000000000000000000000000000000000000000000000000000000815260040180806020018281038252600d8152602001807f4e6f205065726d697373696f6e0000000000000000000000000000000000000081525060200191505060405180910390fd5b6121d76147fe565b73ffffffffffffffffffffffffffffffffffffffff163073ffffffffffffffffffffffffffffffffffffffff16141515612279576040517f08c379a000000000000000000000000000000000000000000000000000000000815260040180806020018281038252600b8152602001807f49732044697361626c656400000000000000000000000000000000000000000081525060200191505060405180910390fd5b8280612283611770565b111515156122f9576040517f08c379a000000000000000000000000000000000000000000000000000000000815260040180806020018281038252601c8152602001807f556e646572206d696e2076616c7565206f6620206475726174696f6e0000000081525060200191505060405180910390fd5b612301614691565b8111151515612378576040517f08c379a000000000000000000000000000000000000000000000000000000000815260040180806020018281038252601a8152602001807f4f766572206d61782076616c7565206f66206475726174696f6e00000000000081525060200191505060405180910390fd5b846002600087815260200190815260200160002060000154141515612405576040517f08c379a00000000000000000000000000000000000000000000000000000000081526004018080602001828103825260128152602001807f6e6f7420657869737465642042616c6c6f74000000000000000000000000000081525060200191505060405180910390fd5b6000151560026000878152602001908152602001600020600a0160009054906101000a900460ff1615151415156124a4576040517f08c379a00000000000000000000000000000000000000000000000000000000081526004018080602001828103825260118152602001807f616c72656164792066696e616c697a656400000000000000000000000000000081525060200191505060405180910390fd5b600160058111156124b157fe5b600260008781526020019081526020016000206009015414151561253d576040517f08c379a000000000000000000000000000000000000000000000000000000000815260040180806020018281038252600f8152602001807f4e6f74205265616479205374617465000000000000000000000000000000000081525060200191505060405180910390fd5b6002600086815260200190815260200160002092508383600b01819055505050505050565b600080600061256f615a6b565b600260008681526020019081526020016000206101806040519081016040529081600082015481526020016001820154815260200160028201548152602001600382015481526020016004820160009054906101000a900473ffffffffffffffffffffffffffffffffffffffff1673ffffffffffffffffffffffffffffffffffffffff1673ffffffffffffffffffffffffffffffffffffffff168152602001600582018054600181600116156101000203166002900480601f0160208091040260200160405190810160405280929190818152602001828054600181600116156101000203166002900480156126a65780601f1061267b576101008083540402835291602001916126a6565b820191906000526020600020905b81548152906001019060200180831161268957829003601f168201915b5050505050815260200160068201548152602001600782015481526020016008820154815260200160098201548152602001600a820160009054906101000a900460ff16151515158152602001600b8201548152505090508060600151935080610120015192508061014001519150509193909250565b60006127276147fe565b73ffffffffffffffffffffffffffffffffffffffff163073ffffffffffffffffffffffffffffffffffffffff161415905090565b7f476f7665726e616e6365436f6e7472616374000000000000000000000000000081565b612787613118565b151561279257600080fd5b600073ffffffffffffffffffffffffffffffffffffffff166000809054906101000a900473ffffffffffffffffffffffffffffffffffffffff1673ffffffffffffffffffffffffffffffffffffffff167f8be0079c531659141344cd1fd0a4f28419497f9722a3daafe3b4186f6b6457e060405160405180910390a360008060006101000a81548173ffffffffffffffffffffffffffffffffffffffff021916908373ffffffffffffffffffffffffffffffffffffffff160217905550565b60003373ffffffffffffffffffffffffffffffffffffffff166128726147ce565b73ffffffffffffffffffffffffffffffffffffffff161415156128fd576040517f08c379a000000000000000000000000000000000000000000000000000000000815260040180806020018281038252600d8152602001807f4e6f205065726d697373696f6e0000000000000000000000000000000000000081525060200191505060405180910390fd5b6129056147fe565b73ffffffffffffffffffffffffffffffffffffffff163073ffffffffffffffffffffffffffffffffffffffff161415156129a7576040517f08c379a000000000000000000000000000000000000000000000000000000000815260040180806020018281038252600b8152602001807f49732044697361626c656400000000000000000000000000000000000000000081525060200191505060405180910390fd5b826002600085815260200190815260200160002060000154141515612a34576040517f08c379a00000000000000000000000000000000000000000000000000000000081526004018080602001828103825260128152602001807f6e6f7420657869737465642042616c6c6f74000000000000000000000000000081525060200191505060405180910390fd5b826003600085815260200190815260200160002060000154141515612ac1576040517f08c379a00000000000000000000000000000000000000000000000000000000081526004018080602001828103825260188152602001807f6e6f7420657869737465642042616c6c6f744d656d626572000000000000000081525060200191505060405180910390fd5b6000151560026000858152602001908152602001600020600a0160009054906101000a900460ff161515141515612b60576040517f08c379a00000000000000000000000000000000000000000000000000000000081526004018080602001828103825260118152602001807f616c72656164792066696e616c697a656400000000000000000000000000000081525060200191505060405180910390fd5b60016005811115612b6d57fe5b6002600085815260200190815260200160002060090154141515612bf9576040517f08c379a000000000000000000000000000000000000000000000000000000000815260040180806020018281038252600f8152602001807f4e6f74205265616479205374617465000000000000000000000000000000000081525060200191505060405180910390fd5b600360008481526020019081526020016000209050818160060181905550505050565b600160009054906101000a900473ffffffffffffffffffffffffffffffffffffffff1681565b60008060608060008060006003600089815260200190815260200160002090508060010160009054906101000a900473ffffffffffffffffffffffffffffffffffffffff1696508060020160009054906101000a900473ffffffffffffffffffffffffffffffffffffffff169550806003018054600181600116156101000203166002900480601f016020809104026020016040519081016040528092919081815260200182805460018160011615610100020316600290048015612d485780601f10612d1d57610100808354040283529160200191612d48565b820191906000526020600020905b815481529060010190602001808311612d2b57829003601f168201915b50505050509450806004018054600181600116156101000203166002900480601f016020809104026020016040519081016040528092919081815260200182805460018160011615610100020316600290048015612de75780601f10612dbc57610100808354040283529160200191612de7565b820191906000526020600020905b815481529060010190602001808311612dca57829003601f168201915b5050505050935080600501549250806006015491505091939550919395565b7f456e7653746f726167650000000000000000000000000000000000000000000081565b6000806004600084815260200190815260200160002090508060010160009054906101000a900473ffffffffffffffffffffffffffffffffffffffff16915050919050565b6000612e79615b62565b3373ffffffffffffffffffffffffffffffffffffffff16612e986147ce565b73ffffffffffffffffffffffffffffffffffffffff16141515612f23576040517f08c379a000000000000000000000000000000000000000000000000000000000815260040180806020018281038252600d8152602001807f4e6f205065726d697373696f6e0000000000000000000000000000000000000081525060200191505060405180910390fd5b612f2b6147fe565b73ffffffffffffffffffffffffffffffffffffffff163073ffffffffffffffffffffffffffffffffffffffff16141515612fcd576040517f08c379a000000000000000000000000000000000000000000000000000000000815260040180806020018281038252600b8152602001807f49732044697361626c656400000000000000000000000000000000000000000081525060200191505060405180910390fd5b612fd987868686614aad565b151561304d576040517f08c379a00000000000000000000000000000000000000000000000000000000081526004018080602001828103825260118152602001807f496e76616c696420506172616d6574657200000000000000000000000000000081525060200191505060405180910390fd5b61305888888861485e565b8781600001818152505084816020019060001916908160001916815250508381604001818152505082816060018190525080600560008a815260200190815260200160002060008201518160000155602082015181600101906000191690556040820151816002015560608201518160030190805190602001906130dd929190615b8e565b50905050879150509695505050505050565b60008060009054906101000a900473ffffffffffffffffffffffffffffffffffffffff16905090565b60008060009054906101000a900473ffffffffffffffffffffffffffffffffffffffff1673ffffffffffffffffffffffffffffffffffffffff163373ffffffffffffffffffffffffffffffffffffffff1614905090565b60003373ffffffffffffffffffffffffffffffffffffffff166131906147ce565b73ffffffffffffffffffffffffffffffffffffffff1614151561321b576040517f08c379a000000000000000000000000000000000000000000000000000000000815260040180806020018281038252600d8152602001807f4e6f205065726d697373696f6e0000000000000000000000000000000000000081525060200191505060405180910390fd5b6132236147fe565b73ffffffffffffffffffffffffffffffffffffffff163073ffffffffffffffffffffffffffffffffffffffff161415156132c5576040517f08c379a000000000000000000000000000000000000000000000000000000000815260040180806020018281038252600b8152602001807f49732044697361626c656400000000000000000000000000000000000000000081525060200191505060405180910390fd5b600160028111156132d257fe5b8314806132ea57506002808111156132e657fe5b8311155b151561335e576040517f08c379a00000000000000000000000000000000000000000000000000000000081526004018080602001828103825260108152602001807f496e76616c6964206465636973696f6e0000000000000000000000000000000081525060200191505060405180910390fd5b8460026000878152602001908152602001600020600001541415156133eb576040517f08c379a00000000000000000000000000000000000000000000000000000000081526004018080602001828103825260128152602001807f6e6f7420657869737465642042616c6c6f74000000000000000000000000000081525060200191505060405180910390fd5b85600660008881526020019081526020016000206000015414151515613479576040517f08c379a00000000000000000000000000000000000000000000000000000000081526004018080602001828103825260168152602001807f616c7265616479206578697374656420766f746549640000000000000000000081525060200191505060405180910390fd5b6007600086815260200190815260200160002060008573ffffffffffffffffffffffffffffffffffffffff1673ffffffffffffffffffffffffffffffffffffffff16815260200190815260200160002060009054906101000a900460ff1615151561354c576040517f08c379a000000000000000000000000000000000000000000000000000000000815260040180806020018281038252600d8152602001807f616c726561647920766f7465640000000000000000000000000000000000000081525060200191505060405180910390fd5b6002600581111561355957fe5b60026000878152602001908152602001600020600901541415156135e5576040517f08c379a00000000000000000000000000000000000000000000000000000000081526004018080602001828103825260148152602001807f4e6f7420496e50726f677265737320537461746500000000000000000000000081525060200191505060405180910390fd5b60c0604051908101604052808781526020018681526020018573ffffffffffffffffffffffffffffffffffffffff16815260200184815260200183815260200161362d611d79565b81525060066000888152602001908152602001600020600082015181600001556020820151816001015560408201518160020160006101000a81548173ffffffffffffffffffffffffffffffffffffffff021916908373ffffffffffffffffffffffffffffffffffffffff160217905550606082015181600301556080820151816004015560a082015181600501559050506136cb85858585614dd1565b8373ffffffffffffffffffffffffffffffffffffffff1685877f41df84b3b467b06744e40c92613c666324e7c640ce0a41ec06efdf602d367606866040518082815260200191505060405180910390a495945050505050565b7f42616c6c6f7453746f726167650000000000000000000000000000000000000081565b613750615c0e565b3373ffffffffffffffffffffffffffffffffffffffff1661376f6147ce565b73ffffffffffffffffffffffffffffffffffffffff161415156137fa576040517f08c379a000000000000000000000000000000000000000000000000000000000815260040180806020018281038252600d8152602001807f4e6f205065726d697373696f6e0000000000000000000000000000000000000081525060200191505060405180910390fd5b6138026147fe565b73ffffffffffffffffffffffffffffffffffffffff163073ffffffffffffffffffffffffffffffffffffffff161415156138a4576040517f08c379a000000000000000000000000000000000000000000000000000000000815260040180806020018281038252600b8152602001807f49732044697361626c656400000000000000000000000000000000000000000081525060200191505060405180910390fd5b6138b28887878787876150ce565b1515613926576040517f08c379a00000000000000000000000000000000000000000000000000000000081526004018080602001828103825260118152602001807f496e76616c696420506172616d6574657200000000000000000000000000000081525060200191505060405180910390fd5b61393189898961485e565b8881600001818152505085816020019073ffffffffffffffffffffffffffffffffffffffff16908173ffffffffffffffffffffffffffffffffffffffff168152505084816040019073ffffffffffffffffffffffffffffffffffffffff16908173ffffffffffffffffffffffffffffffffffffffff1681525050838160600181905250828160800181905250818160a001818152505080600360008b81526020019081526020016000206000820151816000015560208201518160010160006101000a81548173ffffffffffffffffffffffffffffffffffffffff021916908373ffffffffffffffffffffffffffffffffffffffff16021790555060408201518160020160006101000a81548173ffffffffffffffffffffffffffffffffffffffff021916908373ffffffffffffffffffffffffffffffffffffffff1602179055506060820151816003019080519060200190613a8f929190615b8e565b506080820151816004019080519060200190613aac929190615b8e565b5060a0820151816005015560c08201518160060155905050505050505050505050565b60003373ffffffffffffffffffffffffffffffffffffffff16613af06147ce565b73ffffffffffffffffffffffffffffffffffffffff16141515613b7b576040517f08c379a000000000000000000000000000000000000000000000000000000000815260040180806020018281038252600d8152602001807f4e6f205065726d697373696f6e0000000000000000000000000000000000000081525060200191505060405180910390fd5b613b836147fe565b73ffffffffffffffffffffffffffffffffffffffff163073ffffffffffffffffffffffffffffffffffffffff16141515613c25576040517f08c379a000000000000000000000000000000000000000000000000000000000815260040180806020018281038252600b8152602001807f49732044697361626c656400000000000000000000000000000000000000000081525060200191505060405180910390fd5b826002600085815260200190815260200160002060000154141515613cb2576040517f08c379a00000000000000000000000000000000000000000000000000000000081526004018080602001828103825260128152602001807f6e6f7420657869737465642042616c6c6f74000000000000000000000000000081525060200191505060405180910390fd5b6000151560026000858152602001908152602001600020600a0160009054906101000a900460ff161515141515613d51576040517f08c379a00000000000000000000000000000000000000000000000000000000081526004018080602001828103825260118152602001807f616c72656164792066696e616c697a656400000000000000000000000000000081525060200191505060405180910390fd5b60036005811115613d5e57fe5b821480613d76575060046005811115613d7357fe5b82145b1515613dea576040517f08c379a00000000000000000000000000000000000000000000000000000000081526004018080602001828103825260148152602001807f496e76616c69642042616c6c6f7420537461746500000000000000000000000081525060200191505060405180910390fd5b600260008481526020019081526020016000209050818160090181905550600181600a0160006101000a81548160ff021916908315150217905550827fdc921f027328d7238b58d77649ebcbd0c8b1c494c66ba53dfe53e0de65f6dd9f836040518082815260200191505060405180910390a2505050565b613e6a613118565b1515613e7557600080fd5b80600160006101000a81548173ffffffffffffffffffffffffffffffffffffffff021916908373ffffffffffffffffffffffffffffffffffffffff16021790555050565b6000600860009054906101000a900473ffffffffffffffffffffffffffffffffffffffff16905090565b6000823373ffffffffffffffffffffffffffffffffffffffff16613f056147ce565b73ffffffffffffffffffffffffffffffffffffffff161480613f8857503373ffffffffffffffffffffffffffffffffffffffff166002600083815260200190815260200160002060040160009054906101000a900473ffffffffffffffffffffffffffffffffffffffff1673ffffffffffffffffffffffffffffffffffffffff16145b1515613ffc576040517f08c379a000000000000000000000000000000000000000000000000000000000815260040180806020018281038252600d8152602001807f4e6f205065726d697373696f6e0000000000000000000000000000000000000081525060200191505060405180910390fd5b6140046147fe565b73ffffffffffffffffffffffffffffffffffffffff163073ffffffffffffffffffffffffffffffffffffffff161415156140a6576040517f08c379a000000000000000000000000000000000000000000000000000000000815260040180806020018281038252600b8152602001807f49732044697361626c656400000000000000000000000000000000000000000081525060200191505060405180910390fd5b836002600086815260200190815260200160002060000154141515614133576040517f08c379a00000000000000000000000000000000000000000000000000000000081526004018080602001828103825260128152602001807f6e6f7420657869737465642042616c6c6f74000000000000000000000000000081525060200191505060405180910390fd5b6000151560026000868152602001908152602001600020600a0160009054906101000a900460ff1615151415156141d2576040517f08c379a00000000000000000000000000000000000000000000000000000000081526004018080602001828103825260118152602001807f616c72656164792066696e616c697a656400000000000000000000000000000081525060200191505060405180910390fd5b600260008581526020019081526020016000209150828260050190805190602001906141ff929190615c78565b5050505050565b60003373ffffffffffffffffffffffffffffffffffffffff166142276147ce565b73ffffffffffffffffffffffffffffffffffffffff161415156142b2576040517f08c379a000000000000000000000000000000000000000000000000000000000815260040180806020018281038252600d8152602001807f4e6f205065726d697373696f6e0000000000000000000000000000000000000081525060200191505060405180910390fd5b6142ba6147fe565b73ffffffffffffffffffffffffffffffffffffffff163073ffffffffffffffffffffffffffffffffffffffff1614151561435c576040517f08c379a000000000000000000000000000000000000000000000000000000000815260040180806020018281038252600b8152602001807f49732044697361626c656400000000000000000000000000000000000000000081525060200191505060405180910390fd5b828260008211801561436e5750600081115b15156143e2576040517f08c379a00000000000000000000000000000000000000000000000000000000081526004018080602001828103825260118152602001807f7374617274206f7220656e64206973203000000000000000000000000000000081525060200191505060405180910390fd5b8181111515614459576040517f08c379a000000000000000000000000000000000000000000000000000000000815260040180806020018281038252600c8152602001807f7374617274203e3d20656e64000000000000000000000000000000000000000081525060200191505060405180910390fd5b8560026000888152602001908152602001600020600001541415156144e6576040517f08c379a00000000000000000000000000000000000000000000000000000000081526004018080602001828103825260128152602001807f6e6f7420657869737465642042616c6c6f74000000000000000000000000000081525060200191505060405180910390fd5b6000151560026000888152602001908152602001600020600a0160009054906101000a900460ff161515141515614585576040517f08c379a00000000000000000000000000000000000000000000000000000000081526004018080602001828103825260118152602001807f616c72656164792066696e616c697a656400000000000000000000000000000081525060200191505060405180910390fd5b6001600581111561459257fe5b600260008881526020019081526020016000206009015414151561461e576040517f08c379a000000000000000000000000000000000000000000000000000000000815260040180806020018281038252600f8152602001807f4e6f74205265616479205374617465000000000000000000000000000000000081525060200191505060405180910390fd5b6002600087815260200190815260200160002092508483600101819055508383600201819055506002600581111561465257fe5b83600901819055508385877fd9938a514dab5cdce149a77493f694bd70c24a4833a278fd4d86fbdf859099c560405160405180910390a4505050505050565b600061469b61482e565b73ffffffffffffffffffffffffffffffffffffffff16631b27e01b6040518163ffffffff167c0100000000000000000000000000000000000000000000000000000000028152600401602060405180830381600087803b1580156146fe57600080fd5b505af1158015614712573d6000803e3d6000fd5b505050506040513d602081101561472857600080fd5b8101908080519060200190929190505050905090565b614746613118565b151561475157600080fd5b61475a81615873565b50565b6000600760008466ffffffffffffff16815260200190815260200160002060008373ffffffffffffffffffffffffffffffffffffffff1673ffffffffffffffffffffffffffffffffffffffff16815260200190815260200160002060009054906101000a900460ff16905092915050565b60006147f97f476f7665726e616e6365436f6e7472616374000000000000000000000000000061596d565b905090565b60006148297f42616c6c6f7453746f726167650000000000000000000000000000000000000061596d565b905090565b60006148597f456e7653746f726167650000000000000000000000000000000000000000000061596d565b905090565b614866615a6b565b836002600086815260200190815260200160002060000154141515156148f4576040517f08c379a00000000000000000000000000000000000000000000000000000000081526004018080602001828103825260168152602001807f416c726561647920657869737465642062616c6c6f740000000000000000000081525060200191505060405180910390fd5b838160000181815250508281606001818152505081816080019073ffffffffffffffffffffffffffffffffffffffff16908173ffffffffffffffffffffffffffffffffffffffff16815250506001600581111561494d57fe5b8161012001818152505060008161014001901515908115158152505080600260008681526020019081526020016000206000820151816000015560208201518160010155604082015181600201556060820151816003015560808201518160040160006101000a81548173ffffffffffffffffffffffffffffffffffffffff021916908373ffffffffffffffffffffffffffffffffffffffff16021790555060a0820151816005019080519060200190614a08929190615b8e565b5060c0820151816006015560e082015181600701556101008201518160080155610120820151816009015561014082015181600a0160006101000a81548160ff02191690831515021790555061016082015181600b01559050508173ffffffffffffffffffffffffffffffffffffffff1683857fd1ba591c76ef71222e2d30b8277758713cc6eef1de29efaf98a716744ac2420b60405160405180910390a450505050565b6000600580811115614abb57fe5b85141515614b31576040517f08c379a00000000000000000000000000000000000000000000000000000000081526004018080602001828103825260138152602001807f496e76616c69642042616c6c6f7420547970650000000000000000000000000081525060200191505060405180910390fd5b6000602060ff16111515614bd3576040517f08c379a00000000000000000000000000000000000000000000000000000000081526004018080602001828103825260218152602001807f496e76616c696420656e7669726f6e6d656e74207661726961626c65206e616d81526020017f650000000000000000000000000000000000000000000000000000000000000081525060400191505060405180910390fd5b60016006811115614be057fe5b8310151515614c7d576040517f08c379a00000000000000000000000000000000000000000000000000000000081526004018080602001828103825260218152602001807f496e76616c696420656e7669726f6e6d656e74207661726961626c652054797081526020017f650000000000000000000000000000000000000000000000000000000000000081525060400191505060405180910390fd5b600680811115614c8957fe5b8311151515614d26576040517f08c379a00000000000000000000000000000000000000000000000000000000081526004018080602001828103825260218152602001807f496e76616c696420656e7669726f6e6d656e74207661726961626c652054797081526020017f650000000000000000000000000000000000000000000000000000000000000081525060400191505060405180910390fd5b60008251111515614dc5576040517f08c379a00000000000000000000000000000000000000000000000000000000081526004018080602001828103825260228152602001807f496e76616c696420656e7669726f6e6d656e74207661726961626c652076616c81526020017f756500000000000000000000000000000000000000000000000000000000000081525060400191505060405180910390fd5b60019050949350505050565b600060016002811115614de057fe5b831480614df75750600280811115614df457fe5b83145b1515614e6b576040517f08c379a00000000000000000000000000000000000000000000000000000000081526004018080602001828103825260108152602001807f496e76616c6964206465636973696f6e0000000000000000000000000000000081525060200191505060405180910390fd5b846002600087815260200190815260200160002060000154141515614ef8576040517f08c379a00000000000000000000000000000000000000000000000000000000081526004018080602001828103825260128152602001807f6e6f7420657869737465642042616c6c6f74000000000000000000000000000081525060200191505060405180910390fd5b600015156007600087815260200190815260200160002060008673ffffffffffffffffffffffffffffffffffffffff1673ffffffffffffffffffffffffffffffffffffffff16815260200190815260200160002060009054906101000a900460ff161515141515614fd1576040517f08c379a000000000000000000000000000000000000000000000000000000000815260040180806020018281038252600d8152602001807f616c726561647920766f7465640000000000000000000000000000000000000081525060200191505060405180910390fd5b60026000868152602001908152602001600020905060016007600087815260200190815260200160002060008673ffffffffffffffffffffffffffffffffffffffff1673ffffffffffffffffffffffffffffffffffffffff16815260200190815260200160002060006101000a81548160ff02191690831515021790555061506760018260060154615a4a90919063ffffffff16565b81600601819055506001600281111561507c57fe5b8314156150a75761509a828260070154615a4a90919063ffffffff16565b81600701819055506150c7565b6150be828260080154615a4a90919063ffffffff16565b81600801819055505b5050505050565b6000600160058111156150dd57fe5b87101580156150f85750600360058111156150f457fe5b8711155b151561516c576040517f08c379a00000000000000000000000000000000000000000000000000000000081526004018080602001828103825260138152602001807f496e76616c69642042616c6c6f7420547970650000000000000000000000000081525060200191505060405180910390fd5b6002600581111561517957fe5b87141561543857600073ffffffffffffffffffffffffffffffffffffffff168673ffffffffffffffffffffffffffffffffffffffff1614151515615225576040517f08c379a000000000000000000000000000000000000000000000000000000000815260040180806020018281038252601a8152602001807f496e76616c6964206f6c64206d656d626572206164647265737300000000000081525060200191505060405180910390fd5b600073ffffffffffffffffffffffffffffffffffffffff168573ffffffffffffffffffffffffffffffffffffffff161415156152c9576040517f08c379a000000000000000000000000000000000000000000000000000000000815260040180806020018281038252601a8152602001807f496e76616c6964206e6577206d656d626572206164647265737300000000000081525060200191505060405180910390fd5b60008451141515615342576040517f08c379a00000000000000000000000000000000000000000000000000000000081526004018080602001828103825260138152602001807f496e76616c6964206e6577206e6f64652069640000000000000000000000000081525060200191505060405180910390fd5b600083511415156153bb576040517f08c379a00000000000000000000000000000000000000000000000000000000081526004018080602001828103825260138152602001807f496e76616c6964206e6577206e6f64652049500000000000000000000000000081525060200191505060405180910390fd5b600082141515615433576040517f08c379a00000000000000000000000000000000000000000000000000000000081526004018080602001828103825260158152602001807f496e76616c6964206e6577206e6f646520506f7274000000000000000000000081525060200191505060405180910390fd5b615865565b604084511415156154b1576040517f08c379a00000000000000000000000000000000000000000000000000000000081526004018080602001828103825260138152602001807f496e76616c6964206e6577206e6f64652069640000000000000000000000000081525060200191505060405180910390fd5b6000835111151561552a576040517f08c379a00000000000000000000000000000000000000000000000000000000081526004018080602001828103825260138152602001807f496e76616c6964206e6577206e6f64652049500000000000000000000000000081525060200191505060405180910390fd5b6000821115156155a2576040517f08c379a00000000000000000000000000000000000000000000000000000000081526004018080602001828103825260158152602001807f496e76616c6964206e6577206e6f646520506f7274000000000000000000000081525060200191505060405180910390fd5b600160058111156155af57fe5b87141561570457600073ffffffffffffffffffffffffffffffffffffffff168673ffffffffffffffffffffffffffffffffffffffff1614151561565a576040517f08c379a000000000000000000000000000000000000000000000000000000000815260040180806020018281038252601a8152602001807f496e76616c6964206f6c64206d656d626572206164647265737300000000000081525060200191505060405180910390fd5b600073ffffffffffffffffffffffffffffffffffffffff168573ffffffffffffffffffffffffffffffffffffffff16141515156156ff576040517f08c379a000000000000000000000000000000000000000000000000000000000815260040180806020018281038252601a8152602001807f496e76616c6964206e6577206d656d626572206164647265737300000000000081525060200191505060405180910390fd5b615864565b6003600581111561571157fe5b87141561586357600073ffffffffffffffffffffffffffffffffffffffff168673ffffffffffffffffffffffffffffffffffffffff16141515156157bd576040517f08c379a000000000000000000000000000000000000000000000000000000000815260040180806020018281038252601a8152602001807f496e76616c6964206f6c64206d656d626572206164647265737300000000000081525060200191505060405180910390fd5b600073ffffffffffffffffffffffffffffffffffffffff168573ffffffffffffffffffffffffffffffffffffffff1614151515615862576040517f08c379a000000000000000000000000000000000000000000000000000000000815260040180806020018281038252601a8152602001807f496e76616c6964206e6577206d656d626572206164647265737300000000000081525060200191505060405180910390fd5b5b5b5b600190509695505050505050565b600073ffffffffffffffffffffffffffffffffffffffff168173ffffffffffffffffffffffffffffffffffffffff16141515156158af57600080fd5b8073ffffffffffffffffffffffffffffffffffffffff166000809054906101000a900473ffffffffffffffffffffffffffffffffffffffff1673ffffffffffffffffffffffffffffffffffffffff167f8be0079c531659141344cd1fd0a4f28419497f9722a3daafe3b4186f6b6457e060405160405180910390a3806000806101000a81548173ffffffffffffffffffffffffffffffffffffffff021916908373ffffffffffffffffffffffffffffffffffffffff16021790555050565b6000600160009054906101000a900473ffffffffffffffffffffffffffffffffffffffff1673ffffffffffffffffffffffffffffffffffffffff16630d2020dd836040518263ffffffff167c0100000000000000000000000000000000000000000000000000000000028152600401808260001916600019168152602001915050602060405180830381600087803b158015615a0857600080fd5b505af1158015615a1c573d6000803e3d6000fd5b505050506040513d6020811015615a3257600080fd5b81019080805190602001909291905050509050919050565b6000808284019050838110151515615a6157600080fd5b8091505092915050565b6101806040519081016040528060008152602001600081526020016000815260200160008152602001600073ffffffffffffffffffffffffffffffffffffffff1681526020016060815260200160008152602001600081526020016000815260200160008152602001600015158152602001600081525090565b604080519081016040528060008152602001600073ffffffffffffffffffffffffffffffffffffffff1681525090565b60c0604051908101604052806000815260200160008152602001600073ffffffffffffffffffffffffffffffffffffffff1681526020016000815260200160008152602001600081525090565b608060405190810160405280600081526020016000801916815260200160008152602001606081525090565b828054600181600116156101000203166002900490600052602060002090601f016020900481019282601f10615bcf57805160ff1916838001178555615bfd565b82800160010185558215615bfd579182015b82811115615bfc578251825591602001919060010190615be1565b5b509050615c0a9190615cf8565b5090565b60e06040519081016040528060008152602001600073ffffffffffffffffffffffffffffffffffffffff168152602001600073ffffffffffffffffffffffffffffffffffffffff168152602001606081526020016060815260200160008152602001600081525090565b828054600181600116156101000203166002900490600052602060002090601f016020900481019282601f10615cb957805160ff1916838001178555615ce7565b82800160010185558215615ce7579182015b82811115615ce6578251825591602001919060010190615ccb565b5b509050615cf49190615cf8565b5090565b615d1a91905b80821115615d16576000816000905550600101615cfe565b5090565b905600a165627a7a72305820b6179a3b153adc5f4dc48e83f612ff7acae06b817310972e579e51e26e7486430029",
  "source": "pragma solidity ^0.4.24;\n\nimport \"openzeppelin-solidity/contracts/math/SafeMath.sol\";\nimport \"../abstract/EnvConstants.sol\";\nimport \"../abstract/BallotEnums.sol\";\nimport \"../GovChecker.sol\";\nimport \"../interface/IEnvStorage.sol\";\n\n\ncontract BallotStorage is  GovChecker, EnvConstants, BallotEnums {\n    using SafeMath for uint256;\n    \n    struct BallotBasic {\n        //Ballot ID\n        uint256 id;\n        // \n        uint256 startTime;\n        //  \n        uint256 endTime;\n        //  \n        uint256 ballotType;\n        // \n        address creator;\n        //  \n        bytes memo;\n        //   \n        uint256 totalVoters;\n        // \n        uint256 powerOfAccepts;\n        // \n        uint256 powerOfRejects;\n        //  \n        uint256 state;\n        // \n        bool isFinalized;\n        //  \n        uint256 duration;\n        \n    }\n\n    //For MemberAdding/MemberRemoval/MemberSwap\n    struct BallotMember {\n        uint256 id;    \n        address oldMemeberAddress;\n        address newMemeberAddress;\n        bytes newNodeId; // admin.nodeInfo.id is 512 bit public key\n        bytes newNodeIp;\n        uint256 newNodePort;\n        uint256 lockAmount;\n    }\n\n    //For GovernanceChange \n    struct BallotAddress {\n        uint256 id;\n        address newGovernanceAddress;\n    }\n\n    //For EnvValChange\n    struct BallotVariable {\n    //Ballot ID\n        uint256 id; \n        bytes32 envVariableName;\n        uint256 envVariableType;\n        bytes envVariableValue;\n    }\n\n    struct Vote {\n        uint256 voteId;\n        uint256 ballotId;\n        address voter;\n        uint256 decision;\n        uint256 power;\n        uint256 time;\n    }\n\n    event BallotCreated(\n        uint256 indexed ballotId,\n        uint256 indexed ballotType,\n        address indexed creator\n    );\n    \n    event BallotStarted(\n        uint256 indexed ballotId,\n        uint256 indexed startTime,\n        uint256 indexed endTime\n    );\n\n    event Voted(\n        uint256 indexed voteid,\n        uint256 indexed ballotId,\n        address indexed voter,\n        uint256 decision       \n    );\n\n    event BallotFinalized(\n        uint256 indexed ballotId,\n        uint256 state\n    );\n\n    event BallotCanceled ( \n        uint256 indexed ballotId\n    );\n\n    mapping(uint=>BallotBasic) internal ballotBasicMap;\n    mapping(uint=>BallotMember) internal ballotMemberMap;\n    mapping(uint=>BallotAddress) internal ballotAddressMap;\n    mapping(uint=>BallotVariable) internal ballotVariableMap;\n    \n    mapping(uint=>Vote) internal voteMap;\n    mapping(uint=>mapping(address=>bool)) internal hasVotedMap;\n\n    address internal previousBallotStorage;\n\n    constructor(address _registry) public {\n        setRegistry(_registry);\n    }\n\n    modifier onlyValidTime(uint256 _startTime, uint256 _endTime) {\n        require(_startTime > 0 && _endTime > 0, \"start or end is 0\");\n        require(_endTime > _startTime, \"start >= end\"); // && _startTime > getTime()\n        //uint256 diffTime = _endTime.sub(_startTime);\n        // require(diffTime > minBallotDuration());\n        // require(diffTime <= maxBallotDuration());\n        _;\n    }\n\n    modifier onlyValidDuration(uint256 _duration){\n        require(getMinVotingDuration() <= _duration, \"Under min value of  duration\");\n        require(_duration <= getMaxVotingDuration(), \"Over max value of duration\");\n        _;\n    }\n\n    modifier onlyGovOrCreator(uint256 _ballotId) {\n        require((getGovAddress() == msg.sender) || (ballotBasicMap[_ballotId].creator == msg.sender), \"No Permission\");\n        _;\n    }\n\n    modifier notDisabled() {\n        require(address(this) == getBallotStorageAddress(), \"Is Disabled\");\n        _;\n    }\n\n    function getMinVotingDuration() public view returns (uint256) {\n        return IEnvStorage(getEnvStorageAddress()).getBallotDurationMin();\n    }\n    \n    function getMaxVotingDuration() public view returns (uint256) {\n        return IEnvStorage(getEnvStorageAddress()).getBallotDurationMax();\n    }\n   \n    function getTime() public view returns(uint256) {\n        return now;\n    }\n\n    function getPreviousBallotStorage() public view returns (address) {\n        return previousBallotStorage;\n    }\n\n    function isDisabled() public view returns (bool) {\n        return (address(this) != getBallotStorageAddress());\n    }\n\n    function getBallotBasic(uint256 _id) public view returns (\n        uint256 startTime,\n        uint256 endTime,\n        uint256 ballotType,\n        address creator,\n        bytes memo,\n        uint256 totalVoters,\n        uint256 powerOfAccepts,\n        uint256 powerOfRejects,\n        uint256 state,\n        bool isFinalized,\n        uint256 duration\n    )\n    {\n        BallotBasic memory tBallot = ballotBasicMap[_id];\n        startTime = tBallot.startTime;\n        endTime = tBallot.endTime;\n        ballotType = tBallot.ballotType;\n        creator = tBallot.creator;\n        memo = tBallot.memo;\n        totalVoters = tBallot.totalVoters;\n        powerOfAccepts = tBallot.powerOfAccepts;\n        powerOfRejects = tBallot.powerOfRejects;\n        state = tBallot.state;\n        isFinalized = tBallot.isFinalized;\n        duration = tBallot.duration;\n    }\n\n    function getBallotMember(uint256 _id) public view returns (\n        address oldMemeberAddress,\n        address newMemeberAddress,\n        bytes newNodeId, // admin.nodeInfo.id is 512 bit public key\n        bytes newNodeIp,\n        uint256 newNodePort,\n        uint256 lockAmount\n    )\n    {\n        BallotMember storage tBallot = ballotMemberMap[_id];\n        oldMemeberAddress = tBallot.oldMemeberAddress;\n        newMemeberAddress = tBallot.newMemeberAddress;\n        newNodeId = tBallot.newNodeId;\n        newNodeIp = tBallot.newNodeIp;\n        newNodePort = tBallot.newNodePort;\n        lockAmount = tBallot.lockAmount;\n    }\n\n    function getBallotAddress(uint256 _id) public view returns (\n        address newGovernanceAddress\n    )\n    {\n        BallotAddress storage tBallot = ballotAddressMap[_id];\n        newGovernanceAddress = tBallot.newGovernanceAddress;\n    }\n\n    function getBallotVariable(uint256 _id) public view returns (\n        bytes32 envVariableName,\n        uint256 envVariableType,\n        bytes envVariableValue \n    )\n    {\n        BallotVariable storage tBallot = ballotVariableMap[_id];\n        envVariableName = tBallot.envVariableName;\n        envVariableType = tBallot.envVariableType;\n        envVariableValue = tBallot.envVariableValue;\n    }\n\n    function setPreviousBallotStorage(address _address) public onlyOwner {\n        require(_address != address(0), \"Invalid address\");\n        previousBallotStorage = _address;\n    }\n\n    //For MemberAdding/MemberRemoval/MemberSwap\n    function createBallotForMemeber(\n        uint256 _id,\n        uint256 _ballotType,\n        address _creator,\n        address _oldMemeberAddress,\n        address _newMemeberAddress,\n        bytes _newNodeId, // admin.nodeInfo.id is 512 bit public key\n        bytes _newNodeIp,\n        uint _newNodePort\n    )\n        public\n        onlyGov\n        notDisabled\n    {\n        require(\n            _areMemberBallotParamValid(\n                _ballotType,\n                _oldMemeberAddress,\n                _newMemeberAddress,\n                _newNodeId,\n                _newNodeIp,\n                _newNodePort\n            ),\n            \"Invalid Parameter\"\n        );\n        _createBallot(_id, _ballotType, _creator);\n        BallotMember memory newBallot;\n        newBallot.id = _id;\n        newBallot.oldMemeberAddress = _oldMemeberAddress;\n        newBallot.newMemeberAddress = _newMemeberAddress;\n        newBallot.newNodeId = _newNodeId;\n        newBallot.newNodeIp = _newNodeIp;\n        newBallot.newNodePort = _newNodePort;\n        ballotMemberMap[_id] = newBallot;\n\n    }\n\n    function createBallotForAddress(\n        uint256 _id,\n        uint256 _ballotType,\n        address _creator,\n        address _newGovernanceAddress\n    )\n        public\n        onlyGov\n        notDisabled\n        returns (uint256)\n    {\n        require(_ballotType == uint256(BallotTypes.GovernanceChange), \"Invalid Ballot Type\");\n        require(_newGovernanceAddress != address(0), \"Invalid Parameter\");\n        \n        _createBallot(_id, _ballotType, _creator);\n        BallotAddress memory newBallot;\n        newBallot.id = _id;\n        newBallot.newGovernanceAddress = _newGovernanceAddress;\n        ballotAddressMap[_id] = newBallot;\n        return _id;\n    }\n\n    function createBallotForVariable(\n        uint256 _id,\n        uint256 _ballotType,\n        address _creator,\n        bytes32 _envVariableName,\n        uint256 _envVariableType,\n        bytes _envVariableValue \n    )\n        public\n        onlyGov\n        notDisabled\n        returns (uint256)\n    {\n        require(\n            _areVariableBallotParamValid(_ballotType, _envVariableName, _envVariableType, _envVariableValue),\n            \"Invalid Parameter\"\n        );\n        _createBallot(_id, _ballotType, _creator);\n        BallotVariable memory newBallot;\n        newBallot.id = _id;\n        newBallot.envVariableName = _envVariableName;\n        newBallot.envVariableType = _envVariableType;\n        newBallot.envVariableValue = _envVariableValue;\n        ballotVariableMap[_id] = newBallot;\n        return _id;\n    }\n\n    function createVote(\n        uint256 _voteId,\n        uint256 _ballotId,\n        address _voter,\n        uint256 _decision,\n        uint256 _power\n    )\n        public\n        onlyGov\n        notDisabled\n        returns (uint256)\n    {\n        //1. msg.sender member\n        //2. actionType  \n        require((_decision == uint256(DecisionTypes.Accept))\n            || (_decision <= uint256(DecisionTypes.Reject)), \"Invalid decision\");\n        \n        //3. ballotId    \n        require(ballotBasicMap[_ballotId].id == _ballotId, \"not existed Ballot\");\n        //4. voteId  \n        require(voteMap[_voteId].voteId != _voteId, \"already existed voteId\");\n        //5.  vote   \n        require(!hasVotedMap[_ballotId][_voter], \"already voted\");\n        require(ballotBasicMap[_ballotId].state\n            == uint256(BallotStates.InProgress), \"Not InProgress State\");\n\n        //1. \n        voteMap[_voteId] = Vote(_voteId, _ballotId, _voter, _decision, _power, getTime());\n        \n        //2.   \n        _updateBallotForVote(_ballotId, _voter, _decision, _power);\n\n        //3. event  \n        emit Voted(_voteId, _ballotId, _voter, _decision);\n    }\n\n    //start/end /state \n    function startBallot(\n        uint256 _ballotId,\n        uint256 _startTime,\n        uint256 _endTime\n    )\n        public\n        onlyGov\n        notDisabled\n        onlyValidTime(_startTime, _endTime)\n    {\n        require(ballotBasicMap[_ballotId].id == _ballotId, \"not existed Ballot\");\n        require(ballotBasicMap[_ballotId].isFinalized == false, \"already finalized\");\n        require(ballotBasicMap[_ballotId].state == uint256(BallotStates.Ready), \"Not Ready State\");\n        BallotBasic storage _ballot = ballotBasicMap[_ballotId];\n        _ballot.startTime = _startTime;\n        _ballot.endTime = _endTime;\n        _ballot.state = uint256(BallotStates.InProgress);\n        emit BallotStarted(_ballotId, _startTime, _endTime);\n    }\n\n    function updateBallotMemo(\n        uint256 _ballotId,\n        bytes _memo\n    )\n        public\n        onlyGovOrCreator(_ballotId)\n        notDisabled\n    {\n        require(ballotBasicMap[_ballotId].id == _ballotId, \"not existed Ballot\");\n        require(ballotBasicMap[_ballotId].isFinalized == false, \"already finalized\");\n        BallotBasic storage _ballot = ballotBasicMap[_ballotId];\n        _ballot.memo = _memo;\n    }\n\n    function updateBallotDuration(\n        uint256 _ballotId,\n        uint256 _duration\n    )\n        public \n        onlyGovOrCreator(_ballotId)\n        notDisabled\n        onlyValidDuration(_duration)\n    {\n        require(ballotBasicMap[_ballotId].id == _ballotId, \"not existed Ballot\");\n        require(ballotBasicMap[_ballotId].isFinalized == false, \"already finalized\");\n        require(ballotBasicMap[_ballotId].state == uint256(BallotStates.Ready), \"Not Ready State\");\n\n        BallotBasic storage _ballot = ballotBasicMap[_ballotId];\n        _ballot.duration = _duration;\n    }\n\n    function updateBallotMemberLockAmount(\n        uint256 _ballotId,\n        uint256 _lockAmount\n    )\n        public \n        onlyGov\n        notDisabled\n    {\n        require(ballotBasicMap[_ballotId].id == _ballotId, \"not existed Ballot\");\n        require(ballotMemberMap[_ballotId].id == _ballotId, \"not existed BallotMember\");\n        require(ballotBasicMap[_ballotId].isFinalized == false, \"already finalized\");\n        require(ballotBasicMap[_ballotId].state == uint256(BallotStates.Ready), \"Not Ready State\");\n        BallotMember storage _ballot = ballotMemberMap[_ballotId];\n        _ballot.lockAmount = _lockAmount;\n    }\n\n    // cancel ballot info.\n    function cancelBallot(uint256 _ballotId) public onlyGovOrCreator(_ballotId) notDisabled {\n        require(ballotBasicMap[_ballotId].id == _ballotId, \"not existed Ballot\");\n        require(ballotBasicMap[_ballotId].isFinalized == false, \"already finalized\");\n        require(ballotBasicMap[_ballotId].state == uint256(BallotStates.Ready), \"Not Ready State\");\n        BallotBasic storage _ballot = ballotBasicMap[_ballotId];\n        _ballot.state = uint256(BallotStates.Canceled);\n        emit BallotCanceled (_ballotId);\n    }\n\n    // finalize ballot info.\n    function finalizeBallot(uint256 _ballotId, uint256 _ballotState) public onlyGov notDisabled {\n        require(ballotBasicMap[_ballotId].id == _ballotId, \"not existed Ballot\");\n        require(ballotBasicMap[_ballotId].isFinalized == false, \"already finalized\");\n        require((_ballotState == uint256(BallotStates.Accepted))\n            || (_ballotState == uint256(BallotStates.Rejected)), \"Invalid Ballot State\");\n\n        BallotBasic storage _ballot = ballotBasicMap[_ballotId];\n        _ballot.state = _ballotState;\n        _ballot.isFinalized = true;\n        emit BallotFinalized (_ballotId, _ballotState);\n    }\n\n    function hasAlreadyVoted(uint56 _ballotId, address _voter) public view returns (bool) {\n        return hasVotedMap[_ballotId][_voter];\n    }\n\n    function getVote(uint256 _voteId) public view returns (\n        uint256 voteId,\n        uint256 ballotId,\n        address voter,\n        uint256 decision,\n        uint256 power,\n        uint256 time\n    )\n    {\n        require(voteMap[_voteId].voteId == _voteId, \"not existed voteId\");\n        Vote memory _vote = voteMap[_voteId];\n        voteId = _vote.voteId;\n        ballotId = _vote.ballotId;\n        voter = _vote.voter;\n        decision = _vote.decision;\n        power = _vote.power;\n        time = _vote.time;\n    }\n\n    function getBallotPeriod(uint256 _id) public view returns (\n        uint256 startTime,\n        uint256 endTime,\n        uint256 duration\n    )\n    {\n        BallotBasic memory tBallot = ballotBasicMap[_id];\n        startTime = tBallot.startTime;\n        endTime = tBallot.endTime; \n        duration = tBallot.duration;\n    }\n\n    function getBallotVotingInfo(uint256 _id) public view returns (\n        uint256 totalVoters,\n        uint256 powerOfAccepts,\n        uint256 powerOfRejects\n\n    )\n    {\n        BallotBasic memory tBallot = ballotBasicMap[_id];\n        totalVoters = tBallot.totalVoters;\n        powerOfAccepts = tBallot.powerOfAccepts;\n        powerOfRejects = tBallot.powerOfRejects;        \n    }\n\n    function getBallotState(uint256 _id) public view returns (\n        uint256 ballotType,\n        uint256 state,\n        bool isFinalized\n    )\n    {\n        BallotBasic memory tBallot = ballotBasicMap[_id];\n        ballotType = tBallot.ballotType;\n        state = tBallot.state;\n        isFinalized = tBallot.isFinalized;\n    }\n\n    function _createBallot(\n        uint256 _id,\n        uint256 _ballotType,\n        address _creator\n    )\n        internal\n    {\n        require(ballotBasicMap[_id].id != _id, \"Already existed ballot\");\n        \n        BallotBasic memory newBallot;\n        newBallot.id = _id;\n        newBallot.ballotType = _ballotType;\n        newBallot.creator = _creator;\n//        newBallot.memo = _memo;\n        newBallot.state = uint256(BallotStates.Ready);\n        newBallot.isFinalized = false;\n//        newBallot.duration = _duration;\n        ballotBasicMap[_id] = newBallot;\n        emit BallotCreated(_id, _ballotType, _creator);\n    }\n\n    function _areMemberBallotParamValid(\n        uint256 _ballotType,\n        address _oldMemeberAddress,\n        address _newMemeberAddress,\n        bytes _newNodeId, // admin.nodeInfo.id is 512 bit public key\n        bytes _newNodeIp,\n        uint _newNodePort\n    )\n        internal\n        pure\n        returns(bool)\n    {\n        require((_ballotType >= uint256(BallotTypes.MemberAdd))\n            && (_ballotType <= uint256(BallotTypes.MemberChange)), \"Invalid Ballot Type\");\n\n        if (_ballotType == uint256(BallotTypes.MemberRemoval)){\n            require(_oldMemeberAddress != address(0), \"Invalid old member address\");\n            require(_newMemeberAddress == address(0), \"Invalid new member address\");\n            require(_newNodeId.length == 0, \"Invalid new node id\");\n            require(_newNodeIp.length == 0, \"Invalid new node IP\");\n            require(_newNodePort == 0, \"Invalid new node Port\");\n        }else {\n            require(_newNodeId.length == 64, \"Invalid new node id\");\n            require(_newNodeIp.length > 0, \"Invalid new node IP\");\n            require(_newNodePort > 0, \"Invalid new node Port\");\n            if (_ballotType == uint256(BallotTypes.MemberAdd)) {\n                require(_oldMemeberAddress == address(0), \"Invalid old member address\");\n                require(_newMemeberAddress != address(0), \"Invalid new member address\");\n            } else if (_ballotType == uint256(BallotTypes.MemberChange)) {\n                require(_oldMemeberAddress != address(0), \"Invalid old member address\");\n                require(_newMemeberAddress != address(0), \"Invalid new member address\");\n            }\n        }\n\n        return true;\n    }\n\n    function _areVariableBallotParamValid(\n        uint256 _ballotType,\n        bytes32 _envVariableName,\n        uint256 _envVariableType,\n        bytes _envVariableValue \n    )\n        internal\n        pure\n        returns(bool)\n    {\n        require(_ballotType == uint256(BallotTypes.EnvValChange), \"Invalid Ballot Type\");\n        require(_envVariableName.length > 0, \"Invalid environment variable name\");\n        require(_envVariableType >= uint256(VariableTypes.Int), \"Invalid environment variable Type\");\n        require(_envVariableType <= uint256(VariableTypes.String), \"Invalid environment variable Type\");\n        require(_envVariableValue.length > 0, \"Invalid environment variable value\");\n\n        return true;\n    }\n\n    // update ballot \n    function _updateBallotForVote(\n        uint256 _ballotId,\n        address _voter,\n        uint256 _decision,\n        uint256 _power\n    )\n        internal\n    {\n        // c1. actionType  \n        require((_decision == uint256(DecisionTypes.Accept))\n            || (_decision == uint256(DecisionTypes.Reject)), \"Invalid decision\");\n        // c2. ballotId    \n        require(ballotBasicMap[_ballotId].id == _ballotId, \"not existed Ballot\");\n        // c3.  vote   \n        require(hasVotedMap[_ballotId][_voter] == false, \"already voted\");\n\n        //1.get ballotBasic\n        BallotBasic storage _ballot = ballotBasicMap[_ballotId];\n        //2.   \n        hasVotedMap[_ballotId][_voter] = true;\n        //3. update totalVoters\n        _ballot.totalVoters = _ballot.totalVoters.add(1);\n        //4. Update power of accept/reject\n        if (_decision == uint256(DecisionTypes.Accept)){\n            _ballot.powerOfAccepts = _ballot.powerOfAccepts.add(_power);\n        } else {\n            _ballot.powerOfRejects = _ballot.powerOfRejects.add(_power);\n        }\n    }\n}",
  "sourcePath": "/Users/ywshin/Documents/WS/truffle/governance-contract-blueisle/contracts/storage/BallotStorage.sol",
  "compiler": {
    "name": "solc",
    "version": "0.4.24+commit.e67f0147.Emscripten.clang"
  },
  "schemaVersion": "2.0.1",
  "updatedAt": "2019-02-12T09:09:00.416Z"
}