{
  "contractName": "BallotStorage",
  "abi": [
    {
      "constant": true,
      "inputs": [],
      "name": "STAKING_NAME",
      "outputs": [
        {
          "name": "",
          "type": "bytes32"
        }
      ],
      "payable": false,
      "stateMutability": "view",
      "type": "function"
    },
    {
      "constant": true,
      "inputs": [],
      "name": "GOV_NAME",
      "outputs": [
        {
          "name": "",
          "type": "bytes32"
        }
      ],
      "payable": false,
      "stateMutability": "view",
      "type": "function"
    },
    {
      "constant": false,
      "inputs": [],
      "name": "renounceOwnership",
      "outputs": [],
      "payable": false,
      "stateMutability": "nonpayable",
      "type": "function"
    },
    {
      "constant": true,
      "inputs": [],
      "name": "reg",
      "outputs": [
        {
          "name": "",
          "type": "address"
        }
      ],
      "payable": false,
      "stateMutability": "view",
      "type": "function"
    },
    {
      "constant": true,
      "inputs": [],
      "name": "ENV_STORAGE_NAME",
      "outputs": [
        {
          "name": "",
          "type": "bytes32"
        }
      ],
      "payable": false,
      "stateMutability": "view",
      "type": "function"
    },
    {
      "constant": true,
      "inputs": [],
      "name": "owner",
      "outputs": [
        {
          "name": "",
          "type": "address"
        }
      ],
      "payable": false,
      "stateMutability": "view",
      "type": "function"
    },
    {
      "constant": true,
      "inputs": [],
      "name": "isOwner",
      "outputs": [
        {
          "name": "",
          "type": "bool"
        }
      ],
      "payable": false,
      "stateMutability": "view",
      "type": "function"
    },
    {
      "constant": true,
      "inputs": [],
      "name": "BALLOT_STORAGE_NAME",
      "outputs": [
        {
          "name": "",
          "type": "bytes32"
        }
      ],
      "payable": false,
      "stateMutability": "view",
      "type": "function"
    },
    {
      "constant": false,
      "inputs": [
        {
          "name": "_addr",
          "type": "address"
        }
      ],
      "name": "setRegistry",
      "outputs": [],
      "payable": false,
      "stateMutability": "nonpayable",
      "type": "function"
    },
    {
      "constant": false,
      "inputs": [
        {
          "name": "newOwner",
          "type": "address"
        }
      ],
      "name": "transferOwnership",
      "outputs": [],
      "payable": false,
      "stateMutability": "nonpayable",
      "type": "function"
    },
    {
      "inputs": [
        {
          "name": "_registry",
          "type": "address"
        }
      ],
      "payable": false,
      "stateMutability": "nonpayable",
      "type": "constructor"
    },
    {
      "anonymous": false,
      "inputs": [
        {
          "indexed": true,
          "name": "ballotId",
          "type": "uint256"
        },
        {
          "indexed": true,
          "name": "ballotType",
          "type": "uint256"
        },
        {
          "indexed": true,
          "name": "creator",
          "type": "address"
        }
      ],
      "name": "BallotCreated",
      "type": "event"
    },
    {
      "anonymous": false,
      "inputs": [
        {
          "indexed": true,
          "name": "ballotId",
          "type": "uint256"
        },
        {
          "indexed": true,
          "name": "startTime",
          "type": "uint256"
        },
        {
          "indexed": true,
          "name": "endTime",
          "type": "uint256"
        }
      ],
      "name": "BallotStarted",
      "type": "event"
    },
    {
      "anonymous": false,
      "inputs": [
        {
          "indexed": true,
          "name": "voteid",
          "type": "uint256"
        },
        {
          "indexed": true,
          "name": "ballotId",
          "type": "uint256"
        },
        {
          "indexed": true,
          "name": "voter",
          "type": "address"
        },
        {
          "indexed": false,
          "name": "decision",
          "type": "uint256"
        }
      ],
      "name": "Voted",
      "type": "event"
    },
    {
      "anonymous": false,
      "inputs": [
        {
          "indexed": true,
          "name": "ballotId",
          "type": "uint256"
        },
        {
          "indexed": false,
          "name": "state",
          "type": "uint256"
        }
      ],
      "name": "BallotFinalized",
      "type": "event"
    },
    {
      "anonymous": false,
      "inputs": [
        {
          "indexed": true,
          "name": "previousOwner",
          "type": "address"
        },
        {
          "indexed": true,
          "name": "newOwner",
          "type": "address"
        }
      ],
      "name": "OwnershipTransferred",
      "type": "event"
    },
    {
      "constant": true,
      "inputs": [],
      "name": "getMinVotingDuration",
      "outputs": [
        {
          "name": "",
          "type": "uint256"
        }
      ],
      "payable": false,
      "stateMutability": "view",
      "type": "function"
    },
    {
      "constant": true,
      "inputs": [],
      "name": "getMaxVotingDuration",
      "outputs": [
        {
          "name": "",
          "type": "uint256"
        }
      ],
      "payable": false,
      "stateMutability": "view",
      "type": "function"
    },
    {
      "constant": true,
      "inputs": [],
      "name": "getTime",
      "outputs": [
        {
          "name": "",
          "type": "uint256"
        }
      ],
      "payable": false,
      "stateMutability": "view",
      "type": "function"
    },
    {
      "constant": true,
      "inputs": [],
      "name": "getPreviousBallotStorage",
      "outputs": [
        {
          "name": "",
          "type": "address"
        }
      ],
      "payable": false,
      "stateMutability": "view",
      "type": "function"
    },
    {
      "constant": true,
      "inputs": [],
      "name": "isDisabled",
      "outputs": [
        {
          "name": "",
          "type": "bool"
        }
      ],
      "payable": false,
      "stateMutability": "view",
      "type": "function"
    },
    {
      "constant": true,
      "inputs": [
        {
          "name": "_id",
          "type": "uint256"
        }
      ],
      "name": "getBallotBasic",
      "outputs": [
        {
          "name": "startTime",
          "type": "uint256"
        },
        {
          "name": "endTime",
          "type": "uint256"
        },
        {
          "name": "ballotType",
          "type": "uint256"
        },
        {
          "name": "creator",
          "type": "address"
        },
        {
          "name": "memo",
          "type": "bytes"
        },
        {
          "name": "totalVoters",
          "type": "uint256"
        },
        {
          "name": "powerOfAccepts",
          "type": "uint256"
        },
        {
          "name": "powerOfRejects",
          "type": "uint256"
        },
        {
          "name": "state",
          "type": "uint256"
        },
        {
          "name": "isFinalized",
          "type": "bool"
        },
        {
          "name": "duration",
          "type": "uint256"
        }
      ],
      "payable": false,
      "stateMutability": "view",
      "type": "function"
    },
    {
      "constant": true,
      "inputs": [
        {
          "name": "_id",
          "type": "uint256"
        }
      ],
      "name": "getBallotMember",
      "outputs": [
        {
          "name": "oldMemeberAddress",
          "type": "address"
        },
        {
          "name": "newMemeberAddress",
          "type": "address"
        },
        {
          "name": "newNodeId",
          "type": "bytes"
        },
        {
          "name": "newNodeIp",
          "type": "bytes"
        },
        {
          "name": "newNodePort",
          "type": "uint256"
        },
        {
          "name": "lockAmount",
          "type": "uint256"
        }
      ],
      "payable": false,
      "stateMutability": "view",
      "type": "function"
    },
    {
      "constant": true,
      "inputs": [
        {
          "name": "_id",
          "type": "uint256"
        }
      ],
      "name": "getBallotAddress",
      "outputs": [
        {
          "name": "newGovernanceAddress",
          "type": "address"
        }
      ],
      "payable": false,
      "stateMutability": "view",
      "type": "function"
    },
    {
      "constant": true,
      "inputs": [
        {
          "name": "_id",
          "type": "uint256"
        }
      ],
      "name": "getBallotVariable",
      "outputs": [
        {
          "name": "envVariableName",
          "type": "bytes32"
        },
        {
          "name": "envVariableType",
          "type": "uint256"
        },
        {
          "name": "envVariableValue",
          "type": "bytes"
        }
      ],
      "payable": false,
      "stateMutability": "view",
      "type": "function"
    },
    {
      "constant": false,
      "inputs": [
        {
          "name": "_address",
          "type": "address"
        }
      ],
      "name": "setPreviousBallotStorage",
      "outputs": [],
      "payable": false,
      "stateMutability": "nonpayable",
      "type": "function"
    },
    {
      "constant": false,
      "inputs": [
        {
          "name": "_id",
          "type": "uint256"
        },
        {
          "name": "_ballotType",
          "type": "uint256"
        },
        {
          "name": "_creator",
          "type": "address"
        },
        {
          "name": "_oldMemeberAddress",
          "type": "address"
        },
        {
          "name": "_newMemeberAddress",
          "type": "address"
        },
        {
          "name": "_newNodeId",
          "type": "bytes"
        },
        {
          "name": "_newNodeIp",
          "type": "bytes"
        },
        {
          "name": "_newNodePort",
          "type": "uint256"
        }
      ],
      "name": "createBallotForMemeber",
      "outputs": [],
      "payable": false,
      "stateMutability": "nonpayable",
      "type": "function"
    },
    {
      "constant": false,
      "inputs": [
        {
          "name": "_id",
          "type": "uint256"
        },
        {
          "name": "_ballotType",
          "type": "uint256"
        },
        {
          "name": "_creator",
          "type": "address"
        },
        {
          "name": "_newGovernanceAddress",
          "type": "address"
        }
      ],
      "name": "createBallotForAddress",
      "outputs": [
        {
          "name": "",
          "type": "uint256"
        }
      ],
      "payable": false,
      "stateMutability": "nonpayable",
      "type": "function"
    },
    {
      "constant": false,
      "inputs": [
        {
          "name": "_id",
          "type": "uint256"
        },
        {
          "name": "_ballotType",
          "type": "uint256"
        },
        {
          "name": "_creator",
          "type": "address"
        },
        {
          "name": "_envVariableName",
          "type": "bytes32"
        },
        {
          "name": "_envVariableType",
          "type": "uint256"
        },
        {
          "name": "_envVariableValue",
          "type": "bytes"
        }
      ],
      "name": "createBallotForVariable",
      "outputs": [
        {
          "name": "",
          "type": "uint256"
        }
      ],
      "payable": false,
      "stateMutability": "nonpayable",
      "type": "function"
    },
    {
      "constant": false,
      "inputs": [
        {
          "name": "_voteId",
          "type": "uint256"
        },
        {
          "name": "_ballotId",
          "type": "uint256"
        },
        {
          "name": "_voter",
          "type": "address"
        },
        {
          "name": "_decision",
          "type": "uint256"
        },
        {
          "name": "_power",
          "type": "uint256"
        }
      ],
      "name": "createVote",
      "outputs": [
        {
          "name": "",
          "type": "uint256"
        }
      ],
      "payable": false,
      "stateMutability": "nonpayable",
      "type": "function"
    },
    {
      "constant": false,
      "inputs": [
        {
          "name": "_ballotId",
          "type": "uint256"
        },
        {
          "name": "_startTime",
          "type": "uint256"
        },
        {
          "name": "_endTime",
          "type": "uint256"
        }
      ],
      "name": "startBallot",
      "outputs": [],
      "payable": false,
      "stateMutability": "nonpayable",
      "type": "function"
    },
    {
      "constant": false,
      "inputs": [
        {
          "name": "_ballotId",
          "type": "uint256"
        },
        {
          "name": "_memo",
          "type": "bytes"
        }
      ],
      "name": "updateBallotMemo",
      "outputs": [],
      "payable": false,
      "stateMutability": "nonpayable",
      "type": "function"
    },
    {
      "constant": false,
      "inputs": [
        {
          "name": "_ballotId",
          "type": "uint256"
        },
        {
          "name": "_duration",
          "type": "uint256"
        }
      ],
      "name": "updateBallotDuration",
      "outputs": [],
      "payable": false,
      "stateMutability": "nonpayable",
      "type": "function"
    },
    {
      "constant": false,
      "inputs": [
        {
          "name": "_ballotId",
          "type": "uint256"
        },
        {
          "name": "_lockAmount",
          "type": "uint256"
        }
      ],
      "name": "updateBallotMemberLockAmount",
      "outputs": [],
      "payable": false,
      "stateMutability": "nonpayable",
      "type": "function"
    },
    {
      "constant": false,
      "inputs": [
        {
          "name": "_ballotId",
          "type": "uint256"
        },
        {
          "name": "_ballotState",
          "type": "uint256"
        }
      ],
      "name": "finalizeBallot",
      "outputs": [],
      "payable": false,
      "stateMutability": "nonpayable",
      "type": "function"
    },
    {
      "constant": true,
      "inputs": [
        {
          "name": "_ballotId",
          "type": "uint56"
        },
        {
          "name": "_voter",
          "type": "address"
        }
      ],
      "name": "hasAlreadyVoted",
      "outputs": [
        {
          "name": "",
          "type": "bool"
        }
      ],
      "payable": false,
      "stateMutability": "view",
      "type": "function"
    },
    {
      "constant": true,
      "inputs": [
        {
          "name": "_voteId",
          "type": "uint256"
        }
      ],
      "name": "getVote",
      "outputs": [
        {
          "name": "voteId",
          "type": "uint256"
        },
        {
          "name": "ballotId",
          "type": "uint256"
        },
        {
          "name": "voter",
          "type": "address"
        },
        {
          "name": "decision",
          "type": "uint256"
        },
        {
          "name": "power",
          "type": "uint256"
        },
        {
          "name": "time",
          "type": "uint256"
        }
      ],
      "payable": false,
      "stateMutability": "view",
      "type": "function"
    },
    {
      "constant": true,
      "inputs": [
        {
          "name": "_id",
          "type": "uint256"
        }
      ],
      "name": "getBallotPeriod",
      "outputs": [
        {
          "name": "startTime",
          "type": "uint256"
        },
        {
          "name": "endTime",
          "type": "uint256"
        },
        {
          "name": "duration",
          "type": "uint256"
        }
      ],
      "payable": false,
      "stateMutability": "view",
      "type": "function"
    },
    {
      "constant": true,
      "inputs": [
        {
          "name": "_id",
          "type": "uint256"
        }
      ],
      "name": "getBallotVotingInfo",
      "outputs": [
        {
          "name": "totalVoters",
          "type": "uint256"
        },
        {
          "name": "powerOfAccepts",
          "type": "uint256"
        },
        {
          "name": "powerOfRejects",
          "type": "uint256"
        }
      ],
      "payable": false,
      "stateMutability": "view",
      "type": "function"
    },
    {
      "constant": true,
      "inputs": [
        {
          "name": "_id",
          "type": "uint256"
        }
      ],
      "name": "getBallotState",
      "outputs": [
        {
          "name": "ballotType",
          "type": "uint256"
        },
        {
          "name": "state",
          "type": "uint256"
        },
        {
          "name": "isFinalized",
          "type": "bool"
        }
      ],
      "payable": false,
      "stateMutability": "view",
      "type": "function"
    }
  ],
  "bytecode": "0x60806040523480156200001157600080fd5b5060405160208062005aad83398101806040528101908080519060200190929190505050336000806101000a81548173ffffffffffffffffffffffffffffffffffffffff021916908373ffffffffffffffffffffffffffffffffffffffff1602179055506000809054906101000a900473ffffffffffffffffffffffffffffffffffffffff1673ffffffffffffffffffffffffffffffffffffffff16600073ffffffffffffffffffffffffffffffffffffffff167f8be0079c531659141344cd1fd0a4f28419497f9722a3daafe3b4186f6b6457e060405160405180910390a36200010b8162000112640100000000026401000000009004565b50620001d2565b6200012b6200017b640100000000026401000000009004565b15156200013757600080fd5b80600160006101000a81548173ffffffffffffffffffffffffffffffffffffffff021916908373ffffffffffffffffffffffffffffffffffffffff16021790555050565b60008060009054906101000a900473ffffffffffffffffffffffffffffffffffffffff1673ffffffffffffffffffffffffffffffffffffffff163373ffffffffffffffffffffffffffffffffffffffff1614905090565b6158cb80620001e26000396000f3006080604052600436106101ac576000357c0100000000000000000000000000000000000000000000000000000000900463ffffffff16806302b385fb146101b157806309970688146102cd5780631c1501711461031c5780631d940da2146103475780631e0cba0d146104035780632a74f38c146104365780634a4af01314610479578063557ed1ba1461050457806356ba988e1461052f5780635a55c1f01461057e578063656bc6331461060e578063688ca5b2146106455780636c57f5a9146106985780636c78d2cf146106c7578063715018a6146106fa57806372d0ec9214610711578063738fdd1a1461074857806373df4e011461079f5780637bf46530146109255780637efa9ae3146109585780637f5b7ab3146109c55780638da5cb5b14610a8e5780638f32d59b14610ae557806396462b9c14610b145780639986e4b914610b9357806399e929a314610bc6578063a91e59ba14610cf3578063a91ee0dc14610d2a578063b23c676c14610d6d578063bce0dbc114610dc4578063c0b6f18614610e37578063ce04b9d414610e78578063f2fde38b14610ea3578063f680e55514610ee6575b600080fd5b3480156101bd57600080fd5b506101dc60048036038101908080359060200190929190505050610f54565b604051808c81526020018b81526020018a81526020018973ffffffffffffffffffffffffffffffffffffffff1673ffffffffffffffffffffffffffffffffffffffff1681526020018060200188815260200187815260200186815260200185815260200184151515158152602001838152602001828103825289818151815260200191508051906020019080838360005b8381101561028857808201518184015260208101905061026d565b50505050905090810190601f1680156102b55780820380516001836020036101000a031916815260200191505b509c5050505050505050505050505060405180910390f35b3480156102d957600080fd5b506102f86004803603810190808035906020019092919050505061115d565b60405180848152602001838152602001828152602001935050505060405180910390f35b34801561032857600080fd5b50610331611317565b6040518082815260200191505060405180910390f35b34801561035357600080fd5b50610372600480360381019080803590602001909291905050506113c4565b60405180846000191660001916815260200183815260200180602001828103825283818151815260200191508051906020019080838360005b838110156103c65780820151818401526020810190506103ab565b50505050905090810190601f1680156103f35780820380516001836020036101000a031916815260200191505b5094505050505060405180910390f35b34801561040f57600080fd5b50610418611495565b60405180826000191660001916815260200191505060405180910390f35b34801561044257600080fd5b50610477600480360381019080803573ffffffffffffffffffffffffffffffffffffffff1690602001909291905050506114b9565b005b34801561048557600080fd5b506104ee6004803603810190808035906020019092919080359060200190929190803573ffffffffffffffffffffffffffffffffffffffff169060200190929190803573ffffffffffffffffffffffffffffffffffffffff1690602001909291905050506115b5565b6040518082815260200191505060405180910390f35b34801561051057600080fd5b506105196118fc565b6040518082815260200191505060405180910390f35b34801561053b57600080fd5b5061055a60048036038101908080359060200190929190505050611904565b60405180848152602001838152602001828152602001935050505060405180910390f35b34801561058a57600080fd5b506105a960048036038101908080359060200190929190505050611abe565b604051808781526020018681526020018573ffffffffffffffffffffffffffffffffffffffff1673ffffffffffffffffffffffffffffffffffffffff168152602001848152602001838152602001828152602001965050505050505060405180910390f35b34801561061a57600080fd5b506106436004803603810190808035906020019092919080359060200190929190505050611c39565b005b34801561065157600080fd5b50610670600480360381019080803590602001909291905050506120e5565b6040518084815260200183815260200182151515158152602001935050505060405180910390f35b3480156106a457600080fd5b506106ad6122a0565b604051808215151515815260200191505060405180910390f35b3480156106d357600080fd5b506106dc6122de565b60405180826000191660001916815260200191505060405180910390f35b34801561070657600080fd5b5061070f612302565b005b34801561071d57600080fd5b5061074660048036038101908080359060200190929190803590602001909291905050506123d4565b005b34801561075457600080fd5b5061075d61279f565b604051808273ffffffffffffffffffffffffffffffffffffffff1673ffffffffffffffffffffffffffffffffffffffff16815260200191505060405180910390f35b3480156107ab57600080fd5b506107ca600480360381019080803590602001909291905050506127c5565b604051808773ffffffffffffffffffffffffffffffffffffffff1673ffffffffffffffffffffffffffffffffffffffff1681526020018673ffffffffffffffffffffffffffffffffffffffff1673ffffffffffffffffffffffffffffffffffffffff1681526020018060200180602001858152602001848152602001838103835287818151815260200191508051906020019080838360005b8381101561087e578082015181840152602081019050610863565b50505050905090810190601f1680156108ab5780820380516001836020036101000a031916815260200191505b50838103825286818151815260200191508051906020019080838360005b838110156108e45780820151818401526020810190506108c9565b50505050905090810190601f1680156109115780820380516001836020036101000a031916815260200191505b509850505050505050505060405180910390f35b34801561093157600080fd5b5061093a612989565b60405180826000191660001916815260200191505060405180910390f35b34801561096457600080fd5b50610983600480360381019080803590602001909291905050506129ad565b604051808273ffffffffffffffffffffffffffffffffffffffff1673ffffffffffffffffffffffffffffffffffffffff16815260200191505060405180910390f35b3480156109d157600080fd5b50610a786004803603810190808035906020019092919080359060200190929190803573ffffffffffffffffffffffffffffffffffffffff169060200190929190803560001916906020019092919080359060200190929190803590602001908201803590602001908080601f01602080910402602001604051908101604052809392919081815260200183838082843782019150505050505091929192905050506129f2565b6040518082815260200191505060405180910390f35b348015610a9a57600080fd5b50610aa3612c72565b604051808273ffffffffffffffffffffffffffffffffffffffff1673ffffffffffffffffffffffffffffffffffffffff16815260200191505060405180910390f35b348015610af157600080fd5b50610afa612c9b565b604051808215151515815260200191505060405180910390f35b348015610b2057600080fd5b50610b7d6004803603810190808035906020019092919080359060200190929190803573ffffffffffffffffffffffffffffffffffffffff1690602001909291908035906020019092919080359060200190929190505050612cf2565b6040518082815260200191505060405180910390f35b348015610b9f57600080fd5b50610ba86132a7565b60405180826000191660001916815260200191505060405180910390f35b348015610bd257600080fd5b50610cf16004803603810190808035906020019092919080359060200190929190803573ffffffffffffffffffffffffffffffffffffffff169060200190929190803573ffffffffffffffffffffffffffffffffffffffff169060200190929190803573ffffffffffffffffffffffffffffffffffffffff169060200190929190803590602001908201803590602001908080601f0160208091040260200160405190810160405280939291908181526020018383808284378201915050505050509192919290803590602001908201803590602001908080601f0160208091040260200160405190810160405280939291908181526020018383808284378201915050505050509192919290803590602001909291905050506132cb565b005b348015610cff57600080fd5b50610d286004803603810190808035906020019092919080359060200190929190505050613652565b005b348015610d3657600080fd5b50610d6b600480360381019080803573ffffffffffffffffffffffffffffffffffffffff1690602001909291905050506139e4565b005b348015610d7957600080fd5b50610d82613a3b565b604051808273ffffffffffffffffffffffffffffffffffffffff1673ffffffffffffffffffffffffffffffffffffffff16815260200191505060405180910390f35b348015610dd057600080fd5b50610e3560048036038101908080359060200190929190803590602001908201803590602001908080601f0160208091040260200160405190810160405280939291908181526020018383808284378201915050505050509192919290505050613a65565b005b348015610e4357600080fd5b50610e76600480360381019080803590602001909291908035906020019092919080359060200190929190505050613d88565b005b348015610e8457600080fd5b50610e8d614213565b6040518082815260200191505060405180910390f35b348015610eaf57600080fd5b50610ee4600480360381019080803573ffffffffffffffffffffffffffffffffffffffff1690602001909291905050506142c0565b005b348015610ef257600080fd5b50610f3a600480360381019080803566ffffffffffffff169060200190929190803573ffffffffffffffffffffffffffffffffffffffff1690602001909291905050506142df565b604051808215151515815260200191505060405180910390f35b6000806000806060600080600080600080610f6d6155ed565b600260008e81526020019081526020016000206101806040519081016040529081600082015481526020016001820154815260200160028201548152602001600382015481526020016004820160009054906101000a900473ffffffffffffffffffffffffffffffffffffffff1673ffffffffffffffffffffffffffffffffffffffff1673ffffffffffffffffffffffffffffffffffffffff168152602001600582018054600181600116156101000203166002900480601f0160208091040260200160405190810160405280929190818152602001828054600181600116156101000203166002900480156110a45780601f10611079576101008083540402835291602001916110a4565b820191906000526020600020905b81548152906001019060200180831161108757829003601f168201915b5050505050815260200160068201548152602001600782015481526020016008820154815260200160098201548152602001600a820160009054906101000a900460ff16151515158152602001600b82015481525050905080602001519b5080604001519a5080606001519950806080015198508060a0015197508060c0015196508060e00151955080610100015194508061012001519350806101400151925080610160015191505091939597999b90929496989a50565b600080600061116a6155ed565b600260008681526020019081526020016000206101806040519081016040529081600082015481526020016001820154815260200160028201548152602001600382015481526020016004820160009054906101000a900473ffffffffffffffffffffffffffffffffffffffff1673ffffffffffffffffffffffffffffffffffffffff1673ffffffffffffffffffffffffffffffffffffffff168152602001600582018054600181600116156101000203166002900480601f0160208091040260200160405190810160405280929190818152602001828054600181600116156101000203166002900480156112a15780601f10611276576101008083540402835291602001916112a1565b820191906000526020600020905b81548152906001019060200180831161128457829003601f168201915b5050505050815260200160068201548152602001600782015481526020016008820154815260200160098201548152602001600a820160009054906101000a900460ff16151515158152602001600b82015481525050905080602001519350806040015192508061016001519150509193909250565b6000611321614350565b73ffffffffffffffffffffffffffffffffffffffff166333be496e6040518163ffffffff167c0100000000000000000000000000000000000000000000000000000000028152600401602060405180830381600087803b15801561138457600080fd5b505af1158015611398573d6000803e3d6000fd5b505050506040513d60208110156113ae57600080fd5b8101908080519060200190929190505050905090565b600080606060006005600086815260200190815260200160002090508060010154935080600201549250806003018054600181600116156101000203166002900480601f0160208091040260200160405190810160405280929190818152602001828054600181600116156101000203166002900480156114865780601f1061145b57610100808354040283529160200191611486565b820191906000526020600020905b81548152906001019060200180831161146957829003601f168201915b50505050509150509193909250565b7f5374616b696e670000000000000000000000000000000000000000000000000081565b6114c1612c9b565b15156114cc57600080fd5b600073ffffffffffffffffffffffffffffffffffffffff168173ffffffffffffffffffffffffffffffffffffffff1614151515611571576040517f08c379a000000000000000000000000000000000000000000000000000000000815260040180806020018281038252600f8152602001807f496e76616c69642061646472657373000000000000000000000000000000000081525060200191505060405180910390fd5b80600860006101000a81548173ffffffffffffffffffffffffffffffffffffffff021916908373ffffffffffffffffffffffffffffffffffffffff16021790555050565b60006115bf615667565b3373ffffffffffffffffffffffffffffffffffffffff166115de614380565b73ffffffffffffffffffffffffffffffffffffffff16141515611669576040517f08c379a000000000000000000000000000000000000000000000000000000000815260040180806020018281038252600d8152602001807f4e6f205065726d697373696f6e0000000000000000000000000000000000000081525060200191505060405180910390fd5b6116716143b0565b73ffffffffffffffffffffffffffffffffffffffff163073ffffffffffffffffffffffffffffffffffffffff16141515611713576040517f08c379a000000000000000000000000000000000000000000000000000000000815260040180806020018281038252600b8152602001807f49732044697361626c656400000000000000000000000000000000000000000081525060200191505060405180910390fd5b6004600581111561172057fe5b85141515611796576040517f08c379a00000000000000000000000000000000000000000000000000000000081526004018080602001828103825260138152602001807f496e76616c69642042616c6c6f7420547970650000000000000000000000000081525060200191505060405180910390fd5b600073ffffffffffffffffffffffffffffffffffffffff168373ffffffffffffffffffffffffffffffffffffffff161415151561183b576040517f08c379a00000000000000000000000000000000000000000000000000000000081526004018080602001828103825260118152602001807f496e76616c696420506172616d6574657200000000000000000000000000000081525060200191505060405180910390fd5b6118468686866143e0565b8581600001818152505082816020019073ffffffffffffffffffffffffffffffffffffffff16908173ffffffffffffffffffffffffffffffffffffffff168152505080600460008881526020019081526020016000206000820151816000015560208201518160010160006101000a81548173ffffffffffffffffffffffffffffffffffffffff021916908373ffffffffffffffffffffffffffffffffffffffff16021790555090505085915050949350505050565b600042905090565b60008060006119116155ed565b600260008681526020019081526020016000206101806040519081016040529081600082015481526020016001820154815260200160028201548152602001600382015481526020016004820160009054906101000a900473ffffffffffffffffffffffffffffffffffffffff1673ffffffffffffffffffffffffffffffffffffffff1673ffffffffffffffffffffffffffffffffffffffff168152602001600582018054600181600116156101000203166002900480601f016020809104026020016040519081016040528092919081815260200182805460018160011615610100020316600290048015611a485780601f10611a1d57610100808354040283529160200191611a48565b820191906000526020600020905b815481529060010190602001808311611a2b57829003601f168201915b5050505050815260200160068201548152602001600782015481526020016008820154815260200160098201548152602001600a820160009054906101000a900460ff16151515158152602001600b8201548152505090508060c0015193508060e0015192508061010001519150509193909250565b600080600080600080611acf615697565b87600660008a815260200190815260200160002060000154141515611b5c576040517f08c379a00000000000000000000000000000000000000000000000000000000081526004018080602001828103825260128152602001807f6e6f74206578697374656420766f74654964000000000000000000000000000081525060200191505060405180910390fd5b6006600089815260200190815260200160002060c0604051908101604052908160008201548152602001600182015481526020016002820160009054906101000a900473ffffffffffffffffffffffffffffffffffffffff1673ffffffffffffffffffffffffffffffffffffffff1673ffffffffffffffffffffffffffffffffffffffff1681526020016003820154815260200160048201548152602001600582015481525050905080600001519650806020015195508060400151945080606001519350806080015192508060a0015191505091939550919395565b6000823373ffffffffffffffffffffffffffffffffffffffff16611c5b614380565b73ffffffffffffffffffffffffffffffffffffffff161480611cde57503373ffffffffffffffffffffffffffffffffffffffff166002600083815260200190815260200160002060040160009054906101000a900473ffffffffffffffffffffffffffffffffffffffff1673ffffffffffffffffffffffffffffffffffffffff16145b1515611d52576040517f08c379a000000000000000000000000000000000000000000000000000000000815260040180806020018281038252600d8152602001807f4e6f205065726d697373696f6e0000000000000000000000000000000000000081525060200191505060405180910390fd5b611d5a6143b0565b73ffffffffffffffffffffffffffffffffffffffff163073ffffffffffffffffffffffffffffffffffffffff16141515611dfc576040517f08c379a000000000000000000000000000000000000000000000000000000000815260040180806020018281038252600b8152602001807f49732044697361626c656400000000000000000000000000000000000000000081525060200191505060405180910390fd5b8280611e06611317565b11151515611e7c576040517f08c379a000000000000000000000000000000000000000000000000000000000815260040180806020018281038252601c8152602001807f556e646572206d696e2076616c7565206f6620206475726174696f6e0000000081525060200191505060405180910390fd5b611e84614213565b8111151515611efb576040517f08c379a000000000000000000000000000000000000000000000000000000000815260040180806020018281038252601a8152602001807f4f766572206d61782076616c7565206f66206475726174696f6e00000000000081525060200191505060405180910390fd5b846002600087815260200190815260200160002060000154141515611f88576040517f08c379a00000000000000000000000000000000000000000000000000000000081526004018080602001828103825260128152602001807f6e6f7420657869737465642042616c6c6f74000000000000000000000000000081525060200191505060405180910390fd5b6000151560026000878152602001908152602001600020600a0160009054906101000a900460ff161515141515612027576040517f08c379a00000000000000000000000000000000000000000000000000000000081526004018080602001828103825260118152602001807f616c72656164792066696e616c697a656400000000000000000000000000000081525060200191505060405180910390fd5b6001600481111561203457fe5b60026000878152602001908152602001600020600901541415156120c0576040517f08c379a000000000000000000000000000000000000000000000000000000000815260040180806020018281038252600f8152602001807f4e6f74205265616479205374617465000000000000000000000000000000000081525060200191505060405180910390fd5b6002600086815260200190815260200160002092508383600b01819055505050505050565b60008060006120f26155ed565b600260008681526020019081526020016000206101806040519081016040529081600082015481526020016001820154815260200160028201548152602001600382015481526020016004820160009054906101000a900473ffffffffffffffffffffffffffffffffffffffff1673ffffffffffffffffffffffffffffffffffffffff1673ffffffffffffffffffffffffffffffffffffffff168152602001600582018054600181600116156101000203166002900480601f0160208091040260200160405190810160405280929190818152602001828054600181600116156101000203166002900480156122295780601f106121fe57610100808354040283529160200191612229565b820191906000526020600020905b81548152906001019060200180831161220c57829003601f168201915b5050505050815260200160068201548152602001600782015481526020016008820154815260200160098201548152602001600a820160009054906101000a900460ff16151515158152602001600b8201548152505090508060600151935080610120015192508061014001519150509193909250565b60006122aa6143b0565b73ffffffffffffffffffffffffffffffffffffffff163073ffffffffffffffffffffffffffffffffffffffff161415905090565b7f476f7665726e616e6365436f6e7472616374000000000000000000000000000081565b61230a612c9b565b151561231557600080fd5b600073ffffffffffffffffffffffffffffffffffffffff166000809054906101000a900473ffffffffffffffffffffffffffffffffffffffff1673ffffffffffffffffffffffffffffffffffffffff167f8be0079c531659141344cd1fd0a4f28419497f9722a3daafe3b4186f6b6457e060405160405180910390a360008060006101000a81548173ffffffffffffffffffffffffffffffffffffffff021916908373ffffffffffffffffffffffffffffffffffffffff160217905550565b60003373ffffffffffffffffffffffffffffffffffffffff166123f5614380565b73ffffffffffffffffffffffffffffffffffffffff16141515612480576040517f08c379a000000000000000000000000000000000000000000000000000000000815260040180806020018281038252600d8152602001807f4e6f205065726d697373696f6e0000000000000000000000000000000000000081525060200191505060405180910390fd5b6124886143b0565b73ffffffffffffffffffffffffffffffffffffffff163073ffffffffffffffffffffffffffffffffffffffff1614151561252a576040517f08c379a000000000000000000000000000000000000000000000000000000000815260040180806020018281038252600b8152602001807f49732044697361626c656400000000000000000000000000000000000000000081525060200191505060405180910390fd5b8260026000858152602001908152602001600020600001541415156125b7576040517f08c379a00000000000000000000000000000000000000000000000000000000081526004018080602001828103825260128152602001807f6e6f7420657869737465642042616c6c6f74000000000000000000000000000081525060200191505060405180910390fd5b826003600085815260200190815260200160002060000154141515612644576040517f08c379a00000000000000000000000000000000000000000000000000000000081526004018080602001828103825260188152602001807f6e6f7420657869737465642042616c6c6f744d656d626572000000000000000081525060200191505060405180910390fd5b6000151560026000858152602001908152602001600020600a0160009054906101000a900460ff1615151415156126e3576040517f08c379a00000000000000000000000000000000000000000000000000000000081526004018080602001828103825260118152602001807f616c72656164792066696e616c697a656400000000000000000000000000000081525060200191505060405180910390fd5b600160048111156126f057fe5b600260008581526020019081526020016000206009015414151561277c576040517f08c379a000000000000000000000000000000000000000000000000000000000815260040180806020018281038252600f8152602001807f4e6f74205265616479205374617465000000000000000000000000000000000081525060200191505060405180910390fd5b600360008481526020019081526020016000209050818160060181905550505050565b600160009054906101000a900473ffffffffffffffffffffffffffffffffffffffff1681565b60008060608060008060006003600089815260200190815260200160002090508060010160009054906101000a900473ffffffffffffffffffffffffffffffffffffffff1696508060020160009054906101000a900473ffffffffffffffffffffffffffffffffffffffff169550806003018054600181600116156101000203166002900480601f0160208091040260200160405190810160405280929190818152602001828054600181600116156101000203166002900480156128cb5780601f106128a0576101008083540402835291602001916128cb565b820191906000526020600020905b8154815290600101906020018083116128ae57829003601f168201915b50505050509450806004018054600181600116156101000203166002900480601f01602080910402602001604051908101604052809291908181526020018280546001816001161561010002031660029004801561296a5780601f1061293f5761010080835404028352916020019161296a565b820191906000526020600020905b81548152906001019060200180831161294d57829003601f168201915b5050505050935080600501549250806006015491505091939550919395565b7f456e7653746f726167650000000000000000000000000000000000000000000081565b6000806004600084815260200190815260200160002090508060010160009054906101000a900473ffffffffffffffffffffffffffffffffffffffff16915050919050565b60006129fc6156e4565b3373ffffffffffffffffffffffffffffffffffffffff16612a1b614380565b73ffffffffffffffffffffffffffffffffffffffff16141515612aa6576040517f08c379a000000000000000000000000000000000000000000000000000000000815260040180806020018281038252600d8152602001807f4e6f205065726d697373696f6e0000000000000000000000000000000000000081525060200191505060405180910390fd5b612aae6143b0565b73ffffffffffffffffffffffffffffffffffffffff163073ffffffffffffffffffffffffffffffffffffffff16141515612b50576040517f08c379a000000000000000000000000000000000000000000000000000000000815260040180806020018281038252600b8152602001807f49732044697361626c656400000000000000000000000000000000000000000081525060200191505060405180910390fd5b612b5c8786868661462f565b1515612bd0576040517f08c379a00000000000000000000000000000000000000000000000000000000081526004018080602001828103825260118152602001807f496e76616c696420506172616d6574657200000000000000000000000000000081525060200191505060405180910390fd5b612bdb8888886143e0565b8781600001818152505084816020019060001916908160001916815250508381604001818152505082816060018190525080600560008a81526020019081526020016000206000820151816000015560208201518160010190600019169055604082015181600201556060820151816003019080519060200190612c60929190615710565b50905050879150509695505050505050565b60008060009054906101000a900473ffffffffffffffffffffffffffffffffffffffff16905090565b60008060009054906101000a900473ffffffffffffffffffffffffffffffffffffffff1673ffffffffffffffffffffffffffffffffffffffff163373ffffffffffffffffffffffffffffffffffffffff1614905090565b60003373ffffffffffffffffffffffffffffffffffffffff16612d13614380565b73ffffffffffffffffffffffffffffffffffffffff16141515612d9e576040517f08c379a000000000000000000000000000000000000000000000000000000000815260040180806020018281038252600d8152602001807f4e6f205065726d697373696f6e0000000000000000000000000000000000000081525060200191505060405180910390fd5b612da66143b0565b73ffffffffffffffffffffffffffffffffffffffff163073ffffffffffffffffffffffffffffffffffffffff16141515612e48576040517f08c379a000000000000000000000000000000000000000000000000000000000815260040180806020018281038252600b8152602001807f49732044697361626c656400000000000000000000000000000000000000000081525060200191505060405180910390fd5b60016002811115612e5557fe5b831480612e6d5750600280811115612e6957fe5b8311155b1515612ee1576040517f08c379a00000000000000000000000000000000000000000000000000000000081526004018080602001828103825260108152602001807f496e76616c6964206465636973696f6e0000000000000000000000000000000081525060200191505060405180910390fd5b846002600087815260200190815260200160002060000154141515612f6e576040517f08c379a00000000000000000000000000000000000000000000000000000000081526004018080602001828103825260128152602001807f6e6f7420657869737465642042616c6c6f74000000000000000000000000000081525060200191505060405180910390fd5b85600660008881526020019081526020016000206000015414151515612ffc576040517f08c379a00000000000000000000000000000000000000000000000000000000081526004018080602001828103825260168152602001807f616c7265616479206578697374656420766f746549640000000000000000000081525060200191505060405180910390fd5b6007600086815260200190815260200160002060008573ffffffffffffffffffffffffffffffffffffffff1673ffffffffffffffffffffffffffffffffffffffff16815260200190815260200160002060009054906101000a900460ff161515156130cf576040517f08c379a000000000000000000000000000000000000000000000000000000000815260040180806020018281038252600d8152602001807f616c726561647920766f7465640000000000000000000000000000000000000081525060200191505060405180910390fd5b600260048111156130dc57fe5b6002600087815260200190815260200160002060090154141515613168576040517f08c379a00000000000000000000000000000000000000000000000000000000081526004018080602001828103825260148152602001807f4e6f7420496e50726f677265737320537461746500000000000000000000000081525060200191505060405180910390fd5b60c0604051908101604052808781526020018681526020018573ffffffffffffffffffffffffffffffffffffffff1681526020018481526020018381526020016131b06118fc565b81525060066000888152602001908152602001600020600082015181600001556020820151816001015560408201518160020160006101000a81548173ffffffffffffffffffffffffffffffffffffffff021916908373ffffffffffffffffffffffffffffffffffffffff160217905550606082015181600301556080820151816004015560a0820151816005015590505061324e85858585614953565b8373ffffffffffffffffffffffffffffffffffffffff1685877f41df84b3b467b06744e40c92613c666324e7c640ce0a41ec06efdf602d367606866040518082815260200191505060405180910390a495945050505050565b7f42616c6c6f7453746f726167650000000000000000000000000000000000000081565b6132d3615790565b3373ffffffffffffffffffffffffffffffffffffffff166132f2614380565b73ffffffffffffffffffffffffffffffffffffffff1614151561337d576040517f08c379a000000000000000000000000000000000000000000000000000000000815260040180806020018281038252600d8152602001807f4e6f205065726d697373696f6e0000000000000000000000000000000000000081525060200191505060405180910390fd5b6133856143b0565b73ffffffffffffffffffffffffffffffffffffffff163073ffffffffffffffffffffffffffffffffffffffff16141515613427576040517f08c379a000000000000000000000000000000000000000000000000000000000815260040180806020018281038252600b8152602001807f49732044697361626c656400000000000000000000000000000000000000000081525060200191505060405180910390fd5b613435888787878787614c50565b15156134a9576040517f08c379a00000000000000000000000000000000000000000000000000000000081526004018080602001828103825260118152602001807f496e76616c696420506172616d6574657200000000000000000000000000000081525060200191505060405180910390fd5b6134b48989896143e0565b8881600001818152505085816020019073ffffffffffffffffffffffffffffffffffffffff16908173ffffffffffffffffffffffffffffffffffffffff168152505084816040019073ffffffffffffffffffffffffffffffffffffffff16908173ffffffffffffffffffffffffffffffffffffffff1681525050838160600181905250828160800181905250818160a001818152505080600360008b81526020019081526020016000206000820151816000015560208201518160010160006101000a81548173ffffffffffffffffffffffffffffffffffffffff021916908373ffffffffffffffffffffffffffffffffffffffff16021790555060408201518160020160006101000a81548173ffffffffffffffffffffffffffffffffffffffff021916908373ffffffffffffffffffffffffffffffffffffffff1602179055506060820151816003019080519060200190613612929190615710565b50608082015181600401908051906020019061362f929190615710565b5060a0820151816005015560c08201518160060155905050505050505050505050565b60003373ffffffffffffffffffffffffffffffffffffffff16613673614380565b73ffffffffffffffffffffffffffffffffffffffff161415156136fe576040517f08c379a000000000000000000000000000000000000000000000000000000000815260040180806020018281038252600d8152602001807f4e6f205065726d697373696f6e0000000000000000000000000000000000000081525060200191505060405180910390fd5b6137066143b0565b73ffffffffffffffffffffffffffffffffffffffff163073ffffffffffffffffffffffffffffffffffffffff161415156137a8576040517f08c379a000000000000000000000000000000000000000000000000000000000815260040180806020018281038252600b8152602001807f49732044697361626c656400000000000000000000000000000000000000000081525060200191505060405180910390fd5b826002600085815260200190815260200160002060000154141515613835576040517f08c379a00000000000000000000000000000000000000000000000000000000081526004018080602001828103825260128152602001807f6e6f7420657869737465642042616c6c6f74000000000000000000000000000081525060200191505060405180910390fd5b6000151560026000858152602001908152602001600020600a0160009054906101000a900460ff1615151415156138d4576040517f08c379a00000000000000000000000000000000000000000000000000000000081526004018080602001828103825260118152602001807f616c72656164792066696e616c697a656400000000000000000000000000000081525060200191505060405180910390fd5b600360048111156138e157fe5b8214806138f857506004808111156138f557fe5b82145b151561396c576040517f08c379a00000000000000000000000000000000000000000000000000000000081526004018080602001828103825260148152602001807f496e76616c69642042616c6c6f7420537461746500000000000000000000000081525060200191505060405180910390fd5b600260008481526020019081526020016000209050818160090181905550600181600a0160006101000a81548160ff021916908315150217905550827fdc921f027328d7238b58d77649ebcbd0c8b1c494c66ba53dfe53e0de65f6dd9f836040518082815260200191505060405180910390a2505050565b6139ec612c9b565b15156139f757600080fd5b80600160006101000a81548173ffffffffffffffffffffffffffffffffffffffff021916908373ffffffffffffffffffffffffffffffffffffffff16021790555050565b6000600860009054906101000a900473ffffffffffffffffffffffffffffffffffffffff16905090565b6000823373ffffffffffffffffffffffffffffffffffffffff16613a87614380565b73ffffffffffffffffffffffffffffffffffffffff161480613b0a57503373ffffffffffffffffffffffffffffffffffffffff166002600083815260200190815260200160002060040160009054906101000a900473ffffffffffffffffffffffffffffffffffffffff1673ffffffffffffffffffffffffffffffffffffffff16145b1515613b7e576040517f08c379a000000000000000000000000000000000000000000000000000000000815260040180806020018281038252600d8152602001807f4e6f205065726d697373696f6e0000000000000000000000000000000000000081525060200191505060405180910390fd5b613b866143b0565b73ffffffffffffffffffffffffffffffffffffffff163073ffffffffffffffffffffffffffffffffffffffff16141515613c28576040517f08c379a000000000000000000000000000000000000000000000000000000000815260040180806020018281038252600b8152602001807f49732044697361626c656400000000000000000000000000000000000000000081525060200191505060405180910390fd5b836002600086815260200190815260200160002060000154141515613cb5576040517f08c379a00000000000000000000000000000000000000000000000000000000081526004018080602001828103825260128152602001807f6e6f7420657869737465642042616c6c6f74000000000000000000000000000081525060200191505060405180910390fd5b6000151560026000868152602001908152602001600020600a0160009054906101000a900460ff161515141515613d54576040517f08c379a00000000000000000000000000000000000000000000000000000000081526004018080602001828103825260118152602001807f616c72656164792066696e616c697a656400000000000000000000000000000081525060200191505060405180910390fd5b60026000858152602001908152602001600020915082826005019080519060200190613d819291906157fa565b5050505050565b60003373ffffffffffffffffffffffffffffffffffffffff16613da9614380565b73ffffffffffffffffffffffffffffffffffffffff16141515613e34576040517f08c379a000000000000000000000000000000000000000000000000000000000815260040180806020018281038252600d8152602001807f4e6f205065726d697373696f6e0000000000000000000000000000000000000081525060200191505060405180910390fd5b613e3c6143b0565b73ffffffffffffffffffffffffffffffffffffffff163073ffffffffffffffffffffffffffffffffffffffff16141515613ede576040517f08c379a000000000000000000000000000000000000000000000000000000000815260040180806020018281038252600b8152602001807f49732044697361626c656400000000000000000000000000000000000000000081525060200191505060405180910390fd5b8282600082118015613ef05750600081115b1515613f64576040517f08c379a00000000000000000000000000000000000000000000000000000000081526004018080602001828103825260118152602001807f7374617274206f7220656e64206973203000000000000000000000000000000081525060200191505060405180910390fd5b8181111515613fdb576040517f08c379a000000000000000000000000000000000000000000000000000000000815260040180806020018281038252600c8152602001807f7374617274203e3d20656e64000000000000000000000000000000000000000081525060200191505060405180910390fd5b856002600088815260200190815260200160002060000154141515614068576040517f08c379a00000000000000000000000000000000000000000000000000000000081526004018080602001828103825260128152602001807f6e6f7420657869737465642042616c6c6f74000000000000000000000000000081525060200191505060405180910390fd5b6000151560026000888152602001908152602001600020600a0160009054906101000a900460ff161515141515614107576040517f08c379a00000000000000000000000000000000000000000000000000000000081526004018080602001828103825260118152602001807f616c72656164792066696e616c697a656400000000000000000000000000000081525060200191505060405180910390fd5b6001600481111561411457fe5b60026000888152602001908152602001600020600901541415156141a0576040517f08c379a000000000000000000000000000000000000000000000000000000000815260040180806020018281038252600f8152602001807f4e6f74205265616479205374617465000000000000000000000000000000000081525060200191505060405180910390fd5b600260008781526020019081526020016000209250848360010181905550838360020181905550600260048111156141d457fe5b83600901819055508385877fd9938a514dab5cdce149a77493f694bd70c24a4833a278fd4d86fbdf859099c560405160405180910390a4505050505050565b600061421d614350565b73ffffffffffffffffffffffffffffffffffffffff16631b27e01b6040518163ffffffff167c0100000000000000000000000000000000000000000000000000000000028152600401602060405180830381600087803b15801561428057600080fd5b505af1158015614294573d6000803e3d6000fd5b505050506040513d60208110156142aa57600080fd5b8101908080519060200190929190505050905090565b6142c8612c9b565b15156142d357600080fd5b6142dc816153f5565b50565b6000600760008466ffffffffffffff16815260200190815260200160002060008373ffffffffffffffffffffffffffffffffffffffff1673ffffffffffffffffffffffffffffffffffffffff16815260200190815260200160002060009054906101000a900460ff16905092915050565b600061437b7f456e7653746f72616765000000000000000000000000000000000000000000006154ef565b905090565b60006143ab7f476f7665726e616e6365436f6e747261637400000000000000000000000000006154ef565b905090565b60006143db7f42616c6c6f7453746f72616765000000000000000000000000000000000000006154ef565b905090565b6143e86155ed565b83600260008681526020019081526020016000206000015414151515614476576040517f08c379a00000000000000000000000000000000000000000000000000000000081526004018080602001828103825260168152602001807f416c726561647920657869737465642062616c6c6f740000000000000000000081525060200191505060405180910390fd5b838160000181815250508281606001818152505081816080019073ffffffffffffffffffffffffffffffffffffffff16908173ffffffffffffffffffffffffffffffffffffffff1681525050600160048111156144cf57fe5b8161012001818152505060008161014001901515908115158152505080600260008681526020019081526020016000206000820151816000015560208201518160010155604082015181600201556060820151816003015560808201518160040160006101000a81548173ffffffffffffffffffffffffffffffffffffffff021916908373ffffffffffffffffffffffffffffffffffffffff16021790555060a082015181600501908051906020019061458a929190615710565b5060c0820151816006015560e082015181600701556101008201518160080155610120820151816009015561014082015181600a0160006101000a81548160ff02191690831515021790555061016082015181600b01559050508173ffffffffffffffffffffffffffffffffffffffff1683857fd1ba591c76ef71222e2d30b8277758713cc6eef1de29efaf98a716744ac2420b60405160405180910390a450505050565b600060058081111561463d57fe5b851415156146b3576040517f08c379a00000000000000000000000000000000000000000000000000000000081526004018080602001828103825260138152602001807f496e76616c69642042616c6c6f7420547970650000000000000000000000000081525060200191505060405180910390fd5b6000602060ff16111515614755576040517f08c379a00000000000000000000000000000000000000000000000000000000081526004018080602001828103825260218152602001807f496e76616c696420656e7669726f6e6d656e74207661726961626c65206e616d81526020017f650000000000000000000000000000000000000000000000000000000000000081525060400191505060405180910390fd5b6001600681111561476257fe5b83101515156147ff576040517f08c379a00000000000000000000000000000000000000000000000000000000081526004018080602001828103825260218152602001807f496e76616c696420656e7669726f6e6d656e74207661726961626c652054797081526020017f650000000000000000000000000000000000000000000000000000000000000081525060400191505060405180910390fd5b60068081111561480b57fe5b83111515156148a8576040517f08c379a00000000000000000000000000000000000000000000000000000000081526004018080602001828103825260218152602001807f496e76616c696420656e7669726f6e6d656e74207661726961626c652054797081526020017f650000000000000000000000000000000000000000000000000000000000000081525060400191505060405180910390fd5b60008251111515614947576040517f08c379a00000000000000000000000000000000000000000000000000000000081526004018080602001828103825260228152602001807f496e76616c696420656e7669726f6e6d656e74207661726961626c652076616c81526020017f756500000000000000000000000000000000000000000000000000000000000081525060400191505060405180910390fd5b60019050949350505050565b60006001600281111561496257fe5b831480614979575060028081111561497657fe5b83145b15156149ed576040517f08c379a00000000000000000000000000000000000000000000000000000000081526004018080602001828103825260108152602001807f496e76616c6964206465636973696f6e0000000000000000000000000000000081525060200191505060405180910390fd5b846002600087815260200190815260200160002060000154141515614a7a576040517f08c379a00000000000000000000000000000000000000000000000000000000081526004018080602001828103825260128152602001807f6e6f7420657869737465642042616c6c6f74000000000000000000000000000081525060200191505060405180910390fd5b600015156007600087815260200190815260200160002060008673ffffffffffffffffffffffffffffffffffffffff1673ffffffffffffffffffffffffffffffffffffffff16815260200190815260200160002060009054906101000a900460ff161515141515614b53576040517f08c379a000000000000000000000000000000000000000000000000000000000815260040180806020018281038252600d8152602001807f616c726561647920766f7465640000000000000000000000000000000000000081525060200191505060405180910390fd5b60026000868152602001908152602001600020905060016007600087815260200190815260200160002060008673ffffffffffffffffffffffffffffffffffffffff1673ffffffffffffffffffffffffffffffffffffffff16815260200190815260200160002060006101000a81548160ff021916908315150217905550614be9600182600601546155cc90919063ffffffff16565b816006018190555060016002811115614bfe57fe5b831415614c2957614c1c8282600701546155cc90919063ffffffff16565b8160070181905550614c49565b614c408282600801546155cc90919063ffffffff16565b81600801819055505b5050505050565b600060016005811115614c5f57fe5b8710158015614c7a575060036005811115614c7657fe5b8711155b1515614cee576040517f08c379a00000000000000000000000000000000000000000000000000000000081526004018080602001828103825260138152602001807f496e76616c69642042616c6c6f7420547970650000000000000000000000000081525060200191505060405180910390fd5b60026005811115614cfb57fe5b871415614fba57600073ffffffffffffffffffffffffffffffffffffffff168673ffffffffffffffffffffffffffffffffffffffff1614151515614da7576040517f08c379a000000000000000000000000000000000000000000000000000000000815260040180806020018281038252601a8152602001807f496e76616c6964206f6c64206d656d626572206164647265737300000000000081525060200191505060405180910390fd5b600073ffffffffffffffffffffffffffffffffffffffff168573ffffffffffffffffffffffffffffffffffffffff16141515614e4b576040517f08c379a000000000000000000000000000000000000000000000000000000000815260040180806020018281038252601a8152602001807f496e76616c6964206e6577206d656d626572206164647265737300000000000081525060200191505060405180910390fd5b60008451141515614ec4576040517f08c379a00000000000000000000000000000000000000000000000000000000081526004018080602001828103825260138152602001807f496e76616c6964206e6577206e6f64652069640000000000000000000000000081525060200191505060405180910390fd5b60008351141515614f3d576040517f08c379a00000000000000000000000000000000000000000000000000000000081526004018080602001828103825260138152602001807f496e76616c6964206e6577206e6f64652049500000000000000000000000000081525060200191505060405180910390fd5b600082141515614fb5576040517f08c379a00000000000000000000000000000000000000000000000000000000081526004018080602001828103825260158152602001807f496e76616c6964206e6577206e6f646520506f7274000000000000000000000081525060200191505060405180910390fd5b6153e7565b60408451141515615033576040517f08c379a00000000000000000000000000000000000000000000000000000000081526004018080602001828103825260138152602001807f496e76616c6964206e6577206e6f64652069640000000000000000000000000081525060200191505060405180910390fd5b600083511115156150ac576040517f08c379a00000000000000000000000000000000000000000000000000000000081526004018080602001828103825260138152602001807f496e76616c6964206e6577206e6f64652049500000000000000000000000000081525060200191505060405180910390fd5b600082111515615124576040517f08c379a00000000000000000000000000000000000000000000000000000000081526004018080602001828103825260158152602001807f496e76616c6964206e6577206e6f646520506f7274000000000000000000000081525060200191505060405180910390fd5b6001600581111561513157fe5b87141561528657600073ffffffffffffffffffffffffffffffffffffffff168673ffffffffffffffffffffffffffffffffffffffff161415156151dc576040517f08c379a000000000000000000000000000000000000000000000000000000000815260040180806020018281038252601a8152602001807f496e76616c6964206f6c64206d656d626572206164647265737300000000000081525060200191505060405180910390fd5b600073ffffffffffffffffffffffffffffffffffffffff168573ffffffffffffffffffffffffffffffffffffffff1614151515615281576040517f08c379a000000000000000000000000000000000000000000000000000000000815260040180806020018281038252601a8152602001807f496e76616c6964206e6577206d656d626572206164647265737300000000000081525060200191505060405180910390fd5b6153e6565b6003600581111561529357fe5b8714156153e557600073ffffffffffffffffffffffffffffffffffffffff168673ffffffffffffffffffffffffffffffffffffffff161415151561533f576040517f08c379a000000000000000000000000000000000000000000000000000000000815260040180806020018281038252601a8152602001807f496e76616c6964206f6c64206d656d626572206164647265737300000000000081525060200191505060405180910390fd5b600073ffffffffffffffffffffffffffffffffffffffff168573ffffffffffffffffffffffffffffffffffffffff16141515156153e4576040517f08c379a000000000000000000000000000000000000000000000000000000000815260040180806020018281038252601a8152602001807f496e76616c6964206e6577206d656d626572206164647265737300000000000081525060200191505060405180910390fd5b5b5b5b600190509695505050505050565b600073ffffffffffffffffffffffffffffffffffffffff168173ffffffffffffffffffffffffffffffffffffffff161415151561543157600080fd5b8073ffffffffffffffffffffffffffffffffffffffff166000809054906101000a900473ffffffffffffffffffffffffffffffffffffffff1673ffffffffffffffffffffffffffffffffffffffff167f8be0079c531659141344cd1fd0a4f28419497f9722a3daafe3b4186f6b6457e060405160405180910390a3806000806101000a81548173ffffffffffffffffffffffffffffffffffffffff021916908373ffffffffffffffffffffffffffffffffffffffff16021790555050565b6000600160009054906101000a900473ffffffffffffffffffffffffffffffffffffffff1673ffffffffffffffffffffffffffffffffffffffff16630d2020dd836040518263ffffffff167c0100000000000000000000000000000000000000000000000000000000028152600401808260001916600019168152602001915050602060405180830381600087803b15801561558a57600080fd5b505af115801561559e573d6000803e3d6000fd5b505050506040513d60208110156155b457600080fd5b81019080805190602001909291905050509050919050565b60008082840190508381101515156155e357600080fd5b8091505092915050565b6101806040519081016040528060008152602001600081526020016000815260200160008152602001600073ffffffffffffffffffffffffffffffffffffffff1681526020016060815260200160008152602001600081526020016000815260200160008152602001600015158152602001600081525090565b604080519081016040528060008152602001600073ffffffffffffffffffffffffffffffffffffffff1681525090565b60c0604051908101604052806000815260200160008152602001600073ffffffffffffffffffffffffffffffffffffffff1681526020016000815260200160008152602001600081525090565b608060405190810160405280600081526020016000801916815260200160008152602001606081525090565b828054600181600116156101000203166002900490600052602060002090601f016020900481019282601f1061575157805160ff191683800117855561577f565b8280016001018555821561577f579182015b8281111561577e578251825591602001919060010190615763565b5b50905061578c919061587a565b5090565b60e06040519081016040528060008152602001600073ffffffffffffffffffffffffffffffffffffffff168152602001600073ffffffffffffffffffffffffffffffffffffffff168152602001606081526020016060815260200160008152602001600081525090565b828054600181600116156101000203166002900490600052602060002090601f016020900481019282601f1061583b57805160ff1916838001178555615869565b82800160010185558215615869579182015b8281111561586857825182559160200191906001019061584d565b5b509050615876919061587a565b5090565b61589c91905b80821115615898576000816000905550600101615880565b5090565b905600a165627a7a72305820a85acefbc4ae868f1fe22ef48c8b68a480b45945a1756940e6fa0fbf24c7dc1a0029",
  "source": "pragma solidity ^0.4.24;\n\nimport \"openzeppelin-solidity/contracts/math/SafeMath.sol\";\nimport \"../abstract/EnvConstants.sol\";\nimport \"../abstract/BallotEnums.sol\";\nimport \"../GovChecker.sol\";\nimport \"../interface/IEnvStorage.sol\";\n\ncontract BallotStorage is  GovChecker, EnvConstants, BallotEnums {\n    using SafeMath for uint256;\n    \n    struct BallotBasic {\n        //Ballot ID\n        uint256 id;\n        // \n        uint256 startTime;\n        //  \n        uint256 endTime;\n        //  \n        uint256 ballotType;\n        // \n        address creator;\n        //  \n        bytes memo;\n        //   \n        uint256 totalVoters;\n        // \n        uint256 powerOfAccepts;\n        // \n        uint256 powerOfRejects;\n        //  \n        uint256 state;\n        // \n        bool isFinalized;\n        //  \n        uint256 duration;\n        \n    }\n\n    //For MemberAdding/MemberRemoval/MemberSwap\n    struct BallotMember {\n        uint256 id;    \n        address oldMemeberAddress;\n        address newMemeberAddress;\n        bytes newNodeId; // admin.nodeInfo.id is 512 bit public key\n        bytes newNodeIp;\n        uint256 newNodePort;\n        uint256 lockAmount;\n    }\n\n    //For GovernanceChange \n    struct BallotAddress {\n        uint256 id;\n        address newGovernanceAddress;\n    }\n\n    //For EnvValChange\n    struct BallotVariable {\n    //Ballot ID\n        uint256 id; \n        bytes32 envVariableName;\n        uint256 envVariableType;\n        bytes envVariableValue;\n    }\n\n    struct Vote {\n        uint256 voteId;\n        uint256 ballotId;\n        address voter;\n        uint256 decision;\n        uint256 power;\n        uint256 time;\n    }\n\n    event BallotCreated(\n        uint256 indexed ballotId,\n        uint256 indexed ballotType,\n        address indexed creator\n    );\n    \n    event BallotStarted(\n        uint256 indexed ballotId,\n        uint256 indexed startTime,\n        uint256 indexed endTime\n    );\n\n    event Voted(\n        uint256 indexed voteid,\n        uint256 indexed ballotId,\n        address indexed voter,\n        uint256 decision       \n    );\n\n    event BallotFinalized(\n        uint256 indexed ballotId,\n        uint256 state\n    );\n    \n    mapping(uint=>BallotBasic) internal ballotBasicMap;\n    mapping(uint=>BallotMember) internal ballotMemberMap;\n    mapping(uint=>BallotAddress) internal ballotAddressMap;\n    mapping(uint=>BallotVariable) internal ballotVariableMap;\n    \n    mapping(uint=>Vote) internal voteMap;\n    mapping(uint=>mapping(address=>bool)) internal hasVotedMap;\n\n    address internal previousBallotStorage;\n\n    constructor(address _registry) public {\n        setRegistry(_registry);\n    }\n\n    modifier onlyValidTime(uint256 _startTime, uint256 _endTime) {\n        require(_startTime > 0 && _endTime > 0, \"start or end is 0\");\n        require(_endTime > _startTime, \"start >= end\"); // && _startTime > getTime()\n        //uint256 diffTime = _endTime.sub(_startTime);\n        // require(diffTime > minBallotDuration());\n        // require(diffTime <= maxBallotDuration());\n        _;\n    }\n    modifier onlyValidDuration(uint256 _duration){\n        require(getMinVotingDuration() <= _duration, \"Under min value of  duration\");\n        require(_duration <= getMaxVotingDuration(), \"Over max value of duration\");\n        _;\n    }\n\n    modifier onlyGovOrCreator(uint256 _ballotId) {\n        require((getGovAddress() == msg.sender)||(ballotBasicMap[_ballotId].creator == msg.sender), \"No Permission\");\n        _;\n    }\n\n    function getMinVotingDuration() public view returns (uint256) {\n        return IEnvStorage(getEnvStorageAddress()).getBallotDurationMin();\n    }\n    \n    function getMaxVotingDuration() public view returns (uint256) {\n        return IEnvStorage(getEnvStorageAddress()).getBallotDurationMax();\n    }\n    modifier notDisabled() {\n        require(address(this) == getBallotStorageAddress(), \"Is Disabled\");\n        _;\n    }\n\n    function getTime() public view returns(uint256) {\n        return now;\n    }\n\n    function getPreviousBallotStorage() public view returns (address) {\n        return previousBallotStorage;\n    }\n\n    function isDisabled() public view returns (bool) {\n        return (address(this) != getBallotStorageAddress());\n    }\n\n    function getBallotBasic(uint256 _id) public view returns (\n        uint256 startTime,\n        uint256 endTime,\n        uint256 ballotType,\n        address creator,\n        bytes memo,\n        uint256 totalVoters,\n        uint256 powerOfAccepts,\n        uint256 powerOfRejects,\n        uint256 state,\n        bool isFinalized,\n        uint256 duration\n    )\n    {\n        BallotBasic memory tBallot = ballotBasicMap[_id];\n        startTime = tBallot.startTime;\n        endTime = tBallot.endTime;\n        ballotType = tBallot.ballotType;\n        creator = tBallot.creator;\n        memo = tBallot.memo;\n        totalVoters = tBallot.totalVoters;\n        powerOfAccepts = tBallot.powerOfAccepts;\n        powerOfRejects = tBallot.powerOfRejects;\n        state = tBallot.state;\n        isFinalized = tBallot.isFinalized;\n        duration = tBallot.duration;\n    }\n\n    function getBallotMember(uint256 _id) public view returns (\n        address oldMemeberAddress,\n        address newMemeberAddress,\n        bytes newNodeId, // admin.nodeInfo.id is 512 bit public key\n        bytes newNodeIp,\n        uint256 newNodePort,\n        uint256 lockAmount\n    )\n    {\n        BallotMember storage tBallot = ballotMemberMap[_id];\n        oldMemeberAddress = tBallot.oldMemeberAddress;\n        newMemeberAddress = tBallot.newMemeberAddress;\n        newNodeId = tBallot.newNodeId;\n        newNodeIp = tBallot.newNodeIp;\n        newNodePort = tBallot.newNodePort;\n        lockAmount = tBallot.lockAmount;\n    }\n\n    function getBallotAddress(uint256 _id) public view returns (\n        address newGovernanceAddress\n    )\n    {\n        BallotAddress storage tBallot = ballotAddressMap[_id];\n        newGovernanceAddress = tBallot.newGovernanceAddress;\n    }\n\n    function getBallotVariable(uint256 _id) public view returns (\n        bytes32 envVariableName,\n        uint256 envVariableType,\n        bytes envVariableValue \n    )\n    {\n        BallotVariable storage tBallot = ballotVariableMap[_id];\n        envVariableName = tBallot.envVariableName;\n        envVariableType = tBallot.envVariableType;\n        envVariableValue = tBallot.envVariableValue;\n    }\n\n    function setPreviousBallotStorage(address _address) public onlyOwner {\n        require(_address != address(0), \"Invalid address\");\n        previousBallotStorage = _address;\n    }\n\n    //For MemberAdding/MemberRemoval/MemberSwap\n    function createBallotForMemeber(\n        uint256 _id,\n        uint256 _ballotType,\n        address _creator,\n        address _oldMemeberAddress,\n        address _newMemeberAddress,\n        bytes _newNodeId, // admin.nodeInfo.id is 512 bit public key\n        bytes _newNodeIp,\n        uint _newNodePort\n    )\n        public\n        onlyGov\n        notDisabled\n    {\n        require(\n            _areMemberBallotParamValid(\n                _ballotType,\n                _oldMemeberAddress,\n                _newMemeberAddress,\n                _newNodeId,\n                _newNodeIp,\n                _newNodePort\n            ),\n            \"Invalid Parameter\"\n        );\n        _createBallot(_id, _ballotType, _creator);\n        BallotMember memory newBallot;\n        newBallot.id = _id;\n        newBallot.oldMemeberAddress = _oldMemeberAddress;\n        newBallot.newMemeberAddress = _newMemeberAddress;\n        newBallot.newNodeId = _newNodeId;\n        newBallot.newNodeIp = _newNodeIp;\n        newBallot.newNodePort = _newNodePort;\n        ballotMemberMap[_id] = newBallot;\n\n    }\n\n    function createBallotForAddress(\n        uint256 _id,\n        uint256 _ballotType,\n        address _creator,\n        address _newGovernanceAddress\n    )\n        public\n        onlyGov\n        notDisabled\n        returns (uint256)\n    {\n        require(_ballotType == uint256(BallotTypes.GovernanceChange), \"Invalid Ballot Type\");\n        require(_newGovernanceAddress != address(0), \"Invalid Parameter\");\n        \n        _createBallot(_id, _ballotType, _creator);\n        BallotAddress memory newBallot;\n        newBallot.id = _id;\n        newBallot.newGovernanceAddress = _newGovernanceAddress;\n        ballotAddressMap[_id] = newBallot;\n        return _id;\n    }\n\n    function createBallotForVariable(\n        uint256 _id,\n        uint256 _ballotType,\n        address _creator,\n        bytes32 _envVariableName,\n        uint256 _envVariableType,\n        bytes _envVariableValue \n    )\n        public\n        onlyGov\n        notDisabled\n        returns (uint256)\n    {\n        require(\n            _areVariableBallotParamValid(_ballotType, _envVariableName, _envVariableType, _envVariableValue),\n            \"Invalid Parameter\"\n        );\n        _createBallot(_id, _ballotType, _creator);\n        BallotVariable memory newBallot;\n        newBallot.id = _id;\n        newBallot.envVariableName = _envVariableName;\n        newBallot.envVariableType = _envVariableType;\n        newBallot.envVariableValue = _envVariableValue;\n        ballotVariableMap[_id] = newBallot;\n        return _id;\n    }\n\n    function createVote(\n        uint256 _voteId,\n        uint256 _ballotId,\n        address _voter,\n        uint256 _decision,\n        uint256 _power\n    )\n        public\n        onlyGov\n        notDisabled\n        returns (uint256)\n    {\n        //1. msg.sender member\n        //2. actionType  \n        require((_decision == uint256(DecisionTypes.Accept))\n            || (_decision <= uint256(DecisionTypes.Reject)), \"Invalid decision\");\n        \n        //3. ballotId    \n        require(ballotBasicMap[_ballotId].id == _ballotId, \"not existed Ballot\");\n        //4. voteId  \n        require(voteMap[_voteId].voteId != _voteId, \"already existed voteId\");\n        //5.  vote   \n        require(!hasVotedMap[_ballotId][_voter], \"already voted\");\n        require(ballotBasicMap[_ballotId].state\n            == uint256(BallotStates.InProgress), \"Not InProgress State\");\n\n        //1. \n        voteMap[_voteId] = Vote(_voteId, _ballotId, _voter, _decision, _power, getTime());\n        \n        //2.   \n        _updateBallotForVote(_ballotId, _voter, _decision, _power);\n\n        //3. event  \n        emit Voted(_voteId, _ballotId, _voter, _decision);\n    }\n\n    //start/end /state \n    function startBallot(\n        uint256 _ballotId,\n        uint256 _startTime,\n        uint256 _endTime\n    )\n        public\n        onlyGov\n        notDisabled\n        onlyValidTime(_startTime, _endTime)\n    {\n        require(ballotBasicMap[_ballotId].id == _ballotId, \"not existed Ballot\");\n        require(ballotBasicMap[_ballotId].isFinalized == false, \"already finalized\");\n        require(ballotBasicMap[_ballotId].state == uint256(BallotStates.Ready), \"Not Ready State\");\n        BallotBasic storage _ballot = ballotBasicMap[_ballotId];\n        _ballot.startTime = _startTime;\n        _ballot.endTime = _endTime;\n        _ballot.state = uint256(BallotStates.InProgress);\n        emit BallotStarted(_ballotId, _startTime, _endTime);\n    }\n\n    function updateBallotMemo(\n        uint256 _ballotId,\n        bytes _memo\n    )\n        public \n        onlyGovOrCreator(_ballotId)\n        notDisabled\n    {\n        require(ballotBasicMap[_ballotId].id == _ballotId, \"not existed Ballot\");\n        require(ballotBasicMap[_ballotId].isFinalized == false, \"already finalized\");\n        BallotBasic storage _ballot = ballotBasicMap[_ballotId];\n        _ballot.memo = _memo;\n    }\n\n    function updateBallotDuration(\n        uint256 _ballotId,\n        uint256 _duration\n    )\n        public \n        onlyGovOrCreator(_ballotId)\n        notDisabled\n        onlyValidDuration(_duration)\n    {\n        require(ballotBasicMap[_ballotId].id == _ballotId, \"not existed Ballot\");\n        require(ballotBasicMap[_ballotId].isFinalized == false, \"already finalized\");\n        require(ballotBasicMap[_ballotId].state == uint256(BallotStates.Ready), \"Not Ready State\");\n\n        BallotBasic storage _ballot = ballotBasicMap[_ballotId];\n        _ballot.duration = _duration;\n    }\n\n    function updateBallotMemberLockAmount(\n        uint256 _ballotId,\n        uint256 _lockAmount\n    )\n        public \n        onlyGov\n        notDisabled\n    {\n        require(ballotBasicMap[_ballotId].id == _ballotId, \"not existed Ballot\");\n        require(ballotMemberMap[_ballotId].id == _ballotId, \"not existed BallotMember\");\n        require(ballotBasicMap[_ballotId].isFinalized == false, \"already finalized\");\n        require(ballotBasicMap[_ballotId].state == uint256(BallotStates.Ready), \"Not Ready State\");\n        BallotMember storage _ballot = ballotMemberMap[_ballotId];\n        _ballot.lockAmount = _lockAmount;\n    }\n\n    // finalize ballot info.\n    function finalizeBallot(uint256 _ballotId, uint256 _ballotState) public onlyGov notDisabled {\n        require(ballotBasicMap[_ballotId].id == _ballotId, \"not existed Ballot\");\n        require(ballotBasicMap[_ballotId].isFinalized == false, \"already finalized\");\n        require((_ballotState == uint256(BallotStates.Accepted))\n            || (_ballotState == uint256(BallotStates.Rejected)), \"Invalid Ballot State\");\n\n        BallotBasic storage _ballot = ballotBasicMap[_ballotId];\n        _ballot.state = _ballotState;\n        _ballot.isFinalized = true;\n        emit BallotFinalized (_ballotId, _ballotState);\n    }\n\n    function hasAlreadyVoted(uint56 _ballotId, address _voter) public view returns (bool) {\n        return hasVotedMap[_ballotId][_voter];\n    }\n\n    function getVote(uint256 _voteId) public view returns (\n        uint256 voteId,\n        uint256 ballotId,\n        address voter,\n        uint256 decision,\n        uint256 power,\n        uint256 time\n    )\n    {\n        require(voteMap[_voteId].voteId == _voteId, \"not existed voteId\");\n        Vote memory _vote = voteMap[_voteId];\n        voteId = _vote.voteId;\n        ballotId = _vote.ballotId;\n        voter = _vote.voter;\n        decision = _vote.decision;\n        power = _vote.power;\n        time = _vote.time;\n    }\n\n    function getBallotPeriod(uint256 _id) public view returns (\n        uint256 startTime,\n        uint256 endTime,\n        uint256 duration\n    )\n    {\n        BallotBasic memory tBallot = ballotBasicMap[_id];\n        startTime = tBallot.startTime;\n        endTime = tBallot.endTime; \n        duration = tBallot.duration;\n    }\n\n    function getBallotVotingInfo(uint256 _id) public view returns (\n        uint256 totalVoters,\n        uint256 powerOfAccepts,\n        uint256 powerOfRejects\n\n    )\n    {\n        BallotBasic memory tBallot = ballotBasicMap[_id];\n        totalVoters = tBallot.totalVoters;\n        powerOfAccepts = tBallot.powerOfAccepts;\n        powerOfRejects = tBallot.powerOfRejects;        \n    }\n\n    function getBallotState(uint256 _id) public view returns (\n        uint256 ballotType,\n        uint256 state,\n        bool isFinalized\n    )\n    {\n        BallotBasic memory tBallot = ballotBasicMap[_id];\n        ballotType = tBallot.ballotType;\n        state = tBallot.state;\n        isFinalized = tBallot.isFinalized;\n    }\n\n    function _createBallot(\n        uint256 _id,\n        uint256 _ballotType,\n        address _creator\n    )\n        internal\n    {\n        require(ballotBasicMap[_id].id != _id, \"Already existed ballot\");\n        \n        BallotBasic memory newBallot;\n        newBallot.id = _id;\n        newBallot.ballotType = _ballotType;\n        newBallot.creator = _creator;\n//        newBallot.memo = _memo;\n        newBallot.state = uint256(BallotStates.Ready);\n        newBallot.isFinalized = false;\n//        newBallot.duration = _duration;\n        ballotBasicMap[_id] = newBallot;\n        emit BallotCreated(_id, _ballotType, _creator);\n    }\n\n    function _areMemberBallotParamValid(\n        uint256 _ballotType,\n        address _oldMemeberAddress,\n        address _newMemeberAddress,\n        bytes _newNodeId, // admin.nodeInfo.id is 512 bit public key\n        bytes _newNodeIp,\n        uint _newNodePort\n    )\n        internal\n        pure\n        returns(bool)\n    {\n        require((_ballotType >= uint256(BallotTypes.MemberAdd))\n            && (_ballotType <= uint256(BallotTypes.MemberChange)), \"Invalid Ballot Type\");\n\n        if (_ballotType == uint256(BallotTypes.MemberRemoval)){\n            require(_oldMemeberAddress != address(0), \"Invalid old member address\");\n            require(_newMemeberAddress == address(0), \"Invalid new member address\");\n            require(_newNodeId.length == 0, \"Invalid new node id\");\n            require(_newNodeIp.length == 0, \"Invalid new node IP\");\n            require(_newNodePort == 0, \"Invalid new node Port\");\n        }else {\n            require(_newNodeId.length == 64, \"Invalid new node id\");\n            require(_newNodeIp.length > 0, \"Invalid new node IP\");\n            require(_newNodePort > 0, \"Invalid new node Port\");\n            if (_ballotType == uint256(BallotTypes.MemberAdd)) {\n                require(_oldMemeberAddress == address(0), \"Invalid old member address\");\n                require(_newMemeberAddress != address(0), \"Invalid new member address\");\n            } else if (_ballotType == uint256(BallotTypes.MemberChange)) {\n                require(_oldMemeberAddress != address(0), \"Invalid old member address\");\n                require(_newMemeberAddress != address(0), \"Invalid new member address\");\n            }\n        }\n\n        return true;\n    }\n\n    function _areVariableBallotParamValid(\n        uint256 _ballotType,\n        bytes32 _envVariableName,\n        uint256 _envVariableType,\n        bytes _envVariableValue \n    )\n        internal\n        pure\n        returns(bool)\n    {\n        require(_ballotType == uint256(BallotTypes.EnvValChange), \"Invalid Ballot Type\");\n        require(_envVariableName.length > 0, \"Invalid environment variable name\");\n        require(_envVariableType >= uint256(VariableTypes.Int), \"Invalid environment variable Type\");\n        require(_envVariableType <= uint256(VariableTypes.String), \"Invalid environment variable Type\");\n        require(_envVariableValue.length > 0, \"Invalid environment variable value\");\n\n        return true;\n    }\n\n    // update ballot \n    function _updateBallotForVote(\n        uint256 _ballotId,\n        address _voter,\n        uint256 _decision,\n        uint256 _power\n    )\n        internal\n    {\n        // c1. actionType  \n        require((_decision == uint256(DecisionTypes.Accept))\n            || (_decision == uint256(DecisionTypes.Reject)), \"Invalid decision\");\n        // c2. ballotId    \n        require(ballotBasicMap[_ballotId].id == _ballotId, \"not existed Ballot\");\n        // c3.  vote   \n        require(hasVotedMap[_ballotId][_voter] == false, \"already voted\");\n\n        //1.get ballotBasic\n        BallotBasic storage _ballot = ballotBasicMap[_ballotId];\n        //2.   \n        hasVotedMap[_ballotId][_voter] = true;\n        //3. update totalVoters\n        _ballot.totalVoters = _ballot.totalVoters.add(1);\n        //4. Update power of accept/reject\n        if (_decision == uint256(DecisionTypes.Accept)){\n            _ballot.powerOfAccepts = _ballot.powerOfAccepts.add(_power);\n        } else {\n            _ballot.powerOfRejects = _ballot.powerOfRejects.add(_power);\n        }\n    }\n}",
  "sourcePath": "/Users/ywshin/Documents/WS/truffle/governance-contract-blueisle/contracts/storage/BallotStorage.sol",
  "compiler": {
    "name": "solc",
    "version": "0.4.24+commit.e67f0147.Emscripten.clang"
  },
  "schemaVersion": "2.0.1",
  "updatedAt": "2019-02-08T09:52:54.575Z"
}