{
  "contractName": "EnvConstants",
  "abi": [
    {
      "constant": true,
      "inputs": [],
      "name": "BALLOT_DURATION_MAX_NAME",
      "outputs": [
        {
          "name": "",
          "type": "bytes32"
        }
      ],
      "payable": false,
      "stateMutability": "view",
      "type": "function"
    },
    {
      "constant": true,
      "inputs": [],
      "name": "STAKING_MIN_TYPE",
      "outputs": [
        {
          "name": "",
          "type": "uint256"
        }
      ],
      "payable": false,
      "stateMutability": "view",
      "type": "function"
    },
    {
      "constant": true,
      "inputs": [],
      "name": "GAS_PRICE_NAME",
      "outputs": [
        {
          "name": "",
          "type": "bytes32"
        }
      ],
      "payable": false,
      "stateMutability": "view",
      "type": "function"
    },
    {
      "constant": true,
      "inputs": [],
      "name": "GAS_PRICE_TYPE",
      "outputs": [
        {
          "name": "",
          "type": "uint256"
        }
      ],
      "payable": false,
      "stateMutability": "view",
      "type": "function"
    },
    {
      "constant": true,
      "inputs": [],
      "name": "BLOCK_PER_NAME",
      "outputs": [
        {
          "name": "",
          "type": "bytes32"
        }
      ],
      "payable": false,
      "stateMutability": "view",
      "type": "function"
    },
    {
      "constant": true,
      "inputs": [],
      "name": "BALLOT_DURATION_MAX_TYPE",
      "outputs": [
        {
          "name": "",
          "type": "uint256"
        }
      ],
      "payable": false,
      "stateMutability": "view",
      "type": "function"
    },
    {
      "constant": true,
      "inputs": [],
      "name": "BALLOT_DURATION_MIN_NAME",
      "outputs": [
        {
          "name": "",
          "type": "bytes32"
        }
      ],
      "payable": false,
      "stateMutability": "view",
      "type": "function"
    },
    {
      "constant": true,
      "inputs": [],
      "name": "STAKING_MIN_NAME",
      "outputs": [
        {
          "name": "",
          "type": "bytes32"
        }
      ],
      "payable": false,
      "stateMutability": "view",
      "type": "function"
    },
    {
      "constant": true,
      "inputs": [],
      "name": "BLOCK_PER_TYPE",
      "outputs": [
        {
          "name": "",
          "type": "uint256"
        }
      ],
      "payable": false,
      "stateMutability": "view",
      "type": "function"
    },
    {
      "constant": true,
      "inputs": [],
      "name": "STAKING_MAX_TYPE",
      "outputs": [
        {
          "name": "",
          "type": "uint256"
        }
      ],
      "payable": false,
      "stateMutability": "view",
      "type": "function"
    },
    {
      "constant": true,
      "inputs": [],
      "name": "BALLOT_DURATION_MIN_TYPE",
      "outputs": [
        {
          "name": "",
          "type": "uint256"
        }
      ],
      "payable": false,
      "stateMutability": "view",
      "type": "function"
    },
    {
      "constant": true,
      "inputs": [],
      "name": "STAKING_MAX_NAME",
      "outputs": [
        {
          "name": "",
          "type": "bytes32"
        }
      ],
      "payable": false,
      "stateMutability": "view",
      "type": "function"
    }
  ],
  "bytecode": "0x608060405234801561001057600080fd5b506104d4806100206000396000f3006080604052600436106100b9576000357c0100000000000000000000000000000000000000000000000000000000900463ffffffff16806215a73b146100be5780630ea0a8c6146100f15780630f36c0a81461011c5780632118b7821461014f5780635855e1e51461017a5780635f53e21d146101ad5780636d583ca7146101d85780636fde207a1461020b578063824cf9381461023e5780639f3ab54a14610269578063aed31e7b14610294578063c00ace6c146102bf575b600080fd5b3480156100ca57600080fd5b506100d36102f2565b60405180826000191660001916815260200191505060405180910390f35b3480156100fd57600080fd5b5061010661032b565b6040518082815260200191505060405180910390f35b34801561012857600080fd5b5061013161033b565b60405180826000191660001916815260200191505060405180910390f35b34801561015b57600080fd5b50610164610374565b6040518082815260200191505060405180910390f35b34801561018657600080fd5b5061018f610384565b60405180826000191660001916815260200191505060405180910390f35b3480156101b957600080fd5b506101c26103bd565b6040518082815260200191505060405180910390f35b3480156101e457600080fd5b506101ed6103cd565b60405180826000191660001916815260200191505060405180910390f35b34801561021757600080fd5b50610220610406565b60405180826000191660001916815260200191505060405180910390f35b34801561024a57600080fd5b5061025361043f565b6040518082815260200191505060405180910390f35b34801561027557600080fd5b5061027e61044f565b6040518082815260200191505060405180910390f35b3480156102a057600080fd5b506102a961045f565b6040518082815260200191505060405180910390f35b3480156102cb57600080fd5b506102d461046f565b60405180826000191660001916815260200191505060405180910390f35b60405180807f62616c6c6f744475726174696f6e4d61780000000000000000000000000000008152506011019050604051809103902081565b6002600681111561033857fe5b81565b60405180807f67617350726963650000000000000000000000000000000000000000000000008152506008019050604051809103902081565b6002600681111561038157fe5b81565b60405180807f626c6f636b5065720000000000000000000000000000000000000000000000008152506008019050604051809103902081565b600260068111156103ca57fe5b81565b60405180807f62616c6c6f744475726174696f6e4d696e0000000000000000000000000000008152506011019050604051809103902081565b60405180807f7374616b696e674d696e00000000000000000000000000000000000000000000815250600a019050604051809103902081565b6002600681111561044c57fe5b81565b6002600681111561045c57fe5b81565b6002600681111561046c57fe5b81565b60405180807f7374616b696e674d617800000000000000000000000000000000000000000000815250600a0190506040518091039020815600a165627a7a72305820c156d369ca5989c08764a7bf0e3375c0b7fcb9ef06b8a5a780a558f9779922400029",
  "source": "pragma solidity ^0.4.24;\n\ncontract EnvConstants {\n    bytes32 public constant BLOCK_PER_NAME = keccak256(\"blockPer\"); \n    uint256 public constant BLOCK_PER_TYPE = uint256(VariableTypes.Uint);\n\n    bytes32 public constant BALLOT_DURATION_MIN_NAME = keccak256(\"ballotDurationMin\"); \n    uint256 public constant BALLOT_DURATION_MIN_TYPE = uint256(VariableTypes.Uint);\n\n    bytes32 public constant BALLOT_DURATION_MAX_NAME = keccak256(\"ballotDurationMax\"); \n    uint256 public constant BALLOT_DURATION_MAX_TYPE = uint256(VariableTypes.Uint);\n\n    bytes32 public constant STAKING_MIN_NAME = keccak256(\"stakingMin\"); \n    uint256 public constant STAKING_MIN_TYPE = uint256(VariableTypes.Uint);\n\n    bytes32 public constant STAKING_MAX_NAME = keccak256(\"stakingMax\"); \n    uint256 public constant STAKING_MAX_TYPE = uint256(VariableTypes.Uint);\n\n    bytes32 public constant GAS_PRICE_NAME = keccak256(\"gasPrice\"); \n    uint256 public constant GAS_PRICE_TYPE = uint256(VariableTypes.Uint);\n\n    enum VariableTypes {\n        Invalid,\n        Int,\n        Uint,\n        Address,\n        Bytes32,\n        Bytes,\n        String\n    }\n    \n    bytes32 internal constant TEST_INT = keccak256(\"TEST_INT\"); \n    bytes32 internal constant TEST_ADDRESS = keccak256(\"TEST_ADDRESS\"); \n    bytes32 internal constant TEST_BYTES32 = keccak256(\"TEST_BYTES32\"); \n    bytes32 internal constant TEST_BYTES = keccak256(\"TEST_BYTES\"); \n    bytes32 internal constant TEST_STRING = keccak256(\"TEST_STRING\"); \n}",
  "sourcePath": "/Users/ywshin/Documents/WS/truffle/governance-contract-blueisle/contracts/abstract/EnvConstants.sol",
  "compiler": {
    "name": "solc",
    "version": "0.4.24+commit.e67f0147.Emscripten.clang"
  },
  "schemaVersion": "2.0.1",
  "updatedAt": "2019-02-27T05:07:34.904Z"
}