{
  "contractName": "EnvStorageImp",
  "abi": [
    {
      "constant": true,
      "inputs": [],
      "name": "STAKING_NAME",
      "outputs": [
        {
          "name": "",
          "type": "bytes32"
        }
      ],
      "payable": false,
      "stateMutability": "view",
      "type": "function"
    },
    {
      "constant": true,
      "inputs": [
        {
          "name": "h",
          "type": "bytes32"
        }
      ],
      "name": "getAddress",
      "outputs": [
        {
          "name": "",
          "type": "address"
        }
      ],
      "payable": false,
      "stateMutability": "view",
      "type": "function"
    },
    {
      "constant": true,
      "inputs": [],
      "name": "REWARD_POOL_NAME",
      "outputs": [
        {
          "name": "",
          "type": "bytes32"
        }
      ],
      "payable": false,
      "stateMutability": "view",
      "type": "function"
    },
    {
      "constant": true,
      "inputs": [
        {
          "name": "h",
          "type": "bytes32"
        }
      ],
      "name": "getBoolean",
      "outputs": [
        {
          "name": "",
          "type": "bool"
        }
      ],
      "payable": false,
      "stateMutability": "view",
      "type": "function"
    },
    {
      "constant": true,
      "inputs": [],
      "name": "GOV_NAME",
      "outputs": [
        {
          "name": "",
          "type": "bytes32"
        }
      ],
      "payable": false,
      "stateMutability": "view",
      "type": "function"
    },
    {
      "constant": false,
      "inputs": [],
      "name": "renounceOwnership",
      "outputs": [],
      "payable": false,
      "stateMutability": "nonpayable",
      "type": "function"
    },
    {
      "constant": true,
      "inputs": [],
      "name": "reg",
      "outputs": [
        {
          "name": "",
          "type": "address"
        }
      ],
      "payable": false,
      "stateMutability": "view",
      "type": "function"
    },
    {
      "constant": true,
      "inputs": [],
      "name": "ENV_STORAGE_NAME",
      "outputs": [
        {
          "name": "",
          "type": "bytes32"
        }
      ],
      "payable": false,
      "stateMutability": "view",
      "type": "function"
    },
    {
      "constant": true,
      "inputs": [],
      "name": "owner",
      "outputs": [
        {
          "name": "",
          "type": "address"
        }
      ],
      "payable": false,
      "stateMutability": "view",
      "type": "function"
    },
    {
      "constant": true,
      "inputs": [],
      "name": "isOwner",
      "outputs": [
        {
          "name": "",
          "type": "bool"
        }
      ],
      "payable": false,
      "stateMutability": "view",
      "type": "function"
    },
    {
      "constant": true,
      "inputs": [
        {
          "name": "h",
          "type": "bytes32"
        }
      ],
      "name": "getString",
      "outputs": [
        {
          "name": "",
          "type": "string"
        }
      ],
      "payable": false,
      "stateMutability": "view",
      "type": "function"
    },
    {
      "constant": true,
      "inputs": [],
      "name": "BALLOT_STORAGE_NAME",
      "outputs": [
        {
          "name": "",
          "type": "bytes32"
        }
      ],
      "payable": false,
      "stateMutability": "view",
      "type": "function"
    },
    {
      "constant": true,
      "inputs": [
        {
          "name": "h",
          "type": "bytes32"
        }
      ],
      "name": "getBytes32",
      "outputs": [
        {
          "name": "",
          "type": "bytes32"
        }
      ],
      "payable": false,
      "stateMutability": "view",
      "type": "function"
    },
    {
      "constant": false,
      "inputs": [
        {
          "name": "_addr",
          "type": "address"
        }
      ],
      "name": "setRegistry",
      "outputs": [],
      "payable": false,
      "stateMutability": "nonpayable",
      "type": "function"
    },
    {
      "constant": true,
      "inputs": [
        {
          "name": "h",
          "type": "bytes32"
        }
      ],
      "name": "getUint",
      "outputs": [
        {
          "name": "",
          "type": "uint256"
        }
      ],
      "payable": false,
      "stateMutability": "view",
      "type": "function"
    },
    {
      "constant": true,
      "inputs": [
        {
          "name": "h",
          "type": "bytes32"
        }
      ],
      "name": "getBytes",
      "outputs": [
        {
          "name": "",
          "type": "bytes"
        }
      ],
      "payable": false,
      "stateMutability": "view",
      "type": "function"
    },
    {
      "constant": true,
      "inputs": [
        {
          "name": "h",
          "type": "bytes32"
        }
      ],
      "name": "getInt",
      "outputs": [
        {
          "name": "",
          "type": "int256"
        }
      ],
      "payable": false,
      "stateMutability": "view",
      "type": "function"
    },
    {
      "constant": false,
      "inputs": [
        {
          "name": "newOwner",
          "type": "address"
        }
      ],
      "name": "transferOwnership",
      "outputs": [],
      "payable": false,
      "stateMutability": "nonpayable",
      "type": "function"
    },
    {
      "anonymous": false,
      "inputs": [
        {
          "indexed": true,
          "name": "_name",
          "type": "bytes32"
        },
        {
          "indexed": false,
          "name": "_value",
          "type": "string"
        }
      ],
      "name": "StringVarableChanged",
      "type": "event"
    },
    {
      "anonymous": false,
      "inputs": [
        {
          "indexed": true,
          "name": "_name",
          "type": "bytes32"
        },
        {
          "indexed": false,
          "name": "_value",
          "type": "uint256"
        }
      ],
      "name": "UintVarableChanged",
      "type": "event"
    },
    {
      "anonymous": false,
      "inputs": [
        {
          "indexed": true,
          "name": "_name",
          "type": "bytes32"
        },
        {
          "indexed": false,
          "name": "_value",
          "type": "int256"
        }
      ],
      "name": "IntVarableChanged",
      "type": "event"
    },
    {
      "anonymous": false,
      "inputs": [
        {
          "indexed": true,
          "name": "_name",
          "type": "bytes32"
        },
        {
          "indexed": false,
          "name": "_value",
          "type": "address"
        }
      ],
      "name": "AddressVarableChanged",
      "type": "event"
    },
    {
      "anonymous": false,
      "inputs": [
        {
          "indexed": true,
          "name": "_name",
          "type": "bytes32"
        },
        {
          "indexed": false,
          "name": "_value",
          "type": "bytes32"
        }
      ],
      "name": "Bytes32VarableChanged",
      "type": "event"
    },
    {
      "anonymous": false,
      "inputs": [
        {
          "indexed": true,
          "name": "_name",
          "type": "bytes32"
        },
        {
          "indexed": false,
          "name": "_value",
          "type": "bytes"
        }
      ],
      "name": "BytesVarableChanged",
      "type": "event"
    },
    {
      "anonymous": false,
      "inputs": [
        {
          "indexed": true,
          "name": "_name",
          "type": "bytes32"
        },
        {
          "indexed": true,
          "name": "_type",
          "type": "uint256"
        },
        {
          "indexed": false,
          "name": "_value",
          "type": "string"
        }
      ],
      "name": "VarableChanged",
      "type": "event"
    },
    {
      "anonymous": false,
      "inputs": [
        {
          "indexed": true,
          "name": "previousOwner",
          "type": "address"
        },
        {
          "indexed": true,
          "name": "newOwner",
          "type": "address"
        }
      ],
      "name": "OwnershipTransferred",
      "type": "event"
    },
    {
      "constant": false,
      "inputs": [],
      "name": "initialize",
      "outputs": [],
      "payable": false,
      "stateMutability": "nonpayable",
      "type": "function"
    },
    {
      "constant": true,
      "inputs": [],
      "name": "getBlockPer",
      "outputs": [
        {
          "name": "",
          "type": "uint256"
        }
      ],
      "payable": false,
      "stateMutability": "view",
      "type": "function"
    },
    {
      "constant": true,
      "inputs": [],
      "name": "getBallotDurationMin",
      "outputs": [
        {
          "name": "",
          "type": "uint256"
        }
      ],
      "payable": false,
      "stateMutability": "view",
      "type": "function"
    },
    {
      "constant": true,
      "inputs": [],
      "name": "getBallotDurationMax",
      "outputs": [
        {
          "name": "",
          "type": "uint256"
        }
      ],
      "payable": false,
      "stateMutability": "view",
      "type": "function"
    },
    {
      "constant": true,
      "inputs": [],
      "name": "getStakingMin",
      "outputs": [
        {
          "name": "",
          "type": "uint256"
        }
      ],
      "payable": false,
      "stateMutability": "view",
      "type": "function"
    },
    {
      "constant": true,
      "inputs": [],
      "name": "getStakingMax",
      "outputs": [
        {
          "name": "",
          "type": "uint256"
        }
      ],
      "payable": false,
      "stateMutability": "view",
      "type": "function"
    },
    {
      "constant": false,
      "inputs": [
        {
          "name": "_value",
          "type": "uint256"
        }
      ],
      "name": "setBlockPer",
      "outputs": [],
      "payable": false,
      "stateMutability": "nonpayable",
      "type": "function"
    },
    {
      "constant": false,
      "inputs": [
        {
          "name": "_value",
          "type": "uint256"
        }
      ],
      "name": "setBallotDurationMin",
      "outputs": [],
      "payable": false,
      "stateMutability": "nonpayable",
      "type": "function"
    },
    {
      "constant": false,
      "inputs": [
        {
          "name": "_value",
          "type": "uint256"
        }
      ],
      "name": "setBallotDurationMax",
      "outputs": [],
      "payable": false,
      "stateMutability": "nonpayable",
      "type": "function"
    },
    {
      "constant": false,
      "inputs": [
        {
          "name": "_value",
          "type": "uint256"
        }
      ],
      "name": "setStakingMin",
      "outputs": [],
      "payable": false,
      "stateMutability": "nonpayable",
      "type": "function"
    },
    {
      "constant": false,
      "inputs": [
        {
          "name": "_value",
          "type": "uint256"
        }
      ],
      "name": "setStakingMax",
      "outputs": [],
      "payable": false,
      "stateMutability": "nonpayable",
      "type": "function"
    },
    {
      "constant": false,
      "inputs": [
        {
          "name": "_value",
          "type": "bytes"
        }
      ],
      "name": "setBlockPerByBytes",
      "outputs": [],
      "payable": false,
      "stateMutability": "nonpayable",
      "type": "function"
    },
    {
      "constant": false,
      "inputs": [
        {
          "name": "_value",
          "type": "bytes"
        }
      ],
      "name": "setBallotDurationMinByBytes",
      "outputs": [],
      "payable": false,
      "stateMutability": "nonpayable",
      "type": "function"
    },
    {
      "constant": false,
      "inputs": [
        {
          "name": "_value",
          "type": "bytes"
        }
      ],
      "name": "setBallotDurationMaxByBytes",
      "outputs": [],
      "payable": false,
      "stateMutability": "nonpayable",
      "type": "function"
    },
    {
      "constant": false,
      "inputs": [
        {
          "name": "_value",
          "type": "bytes"
        }
      ],
      "name": "setStakingMinByBytes",
      "outputs": [],
      "payable": false,
      "stateMutability": "nonpayable",
      "type": "function"
    },
    {
      "constant": false,
      "inputs": [
        {
          "name": "_value",
          "type": "bytes"
        }
      ],
      "name": "setStakingMaxByBytes",
      "outputs": [],
      "payable": false,
      "stateMutability": "nonpayable",
      "type": "function"
    },
    {
      "constant": true,
      "inputs": [],
      "name": "getTestInt",
      "outputs": [
        {
          "name": "",
          "type": "int256"
        }
      ],
      "payable": false,
      "stateMutability": "view",
      "type": "function"
    },
    {
      "constant": true,
      "inputs": [],
      "name": "getTestAddress",
      "outputs": [
        {
          "name": "",
          "type": "address"
        }
      ],
      "payable": false,
      "stateMutability": "view",
      "type": "function"
    },
    {
      "constant": true,
      "inputs": [],
      "name": "getTestBytes32",
      "outputs": [
        {
          "name": "",
          "type": "bytes32"
        }
      ],
      "payable": false,
      "stateMutability": "view",
      "type": "function"
    },
    {
      "constant": true,
      "inputs": [],
      "name": "getTestBytes",
      "outputs": [
        {
          "name": "",
          "type": "bytes"
        }
      ],
      "payable": false,
      "stateMutability": "view",
      "type": "function"
    },
    {
      "constant": true,
      "inputs": [],
      "name": "getTestString",
      "outputs": [
        {
          "name": "",
          "type": "string"
        }
      ],
      "payable": false,
      "stateMutability": "view",
      "type": "function"
    },
    {
      "constant": false,
      "inputs": [
        {
          "name": "_value",
          "type": "bytes"
        }
      ],
      "name": "setTestIntByBytes",
      "outputs": [],
      "payable": false,
      "stateMutability": "nonpayable",
      "type": "function"
    },
    {
      "constant": false,
      "inputs": [
        {
          "name": "_value",
          "type": "bytes"
        }
      ],
      "name": "setTestAddressByBytes",
      "outputs": [],
      "payable": false,
      "stateMutability": "nonpayable",
      "type": "function"
    },
    {
      "constant": false,
      "inputs": [
        {
          "name": "_value",
          "type": "bytes"
        }
      ],
      "name": "setTestBytes32ByBytes",
      "outputs": [],
      "payable": false,
      "stateMutability": "nonpayable",
      "type": "function"
    },
    {
      "constant": false,
      "inputs": [
        {
          "name": "_value",
          "type": "bytes"
        }
      ],
      "name": "setTestBytesByBytes",
      "outputs": [],
      "payable": false,
      "stateMutability": "nonpayable",
      "type": "function"
    },
    {
      "constant": false,
      "inputs": [
        {
          "name": "_value",
          "type": "bytes"
        }
      ],
      "name": "setTestStringByBytes",
      "outputs": [],
      "payable": false,
      "stateMutability": "nonpayable",
      "type": "function"
    }
  ],
  "bytecode": "0x608060405233600760006101000a81548173ffffffffffffffffffffffffffffffffffffffff021916908373ffffffffffffffffffffffffffffffffffffffff160217905550600760009054906101000a900473ffffffffffffffffffffffffffffffffffffffff1673ffffffffffffffffffffffffffffffffffffffff16600073ffffffffffffffffffffffffffffffffffffffff167f8be0079c531659141344cd1fd0a4f28419497f9722a3daafe3b4186f6b6457e060405160405180910390a3612d7c806100d16000396000f30060806040526004361061021a576000357c0100000000000000000000000000000000000000000000000000000000900463ffffffff168063076cd77f1461021f578063081800351461024a5780630a61b0ba146102b3578063124cea371461031c57806315bf4b05146103855780631b27e01b146104155780631e0cba0d1461044057806321f8a721146104735780632eb57c65146104e45780632eccd832146105115780632f40992e1461057a5780632f809ee1146105ad5780632f91be48146105d857806333be496e146106685780633848207a146106935780633c345604146106dc57806346e1d553146107095780635f5a4f661461077257806368cb4da3146107db5780636c78d2cf1461080e578063715018a61461084157806371c6960d14610858578063737c59b8146108c1578063738fdd1a146108ec5780637bf46530146109435780638129fc1c14610976578063852cf38f1461098d5780638a523b6b146109ba5780638da5cb5b14610a235780638f32d59b14610a7a578063986e791a14610aa95780639986e4b914610b53578063a36f259b14610b86578063a5d6a58114610bb3578063a6ed563e14610c1c578063a91ee0dc14610c69578063bd02d0f514610cac578063c031a18014610cf1578063d614781414610d9b578063dc97d96214610df2578063dd46cb8114610e37578063e60308db14610ea0578063f2fde38b14610ecb578063f821459114610f0e575b600080fd5b34801561022b57600080fd5b50610234610f3b565b6040518082815260200191505060405180910390f35b34801561025657600080fd5b506102b1600480360381019080803590602001908201803590602001908080601f0160208091040260200160405190810160405280939291908181526020018383808284378201915050505050509192919290505050610f80565b005b3480156102bf57600080fd5b5061031a600480360381019080803590602001908201803590602001908080601f016020809104026020016040519081016040528093929190818152602001838380828437820191505050505050919291929050505061106c565b005b34801561032857600080fd5b50610383600480360381019080803590602001908201803590602001908080601f016020809104026020016040519081016040528093929190818152602001838380828437820191505050505050919291929050505061112a565b005b34801561039157600080fd5b5061039a6111e8565b6040518080602001828103825283818151815260200191508051906020019080838360005b838110156103da5780820151818401526020810190506103bf565b50505050905090810190601f1680156104075780820380516001836020036101000a031916815260200191505b509250505060405180910390f35b34801561042157600080fd5b5061042a61122d565b6040518082815260200191505060405180910390f35b34801561044c57600080fd5b50610455611272565b60405180826000191660001916815260200191505060405180910390f35b34801561047f57600080fd5b506104a26004803603810190808035600019169060200190929190505050611296565b604051808273ffffffffffffffffffffffffffffffffffffffff1673ffffffffffffffffffffffffffffffffffffffff16815260200191505060405180910390f35b3480156104f057600080fd5b5061050f600480360381019080803590602001909291905050506112dd565b005b34801561051d57600080fd5b50610578600480360381019080803590602001908201803590602001908080601f01602080910402602001604051908101604052809392919081815260200183838082843782019150505050505091929192905050506113c9565b005b34801561058657600080fd5b5061058f611487565b60405180826000191660001916815260200191505060405180910390f35b3480156105b957600080fd5b506105c26114ab565b6040518082815260200191505060405180910390f35b3480156105e457600080fd5b506105ed6114f0565b6040518080602001828103825283818151815260200191508051906020019080838360005b8381101561062d578082015181840152602081019050610612565b50505050905090810190601f16801561065a5780820380516001836020036101000a031916815260200191505b509250505060405180910390f35b34801561067457600080fd5b5061067d611535565b6040518082815260200191505060405180910390f35b34801561069f57600080fd5b506106c2600480360381019080803560001916906020019092919050505061157a565b604051808215151515815260200191505060405180910390f35b3480156106e857600080fd5b50610707600480360381019080803590602001909291905050506115ae565b005b34801561071557600080fd5b50610770600480360381019080803590602001908201803590602001908080601f016020809104026020016040519081016040528093929190818152602001838380828437820191505050505050919291929050505061169a565b005b34801561077e57600080fd5b506107d9600480360381019080803590602001908201803590602001908080601f016020809104026020016040519081016040528093929190818152602001838380828437820191505050505050919291929050505061178e565b005b3480156107e757600080fd5b506107f0611882565b60405180826000191660001916815260200191505060405180910390f35b34801561081a57600080fd5b506108236118c7565b60405180826000191660001916815260200191505060405180910390f35b34801561084d57600080fd5b506108566118eb565b005b34801561086457600080fd5b506108bf600480360381019080803590602001908201803590602001908080601f01602080910402602001604051908101604052809392919081815260200183838082843782019150505050505091929192905050506119bf565b005b3480156108cd57600080fd5b506108d6611a7d565b6040518082815260200191505060405180910390f35b3480156108f857600080fd5b50610901611ac2565b604051808273ffffffffffffffffffffffffffffffffffffffff1673ffffffffffffffffffffffffffffffffffffffff16815260200191505060405180910390f35b34801561094f57600080fd5b50610958611ae8565b60405180826000191660001916815260200191505060405180910390f35b34801561098257600080fd5b5061098b611b0c565b005b34801561099957600080fd5b506109b860048036038101908080359060200190929190505050611ceb565b005b3480156109c657600080fd5b50610a21600480360381019080803590602001908201803590602001908080601f0160208091040260200160405190810160405280939291908181526020018383808284378201915050505050509192919290505050611dd7565b005b348015610a2f57600080fd5b50610a38611ec3565b604051808273ffffffffffffffffffffffffffffffffffffffff1673ffffffffffffffffffffffffffffffffffffffff16815260200191505060405180910390f35b348015610a8657600080fd5b50610a8f611eed565b604051808215151515815260200191505060405180910390f35b348015610ab557600080fd5b50610ad86004803603810190808035600019169060200190929190505050611f45565b6040518080602001828103825283818151815260200191508051906020019080838360005b83811015610b18578082015181840152602081019050610afd565b50505050905090810190601f168015610b455780820380516001836020036101000a031916815260200191505b509250505060405180910390f35b348015610b5f57600080fd5b50610b68612005565b60405180826000191660001916815260200191505060405180910390f35b348015610b9257600080fd5b50610bb160048036038101908080359060200190929190505050612029565b005b348015610bbf57600080fd5b50610c1a600480360381019080803590602001908201803590602001908080601f0160208091040260200160405190810160405280939291908181526020018383808284378201915050505050509192919290505050612115565b005b348015610c2857600080fd5b50610c4b60048036038101908080356000191690602001909291905050506121d3565b60405180826000191660001916815260200191505060405180910390f35b348015610c7557600080fd5b50610caa600480360381019080803573ffffffffffffffffffffffffffffffffffffffff1690602001909291905050506121fa565b005b348015610cb857600080fd5b50610cdb6004803603810190808035600019169060200190929190505050612251565b6040518082815260200191505060405180910390f35b348015610cfd57600080fd5b50610d206004803603810190808035600019169060200190929190505050612278565b6040518080602001828103825283818151815260200191508051906020019080838360005b83811015610d60578082015181840152602081019050610d45565b50505050905090810190601f168015610d8d5780820380516001836020036101000a031916815260200191505b509250505060405180910390f35b348015610da757600080fd5b50610db0612338565b604051808273ffffffffffffffffffffffffffffffffffffffff1673ffffffffffffffffffffffffffffffffffffffff16815260200191505060405180910390f35b348015610dfe57600080fd5b50610e21600480360381019080803560001916906020019092919050505061237d565b6040518082815260200191505060405180910390f35b348015610e4357600080fd5b50610e9e600480360381019080803590602001908201803590602001908080601f01602080910402602001604051908101604052809392919081815260200183838082843782019150505050505091929192905050506123a4565b005b348015610eac57600080fd5b50610eb5612498565b6040518082815260200191505060405180910390f35b348015610ed757600080fd5b50610f0c600480360381019080803573ffffffffffffffffffffffffffffffffffffffff1690602001909291905050506124dd565b005b348015610f1a57600080fd5b50610f39600480360381019080803590602001909291905050506124fc565b005b6000610f7b60405180807f7374616b696e674d696e00000000000000000000000000000000000000000000815250600a0190506040518091039020612251565b905090565b3373ffffffffffffffffffffffffffffffffffffffff16610f9f6125e8565b73ffffffffffffffffffffffffffffffffffffffff1614151561102a576040517f08c379a000000000000000000000000000000000000000000000000000000000815260040180806020018281038252600d8152602001807f4e6f205065726d697373696f6e0000000000000000000000000000000000000081525060200191505060405180910390fd5b61106960405180807f544553545f425954455300000000000000000000000000000000000000000000815250600a019050604051809103902082612618565b50565b3373ffffffffffffffffffffffffffffffffffffffff1661108b6125e8565b73ffffffffffffffffffffffffffffffffffffffff16141515611116576040517f08c379a000000000000000000000000000000000000000000000000000000000815260040180806020018281038252600d8152602001807f4e6f205065726d697373696f6e0000000000000000000000000000000000000081525060200191505060405180910390fd5b611127611122826126c7565b6115ae565b50565b3373ffffffffffffffffffffffffffffffffffffffff166111496125e8565b73ffffffffffffffffffffffffffffffffffffffff161415156111d4576040517f08c379a000000000000000000000000000000000000000000000000000000000815260040180806020018281038252600d8152602001807f4e6f205065726d697373696f6e0000000000000000000000000000000000000081525060200191505060405180910390fd5b6111e56111e0826126c7565b612029565b50565b606061122860405180807f544553545f425954455300000000000000000000000000000000000000000000815250600a0190506040518091039020612278565b905090565b600061126d60405180807f62616c6c6f744475726174696f6e4d617800000000000000000000000000000081525060110190506040518091039020612251565b905090565b7f5374616b696e670000000000000000000000000000000000000000000000000081565b6000806004016000836000191660001916815260200190815260200160002060009054906101000a900473ffffffffffffffffffffffffffffffffffffffff169050919050565b3373ffffffffffffffffffffffffffffffffffffffff166112fc6125e8565b73ffffffffffffffffffffffffffffffffffffffff16141515611387576040517f08c379a000000000000000000000000000000000000000000000000000000000815260040180806020018281038252600d8152602001807f4e6f205065726d697373696f6e0000000000000000000000000000000000000081525060200191505060405180910390fd5b6113c660405180807f7374616b696e674d696e00000000000000000000000000000000000000000000815250600a0190506040518091039020826126d5565b50565b3373ffffffffffffffffffffffffffffffffffffffff166113e86125e8565b73ffffffffffffffffffffffffffffffffffffffff16141515611473576040517f08c379a000000000000000000000000000000000000000000000000000000000815260040180806020018281038252600d8152602001807f4e6f205065726d697373696f6e0000000000000000000000000000000000000081525060200191505060405180910390fd5b61148461147f826126c7565b6124fc565b50565b7f526577617264506f6f6c0000000000000000000000000000000000000000000081565b60006114eb60405180807f626c6f636b50657200000000000000000000000000000000000000000000000081525060080190506040518091039020612251565b905090565b606061153060405180807f544553545f535452494e47000000000000000000000000000000000000000000815250600b0190506040518091039020611f45565b905090565b600061157560405180807f62616c6c6f744475726174696f6e4d696e00000000000000000000000000000081525060110190506040518091039020612251565b905090565b6000806000016000836000191660001916815260200190815260200160002060009054906101000a900460ff169050919050565b3373ffffffffffffffffffffffffffffffffffffffff166115cd6125e8565b73ffffffffffffffffffffffffffffffffffffffff16141515611658576040517f08c379a000000000000000000000000000000000000000000000000000000000815260040180806020018281038252600d8152602001807f4e6f205065726d697373696f6e0000000000000000000000000000000000000081525060200191505060405180910390fd5b61169760405180807f626c6f636b50657200000000000000000000000000000000000000000000000081525060080190506040518091039020826126d5565b50565b3373ffffffffffffffffffffffffffffffffffffffff166116b96125e8565b73ffffffffffffffffffffffffffffffffffffffff16141515611744576040517f08c379a000000000000000000000000000000000000000000000000000000000815260040180806020018281038252600d8152602001807f4e6f205065726d697373696f6e0000000000000000000000000000000000000081525060200191505060405180910390fd5b61178b60405180807f544553545f494e54000000000000000000000000000000000000000000000000815250600801905060405180910390206117868361271f565b61272d565b50565b3373ffffffffffffffffffffffffffffffffffffffff166117ad6125e8565b73ffffffffffffffffffffffffffffffffffffffff16141515611838576040517f08c379a000000000000000000000000000000000000000000000000000000000815260040180806020018281038252600d8152602001807f4e6f205065726d697373696f6e0000000000000000000000000000000000000081525060200191505060405180910390fd5b61187f60405180807f544553545f425954455333320000000000000000000000000000000000000000815250600c019050604051809103902061187a83612777565b612785565b50565b60006118c260405180807f544553545f425954455333320000000000000000000000000000000000000000815250600c01905060405180910390206121d3565b905090565b7f476f7665726e616e6365436f6e7472616374000000000000000000000000000081565b6118f3611eed565b15156118fe57600080fd5b600073ffffffffffffffffffffffffffffffffffffffff16600760009054906101000a900473ffffffffffffffffffffffffffffffffffffffff1673ffffffffffffffffffffffffffffffffffffffff167f8be0079c531659141344cd1fd0a4f28419497f9722a3daafe3b4186f6b6457e060405160405180910390a36000600760006101000a81548173ffffffffffffffffffffffffffffffffffffffff021916908373ffffffffffffffffffffffffffffffffffffffff160217905550565b3373ffffffffffffffffffffffffffffffffffffffff166119de6125e8565b73ffffffffffffffffffffffffffffffffffffffff16141515611a69576040517f08c379a000000000000000000000000000000000000000000000000000000000815260040180806020018281038252600d8152602001807f4e6f205065726d697373696f6e0000000000000000000000000000000000000081525060200191505060405180910390fd5b611a7a611a75826126c7565b6112dd565b50565b6000611abd60405180807f7374616b696e674d617800000000000000000000000000000000000000000000815250600a0190506040518091039020612251565b905090565b600860009054906101000a900473ffffffffffffffffffffffffffffffffffffffff1681565b7f456e7653746f726167650000000000000000000000000000000000000000000081565b6000806000806000611b1c611eed565b1515611b2757600080fd5b611b2f6114ab565b9450611b39611535565b9350611b4361122d565b9250611b4d610f3b565b9150611b57611a7d565b90506000851415611ba457611ba360405180807f626c6f636b506572000000000000000000000000000000000000000000000000815250600801905060405180910390206103e86126d5565b5b6000841415611bf057611bef60405180807f62616c6c6f744475726174696f6e4d696e00000000000000000000000000000081525060110190506040518091039020620151806126d5565b5b6000831415611c3c57611c3b60405180807f62616c6c6f744475726174696f6e4d61780000000000000000000000000000008152506011019050604051809103902062093a806126d5565b5b6000821415611c9057611c8f60405180807f7374616b696e674d696e00000000000000000000000000000000000000000000815250600a01905060405180910390206a041e8e57486d2ec08000006126d5565b5b6000811415611ce457611ce360405180807f7374616b696e674d617800000000000000000000000000000000000000000000815250600a01905060405180910390206a20f472ba436976040000006126d5565b5b5050505050565b3373ffffffffffffffffffffffffffffffffffffffff16611d0a6125e8565b73ffffffffffffffffffffffffffffffffffffffff16141515611d95576040517f08c379a000000000000000000000000000000000000000000000000000000000815260040180806020018281038252600d8152602001807f4e6f205065726d697373696f6e0000000000000000000000000000000000000081525060200191505060405180910390fd5b611dd460405180807f62616c6c6f744475726174696f6e4d617800000000000000000000000000000081525060110190506040518091039020826126d5565b50565b3373ffffffffffffffffffffffffffffffffffffffff16611df66125e8565b73ffffffffffffffffffffffffffffffffffffffff16141515611e81576040517f08c379a000000000000000000000000000000000000000000000000000000000815260040180806020018281038252600d8152602001807f4e6f205065726d697373696f6e0000000000000000000000000000000000000081525060200191505060405180910390fd5b611ec060405180807f544553545f535452494e47000000000000000000000000000000000000000000815250600b0190506040518091039020826127d7565b50565b6000600760009054906101000a900473ffffffffffffffffffffffffffffffffffffffff16905090565b6000600760009054906101000a900473ffffffffffffffffffffffffffffffffffffffff1673ffffffffffffffffffffffffffffffffffffffff163373ffffffffffffffffffffffffffffffffffffffff1614905090565b60606000600301600083600019166000191681526020019081526020016000208054600181600116156101000203166002900480601f016020809104026020016040519081016040528092919081815260200182805460018160011615610100020316600290048015611ff95780601f10611fce57610100808354040283529160200191611ff9565b820191906000526020600020905b815481529060010190602001808311611fdc57829003601f168201915b50505050509050919050565b7f42616c6c6f7453746f726167650000000000000000000000000000000000000081565b3373ffffffffffffffffffffffffffffffffffffffff166120486125e8565b73ffffffffffffffffffffffffffffffffffffffff161415156120d3576040517f08c379a000000000000000000000000000000000000000000000000000000000815260040180806020018281038252600d8152602001807f4e6f205065726d697373696f6e0000000000000000000000000000000000000081525060200191505060405180910390fd5b61211260405180807f62616c6c6f744475726174696f6e4d696e00000000000000000000000000000081525060110190506040518091039020826126d5565b50565b3373ffffffffffffffffffffffffffffffffffffffff166121346125e8565b73ffffffffffffffffffffffffffffffffffffffff161415156121bf576040517f08c379a000000000000000000000000000000000000000000000000000000000815260040180806020018281038252600d8152602001807f4e6f205065726d697373696f6e0000000000000000000000000000000000000081525060200191505060405180910390fd5b6121d06121cb826126c7565b611ceb565b50565b60008060060160008360001916600019168152602001908152602001600020549050919050565b612202611eed565b151561220d57600080fd5b80600860006101000a81548173ffffffffffffffffffffffffffffffffffffffff021916908373ffffffffffffffffffffffffffffffffffffffff16021790555050565b60008060020160008360001916600019168152602001908152602001600020549050919050565b60606000600501600083600019166000191681526020019081526020016000208054600181600116156101000203166002900480601f01602080910402602001604051908101604052809291908181526020018280546001816001161561010002031660029004801561232c5780601f106123015761010080835404028352916020019161232c565b820191906000526020600020905b81548152906001019060200180831161230f57829003601f168201915b50505050509050919050565b600061237860405180807f544553545f414444524553530000000000000000000000000000000000000000815250600c0190506040518091039020611296565b905090565b60008060010160008360001916600019168152602001908152602001600020549050919050565b3373ffffffffffffffffffffffffffffffffffffffff166123c36125e8565b73ffffffffffffffffffffffffffffffffffffffff1614151561244e576040517f08c379a000000000000000000000000000000000000000000000000000000000815260040180806020018281038252600d8152602001807f4e6f205065726d697373696f6e0000000000000000000000000000000000000081525060200191505060405180910390fd5b61249560405180807f544553545f414444524553530000000000000000000000000000000000000000815250600c019050604051809103902061249083612886565b612894565b50565b60006124d860405180807f544553545f494e540000000000000000000000000000000000000000000000008152506008019050604051809103902061237d565b905090565b6124e5611eed565b15156124f057600080fd5b6124f98161290a565b50565b3373ffffffffffffffffffffffffffffffffffffffff1661251b6125e8565b73ffffffffffffffffffffffffffffffffffffffff161415156125a6576040517f08c379a000000000000000000000000000000000000000000000000000000000815260040180806020018281038252600d8152602001807f4e6f205065726d697373696f6e0000000000000000000000000000000000000081525060200191505060405180910390fd5b6125e560405180807f7374616b696e674d617800000000000000000000000000000000000000000000815250600a0190506040518091039020826126d5565b50565b60006126137f476f7665726e616e6365436f6e74726163740000000000000000000000000000612a06565b905090565b6126228282612ae3565b81600019167f871b63105583c40db6d530b9340369142c5ae265e41a501d300455015dc1283a826040518080602001828103825283818151815260200191508051906020019080838360005b8381101561268957808201518184015260208101905061266e565b50505050905090810190601f1680156126b65780820380516001836020036101000a031916815260200191505b509250505060405180910390a25050565b600060208201519050919050565b6126df8282612b1a565b81600019167f58d7c10adfd5778016889c15d422d57f2975b9292415b54fe5d8cd4241200612826040518082815260200191505060405180910390a25050565b600060208201519050919050565b6127378282612b41565b81600019167f3b274b11383ad4ca069e655ed60df9e4307b7a0f82ba2245a3cb9789ab814bf6826040518082815260200191505060405180910390a25050565b600060208201519050919050565b61278f8282612b68565b81600019167fde32aec28e018560c62b0217a8e7cfdc094cda68f1fc7ecd4ed833ee1d4862c98260405180826000191660001916815260200191505060405180910390a25050565b6127e18282612b93565b81600019167f43849fbc1e66a5d2cd0ace04916e2e6c8f314c1904d104cad97150428a370a41826040518080602001828103825283818151815260200191508051906020019080838360005b8381101561284857808201518184015260208101905061282d565b50505050905090810190601f1680156128755780820380516001836020036101000a031916815260200191505b509250505060405180910390a25050565b600060148201519050919050565b61289e8282612bca565b81600019167f5ba696c1849fe23c6b280f9f6057cb4574c818e0cd542032eed6e211f1e0246482604051808273ffffffffffffffffffffffffffffffffffffffff1673ffffffffffffffffffffffffffffffffffffffff16815260200191505060405180910390a25050565b600073ffffffffffffffffffffffffffffffffffffffff168173ffffffffffffffffffffffffffffffffffffffff161415151561294657600080fd5b8073ffffffffffffffffffffffffffffffffffffffff16600760009054906101000a900473ffffffffffffffffffffffffffffffffffffffff1673ffffffffffffffffffffffffffffffffffffffff167f8be0079c531659141344cd1fd0a4f28419497f9722a3daafe3b4186f6b6457e060405160405180910390a380600760006101000a81548173ffffffffffffffffffffffffffffffffffffffff021916908373ffffffffffffffffffffffffffffffffffffffff16021790555050565b6000600860009054906101000a900473ffffffffffffffffffffffffffffffffffffffff1673ffffffffffffffffffffffffffffffffffffffff16630d2020dd836040518263ffffffff167c0100000000000000000000000000000000000000000000000000000000028152600401808260001916600019168152602001915050602060405180830381600087803b158015612aa157600080fd5b505af1158015612ab5573d6000803e3d6000fd5b505050506040513d6020811015612acb57600080fd5b81019080805190602001909291905050509050919050565b806000600501600084600019166000191681526020019081526020016000209080519060200190612b15929190612c2b565b505050565b80600060020160008460001916600019168152602001908152602001600020819055505050565b80600060010160008460001916600019168152602001908152602001600020819055505050565b8060006006016000846000191660001916815260200190815260200160002081600019169055505050565b806000600301600084600019166000191681526020019081526020016000209080519060200190612bc5929190612cab565b505050565b8060006004016000846000191660001916815260200190815260200160002060006101000a81548173ffffffffffffffffffffffffffffffffffffffff021916908373ffffffffffffffffffffffffffffffffffffffff1602179055505050565b828054600181600116156101000203166002900490600052602060002090601f016020900481019282601f10612c6c57805160ff1916838001178555612c9a565b82800160010185558215612c9a579182015b82811115612c99578251825591602001919060010190612c7e565b5b509050612ca79190612d2b565b5090565b828054600181600116156101000203166002900490600052602060002090601f016020900481019282601f10612cec57805160ff1916838001178555612d1a565b82800160010185558215612d1a579182015b82811115612d19578251825591602001919060010190612cfe565b5b509050612d279190612d2b565b5090565b612d4d91905b80821115612d49576000816000905550600101612d31565b5090565b905600a165627a7a72305820c4aacd088012cf250c15295b6f6708ff7195c635925433aaff2e2563cafbe6d90029",
  "source": "pragma solidity ^0.4.24;\n\nimport \"openzeppelin-solidity/contracts/math/SafeMath.sol\";\nimport \"../abstract/EnvConstants.sol\";\nimport \"./AEnvStorage.sol\";\n//import \"./Conversion.sol\";\n\n\ncontract EnvStorageImp is AEnvStorage, EnvConstants {\n    using SafeMath for uint256;\n    //using Conversion for string;\n    \n    function initialize() public onlyOwner {\n        uint256 blockPerVal = getBlockPer();\n        uint256 ballotDurationMin = getBallotDurationMin();\n        uint256 ballotDurationMax = getBallotDurationMax();\n        uint256 stakingMin = getStakingMin();\n        uint256 stakingMax = getStakingMax();\n\n        if (blockPerVal == 0) {\n            setUint(BLOCK_PER_NAME, 1000);\n        }\n        if (ballotDurationMin == 0) {\n            setUint(BALLOT_DURATION_MIN_NAME, 86400);\n        }\n        if (ballotDurationMax == 0) {\n            setUint(BALLOT_DURATION_MAX_NAME, 604800);\n        }\n        if (stakingMin == 0) {\n            setUint(STAKING_MIN_NAME, 4980000 ether);\n        }\n        if (stakingMax == 0) {\n            setUint(STAKING_MAX_NAME, 39840000 ether);\n        }\n    }\n\n    function getBlockPer() public view returns (uint256) {\n        return getUint(BLOCK_PER_NAME);\n    }\n\n    function getBallotDurationMin() public view returns (uint256) {\n        return getUint(BALLOT_DURATION_MIN_NAME);\n    }\n\n    function getBallotDurationMax() public view returns (uint256) {\n        return getUint(BALLOT_DURATION_MAX_NAME);\n    }\n\n    function getStakingMin() public view returns (uint256) {\n        return getUint(STAKING_MIN_NAME);\n    }\n\n    function getStakingMax() public view returns (uint256) {\n        return getUint(STAKING_MAX_NAME);\n    }\n    \n    function setBlockPer(uint256 _value) public onlyGov { \n        setUint(BLOCK_PER_NAME, _value);\n    }\n\n    function setBallotDurationMin(uint256 _value) public onlyGov { \n        setUint(BALLOT_DURATION_MIN_NAME, _value);\n    }\n\n    function setBallotDurationMax(uint256 _value) public onlyGov { \n        setUint(BALLOT_DURATION_MAX_NAME, _value);\n    }\n\n    function setStakingMin(uint256 _value) public onlyGov { \n        setUint(STAKING_MIN_NAME, _value);\n    }\n\n    function setStakingMax(uint256 _value) public onlyGov { \n        setUint(STAKING_MAX_NAME, _value);\n    }\n\n    function setBlockPerByBytes(bytes _value) public onlyGov { \n        setBlockPer(toUint(_value));\n    }\n\n    function setBallotDurationMinByBytes(bytes _value) public onlyGov { \n        setBallotDurationMin(toUint(_value));\n    }\n\n    function setBallotDurationMaxByBytes(bytes _value) public onlyGov { \n        setBallotDurationMax(toUint(_value));\n    }\n\n    function setStakingMinByBytes(bytes _value) public onlyGov { \n        setStakingMin(toUint(_value));\n    }\n\n    function setStakingMaxByBytes(bytes _value) public onlyGov { \n        setStakingMax(toUint(_value));\n    }\n\n    function getTestInt() public view returns (int256) {\n        return getInt(TEST_INT);\n    }\n\n    function getTestAddress() public view returns (address) {\n        return getAddress(TEST_ADDRESS);\n    }\n\n    function getTestBytes32() public view returns (bytes32) {\n        return getBytes32(TEST_BYTES32);\n    }\n\n    function getTestBytes() public view returns (bytes) {\n        return getBytes(TEST_BYTES);\n    }\n\n    function getTestString() public view returns (string) {\n        return getString(TEST_STRING);\n    }\n\n    function setTestIntByBytes(bytes _value) public onlyGov { \n        setInt(TEST_INT, toInt(_value));\n    }\n\n    function setTestAddressByBytes(bytes _value) public onlyGov { \n        setAddress(TEST_ADDRESS, toAddress(_value));\n    }\n\n    function setTestBytes32ByBytes(bytes _value) public onlyGov { \n        setBytes32(TEST_BYTES32, toBytes32(_value));\n    }\n\n    function setTestBytesByBytes(bytes _value) public onlyGov { \n        setBytes(TEST_BYTES, _value);\n    }\n\n    function setTestStringByBytes(bytes _value) public onlyGov { \n        setString(TEST_STRING, string(_value));\n    }\n\n    function toBytes32(bytes memory _input) internal pure returns (bytes32 _output) {\n        assembly {\n            _output := mload(add(_input, 32))\n        }\n    }\n\n    function toInt(bytes memory _input) internal pure returns (int256 _output) {\n        assembly {\n            _output := mload(add(_input, 32))\n        }\n    }\n\n    function toUint(bytes memory _input) internal pure returns (uint256 _output) {\n        \n        assembly {\n            _output := mload(add(_input, 32))\n        }\n    }\n\n    function toAddress(bytes memory _input) internal pure returns (address _output) {\n        assembly {\n            _output := mload(add(_input, 20))\n        }\n    }\n}",
  "sourcePath": "/Users/ywshin/Documents/WS/truffle/governance-contract-blueisle/contracts/storage/EnvStorageImp.sol",
  "compiler": {
    "name": "solc",
    "version": "0.4.24+commit.e67f0147.Emscripten.clang"
  },
  "schemaVersion": "2.0.1",
  "updatedAt": "2019-02-12T09:09:00.427Z"
}