{
  "contractName": "EternalStorage",
  "abi": [
    {
      "constant": true,
      "inputs": [
        {
          "name": "h",
          "type": "bytes32"
        }
      ],
      "name": "getBoolean",
      "outputs": [
        {
          "name": "",
          "type": "bool"
        }
      ],
      "payable": false,
      "stateMutability": "view",
      "type": "function"
    },
    {
      "constant": true,
      "inputs": [
        {
          "name": "h",
          "type": "bytes32"
        }
      ],
      "name": "getInt",
      "outputs": [
        {
          "name": "",
          "type": "int256"
        }
      ],
      "payable": false,
      "stateMutability": "view",
      "type": "function"
    },
    {
      "constant": true,
      "inputs": [
        {
          "name": "h",
          "type": "bytes32"
        }
      ],
      "name": "getUint",
      "outputs": [
        {
          "name": "",
          "type": "uint256"
        }
      ],
      "payable": false,
      "stateMutability": "view",
      "type": "function"
    },
    {
      "constant": true,
      "inputs": [
        {
          "name": "h",
          "type": "bytes32"
        }
      ],
      "name": "getAddress",
      "outputs": [
        {
          "name": "",
          "type": "address"
        }
      ],
      "payable": false,
      "stateMutability": "view",
      "type": "function"
    },
    {
      "constant": true,
      "inputs": [
        {
          "name": "h",
          "type": "bytes32"
        }
      ],
      "name": "getString",
      "outputs": [
        {
          "name": "",
          "type": "string"
        }
      ],
      "payable": false,
      "stateMutability": "view",
      "type": "function"
    },
    {
      "constant": true,
      "inputs": [
        {
          "name": "h",
          "type": "bytes32"
        }
      ],
      "name": "getBytes",
      "outputs": [
        {
          "name": "",
          "type": "bytes"
        }
      ],
      "payable": false,
      "stateMutability": "view",
      "type": "function"
    },
    {
      "constant": true,
      "inputs": [
        {
          "name": "h",
          "type": "bytes32"
        }
      ],
      "name": "getBytes32",
      "outputs": [
        {
          "name": "",
          "type": "bytes32"
        }
      ],
      "payable": false,
      "stateMutability": "view",
      "type": "function"
    }
  ],
  "bytecode": "0x608060405234801561001057600080fd5b50610609806100206000396000f300608060405260043610610083576000357c0100000000000000000000000000000000000000000000000000000000900463ffffffff16806321f8a721146100885780633848207a146100f9578063986e791a14610142578063a6ed563e146101ec578063bd02d0f514610239578063c031a1801461027e578063dc97d96214610328575b600080fd5b34801561009457600080fd5b506100b7600480360381019080803560001916906020019092919050505061036d565b604051808273ffffffffffffffffffffffffffffffffffffffff1673ffffffffffffffffffffffffffffffffffffffff16815260200191505060405180910390f35b34801561010557600080fd5b5061012860048036038101908080356000191690602001909291905050506103b4565b604051808215151515815260200191505060405180910390f35b34801561014e57600080fd5b5061017160048036038101908080356000191690602001909291905050506103e8565b6040518080602001828103825283818151815260200191508051906020019080838360005b838110156101b1578082015181840152602081019050610196565b50505050905090810190601f1680156101de5780820380516001836020036101000a031916815260200191505b509250505060405180910390f35b3480156101f857600080fd5b5061021b60048036038101908080356000191690602001909291905050506104a8565b60405180826000191660001916815260200191505060405180910390f35b34801561024557600080fd5b5061026860048036038101908080356000191690602001909291905050506104cf565b6040518082815260200191505060405180910390f35b34801561028a57600080fd5b506102ad60048036038101908080356000191690602001909291905050506104f6565b6040518080602001828103825283818151815260200191508051906020019080838360005b838110156102ed5780820151818401526020810190506102d2565b50505050905090810190601f16801561031a5780820380516001836020036101000a031916815260200191505b509250505060405180910390f35b34801561033457600080fd5b5061035760048036038101908080356000191690602001909291905050506105b6565b6040518082815260200191505060405180910390f35b6000806004016000836000191660001916815260200190815260200160002060009054906101000a900473ffffffffffffffffffffffffffffffffffffffff169050919050565b6000806000016000836000191660001916815260200190815260200160002060009054906101000a900460ff169050919050565b60606000600301600083600019166000191681526020019081526020016000208054600181600116156101000203166002900480601f01602080910402602001604051908101604052809291908181526020018280546001816001161561010002031660029004801561049c5780601f106104715761010080835404028352916020019161049c565b820191906000526020600020905b81548152906001019060200180831161047f57829003601f168201915b50505050509050919050565b60008060060160008360001916600019168152602001908152602001600020549050919050565b60008060020160008360001916600019168152602001908152602001600020549050919050565b60606000600501600083600019166000191681526020019081526020016000208054600181600116156101000203166002900480601f0160208091040260200160405190810160405280929190818152602001828054600181600116156101000203166002900480156105aa5780601f1061057f576101008083540402835291602001916105aa565b820191906000526020600020905b81548152906001019060200180831161058d57829003601f168201915b50505050509050919050565b600080600101600083600019166000191681526020019081526020016000205490509190505600a165627a7a72305820374904464326bcfa8cccc6a8286ef1500ca64aa6b10c6ccf56a88d25c33fc0b70029",
  "source": "pragma solidity ^0.4.24;\n\nimport \"openzeppelin-solidity/contracts/ownership/Ownable.sol\";\n\n\n/**\n * @title EternalStorage\n * @dev An ownable contract that can be used as a storage where the variables\n * are stored in a set of mappings indexed by hash names.\n */\ncontract EternalStorage {\n    struct Storage {\n        mapping(bytes32 => bool) _bool;\n        mapping(bytes32 => int256) _int;\n        mapping(bytes32 => uint256) _uint;\n        mapping(bytes32 => string) _string;\n        mapping(bytes32 => address) _address;\n        mapping(bytes32 => bytes) _bytes;\n        mapping(bytes32 => bytes32) _bytes32;\n    }\n\n    Storage internal s;\n\n    /**\n    * @dev Get the value stored of a boolean variable by the hash name\n    * @param h The keccak256 hash of the variable name\n    */\n    function getBoolean(bytes32 h) public view returns (bool) {\n        return s._bool[h];\n    }\n\n    /**\n    * @dev Get the value stored of a int variable by the hash name\n    * @param h The keccak256 hash of the variable name\n    */\n    function getInt(bytes32 h) public view returns (int) {\n        return s._int[h];\n    }\n\n    /**\n    * @dev Get the value stored of a uint variable by the hash name\n    * @param h The keccak256 hash of the variable name\n    */\n    function getUint(bytes32 h) public view returns (uint256) {\n        return s._uint[h];\n    }\n\n    /**\n    * @dev Get the value stored of a address variable by the hash name\n    * @param h The keccak256 hash of the variable name\n    */\n    function getAddress(bytes32 h) public view returns (address) {\n        return s._address[h];\n    }\n\n    /**\n    * @dev Get the value stored of a string variable by the hash name\n    * @param h The keccak256 hash of the variable name\n    */\n    function getString(bytes32 h) public view returns (string) {\n        return s._string[h];\n    }\n\n    /**\n    * @dev Get the value stored of a bytes variable by the hash name\n    * @param h The keccak256 hash of the variable name\n    */\n    function getBytes(bytes32 h) public view returns (bytes) {\n        return s._bytes[h];\n    }\n\n    /**\n    * @dev Get the value stored of a bytes variable by the hash name\n    * @param h The keccak256 hash of the variable name\n    */\n    function getBytes32(bytes32 h) public view returns (bytes32) {\n        return s._bytes32[h];\n    }\n\n    /**\n    * @dev Allows the owner to set a value for a boolean variable.\n    * @param h The keccak256 hash of the variable name\n    * @param v The value to be stored\n    */\n    function _setBoolean(bytes32 h, bool v) internal {\n        s._bool[h] = v;\n    }\n\n    /**\n    * @dev Allows the owner to set a value for a int variable.\n    * @param h The keccak256 hash of the variable name\n    * @param v The value to be stored\n    */\n    function _setInt(bytes32 h, int256 v) internal {\n        s._int[h] = v;\n    }\n\n    /**\n    * @dev Allows the owner to set a value for a boolean variable.\n    * @param h The keccak256 hash of the variable name\n    * @param v The value to be stored\n    */\n    function _setUint(bytes32 h, uint256 v) internal {\n        s._uint[h] = v;\n    }\n\n    /**\n    * @dev Allows the owner to set a value for a address variable.\n    * @param h The keccak256 hash of the variable name\n    * @param v The value to be stored\n    */\n    function _setAddress(bytes32 h, address v) internal {\n        s._address[h] = v;\n    }\n\n    /**\n    * @dev Allows the owner to set a value for a string variable.\n    * @param h The keccak256 hash of the variable name\n    * @param v The value to be stored\n    */\n    function _setString(bytes32 h, string v) internal {\n        s._string[h] = v;\n    }\n\n    /**\n    * @dev Allows the owner to set a value for a bytes variable.\n    * @param h The keccak256 hash of the variable name\n    * @param v The value to be stored\n    */\n    function _setBytes(bytes32 h, bytes v) internal {\n        s._bytes[h] = v;\n    }\n\n    /**\n    * @dev Allows the owner to set a value for a bytes32 variable.\n    * @param h The keccak256 hash of the variable name\n    * @param v The value to be stored\n    */\n    function _setBytes32(bytes32 h, bytes32 v) internal {\n        s._bytes32[h] = v;\n    }\n}",
  "sourcePath": "/Users/ywshin/Documents/WS/truffle/governance-contract-blueisle/contracts/storage/EternalStorage.sol",
  "compiler": {
    "name": "solc",
    "version": "0.4.24+commit.e67f0147.Emscripten.clang"
  },
  "schemaVersion": "2.0.1",
  "updatedAt": "2019-02-12T02:04:33.162Z"
}