{
  "contractName": "GovChecker",
  "abi": [
    {
      "constant": true,
      "inputs": [],
      "name": "STAKING_NAME",
      "outputs": [
        {
          "name": "",
          "type": "bytes32"
        }
      ],
      "payable": false,
      "stateMutability": "view",
      "type": "function"
    },
    {
      "constant": true,
      "inputs": [],
      "name": "GOV_NAME",
      "outputs": [
        {
          "name": "",
          "type": "bytes32"
        }
      ],
      "payable": false,
      "stateMutability": "view",
      "type": "function"
    },
    {
      "constant": false,
      "inputs": [],
      "name": "renounceOwnership",
      "outputs": [],
      "payable": false,
      "stateMutability": "nonpayable",
      "type": "function"
    },
    {
      "constant": true,
      "inputs": [],
      "name": "reg",
      "outputs": [
        {
          "name": "",
          "type": "address"
        }
      ],
      "payable": false,
      "stateMutability": "view",
      "type": "function"
    },
    {
      "constant": true,
      "inputs": [],
      "name": "ENV_STORAGE_NAME",
      "outputs": [
        {
          "name": "",
          "type": "bytes32"
        }
      ],
      "payable": false,
      "stateMutability": "view",
      "type": "function"
    },
    {
      "constant": true,
      "inputs": [],
      "name": "owner",
      "outputs": [
        {
          "name": "",
          "type": "address"
        }
      ],
      "payable": false,
      "stateMutability": "view",
      "type": "function"
    },
    {
      "constant": true,
      "inputs": [],
      "name": "isOwner",
      "outputs": [
        {
          "name": "",
          "type": "bool"
        }
      ],
      "payable": false,
      "stateMutability": "view",
      "type": "function"
    },
    {
      "constant": true,
      "inputs": [],
      "name": "BALLOT_STORAGE_NAME",
      "outputs": [
        {
          "name": "",
          "type": "bytes32"
        }
      ],
      "payable": false,
      "stateMutability": "view",
      "type": "function"
    },
    {
      "constant": false,
      "inputs": [
        {
          "name": "newOwner",
          "type": "address"
        }
      ],
      "name": "transferOwnership",
      "outputs": [],
      "payable": false,
      "stateMutability": "nonpayable",
      "type": "function"
    },
    {
      "anonymous": false,
      "inputs": [
        {
          "indexed": true,
          "name": "previousOwner",
          "type": "address"
        },
        {
          "indexed": true,
          "name": "newOwner",
          "type": "address"
        }
      ],
      "name": "OwnershipTransferred",
      "type": "event"
    },
    {
      "constant": false,
      "inputs": [
        {
          "name": "_addr",
          "type": "address"
        }
      ],
      "name": "setRegistry",
      "outputs": [],
      "payable": false,
      "stateMutability": "nonpayable",
      "type": "function"
    }
  ],
  "bytecode": "0x6080604052336000806101000a81548173ffffffffffffffffffffffffffffffffffffffff021916908373ffffffffffffffffffffffffffffffffffffffff1602179055506000809054906101000a900473ffffffffffffffffffffffffffffffffffffffff1673ffffffffffffffffffffffffffffffffffffffff16600073ffffffffffffffffffffffffffffffffffffffff167f8be0079c531659141344cd1fd0a4f28419497f9722a3daafe3b4186f6b6457e060405160405180910390a3610693806100cf6000396000f3006080604052600436106100a4576000357c0100000000000000000000000000000000000000000000000000000000900463ffffffff1680631e0cba0d146100a95780636c78d2cf146100dc578063715018a61461010f578063738fdd1a146101265780637bf465301461017d5780638da5cb5b146101b05780638f32d59b146102075780639986e4b914610236578063a91ee0dc14610269578063f2fde38b146102ac575b600080fd5b3480156100b557600080fd5b506100be6102ef565b60405180826000191660001916815260200191505060405180910390f35b3480156100e857600080fd5b506100f1610313565b60405180826000191660001916815260200191505060405180910390f35b34801561011b57600080fd5b50610124610337565b005b34801561013257600080fd5b5061013b610409565b604051808273ffffffffffffffffffffffffffffffffffffffff1673ffffffffffffffffffffffffffffffffffffffff16815260200191505060405180910390f35b34801561018957600080fd5b5061019261042f565b60405180826000191660001916815260200191505060405180910390f35b3480156101bc57600080fd5b506101c5610453565b604051808273ffffffffffffffffffffffffffffffffffffffff1673ffffffffffffffffffffffffffffffffffffffff16815260200191505060405180910390f35b34801561021357600080fd5b5061021c61047c565b604051808215151515815260200191505060405180910390f35b34801561024257600080fd5b5061024b6104d3565b60405180826000191660001916815260200191505060405180910390f35b34801561027557600080fd5b506102aa600480360381019080803573ffffffffffffffffffffffffffffffffffffffff1690602001909291905050506104f7565b005b3480156102b857600080fd5b506102ed600480360381019080803573ffffffffffffffffffffffffffffffffffffffff16906020019092919050505061054e565b005b7f5374616b696e670000000000000000000000000000000000000000000000000081565b7f476f7665726e616e6365436f6e7472616374000000000000000000000000000081565b61033f61047c565b151561034a57600080fd5b600073ffffffffffffffffffffffffffffffffffffffff166000809054906101000a900473ffffffffffffffffffffffffffffffffffffffff1673ffffffffffffffffffffffffffffffffffffffff167f8be0079c531659141344cd1fd0a4f28419497f9722a3daafe3b4186f6b6457e060405160405180910390a360008060006101000a81548173ffffffffffffffffffffffffffffffffffffffff021916908373ffffffffffffffffffffffffffffffffffffffff160217905550565b600160009054906101000a900473ffffffffffffffffffffffffffffffffffffffff1681565b7f456e7653746f726167650000000000000000000000000000000000000000000081565b60008060009054906101000a900473ffffffffffffffffffffffffffffffffffffffff16905090565b60008060009054906101000a900473ffffffffffffffffffffffffffffffffffffffff1673ffffffffffffffffffffffffffffffffffffffff163373ffffffffffffffffffffffffffffffffffffffff1614905090565b7f42616c6c6f7453746f726167650000000000000000000000000000000000000081565b6104ff61047c565b151561050a57600080fd5b80600160006101000a81548173ffffffffffffffffffffffffffffffffffffffff021916908373ffffffffffffffffffffffffffffffffffffffff16021790555050565b61055661047c565b151561056157600080fd5b61056a8161056d565b50565b600073ffffffffffffffffffffffffffffffffffffffff168173ffffffffffffffffffffffffffffffffffffffff16141515156105a957600080fd5b8073ffffffffffffffffffffffffffffffffffffffff166000809054906101000a900473ffffffffffffffffffffffffffffffffffffffff1673ffffffffffffffffffffffffffffffffffffffff167f8be0079c531659141344cd1fd0a4f28419497f9722a3daafe3b4186f6b6457e060405160405180910390a3806000806101000a81548173ffffffffffffffffffffffffffffffffffffffff021916908373ffffffffffffffffffffffffffffffffffffffff160217905550505600a165627a7a723058202cc5ac3a6b6a8507a0ab124d7e0292f2d07a4ecefa4a4e034d8f6e6ea8df46eb0029",
  "source": "pragma solidity ^0.4.24;\n\nimport \"openzeppelin-solidity/contracts/ownership/Ownable.sol\";\nimport \"./interface/IRegistry.sol\";\nimport \"./interface/IGov.sol\";\n\n\n/**\n * @title GovChecker\n * @dev GovChecker Contract that uses Registry contract\n */\ncontract GovChecker is Ownable {\n    IRegistry public reg;\n    bytes32 public constant GOV_NAME = \"GovernanceContract\";\n    bytes32 public constant STAKING_NAME = \"Staking\";\n    bytes32 public constant BALLOT_STORAGE_NAME = \"BallotStorage\";\n    bytes32 public constant ENV_STORAGE_NAME = \"EnvStorage\";\n\n    /**\n     * @dev Function to set registry address. Contract that wants to use registry should setRegistry first.\n     * @param _addr address of registry\n     * @return A boolean that indicates if the operation was successful.\n     */\n    function setRegistry(address _addr) public onlyOwner {\n        reg = IRegistry(_addr);\n    }\n    \n    modifier onlyGov() {\n        require(getGovAddress() == msg.sender, \"No Permission\");\n        _;\n    }\n\n    modifier onlyGovMem() {\n        require(IGov(getGovAddress()).isMember(msg.sender), \"No Permission\");\n        _;\n    }\n\n    modifier anyGov() {\n        require(getGovAddress() == msg.sender || IGov(getGovAddress()).isMember(msg.sender), \"No Permission\");\n        _;\n    }\n\n    function getContractAddress(bytes32 name) internal view returns (address) {\n        return reg.getContractAddress(name);\n    }\n\n    function getGovAddress() internal view returns (address) {\n        return getContractAddress(GOV_NAME);\n    }\n\n    function getStakingAddress() internal view returns (address) {\n        return getContractAddress(STAKING_NAME);\n    }\n\n    function getBallotStorageAddress() internal view returns (address) {\n        return getContractAddress(BALLOT_STORAGE_NAME);\n    }\n\n    function getEnvStorageAddress() internal view returns (address) {\n        return getContractAddress(ENV_STORAGE_NAME);\n    }\n}",
  "sourcePath": "/Users/ywshin/Documents/WS/truffle/governance-contract-blueisle/contracts/GovChecker.sol",
  "compiler": {
    "name": "solc",
    "version": "0.4.24+commit.e67f0147.Emscripten.clang"
  },
  "schemaVersion": "2.0.1",
  "updatedAt": "2019-02-12T02:04:33.135Z"
}