{
  "contractName": "GovChecker",
  "abi": [
    {
      "constant": true,
      "inputs": [],
      "name": "STAKING_NAME",
      "outputs": [
        {
          "name": "",
          "type": "bytes32"
        }
      ],
      "payable": false,
      "stateMutability": "view",
      "type": "function"
    },
    {
      "constant": true,
      "inputs": [],
      "name": "REWARD_POOL_NAME",
      "outputs": [
        {
          "name": "",
          "type": "bytes32"
        }
      ],
      "payable": false,
      "stateMutability": "view",
      "type": "function"
    },
    {
      "constant": true,
      "inputs": [],
      "name": "GOV_NAME",
      "outputs": [
        {
          "name": "",
          "type": "bytes32"
        }
      ],
      "payable": false,
      "stateMutability": "view",
      "type": "function"
    },
    {
      "constant": false,
      "inputs": [],
      "name": "renounceOwnership",
      "outputs": [],
      "payable": false,
      "stateMutability": "nonpayable",
      "type": "function"
    },
    {
      "constant": true,
      "inputs": [],
      "name": "reg",
      "outputs": [
        {
          "name": "",
          "type": "address"
        }
      ],
      "payable": false,
      "stateMutability": "view",
      "type": "function"
    },
    {
      "constant": true,
      "inputs": [],
      "name": "ENV_STORAGE_NAME",
      "outputs": [
        {
          "name": "",
          "type": "bytes32"
        }
      ],
      "payable": false,
      "stateMutability": "view",
      "type": "function"
    },
    {
      "constant": true,
      "inputs": [],
      "name": "owner",
      "outputs": [
        {
          "name": "",
          "type": "address"
        }
      ],
      "payable": false,
      "stateMutability": "view",
      "type": "function"
    },
    {
      "constant": true,
      "inputs": [],
      "name": "isOwner",
      "outputs": [
        {
          "name": "",
          "type": "bool"
        }
      ],
      "payable": false,
      "stateMutability": "view",
      "type": "function"
    },
    {
      "constant": true,
      "inputs": [],
      "name": "BALLOT_STORAGE_NAME",
      "outputs": [
        {
          "name": "",
          "type": "bytes32"
        }
      ],
      "payable": false,
      "stateMutability": "view",
      "type": "function"
    },
    {
      "constant": false,
      "inputs": [
        {
          "name": "newOwner",
          "type": "address"
        }
      ],
      "name": "transferOwnership",
      "outputs": [],
      "payable": false,
      "stateMutability": "nonpayable",
      "type": "function"
    },
    {
      "anonymous": false,
      "inputs": [
        {
          "indexed": true,
          "name": "previousOwner",
          "type": "address"
        },
        {
          "indexed": true,
          "name": "newOwner",
          "type": "address"
        }
      ],
      "name": "OwnershipTransferred",
      "type": "event"
    },
    {
      "constant": false,
      "inputs": [
        {
          "name": "_addr",
          "type": "address"
        }
      ],
      "name": "setRegistry",
      "outputs": [],
      "payable": false,
      "stateMutability": "nonpayable",
      "type": "function"
    }
  ],
  "bytecode": "0x6080604052336000806101000a81548173ffffffffffffffffffffffffffffffffffffffff021916908373ffffffffffffffffffffffffffffffffffffffff1602179055506000809054906101000a900473ffffffffffffffffffffffffffffffffffffffff1673ffffffffffffffffffffffffffffffffffffffff16600073ffffffffffffffffffffffffffffffffffffffff167f8be0079c531659141344cd1fd0a4f28419497f9722a3daafe3b4186f6b6457e060405160405180910390a36106f5806100cf6000396000f3006080604052600436106100af576000357c0100000000000000000000000000000000000000000000000000000000900463ffffffff1680631e0cba0d146100b45780632f40992e146100e75780636c78d2cf1461011a578063715018a61461014d578063738fdd1a146101645780637bf46530146101bb5780638da5cb5b146101ee5780638f32d59b146102455780639986e4b914610274578063a91ee0dc146102a7578063f2fde38b146102ea575b600080fd5b3480156100c057600080fd5b506100c961032d565b60405180826000191660001916815260200191505060405180910390f35b3480156100f357600080fd5b506100fc610351565b60405180826000191660001916815260200191505060405180910390f35b34801561012657600080fd5b5061012f610375565b60405180826000191660001916815260200191505060405180910390f35b34801561015957600080fd5b50610162610399565b005b34801561017057600080fd5b5061017961046b565b604051808273ffffffffffffffffffffffffffffffffffffffff1673ffffffffffffffffffffffffffffffffffffffff16815260200191505060405180910390f35b3480156101c757600080fd5b506101d0610491565b60405180826000191660001916815260200191505060405180910390f35b3480156101fa57600080fd5b506102036104b5565b604051808273ffffffffffffffffffffffffffffffffffffffff1673ffffffffffffffffffffffffffffffffffffffff16815260200191505060405180910390f35b34801561025157600080fd5b5061025a6104de565b604051808215151515815260200191505060405180910390f35b34801561028057600080fd5b50610289610535565b60405180826000191660001916815260200191505060405180910390f35b3480156102b357600080fd5b506102e8600480360381019080803573ffffffffffffffffffffffffffffffffffffffff169060200190929190505050610559565b005b3480156102f657600080fd5b5061032b600480360381019080803573ffffffffffffffffffffffffffffffffffffffff1690602001909291905050506105b0565b005b7f5374616b696e670000000000000000000000000000000000000000000000000081565b7f526577617264506f6f6c0000000000000000000000000000000000000000000081565b7f476f7665726e616e6365436f6e7472616374000000000000000000000000000081565b6103a16104de565b15156103ac57600080fd5b600073ffffffffffffffffffffffffffffffffffffffff166000809054906101000a900473ffffffffffffffffffffffffffffffffffffffff1673ffffffffffffffffffffffffffffffffffffffff167f8be0079c531659141344cd1fd0a4f28419497f9722a3daafe3b4186f6b6457e060405160405180910390a360008060006101000a81548173ffffffffffffffffffffffffffffffffffffffff021916908373ffffffffffffffffffffffffffffffffffffffff160217905550565b600160009054906101000a900473ffffffffffffffffffffffffffffffffffffffff1681565b7f456e7653746f726167650000000000000000000000000000000000000000000081565b60008060009054906101000a900473ffffffffffffffffffffffffffffffffffffffff16905090565b60008060009054906101000a900473ffffffffffffffffffffffffffffffffffffffff1673ffffffffffffffffffffffffffffffffffffffff163373ffffffffffffffffffffffffffffffffffffffff1614905090565b7f42616c6c6f7453746f726167650000000000000000000000000000000000000081565b6105616104de565b151561056c57600080fd5b80600160006101000a81548173ffffffffffffffffffffffffffffffffffffffff021916908373ffffffffffffffffffffffffffffffffffffffff16021790555050565b6105b86104de565b15156105c357600080fd5b6105cc816105cf565b50565b600073ffffffffffffffffffffffffffffffffffffffff168173ffffffffffffffffffffffffffffffffffffffff161415151561060b57600080fd5b8073ffffffffffffffffffffffffffffffffffffffff166000809054906101000a900473ffffffffffffffffffffffffffffffffffffffff1673ffffffffffffffffffffffffffffffffffffffff167f8be0079c531659141344cd1fd0a4f28419497f9722a3daafe3b4186f6b6457e060405160405180910390a3806000806101000a81548173ffffffffffffffffffffffffffffffffffffffff021916908373ffffffffffffffffffffffffffffffffffffffff160217905550505600a165627a7a723058205f103f11f65ed922598598655728479459442f841e4115849e2172b5a8fff1cb0029",
  "source": "pragma solidity ^0.4.24;\n\nimport \"openzeppelin-solidity/contracts/ownership/Ownable.sol\";\nimport \"./interface/IRegistry.sol\";\nimport \"./interface/IGov.sol\";\n\n\n/**\n * @title GovChecker\n * @dev GovChecker Contract that uses Registry contract\n */\ncontract GovChecker is Ownable {\n    IRegistry public reg;\n\n    bytes32 public constant GOV_NAME = \"GovernanceContract\";\n    bytes32 public constant STAKING_NAME = \"Staking\";\n    bytes32 public constant BALLOT_STORAGE_NAME = \"BallotStorage\";\n    bytes32 public constant ENV_STORAGE_NAME = \"EnvStorage\";\n    bytes32 public constant REWARD_POOL_NAME = \"RewardPool\";\n\n    /**\n     * @dev Function to set registry address. Contract that wants to use registry should setRegistry first.\n     * @param _addr address of registry\n     * @return A boolean that indicates if the operation was successful.\n     */\n    function setRegistry(address _addr) public onlyOwner {\n        reg = IRegistry(_addr);\n    }\n    \n    modifier onlyGov() {\n        require(getGovAddress() == msg.sender, \"No Permission\");\n        _;\n    }\n\n    modifier onlyGovMem() {\n        require(IGov(getGovAddress()).isMember(msg.sender), \"No Permission\");\n        _;\n    }\n\n    modifier anyGov() {\n        require(getGovAddress() == msg.sender || IGov(getGovAddress()).isMember(msg.sender), \"No Permission\");\n        _;\n    }\n\n    function getContractAddress(bytes32 name) internal view returns (address) {\n        return reg.getContractAddress(name);\n    }\n\n    function getGovAddress() internal view returns (address) {\n        return getContractAddress(GOV_NAME);\n    }\n\n    function getStakingAddress() internal view returns (address) {\n        return getContractAddress(STAKING_NAME);\n    }\n\n    function getBallotStorageAddress() internal view returns (address) {\n        return getContractAddress(BALLOT_STORAGE_NAME);\n    }\n\n    function getEnvStorageAddress() internal view returns (address) {\n        return getContractAddress(ENV_STORAGE_NAME);\n    }\n\n    function getRewardPoolAddress() internal view returns (address) {\n        return getContractAddress(REWARD_POOL_NAME);\n    }\n}",
  "sourcePath": "/Users/ywshin/Documents/WS/truffle/governance-contract-blueisle/contracts/GovChecker.sol",
  "compiler": {
    "name": "solc",
    "version": "0.4.24+commit.e67f0147.Emscripten.clang"
  },
  "schemaVersion": "2.0.1",
  "updatedAt": "2019-02-12T09:09:00.404Z"
}