{
  "contractName": "GovImp",
  "abi": [
    {
      "constant": true,
      "inputs": [
        {
          "name": "idx",
          "type": "uint256"
        }
      ],
      "name": "getMemberFromNodeIdx",
      "outputs": [
        {
          "name": "",
          "type": "address"
        }
      ],
      "payable": false,
      "stateMutability": "view",
      "type": "function"
    },
    {
      "constant": true,
      "inputs": [
        {
          "name": "idx",
          "type": "uint256"
        }
      ],
      "name": "getReward",
      "outputs": [
        {
          "name": "",
          "type": "address"
        }
      ],
      "payable": false,
      "stateMutability": "view",
      "type": "function"
    },
    {
      "constant": true,
      "inputs": [],
      "name": "STAKING_NAME",
      "outputs": [
        {
          "name": "",
          "type": "bytes32"
        }
      ],
      "payable": false,
      "stateMutability": "view",
      "type": "function"
    },
    {
      "constant": true,
      "inputs": [
        {
          "name": "idx",
          "type": "uint256"
        }
      ],
      "name": "getNode",
      "outputs": [
        {
          "name": "enode",
          "type": "bytes"
        },
        {
          "name": "ip",
          "type": "bytes"
        },
        {
          "name": "port",
          "type": "uint256"
        }
      ],
      "payable": false,
      "stateMutability": "view",
      "type": "function"
    },
    {
      "constant": true,
      "inputs": [],
      "name": "implementation",
      "outputs": [
        {
          "name": "impl",
          "type": "address"
        }
      ],
      "payable": false,
      "stateMutability": "view",
      "type": "function"
    },
    {
      "constant": true,
      "inputs": [],
      "name": "GOV_NAME",
      "outputs": [
        {
          "name": "",
          "type": "bytes32"
        }
      ],
      "payable": false,
      "stateMutability": "view",
      "type": "function"
    },
    {
      "constant": false,
      "inputs": [],
      "name": "renounceOwnership",
      "outputs": [],
      "payable": false,
      "stateMutability": "nonpayable",
      "type": "function"
    },
    {
      "constant": true,
      "inputs": [],
      "name": "getNodeLength",
      "outputs": [
        {
          "name": "",
          "type": "uint256"
        }
      ],
      "payable": false,
      "stateMutability": "view",
      "type": "function"
    },
    {
      "constant": true,
      "inputs": [],
      "name": "reg",
      "outputs": [
        {
          "name": "",
          "type": "address"
        }
      ],
      "payable": false,
      "stateMutability": "view",
      "type": "function"
    },
    {
      "constant": true,
      "inputs": [],
      "name": "ENV_STORAGE_NAME",
      "outputs": [
        {
          "name": "",
          "type": "bytes32"
        }
      ],
      "payable": false,
      "stateMutability": "view",
      "type": "function"
    },
    {
      "constant": true,
      "inputs": [],
      "name": "owner",
      "outputs": [
        {
          "name": "",
          "type": "address"
        }
      ],
      "payable": false,
      "stateMutability": "view",
      "type": "function"
    },
    {
      "constant": true,
      "inputs": [],
      "name": "isOwner",
      "outputs": [
        {
          "name": "",
          "type": "bool"
        }
      ],
      "payable": false,
      "stateMutability": "view",
      "type": "function"
    },
    {
      "constant": true,
      "inputs": [],
      "name": "BALLOT_STORAGE_NAME",
      "outputs": [
        {
          "name": "",
          "type": "bytes32"
        }
      ],
      "payable": false,
      "stateMutability": "view",
      "type": "function"
    },
    {
      "constant": true,
      "inputs": [
        {
          "name": "addr",
          "type": "address"
        }
      ],
      "name": "isMember",
      "outputs": [
        {
          "name": "",
          "type": "bool"
        }
      ],
      "payable": false,
      "stateMutability": "view",
      "type": "function"
    },
    {
      "constant": false,
      "inputs": [
        {
          "name": "_addr",
          "type": "address"
        }
      ],
      "name": "setRegistry",
      "outputs": [],
      "payable": false,
      "stateMutability": "nonpayable",
      "type": "function"
    },
    {
      "constant": true,
      "inputs": [
        {
          "name": "idx",
          "type": "uint256"
        }
      ],
      "name": "getMember",
      "outputs": [
        {
          "name": "",
          "type": "address"
        }
      ],
      "payable": false,
      "stateMutability": "view",
      "type": "function"
    },
    {
      "constant": true,
      "inputs": [
        {
          "name": "addr",
          "type": "address"
        }
      ],
      "name": "getNodeIdxFromMember",
      "outputs": [
        {
          "name": "",
          "type": "uint256"
        }
      ],
      "payable": false,
      "stateMutability": "view",
      "type": "function"
    },
    {
      "constant": true,
      "inputs": [],
      "name": "ballotLength",
      "outputs": [
        {
          "name": "",
          "type": "uint256"
        }
      ],
      "payable": false,
      "stateMutability": "view",
      "type": "function"
    },
    {
      "constant": true,
      "inputs": [],
      "name": "getMemberLength",
      "outputs": [
        {
          "name": "",
          "type": "uint256"
        }
      ],
      "payable": false,
      "stateMutability": "view",
      "type": "function"
    },
    {
      "constant": true,
      "inputs": [],
      "name": "getBallotInVoting",
      "outputs": [
        {
          "name": "",
          "type": "uint256"
        }
      ],
      "payable": false,
      "stateMutability": "view",
      "type": "function"
    },
    {
      "constant": false,
      "inputs": [
        {
          "name": "registry",
          "type": "address"
        },
        {
          "name": "implementation",
          "type": "address"
        },
        {
          "name": "lockAmount",
          "type": "uint256"
        },
        {
          "name": "enode",
          "type": "bytes"
        },
        {
          "name": "ip",
          "type": "bytes"
        },
        {
          "name": "port",
          "type": "uint256"
        }
      ],
      "name": "init",
      "outputs": [],
      "payable": false,
      "stateMutability": "nonpayable",
      "type": "function"
    },
    {
      "constant": true,
      "inputs": [],
      "name": "voteLength",
      "outputs": [
        {
          "name": "",
          "type": "uint256"
        }
      ],
      "payable": false,
      "stateMutability": "view",
      "type": "function"
    },
    {
      "constant": false,
      "inputs": [
        {
          "name": "newOwner",
          "type": "address"
        }
      ],
      "name": "transferOwnership",
      "outputs": [],
      "payable": false,
      "stateMutability": "nonpayable",
      "type": "function"
    },
    {
      "payable": true,
      "stateMutability": "payable",
      "type": "fallback"
    },
    {
      "anonymous": false,
      "inputs": [
        {
          "indexed": true,
          "name": "addr",
          "type": "address"
        }
      ],
      "name": "MemberAdded",
      "type": "event"
    },
    {
      "anonymous": false,
      "inputs": [
        {
          "indexed": true,
          "name": "addr",
          "type": "address"
        }
      ],
      "name": "MemberRemoved",
      "type": "event"
    },
    {
      "anonymous": false,
      "inputs": [
        {
          "indexed": true,
          "name": "oldAddr",
          "type": "address"
        },
        {
          "indexed": true,
          "name": "newAddr",
          "type": "address"
        }
      ],
      "name": "MemberChanged",
      "type": "event"
    },
    {
      "anonymous": false,
      "inputs": [
        {
          "indexed": false,
          "name": "envName",
          "type": "bytes32"
        },
        {
          "indexed": false,
          "name": "envType",
          "type": "uint256"
        },
        {
          "indexed": false,
          "name": "envVal",
          "type": "bytes"
        }
      ],
      "name": "EnvChanged",
      "type": "event"
    },
    {
      "anonymous": false,
      "inputs": [
        {
          "indexed": true,
          "name": "previousOwner",
          "type": "address"
        },
        {
          "indexed": true,
          "name": "newOwner",
          "type": "address"
        }
      ],
      "name": "OwnershipTransferred",
      "type": "event"
    },
    {
      "anonymous": false,
      "inputs": [
        {
          "indexed": true,
          "name": "implementation",
          "type": "address"
        }
      ],
      "name": "Upgraded",
      "type": "event"
    },
    {
      "constant": false,
      "inputs": [
        {
          "name": "member",
          "type": "address"
        },
        {
          "name": "enode",
          "type": "bytes"
        },
        {
          "name": "ip",
          "type": "bytes"
        },
        {
          "name": "port",
          "type": "uint256"
        },
        {
          "name": "lockAmount",
          "type": "uint256"
        },
        {
          "name": "memo",
          "type": "bytes"
        }
      ],
      "name": "addProposalToAddMember",
      "outputs": [
        {
          "name": "ballotIdx",
          "type": "uint256"
        }
      ],
      "payable": false,
      "stateMutability": "nonpayable",
      "type": "function"
    },
    {
      "constant": false,
      "inputs": [
        {
          "name": "member",
          "type": "address"
        },
        {
          "name": "lockAmount",
          "type": "uint256"
        },
        {
          "name": "memo",
          "type": "bytes"
        }
      ],
      "name": "addProposalToRemoveMember",
      "outputs": [
        {
          "name": "ballotIdx",
          "type": "uint256"
        }
      ],
      "payable": false,
      "stateMutability": "nonpayable",
      "type": "function"
    },
    {
      "constant": false,
      "inputs": [
        {
          "name": "target",
          "type": "address"
        },
        {
          "name": "nMember",
          "type": "address"
        },
        {
          "name": "nEnode",
          "type": "bytes"
        },
        {
          "name": "nIp",
          "type": "bytes"
        },
        {
          "name": "nPort",
          "type": "uint256"
        },
        {
          "name": "lockAmount",
          "type": "uint256"
        },
        {
          "name": "memo",
          "type": "bytes"
        }
      ],
      "name": "addProposalToChangeMember",
      "outputs": [
        {
          "name": "ballotIdx",
          "type": "uint256"
        }
      ],
      "payable": false,
      "stateMutability": "nonpayable",
      "type": "function"
    },
    {
      "constant": false,
      "inputs": [
        {
          "name": "newGovAddr",
          "type": "address"
        },
        {
          "name": "memo",
          "type": "bytes"
        }
      ],
      "name": "addProposalToChangeGov",
      "outputs": [
        {
          "name": "ballotIdx",
          "type": "uint256"
        }
      ],
      "payable": false,
      "stateMutability": "nonpayable",
      "type": "function"
    },
    {
      "constant": false,
      "inputs": [
        {
          "name": "envName",
          "type": "bytes32"
        },
        {
          "name": "envType",
          "type": "uint256"
        },
        {
          "name": "envVal",
          "type": "bytes"
        },
        {
          "name": "memo",
          "type": "bytes"
        }
      ],
      "name": "addProposalToChangeEnv",
      "outputs": [
        {
          "name": "ballotIdx",
          "type": "uint256"
        }
      ],
      "payable": false,
      "stateMutability": "nonpayable",
      "type": "function"
    },
    {
      "constant": false,
      "inputs": [
        {
          "name": "ballotIdx",
          "type": "uint256"
        },
        {
          "name": "approval",
          "type": "bool"
        }
      ],
      "name": "vote",
      "outputs": [],
      "payable": false,
      "stateMutability": "nonpayable",
      "type": "function"
    },
    {
      "constant": true,
      "inputs": [],
      "name": "getMinStaking",
      "outputs": [
        {
          "name": "",
          "type": "uint256"
        }
      ],
      "payable": false,
      "stateMutability": "view",
      "type": "function"
    },
    {
      "constant": true,
      "inputs": [],
      "name": "getMaxStaking",
      "outputs": [
        {
          "name": "",
          "type": "uint256"
        }
      ],
      "payable": false,
      "stateMutability": "view",
      "type": "function"
    },
    {
      "constant": true,
      "inputs": [],
      "name": "getMinVotingDuration",
      "outputs": [
        {
          "name": "",
          "type": "uint256"
        }
      ],
      "payable": false,
      "stateMutability": "view",
      "type": "function"
    },
    {
      "constant": true,
      "inputs": [],
      "name": "getMaxVotingDuration",
      "outputs": [
        {
          "name": "",
          "type": "uint256"
        }
      ],
      "payable": false,
      "stateMutability": "view",
      "type": "function"
    },
    {
      "constant": true,
      "inputs": [],
      "name": "getThreshould",
      "outputs": [
        {
          "name": "",
          "type": "uint256"
        }
      ],
      "payable": false,
      "stateMutability": "pure",
      "type": "function"
    }
  ],
  "bytecode": "0x6080604052336000806101000a81548173ffffffffffffffffffffffffffffffffffffffff021916908373ffffffffffffffffffffffffffffffffffffffff1602179055506000809054906101000a900473ffffffffffffffffffffffffffffffffffffffff1673ffffffffffffffffffffffffffffffffffffffff16600073ffffffffffffffffffffffffffffffffffffffff167f8be0079c531659141344cd1fd0a4f28419497f9722a3daafe3b4186f6b6457e060405160405180910390a36000600160146101000a81548160ff02191690831515021790555060006004819055506000600a819055506000600b819055506000600c819055506000600d819055506001600e819055506161cb8061011a6000396000f3006080604052600436106101ac576000357c0100000000000000000000000000000000000000000000000000000000900463ffffffff16806315bf6b4d1461021b5780631aee05e9146102885780631c150171146102b35780631c4b774b146102de5780631e0cba0d1461034b5780632de9044b1461037e5780634081c31c146104515780634f0f4aa9146105045780635aaa40401461061d5780635c60da1b146106485780636c78d2cf1461069f578063715018a6146106d257806372016f75146106e9578063738fdd1a146107145780637bf465301461076b5780638da5cb5b1461079e5780638f32d59b146107f557806398a66b3d146108245780639986e4b91461089d578063a230c524146108d0578063a91ee0dc1461092b578063ab3545e51461096e578063af6af2ff146109db578063b454321414610a06578063c9d27afe14610a75578063ce04b9d414610aae578063ce6a54ff14610ad9578063d6f9cfce14610b30578063d965ea0014610b5b578063de09b37714610b86578063e4df5ea914610bb1578063e9523fb514610cb4578063f2fde38b14610cdf578063f69041c314610d22575b60006101b6610da1565b9050600073ffffffffffffffffffffffffffffffffffffffff168173ffffffffffffffffffffffffffffffffffffffff16141515156101f457600080fd5b60405136600082376000803683855af43d806000843e8160008114610217578184f35b8184fd5b34801561022757600080fd5b5061024660048036038101908080359060200190929190505050610e0a565b604051808273ffffffffffffffffffffffffffffffffffffffff1673ffffffffffffffffffffffffffffffffffffffff16815260200191505060405180910390f35b34801561029457600080fd5b5061029d610e47565b6040518082815260200191505060405180910390f35b3480156102bf57600080fd5b506102c8610e51565b6040518082815260200191505060405180910390f35b3480156102ea57600080fd5b5061030960048036038101908080359060200190929190505050610efe565b604051808273ffffffffffffffffffffffffffffffffffffffff1673ffffffffffffffffffffffffffffffffffffffff16815260200191505060405180910390f35b34801561035757600080fd5b50610360610f3b565b60405180826000191660001916815260200191505060405180910390f35b34801561038a57600080fd5b5061043b600480360381019080803573ffffffffffffffffffffffffffffffffffffffff169060200190929190803573ffffffffffffffffffffffffffffffffffffffff1690602001909291908035906020019082018035906020019190919293919293908035906020019082018035906020019190919293919293908035906020019092919080359060200190929190803590602001908201803590602001919091929391929390505050610f5f565b6040518082815260200191505060405180910390f35b34801561045d57600080fd5b506104ee600480360381019080803573ffffffffffffffffffffffffffffffffffffffff1690602001909291908035906020019082018035906020019190919293919293908035906020019082018035906020019190919293919293908035906020019092919080359060200190929190803590602001908201803590602001919091929391929390505050611222565b6040518082815260200191505060405180910390f35b34801561051057600080fd5b5061052f6004803603810190808035906020019092919050505061158a565b604051808060200180602001848152602001838103835286818151815260200191508051906020019080838360005b8381101561057957808201518184015260208101905061055e565b50505050905090810190601f1680156105a65780820380516001836020036101000a031916815260200191505b50838103825285818151815260200191508051906020019080838360005b838110156105df5780820151818401526020810190506105c4565b50505050905090810190601f16801561060c5780820380516001836020036101000a031916815260200191505b509550505050505060405180910390f35b34801561062957600080fd5b50610632611717565b6040518082815260200191505060405180910390f35b34801561065457600080fd5b5061065d610da1565b604051808273ffffffffffffffffffffffffffffffffffffffff1673ffffffffffffffffffffffffffffffffffffffff16815260200191505060405180910390f35b3480156106ab57600080fd5b506106b46117c4565b60405180826000191660001916815260200191505060405180910390f35b3480156106de57600080fd5b506106e76117e8565b005b3480156106f557600080fd5b506106fe6118ba565b6040518082815260200191505060405180910390f35b34801561072057600080fd5b506107296118c4565b604051808273ffffffffffffffffffffffffffffffffffffffff1673ffffffffffffffffffffffffffffffffffffffff16815260200191505060405180910390f35b34801561077757600080fd5b506107806118ea565b60405180826000191660001916815260200191505060405180910390f35b3480156107aa57600080fd5b506107b361190e565b604051808273ffffffffffffffffffffffffffffffffffffffff1673ffffffffffffffffffffffffffffffffffffffff16815260200191505060405180910390f35b34801561080157600080fd5b5061080a611937565b604051808215151515815260200191505060405180910390f35b34801561083057600080fd5b50610887600480360381019080803573ffffffffffffffffffffffffffffffffffffffff1690602001909291908035906020019092919080359060200190820180359060200191909192939192939050505061198e565b6040518082815260200191505060405180910390f35b3480156108a957600080fd5b506108b2611ccf565b60405180826000191660001916815260200191505060405180910390f35b3480156108dc57600080fd5b50610911600480360381019080803573ffffffffffffffffffffffffffffffffffffffff169060200190929190505050611cf3565b604051808215151515815260200191505060405180910390f35b34801561093757600080fd5b5061096c600480360381019080803573ffffffffffffffffffffffffffffffffffffffff169060200190929190505050611d3f565b005b34801561097a57600080fd5b5061099960048036038101908080359060200190929190505050611d96565b604051808273ffffffffffffffffffffffffffffffffffffffff1673ffffffffffffffffffffffffffffffffffffffff16815260200191505060405180910390f35b3480156109e757600080fd5b506109f0611dd3565b6040518082815260200191505060405180910390f35b348015610a1257600080fd5b50610a5f600480360381019080803573ffffffffffffffffffffffffffffffffffffffff169060200190929190803590602001908201803590602001919091929391929390505050611e80565b6040518082815260200191505060405180910390f35b348015610a8157600080fd5b50610aac600480360381019080803590602001909291908035151590602001909291905050506122c8565b005b348015610aba57600080fd5b50610ac36124ae565b6040518082815260200191505060405180910390f35b348015610ae557600080fd5b50610b1a600480360381019080803573ffffffffffffffffffffffffffffffffffffffff16906020019092919050505061255b565b6040518082815260200191505060405180910390f35b348015610b3c57600080fd5b50610b456125a4565b6040518082815260200191505060405180910390f35b348015610b6757600080fd5b50610b706125aa565b6040518082815260200191505060405180910390f35b348015610b9257600080fd5b50610b9b6125b4565b6040518082815260200191505060405180910390f35b348015610bbd57600080fd5b50610cb2600480360381019080803573ffffffffffffffffffffffffffffffffffffffff169060200190929190803573ffffffffffffffffffffffffffffffffffffffff16906020019092919080359060200190929190803590602001908201803590602001908080601f0160208091040260200160405190810160405280939291908181526020018383808284378201915050505050509192919290803590602001908201803590602001908080601f0160208091040260200160405190810160405280939291908181526020018383808284378201915050505050509192919290803590602001909291905050506125be565b005b348015610cc057600080fd5b50610cc9612ad7565b6040518082815260200191505060405180910390f35b348015610ceb57600080fd5b50610d20600480360381019080803573ffffffffffffffffffffffffffffffffffffffff169060200190929190505050612add565b005b348015610d2e57600080fd5b50610d8b600480360381019080803560001916906020019092919080359060200190929190803590602001908201803590602001919091929391929390803590602001908201803590602001919091929391929390505050612afc565b6040518082815260200191505060405180910390f35b60008060405180807f6f72672e6d6574616469756d2e70726f78792e696d706c656d656e746174696f81526020017f6e00000000000000000000000000000000000000000000000000000000000000815250602101905060405180910390209050805491505090565b60006009600083815260200190815260200160002060009054906101000a900473ffffffffffffffffffffffffffffffffffffffff169050919050565b60006113ec905090565b6000610e5b612e82565b73ffffffffffffffffffffffffffffffffffffffff166333be496e6040518163ffffffff167c0100000000000000000000000000000000000000000000000000000000028152600401602060405180830381600087803b158015610ebe57600080fd5b505af1158015610ed2573d6000803e3d6000fd5b505050506040513d6020811015610ee857600080fd5b8101908080519060200190929190505050905090565b60006005600083815260200190815260200160002060009054906101000a900473ffffffffffffffffffffffffffffffffffffffff169050919050565b7f5374616b696e670000000000000000000000000000000000000000000000000081565b6000610f69612eb2565b73ffffffffffffffffffffffffffffffffffffffff1663a230c524336040518263ffffffff167c0100000000000000000000000000000000000000000000000000000000028152600401808273ffffffffffffffffffffffffffffffffffffffff1673ffffffffffffffffffffffffffffffffffffffff168152602001915050602060405180830381600087803b15801561100357600080fd5b505af1158015611017573d6000803e3d6000fd5b505050506040513d602081101561102d57600080fd5b810190808051906020019092919050505015156110b2576040517f08c379a000000000000000000000000000000000000000000000000000000000815260040180806020018281038252600d8152602001807f4e6f205065726d697373696f6e0000000000000000000000000000000000000081525060200191505060405180910390fd5b6110bb8b611cf3565b151561112f576040517f08c379a000000000000000000000000000000000000000000000000000000000815260040180806020018281038252600a8152602001807f4e6f6e2d6d656d6265720000000000000000000000000000000000000000000081525060200191505060405180910390fd5b6111456001600b54612ee290919063ffffffff16565b90506111c7816003600581111561115857fe5b338e8e8e8e8080601f0160208091040260200160405190810160405280939291908181526020018383808284378201915050505050508d8d8080601f0160208091040260200160405190810160405280939291908181526020018383808284378201915050505050508c612f03565b6111d18185613121565b61120d8184848080601f0160208091040260200160405190810160405280939291908181526020018383808284378201915050505050506131bb565b80600b819055509a9950505050505050505050565b600061122c612eb2565b73ffffffffffffffffffffffffffffffffffffffff1663a230c524336040518263ffffffff167c0100000000000000000000000000000000000000000000000000000000028152600401808273ffffffffffffffffffffffffffffffffffffffff1673ffffffffffffffffffffffffffffffffffffffff168152602001915050602060405180830381600087803b1580156112c657600080fd5b505af11580156112da573d6000803e3d6000fd5b505050506040513d60208110156112f057600080fd5b81019080805190602001909291905050501515611375576040517f08c379a000000000000000000000000000000000000000000000000000000000815260040180806020018281038252600d8152602001807f4e6f205065726d697373696f6e0000000000000000000000000000000000000081525060200191505060405180910390fd5b8973ffffffffffffffffffffffffffffffffffffffff163373ffffffffffffffffffffffffffffffffffffffff1614151515611419576040517f08c379a000000000000000000000000000000000000000000000000000000000815260040180806020018281038252600f8152602001807f43616e6e6f74206164642073656c66000000000000000000000000000000000081525060200191505060405180910390fd5b6114228a611cf3565b151515611497576040517f08c379a000000000000000000000000000000000000000000000000000000000815260040180806020018281038252600e8152602001807f416c7265616479206d656d62657200000000000000000000000000000000000081525060200191505060405180910390fd5b6114ad6001600b54612ee290919063ffffffff16565b905061153081600160058111156114c057fe5b3360008e8e8e8080601f0160208091040260200160405190810160405280939291908181526020018383808284378201915050505050508d8d8080601f0160208091040260200160405190810160405280939291908181526020018383808284378201915050505050508c612f03565b61153a8185613121565b6115768184848080601f0160208091040260200160405190810160405280939291908181526020018383808284378201915050505050506131bb565b80600b819055509998505050505050505050565b606080600060076000858152602001908152602001600020600001600760008681526020019081526020016000206001016007600087815260200190815260200160002060020154828054600181600116156101000203166002900480601f0160208091040260200160405190810160405280929190818152602001828054600181600116156101000203166002900480156116675780601f1061163c57610100808354040283529160200191611667565b820191906000526020600020905b81548152906001019060200180831161164a57829003601f168201915b50505050509250818054600181600116156101000203166002900480601f0160208091040260200160405190810160405280929190818152602001828054600181600116156101000203166002900480156117035780601f106116d857610100808354040283529160200191611703565b820191906000526020600020905b8154815290600101906020018083116116e657829003601f168201915b505050505091509250925092509193909250565b6000611721612e82565b73ffffffffffffffffffffffffffffffffffffffff1663737c59b86040518163ffffffff167c0100000000000000000000000000000000000000000000000000000000028152600401602060405180830381600087803b15801561178457600080fd5b505af1158015611798573d6000803e3d6000fd5b505050506040513d60208110156117ae57600080fd5b8101908080519060200190929190505050905090565b7f476f7665726e616e6365436f6e7472616374000000000000000000000000000081565b6117f0611937565b15156117fb57600080fd5b600073ffffffffffffffffffffffffffffffffffffffff166000809054906101000a900473ffffffffffffffffffffffffffffffffffffffff1673ffffffffffffffffffffffffffffffffffffffff167f8be0079c531659141344cd1fd0a4f28419497f9722a3daafe3b4186f6b6457e060405160405180910390a360008060006101000a81548173ffffffffffffffffffffffffffffffffffffffff021916908373ffffffffffffffffffffffffffffffffffffffff160217905550565b6000600a54905090565b600160009054906101000a900473ffffffffffffffffffffffffffffffffffffffff1681565b7f456e7653746f726167650000000000000000000000000000000000000000000081565b60008060009054906101000a900473ffffffffffffffffffffffffffffffffffffffff16905090565b60008060009054906101000a900473ffffffffffffffffffffffffffffffffffffffff1673ffffffffffffffffffffffffffffffffffffffff163373ffffffffffffffffffffffffffffffffffffffff1614905090565b6000611998612eb2565b73ffffffffffffffffffffffffffffffffffffffff1663a230c524336040518263ffffffff167c0100000000000000000000000000000000000000000000000000000000028152600401808273ffffffffffffffffffffffffffffffffffffffff1673ffffffffffffffffffffffffffffffffffffffff168152602001915050602060405180830381600087803b158015611a3257600080fd5b505af1158015611a46573d6000803e3d6000fd5b505050506040513d6020811015611a5c57600080fd5b81019080805190602001909291905050501515611ae1576040517f08c379a000000000000000000000000000000000000000000000000000000000815260040180806020018281038252600d8152602001807f4e6f205065726d697373696f6e0000000000000000000000000000000000000081525060200191505060405180910390fd5b611aea85611cf3565b1515611b5e576040517f08c379a000000000000000000000000000000000000000000000000000000000815260040180806020018281038252600a8152602001807f4e6f6e2d6d656d6265720000000000000000000000000000000000000000000081525060200191505060405180910390fd5b6001611b686125aa565b111515611bdd576040517f08c379a000000000000000000000000000000000000000000000000000000000815260040180806020018281038252601b8152602001807f43616e6e6f742072656d6f7665206120736f6c65206d656d626572000000000081525060200191505060405180910390fd5b611bf36001600b54612ee290919063ffffffff16565b9050611c7a8160026005811115611c0657fe5b33886000806040519080825280601f01601f191660200182016040528015611c3d5781602001602082028038833980820191505090505b5060006040519080825280601f01601f191660200182016040528015611c725781602001602082028038833980820191505090505b506000612f03565b611c848185613121565b611cc08184848080601f0160208091040260200160405190810160405280939291908181526020018383808284378201915050505050506131bb565b80600b81905550949350505050565b7f42616c6c6f7453746f726167650000000000000000000000000000000000000081565b600080600360008473ffffffffffffffffffffffffffffffffffffffff1673ffffffffffffffffffffffffffffffffffffffff1681526020019081526020016000205414159050919050565b611d47611937565b1515611d5257600080fd5b80600160006101000a81548173ffffffffffffffffffffffffffffffffffffffff021916908373ffffffffffffffffffffffffffffffffffffffff16021790555050565b60006002600083815260200190815260200160002060009054906101000a900473ffffffffffffffffffffffffffffffffffffffff169050919050565b6000611ddd612e82565b73ffffffffffffffffffffffffffffffffffffffff1663076cd77f6040518163ffffffff167c0100000000000000000000000000000000000000000000000000000000028152600401602060405180830381600087803b158015611e4057600080fd5b505af1158015611e54573d6000803e3d6000fd5b505050506040513d6020811015611e6a57600080fd5b8101908080519060200190929190505050905090565b6000611e8a612eb2565b73ffffffffffffffffffffffffffffffffffffffff1663a230c524336040518263ffffffff167c0100000000000000000000000000000000000000000000000000000000028152600401808273ffffffffffffffffffffffffffffffffffffffff1673ffffffffffffffffffffffffffffffffffffffff168152602001915050602060405180830381600087803b158015611f2457600080fd5b505af1158015611f38573d6000803e3d6000fd5b505050506040513d6020811015611f4e57600080fd5b81019080805190602001909291905050501515611fd3576040517f08c379a000000000000000000000000000000000000000000000000000000000815260040180806020018281038252600d8152602001807f4e6f205065726d697373696f6e0000000000000000000000000000000000000081525060200191505060405180910390fd5b600073ffffffffffffffffffffffffffffffffffffffff168473ffffffffffffffffffffffffffffffffffffffff1614151515612078576040517f08c379a000000000000000000000000000000000000000000000000000000000815260040180806020018281038252601d8152602001807f496d706c656d656e746174696f6e2063616e6e6f74206265207a65726f00000081525060200191505060405180910390fd5b612080610da1565b73ffffffffffffffffffffffffffffffffffffffff168473ffffffffffffffffffffffffffffffffffffffff1614151515612123576040517f08c379a00000000000000000000000000000000000000000000000000000000081526004018080602001828103825260158152602001807f53616d6520636f6e74726163742061646472657373000000000000000000000081525060200191505060405180910390fd5b6121396001600b54612ee290919063ffffffff16565b90506121436132ba565b73ffffffffffffffffffffffffffffffffffffffff16634a4af0136121746001600b54612ee290919063ffffffff16565b6004600581111561218157fe5b33886040518563ffffffff167c0100000000000000000000000000000000000000000000000000000000028152600401808581526020018481526020018373ffffffffffffffffffffffffffffffffffffffff1673ffffffffffffffffffffffffffffffffffffffff1681526020018273ffffffffffffffffffffffffffffffffffffffff1673ffffffffffffffffffffffffffffffffffffffff168152602001945050505050602060405180830381600087803b15801561224257600080fd5b505af1158015612256573d6000803e3d6000fd5b505050506040513d602081101561226c57600080fd5b8101908080519060200190929190505050506122ba8184848080601f0160208091040260200160405190810160405280939291908181526020018383808284378201915050505050506131bb565b80600b819055509392505050565b60008060006122d5612eb2565b73ffffffffffffffffffffffffffffffffffffffff1663a230c524336040518263ffffffff167c0100000000000000000000000000000000000000000000000000000000028152600401808273ffffffffffffffffffffffffffffffffffffffff1673ffffffffffffffffffffffffffffffffffffffff168152602001915050602060405180830381600087803b15801561236f57600080fd5b505af1158015612383573d6000803e3d6000fd5b505050506040513d602081101561239957600080fd5b8101908080519060200190929190505050151561241e576040517f08c379a000000000000000000000000000000000000000000000000000000000815260040180806020018281038252600d8152602001807f4e6f205065726d697373696f6e0000000000000000000000000000000000000081525060200191505060405180910390fd5b60006001600e60008282540192505081905550600e54905061243f866132ea565b6124488661340d565b93506124548686613540565b61245d86613876565b935093505061246a610e47565b8310801561247e575061247b610e47565b82105b1561248857612496565b612495868584861161394d565b5b600e54811415156124a657600080fd5b505050505050565b60006124b8612e82565b73ffffffffffffffffffffffffffffffffffffffff16631b27e01b6040518163ffffffff167c0100000000000000000000000000000000000000000000000000000000028152600401602060405180830381600087803b15801561251b57600080fd5b505af115801561252f573d6000803e3d6000fd5b505050506040513d602081101561254557600080fd5b8101908080519060200190929190505050905090565b6000600860008373ffffffffffffffffffffffffffffffffffffffff1673ffffffffffffffffffffffffffffffffffffffff168152602001908152602001600020549050919050565b600b5481565b6000600454905090565b6000600d54905090565b6000806125c9611937565b15156125d457600080fd5b60001515600160149054906101000a900460ff16151514151561265f576040517f08c379a00000000000000000000000000000000000000000000000000000000081526004018080602001828103825260138152602001807f416c726561647920696e697469616c697a65640000000000000000000000000081525060200191505060405180910390fd5b61266888611d3f565b61267187613a35565b612679613a9c565b9150858273ffffffffffffffffffffffffffffffffffffffff166325d998bb336040518263ffffffff167c0100000000000000000000000000000000000000000000000000000000028152600401808273ffffffffffffffffffffffffffffffffffffffff1673ffffffffffffffffffffffffffffffffffffffff168152602001915050602060405180830381600087803b15801561271757600080fd5b505af115801561272b573d6000803e3d6000fd5b505050506040513d602081101561274157600080fd5b8101908080519060200190929190505050101515156127c8576040517f08c379a00000000000000000000000000000000000000000000000000000000081526004018080602001828103825260148152602001807f496e73756666696369656e74207374616b696e6700000000000000000000000081525060200191505060405180910390fd5b8173ffffffffffffffffffffffffffffffffffffffff1663282d3fdf33886040518363ffffffff167c0100000000000000000000000000000000000000000000000000000000028152600401808373ffffffffffffffffffffffffffffffffffffffff1673ffffffffffffffffffffffffffffffffffffffff16815260200182815260200192505050600060405180830381600087803b15801561286b57600080fd5b505af115801561287f573d6000803e3d6000fd5b5050505060016004819055503360026000600454815260200190815260200160002060006101000a81548173ffffffffffffffffffffffffffffffffffffffff021916908373ffffffffffffffffffffffffffffffffffffffff160217905550600454600360003373ffffffffffffffffffffffffffffffffffffffff1673ffffffffffffffffffffffffffffffffffffffff168152602001908152602001600020819055503360056000600454815260200190815260200160002060006101000a81548173ffffffffffffffffffffffffffffffffffffffff021916908373ffffffffffffffffffffffffffffffffffffffff160217905550600454600660003373ffffffffffffffffffffffffffffffffffffffff1673ffffffffffffffffffffffffffffffffffffffff168152602001908152602001600020819055506001600a8190555060076000600a5481526020019081526020016000209050848160000190805190602001906129f6929190616073565b5083816001019080519060200190612a0f929190616073565b50828160020181905550600a54600860003373ffffffffffffffffffffffffffffffffffffffff1673ffffffffffffffffffffffffffffffffffffffff168152602001908152602001600020819055503360096000600a54815260200190815260200160002060006101000a81548173ffffffffffffffffffffffffffffffffffffffff021916908373ffffffffffffffffffffffffffffffffffffffff16021790555060018060146101000a81548160ff0219169083151502179055505050505050505050565b600c5481565b612ae5611937565b1515612af057600080fd5b612af981613acc565b50565b6000612b06612eb2565b73ffffffffffffffffffffffffffffffffffffffff1663a230c524336040518263ffffffff167c0100000000000000000000000000000000000000000000000000000000028152600401808273ffffffffffffffffffffffffffffffffffffffff1673ffffffffffffffffffffffffffffffffffffffff168152602001915050602060405180830381600087803b158015612ba057600080fd5b505af1158015612bb4573d6000803e3d6000fd5b505050506040513d6020811015612bca57600080fd5b81019080805190602001909291905050501515612c4f576040517f08c379a000000000000000000000000000000000000000000000000000000000815260040180806020018281038252600d8152602001807f4e6f205065726d697373696f6e0000000000000000000000000000000000000081525060200191505060405180910390fd5b8560016006811115612c5d57fe5b11158015612c765750600680811115612c7257fe5b8611155b1515612cea576040517f08c379a000000000000000000000000000000000000000000000000000000000815260040180806020018281038252600c8152602001807f496e76616c69642074797065000000000000000000000000000000000000000081525060200191505060405180910390fd5b612d006001600b54612ee290919063ffffffff16565b9050612d0a6132ba565b73ffffffffffffffffffffffffffffffffffffffff16637f5b7ab382600580811115612d3257fe5b338b8b8b8b6040518863ffffffff167c0100000000000000000000000000000000000000000000000000000000028152600401808881526020018781526020018673ffffffffffffffffffffffffffffffffffffffff1673ffffffffffffffffffffffffffffffffffffffff1681526020018560001916600019168152602001848152602001806020018281038252848482818152602001925080828437820191505098505050505050505050602060405180830381600087803b158015612df957600080fd5b505af1158015612e0d573d6000803e3d6000fd5b505050506040513d6020811015612e2357600080fd5b810190808051906020019092919050505050612e718184848080601f0160208091040260200160405190810160405280939291908181526020018383808284378201915050505050506131bb565b80600b819055509695505050505050565b6000612ead7f456e7653746f7261676500000000000000000000000000000000000000000000613bc6565b905090565b6000612edd7f476f7665726e616e6365436f6e74726163740000000000000000000000000000613bc6565b905090565b6000808284019050838110151515612ef957600080fd5b8091505092915050565b612f0b6132ba565b73ffffffffffffffffffffffffffffffffffffffff166399e929a389898989898989896040518963ffffffff167c0100000000000000000000000000000000000000000000000000000000028152600401808981526020018881526020018773ffffffffffffffffffffffffffffffffffffffff1673ffffffffffffffffffffffffffffffffffffffff1681526020018673ffffffffffffffffffffffffffffffffffffffff1673ffffffffffffffffffffffffffffffffffffffff1681526020018573ffffffffffffffffffffffffffffffffffffffff1673ffffffffffffffffffffffffffffffffffffffff1681526020018060200180602001848152602001838103835286818151815260200191508051906020019080838360005b8381101561304557808201518184015260208101905061302a565b50505050905090810190601f1680156130725780820380516001836020036101000a031916815260200191505b50838103825285818151815260200191508051906020019080838360005b838110156130ab578082015181840152602081019050613090565b50505050905090810190601f1680156130d85780820380516001836020036101000a031916815260200191505b509a5050505050505050505050600060405180830381600087803b1580156130ff57600080fd5b505af1158015613113573d6000803e3d6000fd5b505050505050505050505050565b6131296132ba565b73ffffffffffffffffffffffffffffffffffffffff166372d0ec9283836040518363ffffffff167c01000000000000000000000000000000000000000000000000000000000281526004018083815260200182815260200192505050600060405180830381600087803b15801561319f57600080fd5b505af11580156131b3573d6000803e3d6000fd5b505050505050565b6131c36132ba565b73ffffffffffffffffffffffffffffffffffffffff1663bce0dbc183836040518363ffffffff167c01000000000000000000000000000000000000000000000000000000000281526004018083815260200180602001828103825283818151815260200191508051906020019080838360005b83811015613251578082015181840152602081019050613236565b50505050905090810190601f16801561327e5780820380516001836020036101000a031916815260200191505b509350505050600060405180830381600087803b15801561329e57600080fd5b505af11580156132b2573d6000803e3d6000fd5b505050505050565b60006132e57f42616c6c6f7453746f7261676500000000000000000000000000000000000000613bc6565b905090565b6000806000600d5414151561340757613304600d54613ca3565b50925050613313600d54613d7a565b509150506002600581111561332457fe5b821415613406574281101561336557613349836004600581111561334457fe5b613e51565b6000600d81905550600d5483141561336057613408565b613405565b600d5483141515613404576040517f08c379a00000000000000000000000000000000000000000000000000000000081526004018080602001828103825260238152602001807f4e6f7720696e20766f74696e67207769746820646966666572656e742062616c81526020017f6c6f74000000000000000000000000000000000000000000000000000000000081525060400191505060405180910390fd5b5b5b5b5b505050565b60008060008061341c85613ca3565b50925092506001600581111561342e57fe5b8214156134ad5761343e85613d7a565b9250505061344a610e51565b81101561346a57613465854261345e610e51565b4201613eeb565b6134a1565b806134736124ae565b10156134925761348d85426134866124ae565b4201613eeb565b6134a0565b61349f8542834201613eeb565b5b5b84600d81905550613535565b600260058111156134ba57fe5b8214156134c657613534565b6040517f08c379a00000000000000000000000000000000000000000000000000000000081526004018080602001828103825260078152602001807f457870697265640000000000000000000000000000000000000000000000000081525060200191505060405180910390fd5b5b829350505050919050565b6000806135596001600c54612ee290919063ffffffff16565b9150613563613a9c565b73ffffffffffffffffffffffffffffffffffffffff16637d77a0eb336127106040518363ffffffff167c0100000000000000000000000000000000000000000000000000000000028152600401808373ffffffffffffffffffffffffffffffffffffffff1673ffffffffffffffffffffffffffffffffffffffff1681526020018263ffffffff16815260200192505050602060405180830381600087803b15801561360d57600080fd5b505af1158015613621573d6000803e3d6000fd5b505050506040513d602081101561363757600080fd5b81019080805190602001909291905050509050821561375f576136586132ba565b73ffffffffffffffffffffffffffffffffffffffff166396462b9c8386336001600281111561368357fe5b866040518663ffffffff167c0100000000000000000000000000000000000000000000000000000000028152600401808681526020018581526020018473ffffffffffffffffffffffffffffffffffffffff1673ffffffffffffffffffffffffffffffffffffffff16815260200183815260200182815260200195505050505050602060405180830381600087803b15801561371e57600080fd5b505af1158015613732573d6000803e3d6000fd5b505050506040513d602081101561374857600080fd5b810190808051906020019092919050505050613869565b6137676132ba565b73ffffffffffffffffffffffffffffffffffffffff166396462b9c83863360028081111561379157fe5b866040518663ffffffff167c0100000000000000000000000000000000000000000000000000000000028152600401808681526020018581526020018473ffffffffffffffffffffffffffffffffffffffff1673ffffffffffffffffffffffffffffffffffffffff16815260200183815260200182815260200195505050505050602060405180830381600087803b15801561382c57600080fd5b505af1158015613840573d6000803e3d6000fd5b505050506040513d602081101561385657600080fd5b8101908080519060200190929190505050505b81600c8190555050505050565b60008060006138836132ba565b73ffffffffffffffffffffffffffffffffffffffff166356ba988e856040518263ffffffff167c010000000000000000000000000000000000000000000000000000000002815260040180828152602001915050606060405180830381600087803b1580156138f157600080fd5b505af1158015613905573d6000803e3d6000fd5b505050506040513d606081101561391b57600080fd5b810190808051906020019092919080519060200190929190805190602001909291905050509250925092509193909250565b60006004600581111561395c57fe5b90508115613a1d576001600581111561397157fe5b8314156139865761398184613f8e565b613a0d565b6002600581111561399357fe5b8314156139a8576139a384614313565b613a0c565b600360058111156139b557fe5b8314156139ca576139c584614a8d565b613a0b565b600460058111156139d757fe5b8314156139ec576139e78461502a565b613a0a565b6005808111156139f857fe5b831415613a0957613a0884615139565b5b5b5b5b5b60036005811115613a1a57fe5b90505b613a278482613e51565b6000600d8190555050505050565b600060405180807f6f72672e6d6574616469756d2e70726f78792e696d706c656d656e746174696f81526020017f6e000000000000000000000000000000000000000000000000000000000000008152506021019050604051809103902090508181555050565b6000613ac77f5374616b696e6700000000000000000000000000000000000000000000000000613bc6565b905090565b600073ffffffffffffffffffffffffffffffffffffffff168173ffffffffffffffffffffffffffffffffffffffff1614151515613b0857600080fd5b8073ffffffffffffffffffffffffffffffffffffffff166000809054906101000a900473ffffffffffffffffffffffffffffffffffffffff1673ffffffffffffffffffffffffffffffffffffffff167f8be0079c531659141344cd1fd0a4f28419497f9722a3daafe3b4186f6b6457e060405160405180910390a3806000806101000a81548173ffffffffffffffffffffffffffffffffffffffff021916908373ffffffffffffffffffffffffffffffffffffffff16021790555050565b6000600160009054906101000a900473ffffffffffffffffffffffffffffffffffffffff1673ffffffffffffffffffffffffffffffffffffffff16630d2020dd836040518263ffffffff167c0100000000000000000000000000000000000000000000000000000000028152600401808260001916600019168152602001915050602060405180830381600087803b158015613c6157600080fd5b505af1158015613c75573d6000803e3d6000fd5b505050506040513d6020811015613c8b57600080fd5b81019080805190602001909291905050509050919050565b6000806000613cb06132ba565b73ffffffffffffffffffffffffffffffffffffffff1663688ca5b2856040518263ffffffff167c010000000000000000000000000000000000000000000000000000000002815260040180828152602001915050606060405180830381600087803b158015613d1e57600080fd5b505af1158015613d32573d6000803e3d6000fd5b505050506040513d6060811015613d4857600080fd5b810190808051906020019092919080519060200190929190805190602001909291905050509250925092509193909250565b6000806000613d876132ba565b73ffffffffffffffffffffffffffffffffffffffff166309970688856040518263ffffffff167c010000000000000000000000000000000000000000000000000000000002815260040180828152602001915050606060405180830381600087803b158015613df557600080fd5b505af1158015613e09573d6000803e3d6000fd5b505050506040513d6060811015613e1f57600080fd5b810190808051906020019092919080519060200190929190805190602001909291905050509250925092509193909250565b613e596132ba565b73ffffffffffffffffffffffffffffffffffffffff1663a91e59ba83836040518363ffffffff167c01000000000000000000000000000000000000000000000000000000000281526004018083815260200182815260200192505050600060405180830381600087803b158015613ecf57600080fd5b505af1158015613ee3573d6000803e3d6000fd5b505050505050565b613ef36132ba565b73ffffffffffffffffffffffffffffffffffffffff1663c0b6f1868484846040518463ffffffff167c0100000000000000000000000000000000000000000000000000000000028152600401808481526020018381526020018281526020019350505050600060405180830381600087803b158015613f7157600080fd5b505af1158015613f85573d6000803e3d6000fd5b50505050505050565b60006060806000806000806000613fb18960016005811115613fac57fe5b6159bc565b613fba89615b71565b9850985098509850985050613fce88611cf3565b15613fd857614308565b83613fe1611dd3565b11158015613ff65750613ff2611717565b8411155b151561406a576040517f08c379a00000000000000000000000000000000000000000000000000000000081526004018080602001828103825260138152602001807f496e76616c6964206c6f636b20616d6f756e740000000000000000000000000081525060200191505060405180910390fd5b6140748885615d10565b61408a6001600454612ee290919063ffffffff16565b9250876002600085815260200190815260200160002060006101000a81548173ffffffffffffffffffffffffffffffffffffffff021916908373ffffffffffffffffffffffffffffffffffffffff16021790555082600360008a73ffffffffffffffffffffffffffffffffffffffff1673ffffffffffffffffffffffffffffffffffffffff16815260200190815260200160002081905550876005600085815260200190815260200160002060006101000a81548173ffffffffffffffffffffffffffffffffffffffff021916908373ffffffffffffffffffffffffffffffffffffffff16021790555082600660008a73ffffffffffffffffffffffffffffffffffffffff1673ffffffffffffffffffffffffffffffffffffffff168152602001908152602001600020819055506141ce6001600a54612ee290919063ffffffff16565b9150600760008381526020019081526020016000209050868160000190805190602001906141fd929190616073565b5085816001019080519060200190614216929190616073565b50848160020181905550876009600084815260200190815260200160002060006101000a81548173ffffffffffffffffffffffffffffffffffffffff021916908373ffffffffffffffffffffffffffffffffffffffff16021790555081600860008a73ffffffffffffffffffffffffffffffffffffffff1673ffffffffffffffffffffffffffffffffffffffff168152602001908152602001600020819055508260048190555081600a819055508773ffffffffffffffffffffffffffffffffffffffff167fb251eb052afc73ffd02ffe85ad79990a8b3fed60d76dbc2fa2fdd7123dffd91460405160405180910390a25b505050505050505050565b600080600061432e846002600581111561432957fe5b6159bc565b61433784615b71565b965050505050925061434883611cf3565b151561435357614a87565b600454600360008573ffffffffffffffffffffffffffffffffffffffff1673ffffffffffffffffffffffffffffffffffffffff168152602001908152602001600020541415156146c65760026000600454815260200190815260200160002060009054906101000a900473ffffffffffffffffffffffffffffffffffffffff1660026000600360008773ffffffffffffffffffffffffffffffffffffffff1673ffffffffffffffffffffffffffffffffffffffff16815260200190815260200160002054815260200190815260200160002060009054906101000a900473ffffffffffffffffffffffffffffffffffffffff1660026000600360008873ffffffffffffffffffffffffffffffffffffffff1673ffffffffffffffffffffffffffffffffffffffff168152602001908152602001600020548152602001908152602001600020600060026000600454815260200190815260200160002060008491906101000a81548173ffffffffffffffffffffffffffffffffffffffff021916908373ffffffffffffffffffffffffffffffffffffffff1602179055508391906101000a81548173ffffffffffffffffffffffffffffffffffffffff021916908373ffffffffffffffffffffffffffffffffffffffff160217905550505060056000600454815260200190815260200160002060009054906101000a900473ffffffffffffffffffffffffffffffffffffffff1660056000600360008773ffffffffffffffffffffffffffffffffffffffff1673ffffffffffffffffffffffffffffffffffffffff16815260200190815260200160002054815260200190815260200160002060009054906101000a900473ffffffffffffffffffffffffffffffffffffffff1660056000600360008873ffffffffffffffffffffffffffffffffffffffff1673ffffffffffffffffffffffffffffffffffffffff168152602001908152602001600020548152602001908152602001600020600060056000600454815260200190815260200160002060008491906101000a81548173ffffffffffffffffffffffffffffffffffffffff021916908373ffffffffffffffffffffffffffffffffffffffff1602179055508391906101000a81548173ffffffffffffffffffffffffffffffffffffffff021916908373ffffffffffffffffffffffffffffffffffffffff16021790555050505b600060026000600454815260200190815260200160002060006101000a81548173ffffffffffffffffffffffffffffffffffffffff021916908373ffffffffffffffffffffffffffffffffffffffff1602179055506000600360008573ffffffffffffffffffffffffffffffffffffffff1673ffffffffffffffffffffffffffffffffffffffff16815260200190815260200160002081905550600060056000600454815260200190815260200160002060006101000a81548173ffffffffffffffffffffffffffffffffffffffff021916908373ffffffffffffffffffffffffffffffffffffffff16021790555060006006600060056000600454815260200190815260200160002060009054906101000a900473ffffffffffffffffffffffffffffffffffffffff1673ffffffffffffffffffffffffffffffffffffffff1673ffffffffffffffffffffffffffffffffffffffff168152602001908152602001600020819055506148456001600454615dd690919063ffffffff16565b600481905550600a54600860008573ffffffffffffffffffffffffffffffffffffffff1673ffffffffffffffffffffffffffffffffffffffff168152602001908152602001600020541415156149835760076000600860008673ffffffffffffffffffffffffffffffffffffffff1673ffffffffffffffffffffffffffffffffffffffff168152602001908152602001600020548152602001908152602001600020905060076000600a5481526020019081526020016000206000018160000190805460018160011615610100020316600290046149249291906160f3565b5060076000600a5481526020019081526020016000206001018160010190805460018160011615610100020316600290046149609291906160f3565b5060076000600a5481526020019081526020016000206002015481600201819055505b600060096000600a54815260200190815260200160002060006101000a81548173ffffffffffffffffffffffffffffffffffffffff021916908373ffffffffffffffffffffffffffffffffffffffff1602179055506000600860008573ffffffffffffffffffffffffffffffffffffffff1673ffffffffffffffffffffffffffffffffffffffff16815260200190815260200160002081905550614a336001600a54615dd690919063ffffffff16565b600a81905550614a438383615df7565b8273ffffffffffffffffffffffffffffffffffffffff167f6e76fb4c77256006d9c38ec7d82b45a8c8f3c27b1d6766fffc42dfb8de68449260405160405180910390a25b50505050565b600080606080600080600080614aaf8960036005811115614aaa57fe5b6159bc565b614ab889615b71565b975097509750975097509750614acd88611cf3565b1515614ad85761501f565b8673ffffffffffffffffffffffffffffffffffffffff168873ffffffffffffffffffffffffffffffffffffffff16141515614e175782614b16611dd3565b11158015614b2b5750614b27611717565b8311155b1515614b9f576040517f08c379a00000000000000000000000000000000000000000000000000000000081526004018080602001828103825260138152602001807f496e76616c6964206c6f636b20616d6f756e740000000000000000000000000081525060200191505060405180910390fd5b614ba98784615d10565b8660026000600360008c73ffffffffffffffffffffffffffffffffffffffff1673ffffffffffffffffffffffffffffffffffffffff16815260200190815260200160002054815260200190815260200160002060006101000a81548173ffffffffffffffffffffffffffffffffffffffff021916908373ffffffffffffffffffffffffffffffffffffffff160217905550600360008973ffffffffffffffffffffffffffffffffffffffff1673ffffffffffffffffffffffffffffffffffffffff16815260200190815260200160002054600360008973ffffffffffffffffffffffffffffffffffffffff1673ffffffffffffffffffffffffffffffffffffffff168152602001908152602001600020819055508660056000600360008c73ffffffffffffffffffffffffffffffffffffffff1673ffffffffffffffffffffffffffffffffffffffff16815260200190815260200160002054815260200190815260200160002060006101000a81548173ffffffffffffffffffffffffffffffffffffffff021916908373ffffffffffffffffffffffffffffffffffffffff160217905550600660008973ffffffffffffffffffffffffffffffffffffffff1673ffffffffffffffffffffffffffffffffffffffff16815260200190815260200160002054600660008973ffffffffffffffffffffffffffffffffffffffff1673ffffffffffffffffffffffffffffffffffffffff168152602001908152602001600020819055506000600360008a73ffffffffffffffffffffffffffffffffffffffff1673ffffffffffffffffffffffffffffffffffffffff168152602001908152602001600020819055505b600860008973ffffffffffffffffffffffffffffffffffffffff1673ffffffffffffffffffffffffffffffffffffffff16815260200190815260200160002054915060076000838152602001908152602001600020905085816000019080519060200190614e86929190616073565b5084816001019080519060200190614e9f929190616073565b508381600201819055508673ffffffffffffffffffffffffffffffffffffffff168873ffffffffffffffffffffffffffffffffffffffff1614151561501e57866009600084815260200190815260200160002060006101000a81548173ffffffffffffffffffffffffffffffffffffffff021916908373ffffffffffffffffffffffffffffffffffffffff16021790555081600860008973ffffffffffffffffffffffffffffffffffffffff1673ffffffffffffffffffffffffffffffffffffffff168152602001908152602001600020819055506000600860008a73ffffffffffffffffffffffffffffffffffffffff1673ffffffffffffffffffffffffffffffffffffffff16815260200190815260200160002081905550614fc38884615df7565b8673ffffffffffffffffffffffffffffffffffffffff168873ffffffffffffffffffffffffffffffffffffffff167f05d866cd9c6000815d031b7ce30f30f643766eba16be13cff25924dc8ad8209260405160405180910390a35b5b505050505050505050565b6000615042826004600581111561503d57fe5b6159bc565b61504a6132ba565b73ffffffffffffffffffffffffffffffffffffffff16637efa9ae3836040518263ffffffff167c010000000000000000000000000000000000000000000000000000000002815260040180828152602001915050602060405180830381600087803b1580156150b857600080fd5b505af11580156150cc573d6000803e3d6000fd5b505050506040513d60208110156150e257600080fd5b81019080805190602001909291905050509050600073ffffffffffffffffffffffffffffffffffffffff168173ffffffffffffffffffffffffffffffffffffffff161415156151355761513481613a35565b5b5050565b600080606060006151558560058081111561515057fe5b6159bc565b61515d6132ba565b73ffffffffffffffffffffffffffffffffffffffff16631d940da2866040518263ffffffff167c010000000000000000000000000000000000000000000000000000000002815260040180828152602001915050600060405180830381600087803b1580156151cb57600080fd5b505af11580156151df573d6000803e3d6000fd5b505050506040513d6000823e3d601f19601f82011682018060405250606081101561520957600080fd5b810190808051906020019092919080519060200190929190805164010000000081111561523557600080fd5b8281019050602081018481111561524b57600080fd5b815185600182028301116401000000008211171561526857600080fd5b505092919050505093509350935061527e612e82565b905060405180807f626c6f636b506572000000000000000000000000000000000000000000000000815250600801905060405180910390206000191684600019161480156152d75750600260068111156152d457fe5b83145b156153cd578073ffffffffffffffffffffffffffffffffffffffff16630a61b0ba836040518263ffffffff167c01000000000000000000000000000000000000000000000000000000000281526004018080602001828103825283818151815260200191508051906020019080838360005b83811015615364578082015181840152602081019050615349565b50505050905090810190601f1680156153915780820380516001836020036101000a031916815260200191505b5092505050600060405180830381600087803b1580156153b057600080fd5b505af11580156153c4573d6000803e3d6000fd5b50505050615901565b60405180807f62616c6c6f744475726174696f6e4d696e0000000000000000000000000000008152506011019050604051809103902060001916846000191614801561542457506002600681111561542157fe5b83145b1561551a578073ffffffffffffffffffffffffffffffffffffffff1663124cea37836040518263ffffffff167c01000000000000000000000000000000000000000000000000000000000281526004018080602001828103825283818151815260200191508051906020019080838360005b838110156154b1578082015181840152602081019050615496565b50505050905090810190601f1680156154de5780820380516001836020036101000a031916815260200191505b5092505050600060405180830381600087803b1580156154fd57600080fd5b505af1158015615511573d6000803e3d6000fd5b50505050615900565b60405180807f62616c6c6f744475726174696f6e4d61780000000000000000000000000000008152506011019050604051809103902060001916846000191614801561557157506002600681111561556e57fe5b83145b15615667578073ffffffffffffffffffffffffffffffffffffffff1663a5d6a581836040518263ffffffff167c01000000000000000000000000000000000000000000000000000000000281526004018080602001828103825283818151815260200191508051906020019080838360005b838110156155fe5780820151818401526020810190506155e3565b50505050905090810190601f16801561562b5780820380516001836020036101000a031916815260200191505b5092505050600060405180830381600087803b15801561564a57600080fd5b505af115801561565e573d6000803e3d6000fd5b505050506158ff565b60405180807f7374616b696e674d696e00000000000000000000000000000000000000000000815250600a01905060405180910390206000191684600019161480156156be5750600260068111156156bb57fe5b83145b156157b4578073ffffffffffffffffffffffffffffffffffffffff166371c6960d836040518263ffffffff167c01000000000000000000000000000000000000000000000000000000000281526004018080602001828103825283818151815260200191508051906020019080838360005b8381101561574b578082015181840152602081019050615730565b50505050905090810190601f1680156157785780820380516001836020036101000a031916815260200191505b5092505050600060405180830381600087803b15801561579757600080fd5b505af11580156157ab573d6000803e3d6000fd5b505050506158fe565b60405180807f7374616b696e674d617800000000000000000000000000000000000000000000815250600a019050604051809103902060001916846000191614801561580b57506002600681111561580857fe5b83145b156158fd578073ffffffffffffffffffffffffffffffffffffffff16632eccd832836040518263ffffffff167c01000000000000000000000000000000000000000000000000000000000281526004018080602001828103825283818151815260200191508051906020019080838360005b8381101561589857808201518184015260208101905061587d565b50505050905090810190601f1680156158c55780820380516001836020036101000a031916815260200191505b5092505050600060405180830381600087803b1580156158e457600080fd5b505af11580156158f8573d6000803e3d6000fd5b505050505b5b5b5b5b7f701c16c2519cdb79aaac423a84733590e3510d9552055b6ad6908f0ab12b6c2984848460405180846000191660001916815260200183815260200180602001828103825283818151815260200191508051906020019080838360005b8381101561597957808201518184015260208101905061595e565b50505050905090810190601f1680156159a65780820380516001836020036101000a031916815260200191505b5094505050505060405180910390a15050505050565b6000806000806159cb86613ca3565b50935093508484141515615a47576040517f08c379a00000000000000000000000000000000000000000000000000000000081526004018080602001828103825260138152602001807f496e76616c696420766f74696e6720747970650000000000000000000000000081525060200191505060405180910390fd5b60026005811115615a5457fe5b83141515615aca576040517f08c379a00000000000000000000000000000000000000000000000000000000081526004018080602001828103825260148152602001807f496e76616c696420766f74696e6720737461746500000000000000000000000081525060200191505060405180910390fd5b615ad386613876565b9250925050615ae0610e47565b82101580615af55750615af1610e47565b8110155b1515615b69576040517f08c379a00000000000000000000000000000000000000000000000000000000081526004018080602001828103825260118152602001807f4e6f74207965742066696e616c697a656400000000000000000000000000000081525060200191505060405180910390fd5b505050505050565b600080606080600080615b826132ba565b73ffffffffffffffffffffffffffffffffffffffff166373df4e01886040518263ffffffff167c010000000000000000000000000000000000000000000000000000000002815260040180828152602001915050600060405180830381600087803b158015615bf057600080fd5b505af1158015615c04573d6000803e3d6000fd5b505050506040513d6000823e3d601f19601f8201168201806040525060c0811015615c2e57600080fd5b8101908080519060200190929190805190602001909291908051640100000000811115615c5a57600080fd5b82810190506020810184811115615c7057600080fd5b8151856001820283011164010000000082111715615c8d57600080fd5b50509291906020018051640100000000811115615ca957600080fd5b82810190506020810184811115615cbf57600080fd5b8151856001820283011164010000000082111715615cdc57600080fd5b5050929190602001805190602001909291908051906020019092919050505095509550955095509550955091939550919395565b615d18613a9c565b73ffffffffffffffffffffffffffffffffffffffff1663282d3fdf83836040518363ffffffff167c0100000000000000000000000000000000000000000000000000000000028152600401808373ffffffffffffffffffffffffffffffffffffffff1673ffffffffffffffffffffffffffffffffffffffff16815260200182815260200192505050600060405180830381600087803b158015615dba57600080fd5b505af1158015615dce573d6000803e3d6000fd5b505050505050565b600080838311151515615de857600080fd5b82840390508091505092915050565b600080615e02613a9c565b91508173ffffffffffffffffffffffffffffffffffffffff166359355736856040518263ffffffff167c0100000000000000000000000000000000000000000000000000000000028152600401808273ffffffffffffffffffffffffffffffffffffffff1673ffffffffffffffffffffffffffffffffffffffff168152602001915050602060405180830381600087803b158015615e9f57600080fd5b505af1158015615eb3573d6000803e3d6000fd5b505050506040513d6020811015615ec957600080fd5b8101908080519060200190929190505050905082811115615fb2578173ffffffffffffffffffffffffffffffffffffffff16637756c90885615f148685615dd690919063ffffffff16565b6040518363ffffffff167c0100000000000000000000000000000000000000000000000000000000028152600401808373ffffffffffffffffffffffffffffffffffffffff1673ffffffffffffffffffffffffffffffffffffffff16815260200182815260200192505050600060405180830381600087803b158015615f9957600080fd5b505af1158015615fad573d6000803e3d6000fd5b505050505b8173ffffffffffffffffffffffffffffffffffffffff16637eee288d85856040518363ffffffff167c0100000000000000000000000000000000000000000000000000000000028152600401808373ffffffffffffffffffffffffffffffffffffffff1673ffffffffffffffffffffffffffffffffffffffff16815260200182815260200192505050600060405180830381600087803b15801561605557600080fd5b505af1158015616069573d6000803e3d6000fd5b5050505050505050565b828054600181600116156101000203166002900490600052602060002090601f016020900481019282601f106160b457805160ff19168380011785556160e2565b828001600101855582156160e2579182015b828111156160e15782518255916020019190600101906160c6565b5b5090506160ef919061617a565b5090565b828054600181600116156101000203166002900490600052602060002090601f016020900481019282601f1061612c5780548555616169565b8280016001018555821561616957600052602060002091601f016020900482015b8281111561616857825482559160010191906001019061614d565b5b509050616176919061617a565b5090565b61619c91905b80821115616198576000816000905550600101616180565b5090565b905600a165627a7a72305820128ad467b94e4097baf594f0d3b66615f2563c4b5094c1428d20a9e054e6059f0029",
  "source": "pragma solidity ^0.4.24;\n\nimport \"openzeppelin-solidity/contracts/utils/ReentrancyGuard.sol\";\nimport \"./abstract/BallotEnums.sol\";\nimport \"./abstract/EnvConstants.sol\";\nimport \"./interface/IBallotStorage.sol\";\nimport \"./interface/IEnvStorage.sol\";\nimport \"./interface/IStaking.sol\";\nimport \"./Gov.sol\";\n\n\ncontract GovImp is Gov, ReentrancyGuard, BallotEnums, EnvConstants {\n    using SafeMath for uint256;\n\n    event MemberAdded(address indexed addr);\n    event MemberRemoved(address indexed addr);\n    event MemberChanged(address indexed oldAddr, address indexed newAddr);\n    event EnvChanged(bytes32 envName, uint256 envType, bytes envVal);\n\n    function addProposalToAddMember(\n        address member,\n        bytes enode,\n        bytes ip,\n        uint port,\n        uint256 lockAmount,\n        bytes memo\n    )\n        external\n        onlyGovMem\n        returns (uint256 ballotIdx)\n    {\n        require(msg.sender != member, \"Cannot add self\");\n        require(!isMember(member), \"Already member\");\n\n        ballotIdx = ballotLength.add(1);\n        createBallotForMemeber(\n            ballotIdx, // ballot id\n            uint256(BallotTypes.MemberAdd), // ballot type\n            msg.sender, // creator\n            address(0), // old member address\n            member, // new member address\n            enode, // new enode\n            ip, // new ip\n            port // new port\n        );\n        updateBallotLock(ballotIdx, lockAmount);\n        updateBallotMemo(ballotIdx, memo);\n        ballotLength = ballotIdx;\n    }\n\n    function addProposalToRemoveMember(\n        address member,\n        uint256 lockAmount,\n        bytes memo\n    )\n        external\n        onlyGovMem\n        returns (uint256 ballotIdx)\n    {\n        require(isMember(member), \"Non-member\");\n        require(getMemberLength() > 1, \"Cannot remove a sole member\");\n\n        ballotIdx = ballotLength.add(1);\n        createBallotForMemeber(\n            ballotIdx, // ballot id\n            uint256(BallotTypes.MemberRemoval), // ballot type\n            msg.sender, // creator\n            member, // old member address\n            address(0), // new member address\n            new bytes(0), // new enode\n            new bytes(0), // new ip\n            0 // new port\n        );\n        updateBallotLock(ballotIdx, lockAmount);\n        updateBallotMemo(ballotIdx, memo);\n        ballotLength = ballotIdx;\n    }\n\n    function addProposalToChangeMember(\n        address target,\n        address nMember,\n        bytes nEnode,\n        bytes nIp,\n        uint nPort,\n        uint256 lockAmount,\n        bytes memo\n    )\n        external\n        onlyGovMem\n        returns (uint256 ballotIdx)\n    {\n        require(isMember(target), \"Non-member\");\n\n        ballotIdx = ballotLength.add(1);\n        createBallotForMemeber(\n            ballotIdx, // ballot id\n            uint256(BallotTypes.MemberChange), // ballot type\n            msg.sender, // creator\n            target, // old member address\n            nMember, // new member address\n            nEnode, // new enode\n            nIp, // new ip\n            nPort // new port\n        );\n        updateBallotLock(ballotIdx, lockAmount);\n        updateBallotMemo(ballotIdx, memo);\n        ballotLength = ballotIdx;\n    }\n\n    function addProposalToChangeGov(\n        address newGovAddr,\n        bytes memo\n    )\n        external\n        onlyGovMem\n        returns (uint256 ballotIdx)\n    {\n        require(newGovAddr != address(0), \"Implementation cannot be zero\");\n        require(newGovAddr != implementation(), \"Same contract address\");\n\n        ballotIdx = ballotLength.add(1);\n        IBallotStorage(getBallotStorageAddress()).createBallotForAddress(\n            ballotLength.add(1), // ballot id\n            uint256(BallotTypes.GovernanceChange), // ballot type\n            msg.sender, // creator\n            newGovAddr // new governance address\n        );\n        updateBallotMemo(ballotIdx, memo);\n        ballotLength = ballotIdx;\n    }\n\n    function addProposalToChangeEnv(\n        bytes32 envName,\n        uint256 envType,\n        bytes envVal,\n        bytes memo\n    )\n        external\n        onlyGovMem\n        returns (uint256 ballotIdx)\n    {\n        require(uint256(VariableTypes.Int) <= envType && envType <= uint256(VariableTypes.String), \"Invalid type\");\n\n        ballotIdx = ballotLength.add(1);\n        IBallotStorage(getBallotStorageAddress()).createBallotForVariable(\n            ballotIdx, // ballot id\n            uint256(BallotTypes.EnvValChange), // ballot type\n            msg.sender, // creator\n            envName, // env name\n            envType, // env type\n            envVal // env value\n        );\n        updateBallotMemo(ballotIdx, memo);\n        ballotLength = ballotIdx;\n    }\n\n    function vote(uint256 ballotIdx, bool approval) external onlyGovMem nonReentrant {\n        // Check if some ballot is in progress\n        checkUnfinalized(ballotIdx);\n\n        // Check if the ballot can be voted\n        uint256 ballotType = checkVotable(ballotIdx);\n\n        // Vote\n        createVote(ballotIdx, approval);\n\n        // Finalize\n        (, uint256 accept, uint256 reject) = getBallotVotingInfo(ballotIdx);\n        if (accept < getThreshould() && reject < getThreshould()) {\n            return;\n        }\n        finalizeVote(ballotIdx, ballotType, accept > reject);\n    }\n\n    function getMinStaking() public view returns (uint256) {\n        return IEnvStorage(getEnvStorageAddress()).getStakingMin();\n    }\n\n    function getMaxStaking() public view returns (uint256) {\n        return IEnvStorage(getEnvStorageAddress()).getStakingMax();\n    }\n\n    function getMinVotingDuration() public view returns (uint256) {\n        return IEnvStorage(getEnvStorageAddress()).getBallotDurationMin();\n    }\n    \n    function getMaxVotingDuration() public view returns (uint256) {\n        return IEnvStorage(getEnvStorageAddress()).getBallotDurationMax();\n    }\n\n    function getThreshould() public pure returns (uint256) { return 5100; } // 51% from 5100 of 10000\n\n    function checkUnfinalized(uint256 ballotIdx) private {\n        if (ballotInVoting != 0) {\n            (, uint256 state, ) = getBallotState(ballotInVoting);\n            (, uint256 endTime, ) = getBallotPeriod(ballotInVoting);\n            if (state == uint256(BallotStates.InProgress)) {\n                if (endTime < block.timestamp) {\n                    finalizeBallot(ballotIdx, uint256(BallotStates.Rejected));\n                    ballotInVoting = 0;\n                    if (ballotIdx == ballotInVoting) {\n                        return;\n                    }\n                } else if (ballotIdx != ballotInVoting) {\n                    revert(\"Now in voting with different ballot\");\n                }\n            }\n        }\n    }\n\n    function checkVotable(uint256 ballotIdx) private returns (uint256) {\n        (uint256 ballotType, uint256 state, ) = getBallotState(ballotIdx);\n        if (state == uint256(BallotStates.Ready)) {\n            (, , uint256 duration) = getBallotPeriod(ballotIdx);\n            if (duration < getMinVotingDuration()) {\n                startBallot(ballotIdx, block.timestamp, block.timestamp + getMinVotingDuration());\n            } else if (getMaxVotingDuration() < duration) {\n                startBallot(ballotIdx, block.timestamp, block.timestamp + getMaxVotingDuration());\n            } else {\n                startBallot(ballotIdx, block.timestamp, block.timestamp + duration);\n            }\n            ballotInVoting = ballotIdx;\n        } else if (state == uint256(BallotStates.InProgress)) {\n            // Nothing to do\n        } else {\n            revert(\"Expired\");\n        }\n        return ballotType;\n    }\n\n    function createVote(uint256 ballotIdx, bool approval) private {\n        uint256 voteIdx = voteLength.add(1);\n        uint256 weight = IStaking(getStakingAddress()).calcVotingWeightWithScaleFactor(msg.sender, 1e4);\n        if (approval) {\n            IBallotStorage(getBallotStorageAddress()).createVote(\n                voteIdx,\n                ballotIdx,\n                msg.sender,\n                uint256(DecisionTypes.Accept),\n                weight\n            );\n        } else {\n            IBallotStorage(getBallotStorageAddress()).createVote(\n                voteIdx,\n                ballotIdx,\n                msg.sender,\n                uint256(DecisionTypes.Reject),\n                weight\n            );\n        }\n        voteLength = voteIdx;\n    }\n\n    function finalizeVote(uint256 ballotIdx, uint256 ballotType, bool isAccepted) private {\n        uint256 ballotState = uint256(BallotStates.Rejected);\n        if (isAccepted) {\n            if (ballotType == uint256(BallotTypes.MemberAdd)) {\n                addMember(ballotIdx);\n            } else if (ballotType == uint256(BallotTypes.MemberRemoval)) {\n                removeMember(ballotIdx);\n            } else if (ballotType == uint256(BallotTypes.MemberChange)) {\n                changeMember(ballotIdx);\n            } else if (ballotType == uint256(BallotTypes.GovernanceChange)) {\n                changeGov(ballotIdx);\n            } else if (ballotType == uint256(BallotTypes.EnvValChange)) {\n                applyEnv(ballotIdx);\n            }\n            ballotState = uint256(BallotStates.Accepted);\n        }\n        finalizeBallot(ballotIdx, ballotState);\n        ballotInVoting = 0;\n    }\n\n    function fromValidBallot(uint256 ballotIdx, uint256 targetType) private view {\n        (uint256 ballotType, uint256 state, ) = getBallotState(ballotIdx);\n        require(ballotType == targetType, \"Invalid voting type\");\n        require(state == uint(BallotStates.InProgress), \"Invalid voting state\");\n        (, uint256 accept, uint256 reject) = getBallotVotingInfo(ballotIdx);\n        require(accept >= getThreshould() || reject >= getThreshould(), \"Not yet finalized\");\n    }\n\n    function addMember(uint256 ballotIdx) private {\n        fromValidBallot(ballotIdx, uint256(BallotTypes.MemberAdd));\n\n        (\n            , address addr,\n            bytes memory enode,\n            bytes memory ip,\n            uint port,\n            uint256 lockAmount\n        ) = getBallotMember(ballotIdx);\n        if (isMember(addr)) {\n            return; // Already member. it is abnormal case\n        }\n\n        // Lock\n        require(getMinStaking() <= lockAmount && lockAmount <= getMaxStaking(), \"Invalid lock amount\");\n        lock(addr, lockAmount);\n\n        // Add voting and reward member\n        uint256 nMemIdx = memberLength.add(1);\n        members[nMemIdx] = addr;\n        memberIdx[addr] = nMemIdx;\n        rewards[nMemIdx] = addr;\n        rewardIdx[addr] = nMemIdx;\n\n        // Add node\n        uint256 nNodeIdx = nodeLength.add(1);\n        Node storage node = nodes[nNodeIdx];\n        node.enode = enode;\n        node.ip = ip;\n        node.port = port;\n        nodeToMember[nNodeIdx] = addr;\n        nodeIdxFromMember[addr] = nNodeIdx;\n\n        memberLength = nMemIdx;\n        nodeLength = nNodeIdx;\n\n        emit MemberAdded(addr);\n    }\n\n    function removeMember(uint256 ballotIdx) private {\n        fromValidBallot(ballotIdx, uint256(BallotTypes.MemberRemoval));\n\n        (address addr, , , , , uint256 unlockAmount) = getBallotMember(ballotIdx);\n        if (!isMember(addr)) {\n            return; // Non-member. it is abnormal case\n        }\n\n        // Remove voting and reward member\n        if (memberIdx[addr] != memberLength) {\n            (members[memberIdx[addr]], members[memberLength]) = (members[memberLength], members[memberIdx[addr]]);\n            (rewards[memberIdx[addr]], rewards[memberLength]) = (rewards[memberLength], rewards[memberIdx[addr]]);\n        }\n        members[memberLength] = address(0);\n        memberIdx[addr] = 0;\n        rewards[memberLength] = address(0);\n        rewardIdx[rewards[memberLength]] = 0;\n        memberLength = memberLength.sub(1);\n\n        // Remove node\n        if (nodeIdxFromMember[addr] != nodeLength) {\n            Node storage node = nodes[nodeIdxFromMember[addr]];\n            node.enode = nodes[nodeLength].enode;\n            node.ip = nodes[nodeLength].ip;\n            node.port = nodes[nodeLength].port;\n        }\n        nodeToMember[nodeLength] = address(0);\n        nodeIdxFromMember[addr] = 0;\n        nodeLength = nodeLength.sub(1);\n\n        // Unlock and transfer remained to governance\n        transferLockedAndUnlock(addr, unlockAmount);\n\n        emit MemberRemoved(addr);\n    }\n\n    function changeMember(uint256 ballotIdx) private {\n        fromValidBallot(ballotIdx, uint256(BallotTypes.MemberChange));\n        \n        (\n            address addr,\n            address nAddr,\n            bytes memory enode,\n            bytes memory ip,\n            uint port,\n            uint256 lockAmount\n        ) = getBallotMember(ballotIdx);\n        if (!isMember(addr)) {\n            return; // Non-member. it is abnormal case\n        }\n\n        if (addr != nAddr) {\n            // Lock\n            require(getMinStaking() <= lockAmount && lockAmount <= getMaxStaking(), \"Invalid lock amount\");\n            lock(nAddr, lockAmount);\n\n            // Change member\n            members[memberIdx[addr]] = nAddr;\n            memberIdx[nAddr] = memberIdx[addr];\n            rewards[memberIdx[addr]] = nAddr;\n            rewardIdx[nAddr] = rewardIdx[addr];\n            memberIdx[addr] = 0;\n        }\n\n        // Change node\n        uint256 nodeIdx = nodeIdxFromMember[addr];\n        Node storage node = nodes[nodeIdx];\n        node.enode = enode;\n        node.ip = ip;\n        node.port = port;\n        if (addr != nAddr) {\n            nodeToMember[nodeIdx] = nAddr;\n            nodeIdxFromMember[nAddr] = nodeIdx;\n            nodeIdxFromMember[addr] = 0;\n\n            // Unlock and transfer remained to governance\n            transferLockedAndUnlock(addr, lockAmount);\n\n            emit MemberChanged(addr, nAddr);\n        }\n    }\n\n    function changeGov(uint256 ballotIdx) private {\n        fromValidBallot(ballotIdx, uint256(BallotTypes.GovernanceChange));\n\n        address newImp = IBallotStorage(getBallotStorageAddress()).getBallotAddress(ballotIdx);\n        if (newImp != address(0)) {\n            setImplementation(newImp);\n        }\n    }\n\n    function applyEnv(uint256 ballotIdx) private {\n        fromValidBallot(ballotIdx, uint256(BallotTypes.EnvValChange));\n\n        (\n            bytes32 envKey,\n            uint256 envType,\n            bytes memory envVal\n        ) = IBallotStorage(getBallotStorageAddress()).getBallotVariable(ballotIdx);\n\n        IEnvStorage envStorage = IEnvStorage(getEnvStorageAddress());\n        if (envKey == BLOCK_PER_NAME && envType == BLOCK_PER_TYPE) {\n            envStorage.setBlockPerByBytes(envVal);\n        } else if (envKey == BALLOT_DURATION_MIN_NAME && envType == BALLOT_DURATION_MIN_TYPE) {\n            envStorage.setBallotDurationMinByBytes(envVal);\n        } else if (envKey == BALLOT_DURATION_MAX_NAME && envType == BALLOT_DURATION_MAX_TYPE) {\n            envStorage.setBallotDurationMaxByBytes(envVal);\n        } else if (envKey == STAKING_MIN_NAME && envType == STAKING_MIN_TYPE) {\n            envStorage.setStakingMinByBytes(envVal);\n        } else if (envKey == STAKING_MAX_NAME && envType == STAKING_MAX_TYPE) {\n            envStorage.setStakingMaxByBytes(envVal);\n        }\n\n        emit EnvChanged(envKey, envType, envVal);\n    }\n\n    //------------------ Code reduction for creation gas\n    function createBallotForMemeber(\n        uint256 id,\n        uint256 bType,\n        address creator,\n        address oAddr,\n        address nAddr,\n        bytes enode,\n        bytes ip,\n        uint port\n    )\n        private\n    {\n        IBallotStorage(getBallotStorageAddress()).createBallotForMemeber(\n            id, // ballot id\n            bType, // ballot type\n            creator, // creator\n            oAddr, // old member address\n            nAddr, // new member address\n            enode, // new enode\n            ip, // new ip\n            port // new port\n        );\n    }\n\n    function updateBallotLock(uint256 id, uint256 amount) private {\n        IBallotStorage(getBallotStorageAddress()).updateBallotMemberLockAmount(id, amount);\n    }\n\n    function updateBallotMemo(uint256 id, bytes memo) private {\n        IBallotStorage(getBallotStorageAddress()).updateBallotMemo(id, memo);\n    }\n\n    function startBallot(uint256 id, uint256 s, uint256 e) private {\n        IBallotStorage(getBallotStorageAddress()).startBallot(id, s, e);\n    }\n\n    function finalizeBallot(uint256 id, uint256 state) private {\n        IBallotStorage(getBallotStorageAddress()).finalizeBallot(id, state);\n    }\n\n    function getBallotState(uint256 id) private view returns (uint256, uint256, bool) {\n        return IBallotStorage(getBallotStorageAddress()).getBallotState(id);\n    }\n\n    function getBallotPeriod(uint256 id) private view returns (uint256, uint256, uint256) {\n        return IBallotStorage(getBallotStorageAddress()).getBallotPeriod(id);\n    }\n\n    function getBallotVotingInfo(uint256 id) private view returns (uint256, uint256, uint256) {\n        return IBallotStorage(getBallotStorageAddress()).getBallotVotingInfo(id);\n    }\n\n    function getBallotMember(uint256 id) private view returns (address, address, bytes, bytes, uint256, uint256) {\n        return IBallotStorage(getBallotStorageAddress()).getBallotMember(id);\n    }\n\n    function lock(address addr, uint256 amount) private {\n        IStaking(getStakingAddress()).lock(addr, amount);\n    }\n\n    function unlock(address addr, uint256 amount) private {\n        IStaking(getStakingAddress()).unlock(addr, amount);\n    }\n\n    function transferLockedAndUnlock(address addr, uint256 unlockAmount) private {\n        IStaking staking = IStaking(getStakingAddress());\n        uint256 locked = staking.lockedBalanceOf(addr);\n        if (locked > unlockAmount) {\n            staking.transferLocked(addr, locked.sub(unlockAmount));\n        }\n        staking.unlock(addr, unlockAmount);\n    }\n    //------------------ Code reduction end\n}",
  "sourcePath": "/Users/ywshin/Documents/WS/truffle/governance-contract-blueisle/contracts/GovImp.sol",
  "compiler": {
    "name": "solc",
    "version": "0.4.24+commit.e67f0147.Emscripten.clang"
  },
  "schemaVersion": "2.0.1",
  "updatedAt": "2019-02-12T02:28:42.369Z"
}