{
  "contractName": "GovImp",
  "abi": [
    {
      "constant": true,
      "inputs": [
        {
          "name": "idx",
          "type": "uint256"
        }
      ],
      "name": "getMemberFromNodeIdx",
      "outputs": [
        {
          "name": "",
          "type": "address"
        }
      ],
      "payable": false,
      "stateMutability": "view",
      "type": "function"
    },
    {
      "constant": true,
      "inputs": [
        {
          "name": "idx",
          "type": "uint256"
        }
      ],
      "name": "getReward",
      "outputs": [
        {
          "name": "",
          "type": "address"
        }
      ],
      "payable": false,
      "stateMutability": "view",
      "type": "function"
    },
    {
      "constant": true,
      "inputs": [],
      "name": "STAKING_NAME",
      "outputs": [
        {
          "name": "",
          "type": "bytes32"
        }
      ],
      "payable": false,
      "stateMutability": "view",
      "type": "function"
    },
    {
      "constant": true,
      "inputs": [
        {
          "name": "idx",
          "type": "uint256"
        }
      ],
      "name": "getNode",
      "outputs": [
        {
          "name": "enode",
          "type": "bytes"
        },
        {
          "name": "ip",
          "type": "bytes"
        },
        {
          "name": "port",
          "type": "uint256"
        }
      ],
      "payable": false,
      "stateMutability": "view",
      "type": "function"
    },
    {
      "constant": true,
      "inputs": [],
      "name": "implementation",
      "outputs": [
        {
          "name": "impl",
          "type": "address"
        }
      ],
      "payable": false,
      "stateMutability": "view",
      "type": "function"
    },
    {
      "constant": true,
      "inputs": [],
      "name": "GOV_NAME",
      "outputs": [
        {
          "name": "",
          "type": "bytes32"
        }
      ],
      "payable": false,
      "stateMutability": "view",
      "type": "function"
    },
    {
      "constant": false,
      "inputs": [],
      "name": "renounceOwnership",
      "outputs": [],
      "payable": false,
      "stateMutability": "nonpayable",
      "type": "function"
    },
    {
      "constant": true,
      "inputs": [],
      "name": "getNodeLength",
      "outputs": [
        {
          "name": "",
          "type": "uint256"
        }
      ],
      "payable": false,
      "stateMutability": "view",
      "type": "function"
    },
    {
      "constant": true,
      "inputs": [],
      "name": "reg",
      "outputs": [
        {
          "name": "",
          "type": "address"
        }
      ],
      "payable": false,
      "stateMutability": "view",
      "type": "function"
    },
    {
      "constant": true,
      "inputs": [],
      "name": "ENV_STORAGE_NAME",
      "outputs": [
        {
          "name": "",
          "type": "bytes32"
        }
      ],
      "payable": false,
      "stateMutability": "view",
      "type": "function"
    },
    {
      "constant": true,
      "inputs": [],
      "name": "owner",
      "outputs": [
        {
          "name": "",
          "type": "address"
        }
      ],
      "payable": false,
      "stateMutability": "view",
      "type": "function"
    },
    {
      "constant": true,
      "inputs": [],
      "name": "isOwner",
      "outputs": [
        {
          "name": "",
          "type": "bool"
        }
      ],
      "payable": false,
      "stateMutability": "view",
      "type": "function"
    },
    {
      "constant": true,
      "inputs": [],
      "name": "BALLOT_STORAGE_NAME",
      "outputs": [
        {
          "name": "",
          "type": "bytes32"
        }
      ],
      "payable": false,
      "stateMutability": "view",
      "type": "function"
    },
    {
      "constant": true,
      "inputs": [
        {
          "name": "addr",
          "type": "address"
        }
      ],
      "name": "isMember",
      "outputs": [
        {
          "name": "",
          "type": "bool"
        }
      ],
      "payable": false,
      "stateMutability": "view",
      "type": "function"
    },
    {
      "constant": false,
      "inputs": [
        {
          "name": "_addr",
          "type": "address"
        }
      ],
      "name": "setRegistry",
      "outputs": [],
      "payable": false,
      "stateMutability": "nonpayable",
      "type": "function"
    },
    {
      "constant": true,
      "inputs": [
        {
          "name": "idx",
          "type": "uint256"
        }
      ],
      "name": "getMember",
      "outputs": [
        {
          "name": "",
          "type": "address"
        }
      ],
      "payable": false,
      "stateMutability": "view",
      "type": "function"
    },
    {
      "constant": true,
      "inputs": [
        {
          "name": "addr",
          "type": "address"
        }
      ],
      "name": "getNodeIdxFromMember",
      "outputs": [
        {
          "name": "",
          "type": "uint256"
        }
      ],
      "payable": false,
      "stateMutability": "view",
      "type": "function"
    },
    {
      "constant": true,
      "inputs": [],
      "name": "ballotLength",
      "outputs": [
        {
          "name": "",
          "type": "uint256"
        }
      ],
      "payable": false,
      "stateMutability": "view",
      "type": "function"
    },
    {
      "constant": true,
      "inputs": [],
      "name": "getMemberLength",
      "outputs": [
        {
          "name": "",
          "type": "uint256"
        }
      ],
      "payable": false,
      "stateMutability": "view",
      "type": "function"
    },
    {
      "constant": true,
      "inputs": [],
      "name": "getBallotInVoting",
      "outputs": [
        {
          "name": "",
          "type": "uint256"
        }
      ],
      "payable": false,
      "stateMutability": "view",
      "type": "function"
    },
    {
      "constant": false,
      "inputs": [
        {
          "name": "registry",
          "type": "address"
        },
        {
          "name": "implementation",
          "type": "address"
        },
        {
          "name": "lockAmount",
          "type": "uint256"
        },
        {
          "name": "enode",
          "type": "bytes"
        },
        {
          "name": "ip",
          "type": "bytes"
        },
        {
          "name": "port",
          "type": "uint256"
        }
      ],
      "name": "init",
      "outputs": [],
      "payable": false,
      "stateMutability": "nonpayable",
      "type": "function"
    },
    {
      "constant": true,
      "inputs": [],
      "name": "voteLength",
      "outputs": [
        {
          "name": "",
          "type": "uint256"
        }
      ],
      "payable": false,
      "stateMutability": "view",
      "type": "function"
    },
    {
      "constant": false,
      "inputs": [
        {
          "name": "newOwner",
          "type": "address"
        }
      ],
      "name": "transferOwnership",
      "outputs": [],
      "payable": false,
      "stateMutability": "nonpayable",
      "type": "function"
    },
    {
      "payable": true,
      "stateMutability": "payable",
      "type": "fallback"
    },
    {
      "anonymous": false,
      "inputs": [
        {
          "indexed": true,
          "name": "addr",
          "type": "address"
        }
      ],
      "name": "MemberAdded",
      "type": "event"
    },
    {
      "anonymous": false,
      "inputs": [
        {
          "indexed": true,
          "name": "addr",
          "type": "address"
        }
      ],
      "name": "MemberRemoved",
      "type": "event"
    },
    {
      "anonymous": false,
      "inputs": [
        {
          "indexed": true,
          "name": "oldAddr",
          "type": "address"
        },
        {
          "indexed": true,
          "name": "newAddr",
          "type": "address"
        }
      ],
      "name": "MemberChanged",
      "type": "event"
    },
    {
      "anonymous": false,
      "inputs": [
        {
          "indexed": false,
          "name": "envName",
          "type": "bytes32"
        },
        {
          "indexed": false,
          "name": "envType",
          "type": "uint256"
        },
        {
          "indexed": false,
          "name": "envVal",
          "type": "bytes"
        }
      ],
      "name": "EnvChanged",
      "type": "event"
    },
    {
      "anonymous": false,
      "inputs": [
        {
          "indexed": true,
          "name": "previousOwner",
          "type": "address"
        },
        {
          "indexed": true,
          "name": "newOwner",
          "type": "address"
        }
      ],
      "name": "OwnershipTransferred",
      "type": "event"
    },
    {
      "anonymous": false,
      "inputs": [
        {
          "indexed": true,
          "name": "implementation",
          "type": "address"
        }
      ],
      "name": "Upgraded",
      "type": "event"
    },
    {
      "constant": false,
      "inputs": [
        {
          "name": "member",
          "type": "address"
        },
        {
          "name": "enode",
          "type": "bytes"
        },
        {
          "name": "ip",
          "type": "bytes"
        },
        {
          "name": "port",
          "type": "uint256"
        },
        {
          "name": "lockAmount",
          "type": "uint256"
        }
      ],
      "name": "addProposalToAddMember",
      "outputs": [
        {
          "name": "ballotIdx",
          "type": "uint256"
        }
      ],
      "payable": false,
      "stateMutability": "nonpayable",
      "type": "function"
    },
    {
      "constant": false,
      "inputs": [
        {
          "name": "member",
          "type": "address"
        },
        {
          "name": "lockAmount",
          "type": "uint256"
        }
      ],
      "name": "addProposalToRemoveMember",
      "outputs": [
        {
          "name": "ballotIdx",
          "type": "uint256"
        }
      ],
      "payable": false,
      "stateMutability": "nonpayable",
      "type": "function"
    },
    {
      "constant": false,
      "inputs": [
        {
          "name": "target",
          "type": "address"
        },
        {
          "name": "nMember",
          "type": "address"
        },
        {
          "name": "nEnode",
          "type": "bytes"
        },
        {
          "name": "nIp",
          "type": "bytes"
        },
        {
          "name": "nPort",
          "type": "uint256"
        },
        {
          "name": "lockAmount",
          "type": "uint256"
        }
      ],
      "name": "addProposalToChangeMember",
      "outputs": [
        {
          "name": "ballotIdx",
          "type": "uint256"
        }
      ],
      "payable": false,
      "stateMutability": "nonpayable",
      "type": "function"
    },
    {
      "constant": false,
      "inputs": [
        {
          "name": "newGovAddr",
          "type": "address"
        }
      ],
      "name": "addProposalToChangeGov",
      "outputs": [
        {
          "name": "ballotIdx",
          "type": "uint256"
        }
      ],
      "payable": false,
      "stateMutability": "nonpayable",
      "type": "function"
    },
    {
      "constant": false,
      "inputs": [
        {
          "name": "envName",
          "type": "bytes32"
        },
        {
          "name": "envType",
          "type": "uint256"
        },
        {
          "name": "envVal",
          "type": "bytes"
        }
      ],
      "name": "addProposalToChangeEnv",
      "outputs": [
        {
          "name": "ballotIdx",
          "type": "uint256"
        }
      ],
      "payable": false,
      "stateMutability": "nonpayable",
      "type": "function"
    },
    {
      "constant": false,
      "inputs": [
        {
          "name": "ballotIdx",
          "type": "uint256"
        },
        {
          "name": "approval",
          "type": "bool"
        }
      ],
      "name": "vote",
      "outputs": [],
      "payable": false,
      "stateMutability": "nonpayable",
      "type": "function"
    },
    {
      "constant": true,
      "inputs": [],
      "name": "getMinStaking",
      "outputs": [
        {
          "name": "",
          "type": "uint256"
        }
      ],
      "payable": false,
      "stateMutability": "view",
      "type": "function"
    },
    {
      "constant": true,
      "inputs": [],
      "name": "getMaxStaking",
      "outputs": [
        {
          "name": "",
          "type": "uint256"
        }
      ],
      "payable": false,
      "stateMutability": "view",
      "type": "function"
    },
    {
      "constant": true,
      "inputs": [],
      "name": "getMinVotingDuration",
      "outputs": [
        {
          "name": "",
          "type": "uint256"
        }
      ],
      "payable": false,
      "stateMutability": "view",
      "type": "function"
    },
    {
      "constant": true,
      "inputs": [],
      "name": "getMaxVotingDuration",
      "outputs": [
        {
          "name": "",
          "type": "uint256"
        }
      ],
      "payable": false,
      "stateMutability": "view",
      "type": "function"
    },
    {
      "constant": true,
      "inputs": [],
      "name": "getThreshould",
      "outputs": [
        {
          "name": "",
          "type": "uint256"
        }
      ],
      "payable": false,
      "stateMutability": "pure",
      "type": "function"
    }
  ],
  "bytecode": "0x6080604052336000806101000a81548173ffffffffffffffffffffffffffffffffffffffff021916908373ffffffffffffffffffffffffffffffffffffffff1602179055506000809054906101000a900473ffffffffffffffffffffffffffffffffffffffff1673ffffffffffffffffffffffffffffffffffffffff16600073ffffffffffffffffffffffffffffffffffffffff167f8be0079c531659141344cd1fd0a4f28419497f9722a3daafe3b4186f6b6457e060405160405180910390a36000600160146101000a81548160ff02191690831515021790555060006004819055506000600a819055506000600b819055506000600c819055506000600d819055506001600e81905550615feb8061011a6000396000f3006080604052600436106101ac576000357c0100000000000000000000000000000000000000000000000000000000900463ffffffff168063135889211461021b57806315bf6b4d146102d657806316190226146103435780631aee05e91461039a5780631c150171146103c55780631c4b774b146103f05780631e0cba0d1461045d578063442be100146104905780634f0f4aa91461052b5780635aaa4040146106445780635c60da1b1461066f5780636c78d2cf146106c6578063715018a6146106f957806372016f7514610710578063738fdd1a1461073b5780637bf4653014610792578063874a65ba146107c55780638da5cb5b146108265780638f32d59b1461087d5780639986e4b9146108ac5780639b363c3b146108df578063a230c52414610946578063a91ee0dc146109a1578063ab3545e5146109e4578063af6af2ff14610a51578063c9d27afe14610a7c578063ce04b9d414610ab5578063ce6a54ff14610ae0578063d6f9cfce14610b37578063d965ea0014610b62578063de09b37714610b8d578063e4df5ea914610bb8578063e9523fb514610cbb578063f2fde38b14610ce6575b60006101b6610d29565b9050600073ffffffffffffffffffffffffffffffffffffffff168173ffffffffffffffffffffffffffffffffffffffff16141515156101f457600080fd5b60405136600082376000803683855af43d806000843e8160008114610217578184f35b8184fd5b34801561022757600080fd5b506102c0600480360381019080803573ffffffffffffffffffffffffffffffffffffffff169060200190929190803573ffffffffffffffffffffffffffffffffffffffff1690602001909291908035906020019082018035906020019190919293919293908035906020019082018035906020019190919293919293908035906020019092919080359060200190929190505050610d92565b6040518082815260200191505060405180910390f35b3480156102e257600080fd5b5061030160048036038101908080359060200190929190505050611040565b604051808273ffffffffffffffffffffffffffffffffffffffff1673ffffffffffffffffffffffffffffffffffffffff16815260200191505060405180910390f35b34801561034f57600080fd5b50610384600480360381019080803573ffffffffffffffffffffffffffffffffffffffff16906020019092919050505061107d565b6040518082815260200191505060405180910390f35b3480156103a657600080fd5b506103af6114b0565b6040518082815260200191505060405180910390f35b3480156103d157600080fd5b506103da6114ba565b6040518082815260200191505060405180910390f35b3480156103fc57600080fd5b5061041b60048036038101908080359060200190929190505050611567565b604051808273ffffffffffffffffffffffffffffffffffffffff1673ffffffffffffffffffffffffffffffffffffffff16815260200191505060405180910390f35b34801561046957600080fd5b506104726115a4565b60405180826000191660001916815260200191505060405180910390f35b34801561049c57600080fd5b50610515600480360381019080803573ffffffffffffffffffffffffffffffffffffffff16906020019092919080359060200190820180359060200191909192939192939080359060200190820180359060200191909192939192939080359060200190929190803590602001909291905050506115c8565b6040518082815260200191505060405180910390f35b34801561053757600080fd5b506105566004803603810190808035906020019092919050505061191b565b604051808060200180602001848152602001838103835286818151815260200191508051906020019080838360005b838110156105a0578082015181840152602081019050610585565b50505050905090810190601f1680156105cd5780820380516001836020036101000a031916815260200191505b50838103825285818151815260200191508051906020019080838360005b838110156106065780820151818401526020810190506105eb565b50505050905090810190601f1680156106335780820380516001836020036101000a031916815260200191505b509550505050505060405180910390f35b34801561065057600080fd5b50610659611aa8565b6040518082815260200191505060405180910390f35b34801561067b57600080fd5b50610684610d29565b604051808273ffffffffffffffffffffffffffffffffffffffff1673ffffffffffffffffffffffffffffffffffffffff16815260200191505060405180910390f35b3480156106d257600080fd5b506106db611b55565b60405180826000191660001916815260200191505060405180910390f35b34801561070557600080fd5b5061070e611b79565b005b34801561071c57600080fd5b50610725611c4b565b6040518082815260200191505060405180910390f35b34801561074757600080fd5b50610750611c55565b604051808273ffffffffffffffffffffffffffffffffffffffff1673ffffffffffffffffffffffffffffffffffffffff16815260200191505060405180910390f35b34801561079e57600080fd5b506107a7611c7b565b60405180826000191660001916815260200191505060405180910390f35b3480156107d157600080fd5b50610810600480360381019080803573ffffffffffffffffffffffffffffffffffffffff16906020019092919080359060200190929190505050611c9f565b6040518082815260200191505060405180910390f35b34801561083257600080fd5b5061083b611fcb565b604051808273ffffffffffffffffffffffffffffffffffffffff1673ffffffffffffffffffffffffffffffffffffffff16815260200191505060405180910390f35b34801561088957600080fd5b50610892611ff4565b604051808215151515815260200191505060405180910390f35b3480156108b857600080fd5b506108c161204b565b60405180826000191660001916815260200191505060405180910390f35b3480156108eb57600080fd5b5061093060048036038101908080356000191690602001909291908035906020019092919080359060200190820180359060200191909192939192939050505061206f565b6040518082815260200191505060405180910390f35b34801561095257600080fd5b50610987600480360381019080803573ffffffffffffffffffffffffffffffffffffffff1690602001909291905050506123e0565b604051808215151515815260200191505060405180910390f35b3480156109ad57600080fd5b506109e2600480360381019080803573ffffffffffffffffffffffffffffffffffffffff16906020019092919050505061242c565b005b3480156109f057600080fd5b50610a0f60048036038101908080359060200190929190505050612483565b604051808273ffffffffffffffffffffffffffffffffffffffff1673ffffffffffffffffffffffffffffffffffffffff16815260200191505060405180910390f35b348015610a5d57600080fd5b50610a666124c0565b6040518082815260200191505060405180910390f35b348015610a8857600080fd5b50610ab36004803603810190808035906020019092919080351515906020019092919050505061256d565b005b348015610ac157600080fd5b50610aca612753565b6040518082815260200191505060405180910390f35b348015610aec57600080fd5b50610b21600480360381019080803573ffffffffffffffffffffffffffffffffffffffff169060200190929190505050612800565b6040518082815260200191505060405180910390f35b348015610b4357600080fd5b50610b4c612849565b6040518082815260200191505060405180910390f35b348015610b6e57600080fd5b50610b7761284f565b6040518082815260200191505060405180910390f35b348015610b9957600080fd5b50610ba2612859565b6040518082815260200191505060405180910390f35b348015610bc457600080fd5b50610cb9600480360381019080803573ffffffffffffffffffffffffffffffffffffffff169060200190929190803573ffffffffffffffffffffffffffffffffffffffff16906020019092919080359060200190929190803590602001908201803590602001908080601f0160208091040260200160405190810160405280939291908181526020018383808284378201915050505050509192919290803590602001908201803590602001908080601f016020809104026020016040519081016040528093929190818152602001838380828437820191505050505050919291929080359060200190929190505050612863565b005b348015610cc757600080fd5b50610cd0612d7c565b6040518082815260200191505060405180910390f35b348015610cf257600080fd5b50610d27600480360381019080803573ffffffffffffffffffffffffffffffffffffffff169060200190929190505050612d82565b005b60008060405180807f6f72672e6d6574616469756d2e70726f78792e696d706c656d656e746174696f81526020017f6e00000000000000000000000000000000000000000000000000000000000000815250602101905060405180910390209050805491505090565b6000610d9c612da1565b73ffffffffffffffffffffffffffffffffffffffff1663a230c524336040518263ffffffff167c0100000000000000000000000000000000000000000000000000000000028152600401808273ffffffffffffffffffffffffffffffffffffffff1673ffffffffffffffffffffffffffffffffffffffff168152602001915050602060405180830381600087803b158015610e3657600080fd5b505af1158015610e4a573d6000803e3d6000fd5b505050506040513d6020811015610e6057600080fd5b81019080805190602001909291905050501515610ee5576040517f08c379a000000000000000000000000000000000000000000000000000000000815260040180806020018281038252600d8152602001807f4e6f205065726d697373696f6e0000000000000000000000000000000000000081525060200191505060405180910390fd5b60006001600e60008282540192505081905550600e549050610f068a6123e0565b1515610f7a576040517f08c379a000000000000000000000000000000000000000000000000000000000815260040180806020018281038252600a8152602001807f4e6f6e2d6d656d6265720000000000000000000000000000000000000000000081525060200191505060405180910390fd5b610f906001600b54612dd190919063ffffffff16565b91506110128260036005811115610fa357fe5b338d8d8d8d8080601f0160208091040260200160405190810160405280939291908181526020018383808284378201915050505050508c8c8080601f0160208091040260200160405190810160405280939291908181526020018383808284378201915050505050508b612df2565b61101c8284613010565b81600b81905550600e548114151561103357600080fd5b5098975050505050505050565b60006009600083815260200190815260200160002060009054906101000a900473ffffffffffffffffffffffffffffffffffffffff169050919050565b6000611087612da1565b73ffffffffffffffffffffffffffffffffffffffff1663a230c524336040518263ffffffff167c0100000000000000000000000000000000000000000000000000000000028152600401808273ffffffffffffffffffffffffffffffffffffffff1673ffffffffffffffffffffffffffffffffffffffff168152602001915050602060405180830381600087803b15801561112157600080fd5b505af1158015611135573d6000803e3d6000fd5b505050506040513d602081101561114b57600080fd5b810190808051906020019092919050505015156111d0576040517f08c379a000000000000000000000000000000000000000000000000000000000815260040180806020018281038252600d8152602001807f4e6f205065726d697373696f6e0000000000000000000000000000000000000081525060200191505060405180910390fd5b60006001600e60008282540192505081905550600e549050600073ffffffffffffffffffffffffffffffffffffffff168373ffffffffffffffffffffffffffffffffffffffff161415151561128d576040517f08c379a000000000000000000000000000000000000000000000000000000000815260040180806020018281038252601d8152602001807f496d706c656d656e746174696f6e2063616e6e6f74206265207a65726f00000081525060200191505060405180910390fd5b611295610d29565b73ffffffffffffffffffffffffffffffffffffffff168373ffffffffffffffffffffffffffffffffffffffff1614151515611338576040517f08c379a00000000000000000000000000000000000000000000000000000000081526004018080602001828103825260158152602001807f53616d6520636f6e74726163742061646472657373000000000000000000000081525060200191505060405180910390fd5b61134e6001600b54612dd190919063ffffffff16565b91506113586130aa565b73ffffffffffffffffffffffffffffffffffffffff16634a4af0136113896001600b54612dd190919063ffffffff16565b6004600581111561139657fe5b33876040518563ffffffff167c0100000000000000000000000000000000000000000000000000000000028152600401808581526020018481526020018373ffffffffffffffffffffffffffffffffffffffff1673ffffffffffffffffffffffffffffffffffffffff1681526020018273ffffffffffffffffffffffffffffffffffffffff1673ffffffffffffffffffffffffffffffffffffffff168152602001945050505050602060405180830381600087803b15801561145757600080fd5b505af115801561146b573d6000803e3d6000fd5b505050506040513d602081101561148157600080fd5b81019080805190602001909291905050505081600b81905550600e54811415156114aa57600080fd5b50919050565b60006113ec905090565b60006114c46130da565b73ffffffffffffffffffffffffffffffffffffffff166333be496e6040518163ffffffff167c0100000000000000000000000000000000000000000000000000000000028152600401602060405180830381600087803b15801561152757600080fd5b505af115801561153b573d6000803e3d6000fd5b505050506040513d602081101561155157600080fd5b8101908080519060200190929190505050905090565b60006005600083815260200190815260200160002060009054906101000a900473ffffffffffffffffffffffffffffffffffffffff169050919050565b7f5374616b696e670000000000000000000000000000000000000000000000000081565b60006115d2612da1565b73ffffffffffffffffffffffffffffffffffffffff1663a230c524336040518263ffffffff167c0100000000000000000000000000000000000000000000000000000000028152600401808273ffffffffffffffffffffffffffffffffffffffff1673ffffffffffffffffffffffffffffffffffffffff168152602001915050602060405180830381600087803b15801561166c57600080fd5b505af1158015611680573d6000803e3d6000fd5b505050506040513d602081101561169657600080fd5b8101908080519060200190929190505050151561171b576040517f08c379a000000000000000000000000000000000000000000000000000000000815260040180806020018281038252600d8152602001807f4e6f205065726d697373696f6e0000000000000000000000000000000000000081525060200191505060405180910390fd5b60006001600e60008282540192505081905550600e5490508873ffffffffffffffffffffffffffffffffffffffff163373ffffffffffffffffffffffffffffffffffffffff16141515156117d7576040517f08c379a000000000000000000000000000000000000000000000000000000000815260040180806020018281038252600f8152602001807f43616e6e6f74206164642073656c66000000000000000000000000000000000081525060200191505060405180910390fd5b6117e0896123e0565b151515611855576040517f08c379a000000000000000000000000000000000000000000000000000000000815260040180806020018281038252600e8152602001807f416c7265616479206d656d62657200000000000000000000000000000000000081525060200191505060405180910390fd5b61186b6001600b54612dd190919063ffffffff16565b91506118ee826001600581111561187e57fe5b3360008d8d8d8080601f0160208091040260200160405190810160405280939291908181526020018383808284378201915050505050508c8c8080601f0160208091040260200160405190810160405280939291908181526020018383808284378201915050505050508b612df2565b6118f88284613010565b81600b81905550600e548114151561190f57600080fd5b50979650505050505050565b606080600060076000858152602001908152602001600020600001600760008681526020019081526020016000206001016007600087815260200190815260200160002060020154828054600181600116156101000203166002900480601f0160208091040260200160405190810160405280929190818152602001828054600181600116156101000203166002900480156119f85780601f106119cd576101008083540402835291602001916119f8565b820191906000526020600020905b8154815290600101906020018083116119db57829003601f168201915b50505050509250818054600181600116156101000203166002900480601f016020809104026020016040519081016040528092919081815260200182805460018160011615610100020316600290048015611a945780601f10611a6957610100808354040283529160200191611a94565b820191906000526020600020905b815481529060010190602001808311611a7757829003601f168201915b505050505091509250925092509193909250565b6000611ab26130da565b73ffffffffffffffffffffffffffffffffffffffff1663737c59b86040518163ffffffff167c0100000000000000000000000000000000000000000000000000000000028152600401602060405180830381600087803b158015611b1557600080fd5b505af1158015611b29573d6000803e3d6000fd5b505050506040513d6020811015611b3f57600080fd5b8101908080519060200190929190505050905090565b7f476f7665726e616e6365436f6e7472616374000000000000000000000000000081565b611b81611ff4565b1515611b8c57600080fd5b600073ffffffffffffffffffffffffffffffffffffffff166000809054906101000a900473ffffffffffffffffffffffffffffffffffffffff1673ffffffffffffffffffffffffffffffffffffffff167f8be0079c531659141344cd1fd0a4f28419497f9722a3daafe3b4186f6b6457e060405160405180910390a360008060006101000a81548173ffffffffffffffffffffffffffffffffffffffff021916908373ffffffffffffffffffffffffffffffffffffffff160217905550565b6000600a54905090565b600160009054906101000a900473ffffffffffffffffffffffffffffffffffffffff1681565b7f456e7653746f726167650000000000000000000000000000000000000000000081565b6000611ca9612da1565b73ffffffffffffffffffffffffffffffffffffffff1663a230c524336040518263ffffffff167c0100000000000000000000000000000000000000000000000000000000028152600401808273ffffffffffffffffffffffffffffffffffffffff1673ffffffffffffffffffffffffffffffffffffffff168152602001915050602060405180830381600087803b158015611d4357600080fd5b505af1158015611d57573d6000803e3d6000fd5b505050506040513d6020811015611d6d57600080fd5b81019080805190602001909291905050501515611df2576040517f08c379a000000000000000000000000000000000000000000000000000000000815260040180806020018281038252600d8152602001807f4e6f205065726d697373696f6e0000000000000000000000000000000000000081525060200191505060405180910390fd5b60006001600e60008282540192505081905550600e549050611e13846123e0565b1515611e87576040517f08c379a000000000000000000000000000000000000000000000000000000000815260040180806020018281038252600a8152602001807f4e6f6e2d6d656d6265720000000000000000000000000000000000000000000081525060200191505060405180910390fd5b6001611e9161284f565b111515611f06576040517f08c379a000000000000000000000000000000000000000000000000000000000815260040180806020018281038252601b8152602001807f43616e6e6f742072656d6f7665206120736f6c65206d656d626572000000000081525060200191505060405180910390fd5b611f1c6001600b54612dd190919063ffffffff16565b9150611fa38260026005811115611f2f57fe5b33876000806040519080825280601f01601f191660200182016040528015611f665781602001602082028038833980820191505090505b5060006040519080825280601f01601f191660200182016040528015611f9b5781602001602082028038833980820191505090505b506000612df2565b611fad8284613010565b81600b81905550600e5481141515611fc457600080fd5b5092915050565b60008060009054906101000a900473ffffffffffffffffffffffffffffffffffffffff16905090565b60008060009054906101000a900473ffffffffffffffffffffffffffffffffffffffff1673ffffffffffffffffffffffffffffffffffffffff163373ffffffffffffffffffffffffffffffffffffffff1614905090565b7f42616c6c6f7453746f726167650000000000000000000000000000000000000081565b6000612079612da1565b73ffffffffffffffffffffffffffffffffffffffff1663a230c524336040518263ffffffff167c0100000000000000000000000000000000000000000000000000000000028152600401808273ffffffffffffffffffffffffffffffffffffffff1673ffffffffffffffffffffffffffffffffffffffff168152602001915050602060405180830381600087803b15801561211357600080fd5b505af1158015612127573d6000803e3d6000fd5b505050506040513d602081101561213d57600080fd5b810190808051906020019092919050505015156121c2576040517f08c379a000000000000000000000000000000000000000000000000000000000815260040180806020018281038252600d8152602001807f4e6f205065726d697373696f6e0000000000000000000000000000000000000081525060200191505060405180910390fd5b60006001600e60008282540192505081905550600e54905084600160068111156121e857fe5b1115801561220157506006808111156121fd57fe5b8511155b1515612275576040517f08c379a000000000000000000000000000000000000000000000000000000000815260040180806020018281038252600c8152602001807f496e76616c69642074797065000000000000000000000000000000000000000081525060200191505060405180910390fd5b61228b6001600b54612dd190919063ffffffff16565b91506122956130aa565b73ffffffffffffffffffffffffffffffffffffffff16637f5b7ab3836005808111156122bd57fe5b338a8a8a8a6040518863ffffffff167c0100000000000000000000000000000000000000000000000000000000028152600401808881526020018781526020018673ffffffffffffffffffffffffffffffffffffffff1673ffffffffffffffffffffffffffffffffffffffff1681526020018560001916600019168152602001848152602001806020018281038252848482818152602001925080828437820191505098505050505050505050602060405180830381600087803b15801561238457600080fd5b505af1158015612398573d6000803e3d6000fd5b505050506040513d60208110156123ae57600080fd5b81019080805190602001909291905050505081600b81905550600e54811415156123d757600080fd5b50949350505050565b600080600360008473ffffffffffffffffffffffffffffffffffffffff1673ffffffffffffffffffffffffffffffffffffffff1681526020019081526020016000205414159050919050565b612434611ff4565b151561243f57600080fd5b80600160006101000a81548173ffffffffffffffffffffffffffffffffffffffff021916908373ffffffffffffffffffffffffffffffffffffffff16021790555050565b60006002600083815260200190815260200160002060009054906101000a900473ffffffffffffffffffffffffffffffffffffffff169050919050565b60006124ca6130da565b73ffffffffffffffffffffffffffffffffffffffff1663076cd77f6040518163ffffffff167c0100000000000000000000000000000000000000000000000000000000028152600401602060405180830381600087803b15801561252d57600080fd5b505af1158015612541573d6000803e3d6000fd5b505050506040513d602081101561255757600080fd5b8101908080519060200190929190505050905090565b600080600061257a612da1565b73ffffffffffffffffffffffffffffffffffffffff1663a230c524336040518263ffffffff167c0100000000000000000000000000000000000000000000000000000000028152600401808273ffffffffffffffffffffffffffffffffffffffff1673ffffffffffffffffffffffffffffffffffffffff168152602001915050602060405180830381600087803b15801561261457600080fd5b505af1158015612628573d6000803e3d6000fd5b505050506040513d602081101561263e57600080fd5b810190808051906020019092919050505015156126c3576040517f08c379a000000000000000000000000000000000000000000000000000000000815260040180806020018281038252600d8152602001807f4e6f205065726d697373696f6e0000000000000000000000000000000000000081525060200191505060405180910390fd5b60006001600e60008282540192505081905550600e5490506126e48661310a565b6126ed8661322d565b93506126f98686613360565b61270286613696565b935093505061270f6114b0565b8310801561272357506127206114b0565b82105b1561272d5761273b565b61273a868584861161376d565b5b600e548114151561274b57600080fd5b505050505050565b600061275d6130da565b73ffffffffffffffffffffffffffffffffffffffff16631b27e01b6040518163ffffffff167c0100000000000000000000000000000000000000000000000000000000028152600401602060405180830381600087803b1580156127c057600080fd5b505af11580156127d4573d6000803e3d6000fd5b505050506040513d60208110156127ea57600080fd5b8101908080519060200190929190505050905090565b6000600860008373ffffffffffffffffffffffffffffffffffffffff1673ffffffffffffffffffffffffffffffffffffffff168152602001908152602001600020549050919050565b600b5481565b6000600454905090565b6000600d54905090565b60008061286e611ff4565b151561287957600080fd5b60001515600160149054906101000a900460ff161515141515612904576040517f08c379a00000000000000000000000000000000000000000000000000000000081526004018080602001828103825260138152602001807f416c726561647920696e697469616c697a65640000000000000000000000000081525060200191505060405180910390fd5b61290d8861242c565b61291687613855565b61291e6138bc565b9150858273ffffffffffffffffffffffffffffffffffffffff166325d998bb336040518263ffffffff167c0100000000000000000000000000000000000000000000000000000000028152600401808273ffffffffffffffffffffffffffffffffffffffff1673ffffffffffffffffffffffffffffffffffffffff168152602001915050602060405180830381600087803b1580156129bc57600080fd5b505af11580156129d0573d6000803e3d6000fd5b505050506040513d60208110156129e657600080fd5b810190808051906020019092919050505010151515612a6d576040517f08c379a00000000000000000000000000000000000000000000000000000000081526004018080602001828103825260148152602001807f496e73756666696369656e74207374616b696e6700000000000000000000000081525060200191505060405180910390fd5b8173ffffffffffffffffffffffffffffffffffffffff1663282d3fdf33886040518363ffffffff167c0100000000000000000000000000000000000000000000000000000000028152600401808373ffffffffffffffffffffffffffffffffffffffff1673ffffffffffffffffffffffffffffffffffffffff16815260200182815260200192505050600060405180830381600087803b158015612b1057600080fd5b505af1158015612b24573d6000803e3d6000fd5b5050505060016004819055503360026000600454815260200190815260200160002060006101000a81548173ffffffffffffffffffffffffffffffffffffffff021916908373ffffffffffffffffffffffffffffffffffffffff160217905550600454600360003373ffffffffffffffffffffffffffffffffffffffff1673ffffffffffffffffffffffffffffffffffffffff168152602001908152602001600020819055503360056000600454815260200190815260200160002060006101000a81548173ffffffffffffffffffffffffffffffffffffffff021916908373ffffffffffffffffffffffffffffffffffffffff160217905550600454600660003373ffffffffffffffffffffffffffffffffffffffff1673ffffffffffffffffffffffffffffffffffffffff168152602001908152602001600020819055506001600a8190555060076000600a548152602001908152602001600020905084816000019080519060200190612c9b929190615e93565b5083816001019080519060200190612cb4929190615e93565b50828160020181905550600a54600860003373ffffffffffffffffffffffffffffffffffffffff1673ffffffffffffffffffffffffffffffffffffffff168152602001908152602001600020819055503360096000600a54815260200190815260200160002060006101000a81548173ffffffffffffffffffffffffffffffffffffffff021916908373ffffffffffffffffffffffffffffffffffffffff16021790555060018060146101000a81548160ff0219169083151502179055505050505050505050565b600c5481565b612d8a611ff4565b1515612d9557600080fd5b612d9e816138ec565b50565b6000612dcc7f476f7665726e616e6365436f6e747261637400000000000000000000000000006139e6565b905090565b6000808284019050838110151515612de857600080fd5b8091505092915050565b612dfa6130aa565b73ffffffffffffffffffffffffffffffffffffffff166399e929a389898989898989896040518963ffffffff167c0100000000000000000000000000000000000000000000000000000000028152600401808981526020018881526020018773ffffffffffffffffffffffffffffffffffffffff1673ffffffffffffffffffffffffffffffffffffffff1681526020018673ffffffffffffffffffffffffffffffffffffffff1673ffffffffffffffffffffffffffffffffffffffff1681526020018573ffffffffffffffffffffffffffffffffffffffff1673ffffffffffffffffffffffffffffffffffffffff1681526020018060200180602001848152602001838103835286818151815260200191508051906020019080838360005b83811015612f34578082015181840152602081019050612f19565b50505050905090810190601f168015612f615780820380516001836020036101000a031916815260200191505b50838103825285818151815260200191508051906020019080838360005b83811015612f9a578082015181840152602081019050612f7f565b50505050905090810190601f168015612fc75780820380516001836020036101000a031916815260200191505b509a5050505050505050505050600060405180830381600087803b158015612fee57600080fd5b505af1158015613002573d6000803e3d6000fd5b505050505050505050505050565b6130186130aa565b73ffffffffffffffffffffffffffffffffffffffff166372d0ec9283836040518363ffffffff167c01000000000000000000000000000000000000000000000000000000000281526004018083815260200182815260200192505050600060405180830381600087803b15801561308e57600080fd5b505af11580156130a2573d6000803e3d6000fd5b505050505050565b60006130d57f42616c6c6f7453746f72616765000000000000000000000000000000000000006139e6565b905090565b60006131057f456e7653746f72616765000000000000000000000000000000000000000000006139e6565b905090565b6000806000600d5414151561322757613124600d54613ac3565b50925050613133600d54613b9a565b509150506002600581111561314457fe5b821415613226574281101561318557613169836004600581111561316457fe5b613c71565b6000600d81905550600d5483141561318057613228565b613225565b600d5483141515613224576040517f08c379a00000000000000000000000000000000000000000000000000000000081526004018080602001828103825260238152602001807f4e6f7720696e20766f74696e67207769746820646966666572656e742062616c81526020017f6c6f74000000000000000000000000000000000000000000000000000000000081525060400191505060405180910390fd5b5b5b5b5b505050565b60008060008061323c85613ac3565b50925092506001600581111561324e57fe5b8214156132cd5761325e85613b9a565b9250505061326a6114ba565b81101561328a57613285854261327e6114ba565b4201613d0b565b6132c1565b80613293612753565b10156132b2576132ad85426132a6612753565b4201613d0b565b6132c0565b6132bf8542834201613d0b565b5b5b84600d81905550613355565b600260058111156132da57fe5b8214156132e657613354565b6040517f08c379a00000000000000000000000000000000000000000000000000000000081526004018080602001828103825260078152602001807f457870697265640000000000000000000000000000000000000000000000000081525060200191505060405180910390fd5b5b829350505050919050565b6000806133796001600c54612dd190919063ffffffff16565b91506133836138bc565b73ffffffffffffffffffffffffffffffffffffffff16637d77a0eb336127106040518363ffffffff167c0100000000000000000000000000000000000000000000000000000000028152600401808373ffffffffffffffffffffffffffffffffffffffff1673ffffffffffffffffffffffffffffffffffffffff1681526020018263ffffffff16815260200192505050602060405180830381600087803b15801561342d57600080fd5b505af1158015613441573d6000803e3d6000fd5b505050506040513d602081101561345757600080fd5b81019080805190602001909291905050509050821561357f576134786130aa565b73ffffffffffffffffffffffffffffffffffffffff166396462b9c838633600160028111156134a357fe5b866040518663ffffffff167c0100000000000000000000000000000000000000000000000000000000028152600401808681526020018581526020018473ffffffffffffffffffffffffffffffffffffffff1673ffffffffffffffffffffffffffffffffffffffff16815260200183815260200182815260200195505050505050602060405180830381600087803b15801561353e57600080fd5b505af1158015613552573d6000803e3d6000fd5b505050506040513d602081101561356857600080fd5b810190808051906020019092919050505050613689565b6135876130aa565b73ffffffffffffffffffffffffffffffffffffffff166396462b9c8386336002808111156135b157fe5b866040518663ffffffff167c0100000000000000000000000000000000000000000000000000000000028152600401808681526020018581526020018473ffffffffffffffffffffffffffffffffffffffff1673ffffffffffffffffffffffffffffffffffffffff16815260200183815260200182815260200195505050505050602060405180830381600087803b15801561364c57600080fd5b505af1158015613660573d6000803e3d6000fd5b505050506040513d602081101561367657600080fd5b8101908080519060200190929190505050505b81600c8190555050505050565b60008060006136a36130aa565b73ffffffffffffffffffffffffffffffffffffffff166356ba988e856040518263ffffffff167c010000000000000000000000000000000000000000000000000000000002815260040180828152602001915050606060405180830381600087803b15801561371157600080fd5b505af1158015613725573d6000803e3d6000fd5b505050506040513d606081101561373b57600080fd5b810190808051906020019092919080519060200190929190805190602001909291905050509250925092509193909250565b60006004600581111561377c57fe5b9050811561383d576001600581111561379157fe5b8314156137a6576137a184613dae565b61382d565b600260058111156137b357fe5b8314156137c8576137c384614133565b61382c565b600360058111156137d557fe5b8314156137ea576137e5846148ad565b61382b565b600460058111156137f757fe5b83141561380c5761380784614e4a565b61382a565b60058081111561381857fe5b8314156138295761382884614f59565b5b5b5b5b5b6003600581111561383a57fe5b90505b6138478482613c71565b6000600d8190555050505050565b600060405180807f6f72672e6d6574616469756d2e70726f78792e696d706c656d656e746174696f81526020017f6e000000000000000000000000000000000000000000000000000000000000008152506021019050604051809103902090508181555050565b60006138e77f5374616b696e67000000000000000000000000000000000000000000000000006139e6565b905090565b600073ffffffffffffffffffffffffffffffffffffffff168173ffffffffffffffffffffffffffffffffffffffff161415151561392857600080fd5b8073ffffffffffffffffffffffffffffffffffffffff166000809054906101000a900473ffffffffffffffffffffffffffffffffffffffff1673ffffffffffffffffffffffffffffffffffffffff167f8be0079c531659141344cd1fd0a4f28419497f9722a3daafe3b4186f6b6457e060405160405180910390a3806000806101000a81548173ffffffffffffffffffffffffffffffffffffffff021916908373ffffffffffffffffffffffffffffffffffffffff16021790555050565b6000600160009054906101000a900473ffffffffffffffffffffffffffffffffffffffff1673ffffffffffffffffffffffffffffffffffffffff16630d2020dd836040518263ffffffff167c0100000000000000000000000000000000000000000000000000000000028152600401808260001916600019168152602001915050602060405180830381600087803b158015613a8157600080fd5b505af1158015613a95573d6000803e3d6000fd5b505050506040513d6020811015613aab57600080fd5b81019080805190602001909291905050509050919050565b6000806000613ad06130aa565b73ffffffffffffffffffffffffffffffffffffffff1663688ca5b2856040518263ffffffff167c010000000000000000000000000000000000000000000000000000000002815260040180828152602001915050606060405180830381600087803b158015613b3e57600080fd5b505af1158015613b52573d6000803e3d6000fd5b505050506040513d6060811015613b6857600080fd5b810190808051906020019092919080519060200190929190805190602001909291905050509250925092509193909250565b6000806000613ba76130aa565b73ffffffffffffffffffffffffffffffffffffffff166309970688856040518263ffffffff167c010000000000000000000000000000000000000000000000000000000002815260040180828152602001915050606060405180830381600087803b158015613c1557600080fd5b505af1158015613c29573d6000803e3d6000fd5b505050506040513d6060811015613c3f57600080fd5b810190808051906020019092919080519060200190929190805190602001909291905050509250925092509193909250565b613c796130aa565b73ffffffffffffffffffffffffffffffffffffffff1663a91e59ba83836040518363ffffffff167c01000000000000000000000000000000000000000000000000000000000281526004018083815260200182815260200192505050600060405180830381600087803b158015613cef57600080fd5b505af1158015613d03573d6000803e3d6000fd5b505050505050565b613d136130aa565b73ffffffffffffffffffffffffffffffffffffffff1663c0b6f1868484846040518463ffffffff167c0100000000000000000000000000000000000000000000000000000000028152600401808481526020018381526020018281526020019350505050600060405180830381600087803b158015613d9157600080fd5b505af1158015613da5573d6000803e3d6000fd5b50505050505050565b60006060806000806000806000613dd18960016005811115613dcc57fe5b6157dc565b613dda89615991565b9850985098509850985050613dee886123e0565b15613df857614128565b83613e016124c0565b11158015613e165750613e12611aa8565b8411155b1515613e8a576040517f08c379a00000000000000000000000000000000000000000000000000000000081526004018080602001828103825260138152602001807f496e76616c6964206c6f636b20616d6f756e740000000000000000000000000081525060200191505060405180910390fd5b613e948885615b30565b613eaa6001600454612dd190919063ffffffff16565b9250876002600085815260200190815260200160002060006101000a81548173ffffffffffffffffffffffffffffffffffffffff021916908373ffffffffffffffffffffffffffffffffffffffff16021790555082600360008a73ffffffffffffffffffffffffffffffffffffffff1673ffffffffffffffffffffffffffffffffffffffff16815260200190815260200160002081905550876005600085815260200190815260200160002060006101000a81548173ffffffffffffffffffffffffffffffffffffffff021916908373ffffffffffffffffffffffffffffffffffffffff16021790555082600660008a73ffffffffffffffffffffffffffffffffffffffff1673ffffffffffffffffffffffffffffffffffffffff16815260200190815260200160002081905550613fee6001600a54612dd190919063ffffffff16565b91506007600083815260200190815260200160002090508681600001908051906020019061401d929190615e93565b5085816001019080519060200190614036929190615e93565b50848160020181905550876009600084815260200190815260200160002060006101000a81548173ffffffffffffffffffffffffffffffffffffffff021916908373ffffffffffffffffffffffffffffffffffffffff16021790555081600860008a73ffffffffffffffffffffffffffffffffffffffff1673ffffffffffffffffffffffffffffffffffffffff168152602001908152602001600020819055508260048190555081600a819055508773ffffffffffffffffffffffffffffffffffffffff167fb251eb052afc73ffd02ffe85ad79990a8b3fed60d76dbc2fa2fdd7123dffd91460405160405180910390a25b505050505050505050565b600080600061414e846002600581111561414957fe5b6157dc565b61415784615991565b9650505050509250614168836123e0565b1515614173576148a7565b600454600360008573ffffffffffffffffffffffffffffffffffffffff1673ffffffffffffffffffffffffffffffffffffffff168152602001908152602001600020541415156144e65760026000600454815260200190815260200160002060009054906101000a900473ffffffffffffffffffffffffffffffffffffffff1660026000600360008773ffffffffffffffffffffffffffffffffffffffff1673ffffffffffffffffffffffffffffffffffffffff16815260200190815260200160002054815260200190815260200160002060009054906101000a900473ffffffffffffffffffffffffffffffffffffffff1660026000600360008873ffffffffffffffffffffffffffffffffffffffff1673ffffffffffffffffffffffffffffffffffffffff168152602001908152602001600020548152602001908152602001600020600060026000600454815260200190815260200160002060008491906101000a81548173ffffffffffffffffffffffffffffffffffffffff021916908373ffffffffffffffffffffffffffffffffffffffff1602179055508391906101000a81548173ffffffffffffffffffffffffffffffffffffffff021916908373ffffffffffffffffffffffffffffffffffffffff160217905550505060056000600454815260200190815260200160002060009054906101000a900473ffffffffffffffffffffffffffffffffffffffff1660056000600360008773ffffffffffffffffffffffffffffffffffffffff1673ffffffffffffffffffffffffffffffffffffffff16815260200190815260200160002054815260200190815260200160002060009054906101000a900473ffffffffffffffffffffffffffffffffffffffff1660056000600360008873ffffffffffffffffffffffffffffffffffffffff1673ffffffffffffffffffffffffffffffffffffffff168152602001908152602001600020548152602001908152602001600020600060056000600454815260200190815260200160002060008491906101000a81548173ffffffffffffffffffffffffffffffffffffffff021916908373ffffffffffffffffffffffffffffffffffffffff1602179055508391906101000a81548173ffffffffffffffffffffffffffffffffffffffff021916908373ffffffffffffffffffffffffffffffffffffffff16021790555050505b600060026000600454815260200190815260200160002060006101000a81548173ffffffffffffffffffffffffffffffffffffffff021916908373ffffffffffffffffffffffffffffffffffffffff1602179055506000600360008573ffffffffffffffffffffffffffffffffffffffff1673ffffffffffffffffffffffffffffffffffffffff16815260200190815260200160002081905550600060056000600454815260200190815260200160002060006101000a81548173ffffffffffffffffffffffffffffffffffffffff021916908373ffffffffffffffffffffffffffffffffffffffff16021790555060006006600060056000600454815260200190815260200160002060009054906101000a900473ffffffffffffffffffffffffffffffffffffffff1673ffffffffffffffffffffffffffffffffffffffff1673ffffffffffffffffffffffffffffffffffffffff168152602001908152602001600020819055506146656001600454615bf690919063ffffffff16565b600481905550600a54600860008573ffffffffffffffffffffffffffffffffffffffff1673ffffffffffffffffffffffffffffffffffffffff168152602001908152602001600020541415156147a35760076000600860008673ffffffffffffffffffffffffffffffffffffffff1673ffffffffffffffffffffffffffffffffffffffff168152602001908152602001600020548152602001908152602001600020905060076000600a548152602001908152602001600020600001816000019080546001816001161561010002031660029004614744929190615f13565b5060076000600a548152602001908152602001600020600101816001019080546001816001161561010002031660029004614780929190615f13565b5060076000600a5481526020019081526020016000206002015481600201819055505b600060096000600a54815260200190815260200160002060006101000a81548173ffffffffffffffffffffffffffffffffffffffff021916908373ffffffffffffffffffffffffffffffffffffffff1602179055506000600860008573ffffffffffffffffffffffffffffffffffffffff1673ffffffffffffffffffffffffffffffffffffffff168152602001908152602001600020819055506148536001600a54615bf690919063ffffffff16565b600a819055506148638383615c17565b8273ffffffffffffffffffffffffffffffffffffffff167f6e76fb4c77256006d9c38ec7d82b45a8c8f3c27b1d6766fffc42dfb8de68449260405160405180910390a25b50505050565b6000806060806000806000806148cf89600360058111156148ca57fe5b6157dc565b6148d889615991565b9750975097509750975097506148ed886123e0565b15156148f857614e3f565b8673ffffffffffffffffffffffffffffffffffffffff168873ffffffffffffffffffffffffffffffffffffffff16141515614c3757826149366124c0565b1115801561494b5750614947611aa8565b8311155b15156149bf576040517f08c379a00000000000000000000000000000000000000000000000000000000081526004018080602001828103825260138152602001807f496e76616c6964206c6f636b20616d6f756e740000000000000000000000000081525060200191505060405180910390fd5b6149c98784615b30565b8660026000600360008c73ffffffffffffffffffffffffffffffffffffffff1673ffffffffffffffffffffffffffffffffffffffff16815260200190815260200160002054815260200190815260200160002060006101000a81548173ffffffffffffffffffffffffffffffffffffffff021916908373ffffffffffffffffffffffffffffffffffffffff160217905550600360008973ffffffffffffffffffffffffffffffffffffffff1673ffffffffffffffffffffffffffffffffffffffff16815260200190815260200160002054600360008973ffffffffffffffffffffffffffffffffffffffff1673ffffffffffffffffffffffffffffffffffffffff168152602001908152602001600020819055508660056000600360008c73ffffffffffffffffffffffffffffffffffffffff1673ffffffffffffffffffffffffffffffffffffffff16815260200190815260200160002054815260200190815260200160002060006101000a81548173ffffffffffffffffffffffffffffffffffffffff021916908373ffffffffffffffffffffffffffffffffffffffff160217905550600660008973ffffffffffffffffffffffffffffffffffffffff1673ffffffffffffffffffffffffffffffffffffffff16815260200190815260200160002054600660008973ffffffffffffffffffffffffffffffffffffffff1673ffffffffffffffffffffffffffffffffffffffff168152602001908152602001600020819055506000600360008a73ffffffffffffffffffffffffffffffffffffffff1673ffffffffffffffffffffffffffffffffffffffff168152602001908152602001600020819055505b600860008973ffffffffffffffffffffffffffffffffffffffff1673ffffffffffffffffffffffffffffffffffffffff16815260200190815260200160002054915060076000838152602001908152602001600020905085816000019080519060200190614ca6929190615e93565b5084816001019080519060200190614cbf929190615e93565b508381600201819055508673ffffffffffffffffffffffffffffffffffffffff168873ffffffffffffffffffffffffffffffffffffffff16141515614e3e57866009600084815260200190815260200160002060006101000a81548173ffffffffffffffffffffffffffffffffffffffff021916908373ffffffffffffffffffffffffffffffffffffffff16021790555081600860008973ffffffffffffffffffffffffffffffffffffffff1673ffffffffffffffffffffffffffffffffffffffff168152602001908152602001600020819055506000600860008a73ffffffffffffffffffffffffffffffffffffffff1673ffffffffffffffffffffffffffffffffffffffff16815260200190815260200160002081905550614de38884615c17565b8673ffffffffffffffffffffffffffffffffffffffff168873ffffffffffffffffffffffffffffffffffffffff167f05d866cd9c6000815d031b7ce30f30f643766eba16be13cff25924dc8ad8209260405160405180910390a35b5b505050505050505050565b6000614e628260046005811115614e5d57fe5b6157dc565b614e6a6130aa565b73ffffffffffffffffffffffffffffffffffffffff16637efa9ae3836040518263ffffffff167c010000000000000000000000000000000000000000000000000000000002815260040180828152602001915050602060405180830381600087803b158015614ed857600080fd5b505af1158015614eec573d6000803e3d6000fd5b505050506040513d6020811015614f0257600080fd5b81019080805190602001909291905050509050600073ffffffffffffffffffffffffffffffffffffffff168173ffffffffffffffffffffffffffffffffffffffff16141515614f5557614f5481613855565b5b5050565b60008060606000614f7585600580811115614f7057fe5b6157dc565b614f7d6130aa565b73ffffffffffffffffffffffffffffffffffffffff16631d940da2866040518263ffffffff167c010000000000000000000000000000000000000000000000000000000002815260040180828152602001915050600060405180830381600087803b158015614feb57600080fd5b505af1158015614fff573d6000803e3d6000fd5b505050506040513d6000823e3d601f19601f82011682018060405250606081101561502957600080fd5b810190808051906020019092919080519060200190929190805164010000000081111561505557600080fd5b8281019050602081018481111561506b57600080fd5b815185600182028301116401000000008211171561508857600080fd5b505092919050505093509350935061509e6130da565b905060405180807f626c6f636b506572000000000000000000000000000000000000000000000000815250600801905060405180910390206000191684600019161480156150f75750600260068111156150f457fe5b83145b156151ed578073ffffffffffffffffffffffffffffffffffffffff16630a61b0ba836040518263ffffffff167c01000000000000000000000000000000000000000000000000000000000281526004018080602001828103825283818151815260200191508051906020019080838360005b83811015615184578082015181840152602081019050615169565b50505050905090810190601f1680156151b15780820380516001836020036101000a031916815260200191505b5092505050600060405180830381600087803b1580156151d057600080fd5b505af11580156151e4573d6000803e3d6000fd5b50505050615721565b60405180807f62616c6c6f744475726174696f6e4d696e0000000000000000000000000000008152506011019050604051809103902060001916846000191614801561524457506002600681111561524157fe5b83145b1561533a578073ffffffffffffffffffffffffffffffffffffffff1663124cea37836040518263ffffffff167c01000000000000000000000000000000000000000000000000000000000281526004018080602001828103825283818151815260200191508051906020019080838360005b838110156152d15780820151818401526020810190506152b6565b50505050905090810190601f1680156152fe5780820380516001836020036101000a031916815260200191505b5092505050600060405180830381600087803b15801561531d57600080fd5b505af1158015615331573d6000803e3d6000fd5b50505050615720565b60405180807f62616c6c6f744475726174696f6e4d61780000000000000000000000000000008152506011019050604051809103902060001916846000191614801561539157506002600681111561538e57fe5b83145b15615487578073ffffffffffffffffffffffffffffffffffffffff1663a5d6a581836040518263ffffffff167c01000000000000000000000000000000000000000000000000000000000281526004018080602001828103825283818151815260200191508051906020019080838360005b8381101561541e578082015181840152602081019050615403565b50505050905090810190601f16801561544b5780820380516001836020036101000a031916815260200191505b5092505050600060405180830381600087803b15801561546a57600080fd5b505af115801561547e573d6000803e3d6000fd5b5050505061571f565b60405180807f7374616b696e674d696e00000000000000000000000000000000000000000000815250600a01905060405180910390206000191684600019161480156154de5750600260068111156154db57fe5b83145b156155d4578073ffffffffffffffffffffffffffffffffffffffff166371c6960d836040518263ffffffff167c01000000000000000000000000000000000000000000000000000000000281526004018080602001828103825283818151815260200191508051906020019080838360005b8381101561556b578082015181840152602081019050615550565b50505050905090810190601f1680156155985780820380516001836020036101000a031916815260200191505b5092505050600060405180830381600087803b1580156155b757600080fd5b505af11580156155cb573d6000803e3d6000fd5b5050505061571e565b60405180807f7374616b696e674d617800000000000000000000000000000000000000000000815250600a019050604051809103902060001916846000191614801561562b57506002600681111561562857fe5b83145b1561571d578073ffffffffffffffffffffffffffffffffffffffff16632eccd832836040518263ffffffff167c01000000000000000000000000000000000000000000000000000000000281526004018080602001828103825283818151815260200191508051906020019080838360005b838110156156b857808201518184015260208101905061569d565b50505050905090810190601f1680156156e55780820380516001836020036101000a031916815260200191505b5092505050600060405180830381600087803b15801561570457600080fd5b505af1158015615718573d6000803e3d6000fd5b505050505b5b5b5b5b7f701c16c2519cdb79aaac423a84733590e3510d9552055b6ad6908f0ab12b6c2984848460405180846000191660001916815260200183815260200180602001828103825283818151815260200191508051906020019080838360005b8381101561579957808201518184015260208101905061577e565b50505050905090810190601f1680156157c65780820380516001836020036101000a031916815260200191505b5094505050505060405180910390a15050505050565b6000806000806157eb86613ac3565b50935093508484141515615867576040517f08c379a00000000000000000000000000000000000000000000000000000000081526004018080602001828103825260138152602001807f496e76616c696420766f74696e6720747970650000000000000000000000000081525060200191505060405180910390fd5b6002600581111561587457fe5b831415156158ea576040517f08c379a00000000000000000000000000000000000000000000000000000000081526004018080602001828103825260148152602001807f496e76616c696420766f74696e6720737461746500000000000000000000000081525060200191505060405180910390fd5b6158f386613696565b92509250506159006114b0565b8210158061591557506159116114b0565b8110155b1515615989576040517f08c379a00000000000000000000000000000000000000000000000000000000081526004018080602001828103825260118152602001807f4e6f74207965742066696e616c697a656400000000000000000000000000000081525060200191505060405180910390fd5b505050505050565b6000806060806000806159a26130aa565b73ffffffffffffffffffffffffffffffffffffffff166373df4e01886040518263ffffffff167c010000000000000000000000000000000000000000000000000000000002815260040180828152602001915050600060405180830381600087803b158015615a1057600080fd5b505af1158015615a24573d6000803e3d6000fd5b505050506040513d6000823e3d601f19601f8201168201806040525060c0811015615a4e57600080fd5b8101908080519060200190929190805190602001909291908051640100000000811115615a7a57600080fd5b82810190506020810184811115615a9057600080fd5b8151856001820283011164010000000082111715615aad57600080fd5b50509291906020018051640100000000811115615ac957600080fd5b82810190506020810184811115615adf57600080fd5b8151856001820283011164010000000082111715615afc57600080fd5b5050929190602001805190602001909291908051906020019092919050505095509550955095509550955091939550919395565b615b386138bc565b73ffffffffffffffffffffffffffffffffffffffff1663282d3fdf83836040518363ffffffff167c0100000000000000000000000000000000000000000000000000000000028152600401808373ffffffffffffffffffffffffffffffffffffffff1673ffffffffffffffffffffffffffffffffffffffff16815260200182815260200192505050600060405180830381600087803b158015615bda57600080fd5b505af1158015615bee573d6000803e3d6000fd5b505050505050565b600080838311151515615c0857600080fd5b82840390508091505092915050565b600080615c226138bc565b91508173ffffffffffffffffffffffffffffffffffffffff166359355736856040518263ffffffff167c0100000000000000000000000000000000000000000000000000000000028152600401808273ffffffffffffffffffffffffffffffffffffffff1673ffffffffffffffffffffffffffffffffffffffff168152602001915050602060405180830381600087803b158015615cbf57600080fd5b505af1158015615cd3573d6000803e3d6000fd5b505050506040513d6020811015615ce957600080fd5b8101908080519060200190929190505050905082811115615dd2578173ffffffffffffffffffffffffffffffffffffffff16637756c90885615d348685615bf690919063ffffffff16565b6040518363ffffffff167c0100000000000000000000000000000000000000000000000000000000028152600401808373ffffffffffffffffffffffffffffffffffffffff1673ffffffffffffffffffffffffffffffffffffffff16815260200182815260200192505050600060405180830381600087803b158015615db957600080fd5b505af1158015615dcd573d6000803e3d6000fd5b505050505b8173ffffffffffffffffffffffffffffffffffffffff16637eee288d85856040518363ffffffff167c0100000000000000000000000000000000000000000000000000000000028152600401808373ffffffffffffffffffffffffffffffffffffffff1673ffffffffffffffffffffffffffffffffffffffff16815260200182815260200192505050600060405180830381600087803b158015615e7557600080fd5b505af1158015615e89573d6000803e3d6000fd5b5050505050505050565b828054600181600116156101000203166002900490600052602060002090601f016020900481019282601f10615ed457805160ff1916838001178555615f02565b82800160010185558215615f02579182015b82811115615f01578251825591602001919060010190615ee6565b5b509050615f0f9190615f9a565b5090565b828054600181600116156101000203166002900490600052602060002090601f016020900481019282601f10615f4c5780548555615f89565b82800160010185558215615f8957600052602060002091601f016020900482015b82811115615f88578254825591600101919060010190615f6d565b5b509050615f969190615f9a565b5090565b615fbc91905b80821115615fb8576000816000905550600101615fa0565b5090565b905600a165627a7a72305820f8d35ca96dfb4eb38ad67ce9394ba2b17d93a5d69d1f580b86d4c6114b84e5780029",
  "source": "pragma solidity ^0.4.24;\n\nimport \"openzeppelin-solidity/contracts/utils/ReentrancyGuard.sol\";\nimport \"./abstract/BallotEnums.sol\";\nimport \"./abstract/EnvConstants.sol\";\nimport \"./interface/IBallotStorage.sol\";\nimport \"./interface/IEnvStorage.sol\";\nimport \"./interface/IStaking.sol\";\nimport \"./Gov.sol\";\n\n\ncontract GovImp is Gov, ReentrancyGuard, BallotEnums, EnvConstants {\n    using SafeMath for uint256;\n\n    event MemberAdded(address indexed addr);\n    event MemberRemoved(address indexed addr);\n    event MemberChanged(address indexed oldAddr, address indexed newAddr);\n    event EnvChanged(bytes32 envName, uint256 envType, bytes envVal);\n\n    function addProposalToAddMember(\n        address member,\n        bytes enode,\n        bytes ip,\n        uint port,\n        uint256 lockAmount\n    )\n        external\n        onlyGovMem\n        nonReentrant\n        returns (uint256 ballotIdx)\n    {\n        require(msg.sender != member, \"Cannot add self\");\n        require(!isMember(member), \"Already member\");\n\n        ballotIdx = ballotLength.add(1);\n        createBallotForMemeber(\n            ballotIdx, // ballot id\n            uint256(BallotTypes.MemberAdd), // ballot type\n            msg.sender, // creator\n            address(0), // old member address\n            member, // new member address\n            enode, // new enode\n            ip, // new ip\n            port // new port\n        );\n        updateBallotLock(ballotIdx, lockAmount);\n        ballotLength = ballotIdx;\n    }\n\n    function addProposalToRemoveMember(\n        address member,\n        uint256 lockAmount\n    )\n        external\n        onlyGovMem\n        nonReentrant\n        returns (uint256 ballotIdx)\n    {\n        require(isMember(member), \"Non-member\");\n        require(getMemberLength() > 1, \"Cannot remove a sole member\");\n\n        ballotIdx = ballotLength.add(1);\n        createBallotForMemeber(\n            ballotIdx, // ballot id\n            uint256(BallotTypes.MemberRemoval), // ballot type\n            msg.sender, // creator\n            member, // old member address\n            address(0), // new member address\n            new bytes(0), // new enode\n            new bytes(0), // new ip\n            0 // new port\n        );\n        updateBallotLock(ballotIdx, lockAmount);\n        ballotLength = ballotIdx;\n    }\n\n    function addProposalToChangeMember(\n        address target,\n        address nMember,\n        bytes nEnode,\n        bytes nIp,\n        uint nPort,\n        uint256 lockAmount\n    )\n        external\n        onlyGovMem\n        nonReentrant\n        returns (uint256 ballotIdx)\n    {\n        require(isMember(target), \"Non-member\");\n\n        ballotIdx = ballotLength.add(1);\n        createBallotForMemeber(\n            ballotIdx, // ballot id\n            uint256(BallotTypes.MemberChange), // ballot type\n            msg.sender, // creator\n            target, // old member address\n            nMember, // new member address\n            nEnode, // new enode\n            nIp, // new ip\n            nPort // new port\n        );\n        updateBallotLock(ballotIdx, lockAmount);\n        ballotLength = ballotIdx;\n    }\n\n    function addProposalToChangeGov(\n        address newGovAddr\n    )\n        external\n        onlyGovMem\n        nonReentrant\n        returns (uint256 ballotIdx)\n    {\n        require(newGovAddr != address(0), \"Implementation cannot be zero\");\n        require(newGovAddr != implementation(), \"Same contract address\");\n\n        ballotIdx = ballotLength.add(1);\n        IBallotStorage(getBallotStorageAddress()).createBallotForAddress(\n            ballotLength.add(1), // ballot id\n            uint256(BallotTypes.GovernanceChange), // ballot type\n            msg.sender, // creator\n            newGovAddr // new governance address\n        );\n        ballotLength = ballotIdx;\n    }\n\n    function addProposalToChangeEnv(\n        bytes32 envName,\n        uint256 envType,\n        bytes envVal\n    )\n        external\n        onlyGovMem\n        nonReentrant\n        returns (uint256 ballotIdx)\n    {\n        require(uint256(VariableTypes.Int) <= envType && envType <= uint256(VariableTypes.String), \"Invalid type\");\n\n        ballotIdx = ballotLength.add(1);\n        IBallotStorage(getBallotStorageAddress()).createBallotForVariable(\n            ballotIdx, // ballot id\n            uint256(BallotTypes.EnvValChange), // ballot type\n            msg.sender, // creator\n            envName, // env name\n            envType, // env type\n            envVal // env value\n        );\n        ballotLength = ballotIdx;\n    }\n\n    function vote(uint256 ballotIdx, bool approval) external onlyGovMem nonReentrant {\n        // Check if some ballot is in progress\n        checkUnfinalized(ballotIdx);\n\n        // Check if the ballot can be voted\n        uint256 ballotType = checkVotable(ballotIdx);\n\n        // Vote\n        createVote(ballotIdx, approval);\n\n        // Finalize\n        (, uint256 accept, uint256 reject) = getBallotVotingInfo(ballotIdx);\n        if (accept < getThreshould() && reject < getThreshould()) {\n            return;\n        }\n        finalizeVote(ballotIdx, ballotType, accept > reject);\n    }\n\n    function getMinStaking() public view returns (uint256) {\n        return IEnvStorage(getEnvStorageAddress()).getStakingMin();\n    }\n\n    function getMaxStaking() public view returns (uint256) {\n        return IEnvStorage(getEnvStorageAddress()).getStakingMax();\n    }\n\n    function getMinVotingDuration() public view returns (uint256) {\n        return IEnvStorage(getEnvStorageAddress()).getBallotDurationMin();\n    }\n    \n    function getMaxVotingDuration() public view returns (uint256) {\n        return IEnvStorage(getEnvStorageAddress()).getBallotDurationMax();\n    }\n\n    function getThreshould() public pure returns (uint256) { return 5100; } // 51% from 5100 of 10000\n\n    function checkUnfinalized(uint256 ballotIdx) private {\n        if (ballotInVoting != 0) {\n            (, uint256 state, ) = getBallotState(ballotInVoting);\n            (, uint256 endTime, ) = getBallotPeriod(ballotInVoting);\n            if (state == uint256(BallotStates.InProgress)) {\n                if (endTime < block.timestamp) {\n                    finalizeBallot(ballotIdx, uint256(BallotStates.Rejected));\n                    ballotInVoting = 0;\n                    if (ballotIdx == ballotInVoting) {\n                        return;\n                    }\n                } else if (ballotIdx != ballotInVoting) {\n                    revert(\"Now in voting with different ballot\");\n                }\n            }\n        }\n    }\n\n    function checkVotable(uint256 ballotIdx) private returns (uint256) {\n        (uint256 ballotType, uint256 state, ) = getBallotState(ballotIdx);\n        if (state == uint256(BallotStates.Ready)) {\n            (, , uint256 duration) = getBallotPeriod(ballotIdx);\n            if (duration < getMinVotingDuration()) {\n                startBallot(ballotIdx, block.timestamp, block.timestamp + getMinVotingDuration());\n            } else if (getMaxVotingDuration() < duration) {\n                startBallot(ballotIdx, block.timestamp, block.timestamp + getMaxVotingDuration());\n            } else {\n                startBallot(ballotIdx, block.timestamp, block.timestamp + duration);\n            }\n            ballotInVoting = ballotIdx;\n        } else if (state == uint256(BallotStates.InProgress)) {\n            // Nothing to do\n        } else {\n            revert(\"Expired\");\n        }\n        return ballotType;\n    }\n\n    function createVote(uint256 ballotIdx, bool approval) private {\n        uint256 voteIdx = voteLength.add(1);\n        uint256 weight = IStaking(getStakingAddress()).calcVotingWeightWithScaleFactor(msg.sender, 1e4);\n        if (approval) {\n            IBallotStorage(getBallotStorageAddress()).createVote(\n                voteIdx,\n                ballotIdx,\n                msg.sender,\n                uint256(DecisionTypes.Accept),\n                weight\n            );\n        } else {\n            IBallotStorage(getBallotStorageAddress()).createVote(\n                voteIdx,\n                ballotIdx,\n                msg.sender,\n                uint256(DecisionTypes.Reject),\n                weight\n            );\n        }\n        voteLength = voteIdx;\n    }\n\n    function finalizeVote(uint256 ballotIdx, uint256 ballotType, bool isAccepted) private {\n        uint256 ballotState = uint256(BallotStates.Rejected);\n        if (isAccepted) {\n            if (ballotType == uint256(BallotTypes.MemberAdd)) {\n                addMember(ballotIdx);\n            } else if (ballotType == uint256(BallotTypes.MemberRemoval)) {\n                removeMember(ballotIdx);\n            } else if (ballotType == uint256(BallotTypes.MemberChange)) {\n                changeMember(ballotIdx);\n            } else if (ballotType == uint256(BallotTypes.GovernanceChange)) {\n                changeGov(ballotIdx);\n            } else if (ballotType == uint256(BallotTypes.EnvValChange)) {\n                applyEnv(ballotIdx);\n            }\n            ballotState = uint256(BallotStates.Accepted);\n        }\n        finalizeBallot(ballotIdx, ballotState);\n        ballotInVoting = 0;\n    }\n\n    function fromValidBallot(uint256 ballotIdx, uint256 targetType) private view {\n        (uint256 ballotType, uint256 state, ) = getBallotState(ballotIdx);\n        require(ballotType == targetType, \"Invalid voting type\");\n        require(state == uint(BallotStates.InProgress), \"Invalid voting state\");\n        (, uint256 accept, uint256 reject) = getBallotVotingInfo(ballotIdx);\n        require(accept >= getThreshould() || reject >= getThreshould(), \"Not yet finalized\");\n    }\n\n    function addMember(uint256 ballotIdx) private {\n        fromValidBallot(ballotIdx, uint256(BallotTypes.MemberAdd));\n\n        (\n            , address addr,\n            bytes memory enode,\n            bytes memory ip,\n            uint port,\n            uint256 lockAmount\n        ) = getBallotMember(ballotIdx);\n        if (isMember(addr)) {\n            return; // Already member. it is abnormal case\n        }\n\n        // Lock\n        require(getMinStaking() <= lockAmount && lockAmount <= getMaxStaking(), \"Invalid lock amount\");\n        lock(addr, lockAmount);\n\n        // Add voting and reward member\n        uint256 nMemIdx = memberLength.add(1);\n        members[nMemIdx] = addr;\n        memberIdx[addr] = nMemIdx;\n        rewards[nMemIdx] = addr;\n        rewardIdx[addr] = nMemIdx;\n\n        // Add node\n        uint256 nNodeIdx = nodeLength.add(1);\n        Node storage node = nodes[nNodeIdx];\n        node.enode = enode;\n        node.ip = ip;\n        node.port = port;\n        nodeToMember[nNodeIdx] = addr;\n        nodeIdxFromMember[addr] = nNodeIdx;\n\n        memberLength = nMemIdx;\n        nodeLength = nNodeIdx;\n\n        emit MemberAdded(addr);\n    }\n\n    function removeMember(uint256 ballotIdx) private {\n        fromValidBallot(ballotIdx, uint256(BallotTypes.MemberRemoval));\n\n        (address addr, , , , , uint256 unlockAmount) = getBallotMember(ballotIdx);\n        if (!isMember(addr)) {\n            return; // Non-member. it is abnormal case\n        }\n\n        // Remove voting and reward member\n        if (memberIdx[addr] != memberLength) {\n            (members[memberIdx[addr]], members[memberLength]) = (members[memberLength], members[memberIdx[addr]]);\n            (rewards[memberIdx[addr]], rewards[memberLength]) = (rewards[memberLength], rewards[memberIdx[addr]]);\n        }\n        members[memberLength] = address(0);\n        memberIdx[addr] = 0;\n        rewards[memberLength] = address(0);\n        rewardIdx[rewards[memberLength]] = 0;\n        memberLength = memberLength.sub(1);\n\n        // Remove node\n        if (nodeIdxFromMember[addr] != nodeLength) {\n            Node storage node = nodes[nodeIdxFromMember[addr]];\n            node.enode = nodes[nodeLength].enode;\n            node.ip = nodes[nodeLength].ip;\n            node.port = nodes[nodeLength].port;\n        }\n        nodeToMember[nodeLength] = address(0);\n        nodeIdxFromMember[addr] = 0;\n        nodeLength = nodeLength.sub(1);\n\n        // Unlock and transfer remained to governance\n        transferLockedAndUnlock(addr, unlockAmount);\n\n        emit MemberRemoved(addr);\n    }\n\n    function changeMember(uint256 ballotIdx) private {\n        fromValidBallot(ballotIdx, uint256(BallotTypes.MemberChange));\n        \n        (\n            address addr,\n            address nAddr,\n            bytes memory enode,\n            bytes memory ip,\n            uint port,\n            uint256 lockAmount\n        ) = getBallotMember(ballotIdx);\n        if (!isMember(addr)) {\n            return; // Non-member. it is abnormal case\n        }\n\n        if (addr != nAddr) {\n            // Lock\n            require(getMinStaking() <= lockAmount && lockAmount <= getMaxStaking(), \"Invalid lock amount\");\n            lock(nAddr, lockAmount);\n\n            // Change member\n            members[memberIdx[addr]] = nAddr;\n            memberIdx[nAddr] = memberIdx[addr];\n            rewards[memberIdx[addr]] = nAddr;\n            rewardIdx[nAddr] = rewardIdx[addr];\n            memberIdx[addr] = 0;\n        }\n\n        // Change node\n        uint256 nodeIdx = nodeIdxFromMember[addr];\n        Node storage node = nodes[nodeIdx];\n        node.enode = enode;\n        node.ip = ip;\n        node.port = port;\n        if (addr != nAddr) {\n            nodeToMember[nodeIdx] = nAddr;\n            nodeIdxFromMember[nAddr] = nodeIdx;\n            nodeIdxFromMember[addr] = 0;\n\n            // Unlock and transfer remained to governance\n            transferLockedAndUnlock(addr, lockAmount);\n\n            emit MemberChanged(addr, nAddr);\n        }\n    }\n\n    function changeGov(uint256 ballotIdx) private {\n        fromValidBallot(ballotIdx, uint256(BallotTypes.GovernanceChange));\n\n        address newImp = IBallotStorage(getBallotStorageAddress()).getBallotAddress(ballotIdx);\n        if (newImp != address(0)) {\n            setImplementation(newImp);\n        }\n    }\n\n    function applyEnv(uint256 ballotIdx) private {\n        fromValidBallot(ballotIdx, uint256(BallotTypes.EnvValChange));\n\n        (\n            bytes32 envKey,\n            uint256 envType,\n            bytes memory envVal\n        ) = IBallotStorage(getBallotStorageAddress()).getBallotVariable(ballotIdx);\n\n        IEnvStorage envStorage = IEnvStorage(getEnvStorageAddress());\n        if (envKey == BLOCK_PER_NAME && envType == BLOCK_PER_TYPE) {\n            envStorage.setBlockPerByBytes(envVal);\n        } else if (envKey == BALLOT_DURATION_MIN_NAME && envType == BALLOT_DURATION_MIN_TYPE) {\n            envStorage.setBallotDurationMinByBytes(envVal);\n        } else if (envKey == BALLOT_DURATION_MAX_NAME && envType == BALLOT_DURATION_MAX_TYPE) {\n            envStorage.setBallotDurationMaxByBytes(envVal);\n        } else if (envKey == STAKING_MIN_NAME && envType == STAKING_MIN_TYPE) {\n            envStorage.setStakingMinByBytes(envVal);\n        } else if (envKey == STAKING_MAX_NAME && envType == STAKING_MAX_TYPE) {\n            envStorage.setStakingMaxByBytes(envVal);\n        }\n\n        emit EnvChanged(envKey, envType, envVal);\n    }\n\n    //------------------ Code reduction for creation gas\n    function createBallotForMemeber(\n        uint256 id,\n        uint256 bType,\n        address creator,\n        address oAddr,\n        address nAddr,\n        bytes enode,\n        bytes ip,\n        uint port\n    )\n        private\n    {\n        IBallotStorage(getBallotStorageAddress()).createBallotForMemeber(\n            id, // ballot id\n            bType, // ballot type\n            creator, // creator\n            oAddr, // old member address\n            nAddr, // new member address\n            enode, // new enode\n            ip, // new ip\n            port // new port\n        );\n    }\n\n    function updateBallotLock(uint256 id, uint256 amount) private {\n        IBallotStorage(getBallotStorageAddress()).updateBallotMemberLockAmount(id, amount);\n    }\n\n    function startBallot(uint256 id, uint256 s, uint256 e) private {\n        IBallotStorage(getBallotStorageAddress()).startBallot(id, s, e);\n    }\n\n    function finalizeBallot(uint256 id, uint256 state) private {\n        IBallotStorage(getBallotStorageAddress()).finalizeBallot(id, state);\n    }\n\n    function getBallotState(uint256 id) private view returns (uint256, uint256, bool) {\n        return IBallotStorage(getBallotStorageAddress()).getBallotState(id);\n    }\n\n    function getBallotPeriod(uint256 id) private view returns (uint256, uint256, uint256) {\n        return IBallotStorage(getBallotStorageAddress()).getBallotPeriod(id);\n    }\n\n    function getBallotVotingInfo(uint256 id) private view returns (uint256, uint256, uint256) {\n        return IBallotStorage(getBallotStorageAddress()).getBallotVotingInfo(id);\n    }\n\n    function getBallotMember(uint256 id) private view returns (address, address, bytes, bytes, uint256, uint256) {\n        return IBallotStorage(getBallotStorageAddress()).getBallotMember(id);\n    }\n\n    function lock(address addr, uint256 amount) private {\n        IStaking(getStakingAddress()).lock(addr, amount);\n    }\n\n    function unlock(address addr, uint256 amount) private {\n        IStaking(getStakingAddress()).unlock(addr, amount);\n    }\n\n    function transferLockedAndUnlock(address addr, uint256 unlockAmount) private {\n        IStaking staking = IStaking(getStakingAddress());\n        uint256 locked = staking.lockedBalanceOf(addr);\n        if (locked > unlockAmount) {\n            staking.transferLocked(addr, locked.sub(unlockAmount));\n        }\n        staking.unlock(addr, unlockAmount);\n    }\n    //------------------ Code reduction end\n}",
  "sourcePath": "/Users/ywshin/Documents/WS/truffle/governance-contract-blueisle/contracts/GovImp.sol",
  "compiler": {
    "name": "solc",
    "version": "0.4.24+commit.e67f0147.Emscripten.clang"
  },
  "schemaVersion": "2.0.1",
  "updatedAt": "2019-02-12T02:04:33.136Z"
}