{
  "contractName": "Staking",
  "abi": [
    {
      "constant": true,
      "inputs": [],
      "name": "STAKING_NAME",
      "outputs": [
        {
          "name": "",
          "type": "bytes32"
        }
      ],
      "payable": false,
      "stateMutability": "view",
      "type": "function"
    },
    {
      "constant": true,
      "inputs": [],
      "name": "REWARD_POOL_NAME",
      "outputs": [
        {
          "name": "",
          "type": "bytes32"
        }
      ],
      "payable": false,
      "stateMutability": "view",
      "type": "function"
    },
    {
      "constant": true,
      "inputs": [],
      "name": "GOV_NAME",
      "outputs": [
        {
          "name": "",
          "type": "bytes32"
        }
      ],
      "payable": false,
      "stateMutability": "view",
      "type": "function"
    },
    {
      "constant": false,
      "inputs": [],
      "name": "renounceOwnership",
      "outputs": [],
      "payable": false,
      "stateMutability": "nonpayable",
      "type": "function"
    },
    {
      "constant": true,
      "inputs": [],
      "name": "reg",
      "outputs": [
        {
          "name": "",
          "type": "address"
        }
      ],
      "payable": false,
      "stateMutability": "view",
      "type": "function"
    },
    {
      "constant": true,
      "inputs": [],
      "name": "ENV_STORAGE_NAME",
      "outputs": [
        {
          "name": "",
          "type": "bytes32"
        }
      ],
      "payable": false,
      "stateMutability": "view",
      "type": "function"
    },
    {
      "constant": true,
      "inputs": [],
      "name": "owner",
      "outputs": [
        {
          "name": "",
          "type": "address"
        }
      ],
      "payable": false,
      "stateMutability": "view",
      "type": "function"
    },
    {
      "constant": true,
      "inputs": [],
      "name": "isOwner",
      "outputs": [
        {
          "name": "",
          "type": "bool"
        }
      ],
      "payable": false,
      "stateMutability": "view",
      "type": "function"
    },
    {
      "constant": true,
      "inputs": [],
      "name": "BALLOT_STORAGE_NAME",
      "outputs": [
        {
          "name": "",
          "type": "bytes32"
        }
      ],
      "payable": false,
      "stateMutability": "view",
      "type": "function"
    },
    {
      "constant": false,
      "inputs": [
        {
          "name": "_addr",
          "type": "address"
        }
      ],
      "name": "setRegistry",
      "outputs": [],
      "payable": false,
      "stateMutability": "nonpayable",
      "type": "function"
    },
    {
      "constant": false,
      "inputs": [
        {
          "name": "newOwner",
          "type": "address"
        }
      ],
      "name": "transferOwnership",
      "outputs": [],
      "payable": false,
      "stateMutability": "nonpayable",
      "type": "function"
    },
    {
      "inputs": [
        {
          "name": "registry",
          "type": "address"
        }
      ],
      "payable": false,
      "stateMutability": "nonpayable",
      "type": "constructor"
    },
    {
      "payable": true,
      "stateMutability": "payable",
      "type": "fallback"
    },
    {
      "anonymous": false,
      "inputs": [
        {
          "indexed": true,
          "name": "payee",
          "type": "address"
        },
        {
          "indexed": false,
          "name": "amount",
          "type": "uint256"
        },
        {
          "indexed": false,
          "name": "total",
          "type": "uint256"
        },
        {
          "indexed": false,
          "name": "available",
          "type": "uint256"
        }
      ],
      "name": "Staked",
      "type": "event"
    },
    {
      "anonymous": false,
      "inputs": [
        {
          "indexed": true,
          "name": "payee",
          "type": "address"
        },
        {
          "indexed": false,
          "name": "amount",
          "type": "uint256"
        },
        {
          "indexed": false,
          "name": "total",
          "type": "uint256"
        },
        {
          "indexed": false,
          "name": "available",
          "type": "uint256"
        }
      ],
      "name": "Unstaked",
      "type": "event"
    },
    {
      "anonymous": false,
      "inputs": [
        {
          "indexed": true,
          "name": "payee",
          "type": "address"
        },
        {
          "indexed": false,
          "name": "amount",
          "type": "uint256"
        },
        {
          "indexed": false,
          "name": "total",
          "type": "uint256"
        },
        {
          "indexed": false,
          "name": "available",
          "type": "uint256"
        }
      ],
      "name": "Locked",
      "type": "event"
    },
    {
      "anonymous": false,
      "inputs": [
        {
          "indexed": true,
          "name": "payee",
          "type": "address"
        },
        {
          "indexed": false,
          "name": "amount",
          "type": "uint256"
        },
        {
          "indexed": false,
          "name": "total",
          "type": "uint256"
        },
        {
          "indexed": false,
          "name": "available",
          "type": "uint256"
        }
      ],
      "name": "Unlocked",
      "type": "event"
    },
    {
      "anonymous": false,
      "inputs": [
        {
          "indexed": true,
          "name": "previousOwner",
          "type": "address"
        },
        {
          "indexed": true,
          "name": "newOwner",
          "type": "address"
        }
      ],
      "name": "OwnershipTransferred",
      "type": "event"
    },
    {
      "constant": false,
      "inputs": [],
      "name": "deposit",
      "outputs": [],
      "payable": true,
      "stateMutability": "payable",
      "type": "function"
    },
    {
      "constant": false,
      "inputs": [
        {
          "name": "amount",
          "type": "uint256"
        }
      ],
      "name": "withdraw",
      "outputs": [],
      "payable": false,
      "stateMutability": "nonpayable",
      "type": "function"
    },
    {
      "constant": false,
      "inputs": [
        {
          "name": "payee",
          "type": "address"
        },
        {
          "name": "lockAmount",
          "type": "uint256"
        }
      ],
      "name": "lock",
      "outputs": [],
      "payable": false,
      "stateMutability": "nonpayable",
      "type": "function"
    },
    {
      "constant": false,
      "inputs": [
        {
          "name": "from",
          "type": "address"
        },
        {
          "name": "amount",
          "type": "uint256"
        }
      ],
      "name": "transferLocked",
      "outputs": [],
      "payable": false,
      "stateMutability": "nonpayable",
      "type": "function"
    },
    {
      "constant": false,
      "inputs": [
        {
          "name": "payee",
          "type": "address"
        },
        {
          "name": "unlockAmount",
          "type": "uint256"
        }
      ],
      "name": "unlock",
      "outputs": [],
      "payable": false,
      "stateMutability": "nonpayable",
      "type": "function"
    },
    {
      "constant": true,
      "inputs": [
        {
          "name": "payee",
          "type": "address"
        }
      ],
      "name": "balanceOf",
      "outputs": [
        {
          "name": "",
          "type": "uint256"
        }
      ],
      "payable": false,
      "stateMutability": "view",
      "type": "function"
    },
    {
      "constant": true,
      "inputs": [
        {
          "name": "payee",
          "type": "address"
        }
      ],
      "name": "lockedBalanceOf",
      "outputs": [
        {
          "name": "",
          "type": "uint256"
        }
      ],
      "payable": false,
      "stateMutability": "view",
      "type": "function"
    },
    {
      "constant": true,
      "inputs": [
        {
          "name": "payee",
          "type": "address"
        }
      ],
      "name": "availableBalanceOf",
      "outputs": [
        {
          "name": "",
          "type": "uint256"
        }
      ],
      "payable": false,
      "stateMutability": "view",
      "type": "function"
    },
    {
      "constant": true,
      "inputs": [
        {
          "name": "payee",
          "type": "address"
        }
      ],
      "name": "calcVotingWeight",
      "outputs": [
        {
          "name": "",
          "type": "uint256"
        }
      ],
      "payable": false,
      "stateMutability": "view",
      "type": "function"
    },
    {
      "constant": true,
      "inputs": [
        {
          "name": "payee",
          "type": "address"
        },
        {
          "name": "factor",
          "type": "uint32"
        }
      ],
      "name": "calcVotingWeightWithScaleFactor",
      "outputs": [
        {
          "name": "",
          "type": "uint256"
        }
      ],
      "payable": false,
      "stateMutability": "view",
      "type": "function"
    }
  ],
  "bytecode": "0x608060405234801561001057600080fd5b50604051602080611bfa83398101806040528101908080519060200190929190505050336000806101000a81548173ffffffffffffffffffffffffffffffffffffffff021916908373ffffffffffffffffffffffffffffffffffffffff1602179055506000809054906101000a900473ffffffffffffffffffffffffffffffffffffffff1673ffffffffffffffffffffffffffffffffffffffff16600073ffffffffffffffffffffffffffffffffffffffff167f8be0079c531659141344cd1fd0a4f28419497f9722a3daafe3b4186f6b6457e060405160405180910390a3600160028190555060006005819055506101178161011d640100000000026401000000009004565b506101da565b610134610183640100000000026401000000009004565b151561013f57600080fd5b80600160006101000a81548173ffffffffffffffffffffffffffffffffffffffff021916908373ffffffffffffffffffffffffffffffffffffffff16021790555050565b60008060009054906101000a900473ffffffffffffffffffffffffffffffffffffffff1673ffffffffffffffffffffffffffffffffffffffff163373ffffffffffffffffffffffffffffffffffffffff1614905090565b611a11806101e96000396000f30060806040526004361061011d576000357c0100000000000000000000000000000000000000000000000000000000900463ffffffff1680631e0cba0d1461012257806325d998bb14610155578063282d3fdf146101ac5780632e1a7d4d146101f95780632f40992e1461022657806359355736146102595780636c78d2cf146102b057806370a08231146102e3578063715018a61461033a578063738fdd1a146103515780637756c908146103a85780637bf46530146103f55780637d77a0eb146104285780637eee288d1461048f578063884d97a7146104dc5780638da5cb5b146105335780638f32d59b1461058a5780639986e4b9146105b9578063a91ee0dc146105ec578063d0e30db01461062f578063f2fde38b14610639575b600080fd5b34801561012e57600080fd5b5061013761067c565b60405180826000191660001916815260200191505060405180910390f35b34801561016157600080fd5b50610196600480360381019080803573ffffffffffffffffffffffffffffffffffffffff1690602001909291905050506106a0565b6040518082815260200191505060405180910390f35b3480156101b857600080fd5b506101f7600480360381019080803573ffffffffffffffffffffffffffffffffffffffff1690602001909291908035906020019092919050505061073a565b005b34801561020557600080fd5b5061022460048036038101908080359060200190929190505050610ac0565b005b34801561023257600080fd5b5061023b610d13565b60405180826000191660001916815260200191505060405180910390f35b34801561026557600080fd5b5061029a600480360381019080803573ffffffffffffffffffffffffffffffffffffffff169060200190929190505050610d37565b6040518082815260200191505060405180910390f35b3480156102bc57600080fd5b506102c5610d80565b60405180826000191660001916815260200191505060405180910390f35b3480156102ef57600080fd5b50610324600480360381019080803573ffffffffffffffffffffffffffffffffffffffff169060200190929190505050610da4565b6040518082815260200191505060405180910390f35b34801561034657600080fd5b5061034f610ded565b005b34801561035d57600080fd5b50610366610ebf565b604051808273ffffffffffffffffffffffffffffffffffffffff1673ffffffffffffffffffffffffffffffffffffffff16815260200191505060405180910390f35b3480156103b457600080fd5b506103f3600480360381019080803573ffffffffffffffffffffffffffffffffffffffff16906020019092919080359060200190929190505050610ee5565b005b34801561040157600080fd5b5061040a6110d4565b60405180826000191660001916815260200191505060405180910390f35b34801561043457600080fd5b50610479600480360381019080803573ffffffffffffffffffffffffffffffffffffffff169060200190929190803563ffffffff1690602001909291905050506110f8565b6040518082815260200191505060405180910390f35b34801561049b57600080fd5b506104da600480360381019080803573ffffffffffffffffffffffffffffffffffffffff169060200190929190803590602001909291905050506111d0565b005b3480156104e857600080fd5b5061051d600480360381019080803573ffffffffffffffffffffffffffffffffffffffff1690602001909291905050506113d3565b6040518082815260200191505060405180910390f35b34801561053f57600080fd5b506105486113e7565b604051808273ffffffffffffffffffffffffffffffffffffffff1673ffffffffffffffffffffffffffffffffffffffff16815260200191505060405180910390f35b34801561059657600080fd5b5061059f611410565b604051808215151515815260200191505060405180910390f35b3480156105c557600080fd5b506105ce611467565b60405180826000191660001916815260200191505060405180910390f35b3480156105f857600080fd5b5061062d600480360381019080803573ffffffffffffffffffffffffffffffffffffffff16906020019092919050505061148b565b005b6106376114e2565b005b34801561064557600080fd5b5061067a600480360381019080803573ffffffffffffffffffffffffffffffffffffffff1690602001909291905050506116e5565b005b7f5374616b696e670000000000000000000000000000000000000000000000000081565b6000610733600460008473ffffffffffffffffffffffffffffffffffffffff1673ffffffffffffffffffffffffffffffffffffffff16815260200190815260200160002054600360008573ffffffffffffffffffffffffffffffffffffffff1673ffffffffffffffffffffffffffffffffffffffff1681526020019081526020016000205461170490919063ffffffff16565b9050919050565b3373ffffffffffffffffffffffffffffffffffffffff16610759611725565b73ffffffffffffffffffffffffffffffffffffffff161415156107e4576040517f08c379a000000000000000000000000000000000000000000000000000000000815260040180806020018281038252600d8152602001807f4e6f205065726d697373696f6e0000000000000000000000000000000000000081525060200191505060405180910390fd5b80600360008473ffffffffffffffffffffffffffffffffffffffff1673ffffffffffffffffffffffffffffffffffffffff16815260200190815260200160002054101515156108c1576040517f08c379a00000000000000000000000000000000000000000000000000000000081526004018080602001828103825260308152602001807f4c6f636b20616d6f756e742073686f756c6420626520657175616c206f72206c81526020017f657373207468616e2062616c616e63650000000000000000000000000000000081525060400191505060405180910390fd5b806108cb836106a0565b10151515610967576040517f08c379a00000000000000000000000000000000000000000000000000000000081526004018080602001828103825260278152602001807f496e73756666696369656e742062616c616e636520746861742063616e20626581526020017f206c6f636b65640000000000000000000000000000000000000000000000000081525060400191505060405180910390fd5b6109b981600460008573ffffffffffffffffffffffffffffffffffffffff1673ffffffffffffffffffffffffffffffffffffffff1681526020019081526020016000205461175590919063ffffffff16565b600460008473ffffffffffffffffffffffffffffffffffffffff1673ffffffffffffffffffffffffffffffffffffffff16815260200190815260200160002081905550610a118160055461175590919063ffffffff16565b6005819055508173ffffffffffffffffffffffffffffffffffffffff167f44cebfefa4561bee5b61d675ccfd8dc9969fff9cc15e7a4eccccd62af94f9c1182600360008673ffffffffffffffffffffffffffffffffffffffff1673ffffffffffffffffffffffffffffffffffffffff16815260200190815260200160002054610a99866106a0565b60405180848152602001838152602001828152602001935050505060405180910390a25050565b600060016002600082825401925050819055506002549050610ae1336106a0565b8211151515610b7e576040517f08c379a00000000000000000000000000000000000000000000000000000000081526004018080602001828103825260348152602001807f576974686472617720616d6f756e742073686f756c6420626520657175616c2081526020017f6f72206c657373207468616e2062616c616e636500000000000000000000000081525060400191505060405180910390fd5b610bd082600360003373ffffffffffffffffffffffffffffffffffffffff1673ffffffffffffffffffffffffffffffffffffffff1681526020019081526020016000205461170490919063ffffffff16565b600360003373ffffffffffffffffffffffffffffffffffffffff1673ffffffffffffffffffffffffffffffffffffffff168152602001908152602001600020819055503373ffffffffffffffffffffffffffffffffffffffff166108fc839081150290604051600060405180830381858888f19350505050158015610c59573d6000803e3d6000fd5b503373ffffffffffffffffffffffffffffffffffffffff167f204fccf0d92ed8d48f204adb39b2e81e92bad0dedb93f5716ca9478cfb57de0083600360003373ffffffffffffffffffffffffffffffffffffffff1673ffffffffffffffffffffffffffffffffffffffff16815260200190815260200160002054610cdc336106a0565b60405180848152602001838152602001828152602001935050505060405180910390a260025481141515610d0f57600080fd5b5050565b7f526577617264506f6f6c0000000000000000000000000000000000000000000081565b6000600460008373ffffffffffffffffffffffffffffffffffffffff1673ffffffffffffffffffffffffffffffffffffffff168152602001908152602001600020549050919050565b7f476f7665726e616e6365436f6e7472616374000000000000000000000000000081565b6000600360008373ffffffffffffffffffffffffffffffffffffffff1673ffffffffffffffffffffffffffffffffffffffff168152602001908152602001600020549050919050565b610df5611410565b1515610e0057600080fd5b600073ffffffffffffffffffffffffffffffffffffffff166000809054906101000a900473ffffffffffffffffffffffffffffffffffffffff1673ffffffffffffffffffffffffffffffffffffffff167f8be0079c531659141344cd1fd0a4f28419497f9722a3daafe3b4186f6b6457e060405160405180910390a360008060006101000a81548173ffffffffffffffffffffffffffffffffffffffff021916908373ffffffffffffffffffffffffffffffffffffffff160217905550565b600160009054906101000a900473ffffffffffffffffffffffffffffffffffffffff1681565b60003373ffffffffffffffffffffffffffffffffffffffff16610f06611725565b73ffffffffffffffffffffffffffffffffffffffff16141515610f91576040517f08c379a000000000000000000000000000000000000000000000000000000000815260040180806020018281038252600d8152602001807f4e6f205065726d697373696f6e0000000000000000000000000000000000000081525060200191505060405180910390fd5b610f9b83836111d0565b610fed82600360008673ffffffffffffffffffffffffffffffffffffffff1673ffffffffffffffffffffffffffffffffffffffff1681526020019081526020016000205461170490919063ffffffff16565b600360008573ffffffffffffffffffffffffffffffffffffffff1673ffffffffffffffffffffffffffffffffffffffff16815260200190815260200160002081905550611038611776565b905061108c82600360008473ffffffffffffffffffffffffffffffffffffffff1673ffffffffffffffffffffffffffffffffffffffff1681526020019081526020016000205461175590919063ffffffff16565b600360008373ffffffffffffffffffffffffffffffffffffffff1673ffffffffffffffffffffffffffffffffffffffff16815260200190815260200160002081905550505050565b7f456e7653746f726167650000000000000000000000000000000000000000000081565b600080600460008573ffffffffffffffffffffffffffffffffffffffff1673ffffffffffffffffffffffffffffffffffffffff16815260200190815260200160002054148061114d575060008263ffffffff16145b1561115b57600090506111ca565b6111c76005546111b98463ffffffff16600460008873ffffffffffffffffffffffffffffffffffffffff1673ffffffffffffffffffffffffffffffffffffffff168152602001908152602001600020546117a690919063ffffffff16565b6117e490919063ffffffff16565b90505b92915050565b3373ffffffffffffffffffffffffffffffffffffffff166111ef611725565b73ffffffffffffffffffffffffffffffffffffffff1614151561127a576040517f08c379a000000000000000000000000000000000000000000000000000000000815260040180806020018281038252600d8152602001807f4e6f205065726d697373696f6e0000000000000000000000000000000000000081525060200191505060405180910390fd5b6112cc81600460008573ffffffffffffffffffffffffffffffffffffffff1673ffffffffffffffffffffffffffffffffffffffff1681526020019081526020016000205461170490919063ffffffff16565b600460008473ffffffffffffffffffffffffffffffffffffffff1673ffffffffffffffffffffffffffffffffffffffff168152602001908152602001600020819055506113248160055461170490919063ffffffff16565b6005819055508173ffffffffffffffffffffffffffffffffffffffff167f5245d528087a96a64f4589a764f00061e4671eab90cb1e019b1a5b24b2e4c2a882600360008673ffffffffffffffffffffffffffffffffffffffff1673ffffffffffffffffffffffffffffffffffffffff168152602001908152602001600020546113ac866106a0565b60405180848152602001838152602001828152602001935050505060405180910390a25050565b60006113e08260646110f8565b9050919050565b60008060009054906101000a900473ffffffffffffffffffffffffffffffffffffffff16905090565b60008060009054906101000a900473ffffffffffffffffffffffffffffffffffffffff1673ffffffffffffffffffffffffffffffffffffffff163373ffffffffffffffffffffffffffffffffffffffff1614905090565b7f42616c6c6f7453746f726167650000000000000000000000000000000000000081565b611493611410565b151561149e57600080fd5b80600160006101000a81548173ffffffffffffffffffffffffffffffffffffffff021916908373ffffffffffffffffffffffffffffffffffffffff16021790555050565b600060016002600082825401925050819055506002549050600034111515611598576040517f08c379a000000000000000000000000000000000000000000000000000000000815260040180806020018281038252602a8152602001807f4465706f73697420616d6f756e742073686f756c64206265206772656174657281526020017f207468616e207a65726f0000000000000000000000000000000000000000000081525060400191505060405180910390fd5b6115ea34600360003373ffffffffffffffffffffffffffffffffffffffff1673ffffffffffffffffffffffffffffffffffffffff1681526020019081526020016000205461175590919063ffffffff16565b600360003373ffffffffffffffffffffffffffffffffffffffff1673ffffffffffffffffffffffffffffffffffffffff168152602001908152602001600020819055503373ffffffffffffffffffffffffffffffffffffffff167fb4caaf29adda3eefee3ad552a8e85058589bf834c7466cae4ee58787f70589ed34600360003373ffffffffffffffffffffffffffffffffffffffff1673ffffffffffffffffffffffffffffffffffffffff168152602001908152602001600020546116af336106a0565b60405180848152602001838152602001828152602001935050505060405180910390a2600254811415156116e257600080fd5b50565b6116ed611410565b15156116f857600080fd5b6117018161180e565b50565b60008083831115151561171657600080fd5b82840390508091505092915050565b60006117507f476f7665726e616e6365436f6e74726163740000000000000000000000000000611908565b905090565b600080828401905083811015151561176c57600080fd5b8091505092915050565b60006117a17f526577617264506f6f6c00000000000000000000000000000000000000000000611908565b905090565b60008060008414156117bb57600091506117dd565b82840290508284828115156117cc57fe5b041415156117d957600080fd5b8091505b5092915050565b6000806000831115156117f657600080fd5b828481151561180157fe5b0490508091505092915050565b600073ffffffffffffffffffffffffffffffffffffffff168173ffffffffffffffffffffffffffffffffffffffff161415151561184a57600080fd5b8073ffffffffffffffffffffffffffffffffffffffff166000809054906101000a900473ffffffffffffffffffffffffffffffffffffffff1673ffffffffffffffffffffffffffffffffffffffff167f8be0079c531659141344cd1fd0a4f28419497f9722a3daafe3b4186f6b6457e060405160405180910390a3806000806101000a81548173ffffffffffffffffffffffffffffffffffffffff021916908373ffffffffffffffffffffffffffffffffffffffff16021790555050565b6000600160009054906101000a900473ffffffffffffffffffffffffffffffffffffffff1673ffffffffffffffffffffffffffffffffffffffff16630d2020dd836040518263ffffffff167c0100000000000000000000000000000000000000000000000000000000028152600401808260001916600019168152602001915050602060405180830381600087803b1580156119a357600080fd5b505af11580156119b7573d6000803e3d6000fd5b505050506040513d60208110156119cd57600080fd5b810190808051906020019092919050505090509190505600a165627a7a723058200e9b64d7011f14d23ff089deb98c777dedc3b373a7b5aa5b4d15fe51a64260220029",
  "source": "pragma solidity ^0.4.24;\n\nimport \"openzeppelin-solidity/contracts/math/SafeMath.sol\";\nimport \"openzeppelin-solidity/contracts/utils/ReentrancyGuard.sol\";\nimport \"./GovChecker.sol\";\n\n\ncontract Staking is GovChecker, ReentrancyGuard {\n    using SafeMath for uint256;\n\n    mapping(address => uint256) private _balance;\n    mapping(address => uint256) private _lockedBalance;\n    uint256 private _totalLockedBalance;\n    \n    event Staked(address indexed payee, uint256 amount, uint256 total, uint256 available);\n    event Unstaked(address indexed payee, uint256 amount, uint256 total, uint256 available);\n    event Locked(address indexed payee, uint256 amount, uint256 total, uint256 available);\n    event Unlocked(address indexed payee, uint256 amount, uint256 total, uint256 available);\n\n    constructor(address registry) public {\n        _totalLockedBalance = 0;\n        setRegistry(registry);\n    }\n\n    function () external payable {\n        revert();\n    }\n\n    /**\n    * @dev Deposit from a sender.\n    */\n    function deposit() external nonReentrant payable {\n        require(msg.value > 0, \"Deposit amount should be greater than zero\");\n\n        _balance[msg.sender] = _balance[msg.sender].add(msg.value);\n\n        emit Staked(msg.sender, msg.value, _balance[msg.sender], availableBalanceOf(msg.sender));\n    }\n\n    /**\n    * @dev Withdraw for a sender.\n    * @param amount The amount of funds will be withdrawn and transferred to.\n    */\n    function withdraw(uint256 amount) external nonReentrant {\n        require(amount <= availableBalanceOf(msg.sender), \"Withdraw amount should be equal or less than balance\");\n\n        _balance[msg.sender] = _balance[msg.sender].sub(amount);\n        msg.sender.transfer(amount);\n\n        emit Unstaked(msg.sender, amount, _balance[msg.sender], availableBalanceOf(msg.sender));\n    }\n\n    /**\n    * @dev Lock fund\n    * @param payee The address whose funds will be locked.\n    * @param lockAmount The amount of funds will be locked.\n    */\n    function lock(address payee, uint256 lockAmount) external onlyGov {\n        require(_balance[payee] >= lockAmount, \"Lock amount should be equal or less than balance\");\n        require(availableBalanceOf(payee) >= lockAmount, \"Insufficient balance that can be locked\");\n\n        _lockedBalance[payee] = _lockedBalance[payee].add(lockAmount);\n        _totalLockedBalance = _totalLockedBalance.add(lockAmount);\n\n        emit Locked(payee, lockAmount, _balance[payee], availableBalanceOf(payee));\n    }\n\n    /**\n    * @dev Transfer locked funds to governance\n    * @param from The address whose funds will be transfered.\n    * @param amount The amount of funds will be transfered.\n    */\n    function transferLocked(address from, uint256 amount) external onlyGov {\n        unlock(from, amount);\n        _balance[from] = _balance[from].sub(amount);\n        address rewardPool = getRewardPoolAddress();\n        _balance[rewardPool] = _balance[rewardPool].add(amount);\n    }\n\n    /**\n    * @dev Unlock fund\n    * @param payee The address whose funds will be unlocked.\n    * @param unlockAmount The amount of funds will be unlocked.\n    */\n    function unlock(address payee, uint256 unlockAmount) public onlyGov {\n        // require(_lockedBalance[payee] >= unlockAmount, \"Unlock amount should be equal or less than balance locked\");\n        _lockedBalance[payee] = _lockedBalance[payee].sub(unlockAmount);\n        _totalLockedBalance = _totalLockedBalance.sub(unlockAmount);\n\n        emit Unlocked(payee, unlockAmount, _balance[payee], availableBalanceOf(payee));\n    }\n\n    function balanceOf(address payee) public view returns (uint256) {\n        return _balance[payee];\n    }\n\n    function lockedBalanceOf(address payee) public view returns (uint256) {\n        return _lockedBalance[payee];\n    }\n\n    function availableBalanceOf(address payee) public view returns (uint256) {\n        return _balance[payee].sub(_lockedBalance[payee]);\n    }\n\n    /**\n    * @dev Calculate voting weight which range between 0 and 100.\n    * @param payee The address whose funds were locked.\n    */\n    function calcVotingWeight(address payee) public view returns (uint256) {\n        return calcVotingWeightWithScaleFactor(payee, 1e2);\n    }\n\n    /**\n    * @dev Calculate voting weight with a scale factor.\n    * @param payee The address whose funds were locked.\n    * @param factor The scale factor for weight. For instance:\n    *               if 1e1, result range is between 0 ~ 10\n    *               if 1e2, result range is between 0 ~ 100\n    *               if 1e3, result range is between 0 ~ 1000\n    */\n    function calcVotingWeightWithScaleFactor(address payee, uint32 factor) public view returns (uint256) {\n        if (_lockedBalance[payee] == 0 || factor == 0) return 0;\n        return _lockedBalance[payee].mul(factor).div(_totalLockedBalance);\n    }\n}",
  "sourcePath": "/Users/ywshin/Documents/WS/truffle/governance-contract-blueisle/contracts/Staking.sol",
  "compiler": {
    "name": "solc",
    "version": "0.4.24+commit.e67f0147.Emscripten.clang"
  },
  "schemaVersion": "2.0.1",
  "updatedAt": "2019-02-15T07:13:17.626Z"
}